:1000000080311328640008007E14803120007F08AE
:10001000F5009B310E2380319F3127277508200082
:10002000FF007E10090080311528FB01F601F70161
:10003000F801F901FA01EA01EB01EC01A0308400BA
:10004000003085004F309931FB2180312030840011
:10005000013085004C309931FB218031A030840083
:100060000130850045309931FB21803120308400FA
:100070000230850025309931FB21803159308400D0
:100080009E3085004530860002308700203099314F
:10009000F5217E1020009531132DF40074089B315A
:1000A000DC2380317708860001308700011CA828F6
:1000B0000130F2007708033E8600013087007208A5
:1000C00081077608023E8600013087007708043EEB
:1000D00084000130850000080107F200F301F30DF0
:1000E0007708033E8600013087007308803A803C21
:1000F000031D7C2872080102031CB7297708033E00
:100100008600013087008101770886000130870072
:1001100001107708860001308700011FB729770892
:10012000083E86000130870001147708083E8600EB
:100130000130870081167408013A031DA1282000B0
:100140008C177408023A031DB72920000D16B72931
:100150007708083E860001308700011CB729770820
:10016000083E8600013087000110770886000130C4
:100170008700811CB7290130F200770A8600013020
:10018000870072088107770A8600013087007708A8
:10019000023E84000130850000080102031CB729DB
:1001A000770A8600013087008101770886000130D8
:1001B0008700811D11297708860001308700011A08
:1001C000F8287708043E86000130870021300102BC
:1001D000031CF2287708043E8600013087000130B6
:1001E0008102B72977088600013087000116B729F8
:1001F0007708043E8600013087003C300102031876
:100200000B290130F2007708043E86000130870098
:1002100072088107B729770886000130870001122C
:10022000B7297708860001308700011D5829770813
:10023000053E8600013087007708043E84000130C7
:1002400085000008010203182D297708043E860066
:10025000013087000130810244297708043E86007E
:10026000013087007708053E8400013085000008D2
:100270000102031844290130F2007708043E860089
:1002800001308700720881077708053E860001303B
:1002900087007708043E84000130850000080106CD
:1002A000031DB729770886000130870001117329E3
:1002B0007708860001308700811E79297708043E7F
:1002C000860001308700013081027708053E8600F4
:1002D000013087007708043E840001308500000863
:1002E0000102031CB72977088600013087008110BE
:1002F000B7290130F2007708043E860001308700FC
:10030000720881077708043E86000130870077086D
:10031000063E84000130850000080102031CB72955
:100320007708860001308700811077088600013049
:10033000870001137708093E860001308700011508
:10034000760886000130870001147408013A031D05
:10035000AB2920008C117408023A031DB12920003A
:100360008E13F001F00A74089C315E248031770806
:10037000083E860001308700811EE8290130F20026
:100380007708073E860001308700720881077708EA
:10039000073E86000130870005300102031CE82972
:1003A0007708073E86000130870081017708083E04
:1003B00086000130870081127408013A031DE2298A
:1003C00020008C137408023A031DE82920000D1246
:1003D0007708093E860001308700811E0800013041
:1003E000F20077080A3E8600013087007208810714
:1003F00077080A3E8600013087000108463A031D4F
:10040000080077080A3E86000130870081017708DE
:10041000093E860001308700811208002000B301E8
:100420002200A21E242A0130A5070030A63D033079
:100430002602E83003192502031C0800A501A601C5
:100440000030913185210800221E4F2B0130A30777
:100450000030A43D00302402053003192302031CA0
:100460000800A301A40122125108520753072000DB
:10047000B10031082200CE002000B301B30A0430DD
:10048000330203186D2A33352A3E86000130870077
:10049000403FB100413FB20031082200C0072000B8
:1004A00032082200C13D20003335343E8600013041
:1004B0008700403FB100413FB20031082200C2072F
:1004C000200032082200C33D01302000B100310875
:1004D000B30704303302031C432A0330A00000306A
:1004E000A100220041082000A301A3072200400828
:1004F0002000A201A20791314E2182312000210863
:100500002200C101C107200020082200C001C0074D
:1005100003302000A0000030A1002200430820008A
:10052000A301A307220042082000A201A2079131E3
:100530004E218231200021082200C301C307200080
:1005400020082200C201C20741084302031DAA2A53
:100550004008420203184C2B1E30223E8600013018
:10056000870042092000B100220043092000B200A8
:10057000B10A0319B20A403F31072200BE00413FD1
:100580002000323D2200BF0002304C020318E92A4D
:1005900001302000B10031082200CC074C08013A9C
:1005A000031DD62AF430C8000130E12A4C08023A73
:1005B000031DE92A4E08013A031DE32A3230C80020
:1005C0000030C900E92A28082A3EC8000030293D29
:1005D000C90049083F02031DEF2A48083E02031CD8
:1005E000012B01302000B10031082200CD0703307B
:1005F0004D02031C4C2BCD010130913185218231FC
:100600004C2B2200CD010A30500203180D2B013073
:100610002000B10031082200D0070A305002031C2C
:100620004C2BA2152000A201A20A01309B31792394
:1006300082312000A201A20A02309B31792382314B
:100640002200221F2A2B22133F08A901A9073E08D6
:10065000A801A807A21F4C2BA2133F08A901A907B4
:100660003E08A801A8074E082000B100B2013108D9
:10067000A0003208A1003230A2000030A3009D315A
:10068000DD258231200021082200C901C907200090
:1006900020082200C801C8079D3188250800A21C37
:1006A0005E2B2219552B2215A2119A312822823154
:1006B000013A031D0800220022160800221D08002E
:1006C0002211A215CD01CC01A801A9012213A21368
:1006D000BE01BF019D31882582312000A201A20AFE
:1006E00001309B31792382312000A201A20A02301D
:1006F0009B31792308002000E90069088731EC2745
:10070000833120006C08860001308700011C08003E
:100710006908013A031D982BE701E70A0C1F0C1A20
:10072000922BE7016C088600013087006708A72B31
:100730006908023A031DAA2BE801E80A0C1C8D186F
:10074000A22BE8016C088600013087006808811040
:10075000031D81146C08860001308700811C742CF5
:100760006C088600013087000119D72B0130E500A5
:100770006C08023E860001308700650881076C081E
:10078000023E86000130870005300102031C08008C
:100790006C08023E86000130870081016C088600EB
:1007A00001308700011569088A314A2208002000BB
:1007B0006C088600013087008119042C6C08033E08
:1007C0008600013087000130810741310318810A1A
:1007D0006C08033E860001308700403FE500413F42
:1007E000E60000306602963003196502031C08001B
:1007F0006C08033E8600013087000030C03FC13FD7
:10080000690894311D24080020006C08860001301E
:100810008700011A422C6C08053E860001308700D3
:100820000130810741310318810A6C08053E8600BA
:1008300001308700403FE500413FE600003066029E
:10084000963003196502031C08006C08053E8600FB
:10085000013087000030C03FC13F6C088600013086
:100860008700011601309A31382283312100A01E01
:10087000080064302000A9000030AA000230953141
:100880006B25080020006C08860001308700811A63
:1008900008006C08073E86000130870001308107A0
:1008A00041310318810A6C08073E86000130870039
:1008B000403FE500413FE600013066022C3003195D
:1008C0006502031C08006C08073E860001308700A3
:1008D0000030C03FC13F6C088600013087008116A0
:1008E00000309A313822080020006C088600013060
:1008F0008700011D08000130E5006C08023E8600FB
:1009000001308700650881076C08023E86000130CF
:10091000870005300102031C08006C08023E8600B7
:100920000130870081016C088600013087000111C9
:100930006C08033E8600013087000030C03FC13F95
:100940006C0886000130870081116C08053E860026
:10095000013087000030C03FC13F6C088600013085
:10096000870001126C08073E8600013087000030C6
:10097000C03FC13F6C0886000130870081126908C2
:1009800089316A21833100309A31382208002000F1
:100990003E08C4003F08C5004008C6000310450DCE
:1009A000460DC7004708CA004108C4004208C500F8
:1009B0004308C6000310450D460DC7004708C9008F
:1009C0004A080319EF2C49084A020318F62C4A0377
:1009D000FF3A4907C40019304402031CF62C4108B1
:1009E000BE004208BF004308C000080049080319C0
:1009F00008004A0849020318052D4903FF3A4A072F
:100A0000C40019304402031808000630C40044082A
:100A1000C800C01BC817C31B4817BF17FF30BE054F
:100A2000FF30BF050030C005C217FF30C105FF30E1
:100A3000C2050030C30549084A020318412D0130A0
:100A4000C135C20DC30D890B202D0130C9024908E3
:100A50004A0603193C2D0130C8024808073903191A
:100A60003C2D1F2D0130C036BF0CBE0C890B332D21
:100A70000130C4004408CA074A0849060319662D14
:100A8000322D4A0849020318662D0130BE35BF0DCC
:100A9000C00D890B462D0130CA0249084A060319C8
:100AA000622D0130C802480807390319622D452D0F
:100AB0000130C336C20CC10C890B592D0130C40062
:100AC0004408C9074A084906031D582DC81F782D38
:100AD000FF30BE06FF30BF06FF30C0060130BE0744
:100AE000003003180130BF07003003180130C00781
:100AF000481F8A2DFF30C106FF30C206FF30C306F3
:100B00000130C107003003180130C207003003185C
:100B10000130C307C8013E08C1073F08C23D400875
:100B2000C33DC31FA52DFF30C106FF30C206FF30F5
:100B3000C3060130C107003003180130C20700307E
:100B400003180130C307C801C80A4108A0004208C1
:100B5000A1004308A2004A08C4004408A3004808B2
:100B6000C5004508A40097313A2720002008BE00A0
:100B70002108BF002208C000080021003C1C08001A
:100B80009B31CB238531200021082004031D080060
:100B9000E801E80A0C1F0C1AD12D0C1C8D18D12D60
:100BA000E80168082100BC13031DBC17BC1B3C1BDB
:100BB000DE2DBE01BF01BD14BC110800BD183C1BD9
:100BC000F52D0130BE070030BF3D0230BC3E86002F
:100BD0008701403F4306031DEF2D413F4406031D9F
:100BE000672EBE01BF01BD10672EBE01BF01BD1043
:100BF0003C193C1B162E3C11BC11BC103B309E31E5
:100C0000BC268531210056080319122E36309D313D
:100C1000082585313B309D31082585313A309D319D
:100C20000825853197319B278531672EBC1D522EB3
:100C30008931D92185312100BC1C672EBC10BD1221
:100C4000C601C70188312A208531203020008D0659
:100C50002100BD14BD1D392E003044020B30031994
:100C60004302031C372E0A30C3000030C400C00109
:100C7000672E01302000E70067082100C007400808
:100C8000023A031D672EC001C101C20100304402B7
:100C9000C830031943020318672E0A30C307003017
:100CA000C43D672EBC1DBC18672EBC15BD16363062
:100CB0009D31082585313B309D31082585313A30FD
:100CC0009D310825853134309D310825853121003D
:100CD000BC1D882E0130C1070030C23D0530BC3E2E
:100CE00086008701403F643A031D782E413F003A59
:100CF000031D882EC101C201C001003044020B3027
:100D000003194302031C882E0A30C3020030C43B7F
:100D1000BD1E08000130C6070030C73D75304702D0
:100D2000303003194602031C0800C601C701BC117C
:100D3000BC1008002000DE011F3090316720863192
:100D4000AA3A031D0C2F0030903167208631200015
:100D5000DD006D080C3E8600023087005D088100D2
:100D600001309031672086312000DD006D080D3E96
:100D70008600023087005D088100023090316720D4
:100D800086312000DD006D080E3E860002308700AF
:100D90005D08810020309331422386312000DD0040
:100DA0005D08DE005E08DD006D08153E860002303D
:100DB00087005D0881005E08DD006D08163E860034
:100DC000023087005D0881005E08DD006D08173E77
:100DD0008600023087005D0881006D080C3E8600A9
:100DE000023087000108FF3A031D08006D080D3E20
:100DF0008600023087000108FF3A031D08006D08D5
:100E00000E3E8600023087000108FF3A031D0800ED
:100E10002100A015A016080020309331422386310E
:100E20002000DD005D08DE00FF30DD005D082400ED
:100E3000A000FF302000DD005D082400A100FF308D
:100E40002000DD005D082400A200FF302000DD004E
:100E50005D082400A300FF302000DD005D082400B1
:100E6000A400FF302000DD005D082400A500AA30AA
:100E70002000DD005D082400BF0020005E08DD00CA
:100E80006D08153E8600023087005D0881005E080F
:100E9000DD006D08163E8600023087005D08810087
:100EA0005E08DD006D08173E8600023087005D0891
:100EB00081008B139F31D1278B172100A015A0161D
:100EC00008002300AF08031DAD2F2000A40101304E
:100ED0008C312F2487312000A20101309A31E42285
:100EE00087312000A20101309B311D238731200072
:100EF000A40102308C312F2487312000A20102305E
:100F00009A31E42287312000A20102309B311D2357
:100F1000873120006D08093E86000230870081017C
:100F20006D080B3E86000230870081016D080F3E80
:100F300086000230870081016D08113E8600023074
:100F4000870081016430A9000030AA00013095318A
:100F50006B2587318F314327080023002F08203A63
:100F6000031DC82F20006D08093E8600023087004F
:100F700081016D080B3E86000230870081016D08FB
:100F8000113E86000230870081018F31432708001F
:100F900023002F08013A031DD12F01308C31B824D2
:100FA000080023002F08113A031DDA2F0130913178
:100FB000BD21080023002F08023A031DE32F023051
:100FC0008C31B824080023002F08213A031D0800A3
:100FD00002309131BD2108002000A1002108013A12
:100FE000031DF72F5430A0002008EC000800210852
:100FF000023A031D0800DC30A0002008EC000800C5
:101000002000A9000530A4002408A600A701A8011B
:10101000313029020318282829080F39A400240890
:10102000A7002908A4000430A436890B142824083A
:101030000F39A5002508A8000A30A4002408A00044
:1010400028089C31002420002707A5002508A600B9
:101050002608080021003C1F3D282300A008031D8E
:101060003A282108643A031D3A289031B120210022
:10107000BD1508002100BD1108002300A008031DB4
:101080007B282108023A031D7B282C08FF3A031D08
:1010900055282D08FF3A031D55282E08FF3A031D39
:1010A000552800002100BD11080020006D080C3EED
:1010B00086000230870023002C080106031D08006B
:1010C00020006D080D3E86000230870023002D08A9
:1010D0000106031D080020006D080E3E8600023048
:1010E000870023002E080106031D080087316127B1
:1010F0002100BD15080023002008FF3A031D8628A3
:101100002108023A031D8628000008002300A008D9
:10111000031D90282108653A031D9028000008004F
:101120002100BD1108002000E40064089C318624E1
:10113000883120006A0886008701811C08006A083F
:10114000860087010130810741310318810A6A084E
:1011500086008701403FE200413FE3001630630212
:10116000123003196202031C08006A088600870116
:101170000030C03FC13F0130E2006A0886008701AD
:10118000620881076A08860087016A088400850171
:1011900000080102031C08006A088600870181011B
:1011A0006A08860087018110A20164089B311D2313
:1011B00088312000A20164089A31E422883120009D
:1011C000DD0164088831FE2088312000A201A20AD6
:1011D00064089B31692388312000A20164089B3197
:1011E000592388318F314327883164302000A9008A
:1011F0000030AA00013095316B2508002000E10085
:10120000E001E00A6108FF3E890A08290310E00DA9
:10121000FF3E031D06296108DE006D080B3E8600B7
:10122000023087005E0881002030933142238831EC
:101230002000DE006108143E6D07DF005F088600B5
:10124000023087005E0881006108143E6D07DE00F1
:101250005E088600023087000108DF006D08093E45
:101260008600023087005F08810061081A3E6D0722
:10127000DE005E088600023087000108DF006D088E
:10128000113E8600023087005F0881005D08013A48
:10129000031D5A296D080F3E8600023087000108A1
:1012A0006004DE006D080F3E8600023087005E0895
:1012B000810008006D080F3E86000230870060093B
:1012C0000105DE006D080F3E8600023087005E08D3
:1012D000810008002000E4006C08860001308700CF
:1012E000811F08006C0886000130870081136C089C
:1012F000860001308700011FB5296C0A8600013085
:101300008700011C08006C0A86000130870001106C
:10131000A201A20A64089B31992389312000A2010D
:1013200064089B3189238931200064081A3E6D07C7
:10133000E20062088600023087000108E3006D08C1
:10134000113E860002308700630881006C08860029
:10135000013087000030011B0130DD006408883156
:10136000FE2089318F31432708002000A201A20A04
:1013700064089B31692389312000A20164089B31F4
:10138000592389312000AA01AB0164089631DB267C
:10139000893120006C088600013087000030011B75
:1013A0000130DD0064088831FE2089318F31432708
:1013B000080020000D18E029E9299C319A24893180
:1013C00020000D1CE62921002D1DDD299931E52184
:1013D00089313B309E31BC268931210056080319E2
:1013E000080020000E12FF30A4002408FA00FE2995
:1013F00021002D19012A9C319A24893120000E19CF
:10140000F82921002D19442A9C31722489319C31FC
:10141000F12489317A082000A40024082100D20098
:101420002000A501210052082000250203182A2AC5
:101430009C31F12489317A082000A4002508A03EBF
:10144000860001308700240881000130A4002408B0
:10145000A507122A9C31F12489317A082000A400C2
:1014600024082100D1009C31F12489317A08200020
:10147000A40024082100CD0020000E162100CD1B61
:101480007B14BC11BC14462A20000E169931E521AC
:10149000210008002000E300E201E20A6308013AAB
:1014A000031D5C2A03102300D51D0314003003180C
:1014B00001302000E200692A6308023A031D692A0C
:1014C00003102300C61D0314003003180130200050
:1014D000E2006208013A031D08006C088600013032
:1014E000870081176430A9000030AA0001309531CF
:1014F0006B258A3120006C08860001308700011BB3
:10150000AA2A6C088600013087000117A201A20AEE
:1015100063089A31E4228A312000A201A20A6308FA
:101520009B3169238A312000A201A20A63089B3102
:1015300059238A3120006C08860001308700003072
:10154000011B0130DD0063088831FE208A318F31B4
:101550004327080020006C08860001308700011333
:101560006C088600013087000030011B0130A200AA
:1015700063089A31E42208002000E600E501E50A4C
:1015800066089C3124248A3120006608013A031D34
:10159000D02A00302300561901302000E500DA2A55
:1015A0006608023A031DDA2A003023004719013089
:1015B0002000E5006B08083E860001308700011D11
:1015C000022B6508013A031D08006B08083E8600DF
:1015D0000130870001116B08083E8600013087004A
:1015E000811CF52AA401A40AF72A2000A401660898
:1015F0008C312F2420006B08093E860001308700C3
:10160000011108006B08083E860001308700011EAA
:1016100008006508013A031D08006B08083E8600B3
:101620000130870001126B08083E860001308700F8
:10163000811D292BE201E20A66089231BA228A3121
:1016400064302000A9000030AA00013095316B25DC
:1016500008002000E20166089231BA22080020004A
:10166000A600A801A7012200221E0800C030200009
:10167000A4002408A00026089E3139268B312000C2
:1016800021082200C501C507200020082200C4014E
:10169000C4072000A8010530280203187A2B28353A
:1016A0002A3E860001308700403FA400413FA5004C
:1016B0002200450820002502031D622B2200440859
:1016C000200024020318722B28352A3E86000130A0
:1016D000870022004408C03F4508C13F2000A70101
:1016E000A70A7A2B0130A4002408A8070530280295
:1016F000031C4F2BA708031D0800A8010530280272
:10170000031808002835343E860001308700403F2A
:10171000A400413FA500250822004502031D942B8B
:1017200020002408220044020318A22B20002835A0
:10173000343E86000130870022004408C03F45083F
:10174000C13F080001302000A4002408A8077E2B18
:1017500020004B08CF004C08D0004D08D1000310EA
:10176000500D510DD2005208D800D808031DC12BCE
:101770000030CE000030CD000030CC000030CB0077
:1017800008004B08CF004C08D0004D08D10017309E
:10179000D136D00CCF0C890BC82B4F08D200520881
:1017A000D300CC17FF30CB05FF30CC050030CD0582
:1017B0004B08D4004C08D5004D08D600D7018E3018
:1017C000D802D81FFF2B5808803A8F3E0318F12B00
:1017D0000030CE000030CD000030CC000030CB0017
:1017E00008000130D736D60CD50CD40C890BF22B5F
:1017F0000130CF004F08D8070319182CF12B1830EF
:101800005802031C152C0030CE000030CD000030F3
:10181000CC000030CB0008000130D435D50DD60DFA
:10182000D70D890B0D2C0130D802D808031D0C2CC4
:1018300053080319262CD409D509D609D709D40A87
:101840000319D50A0319D60A0319D70A5708CE0077
:101850005608CD005508CC005408CB0008002000E5
:10186000A60026089C3124248C3120002608A500DF
:10187000760A860001308700250881002408013A95
:10188000031D8C2C6B088600013087008116A20195
:10189000260896311F268C3100309A31F2228C3185
:1018A00020006B0886000130870081140730A500F6
:1018B0006B08023E860001308700250881006B0816
:1018C000860001308700011B08006B08860001308C
:1018D00087000117A001A00A26089D316C258C31D4
:1018E00000309C31C42420006B08053E8600013086
:1018F00087000108A5006B08043E860001308700C0
:10190000250881002030A5006B08043E86000130C8
:1019100087002508810008006B08860001308700D9
:1019200081126B08063E8600013087000108A50081
:101930006B08043E860001308700250881006B0893
:1019400086000130870081146B0886000130870013
:1019500081116B0886000130870001120730A50055
:101960006B08023E860001308700250881000800D0
:101970002000E30063089C3137248C31790886000D
:1019800087010118F72C23003008803A031DD52C5D
:101990002000AA01AA0A230031082000E200620800
:1019A000AB0063089631DB268C317908860087010D
:1019B00001142000A201A20A63089B311D238C316F
:1019C0002000A201A20A63089B3169238C31200008
:1019D000A201A20A63089B3159238C317908860041
:1019E00087010030011801302000DD00332D230075
:1019F0003008803A031D0D2D2000AA01AA0A2300F9
:101A000031082000E2006208AB0063089631DB2653
:101A10008C312000DD01DD0A332D79088600870135
:101A200001102000A20163089B311D238C3120008E
:101A3000A201A20A63089B3169238C3179088600D0
:101A400087010030011801302000A20063089B319B
:101A500059238C312000AA01AB0163089631DB26A3
:101A60008C312000DD0163088831FE208C31643028
:101A70002000A9000030AA00013095316B258C317F
:101A80008F31432708002100571C08005719652D86
:101A90000130D8070030D93D01305902F430031924
:101AA0005802031C08009B313B238D31013A031D72
:101AB0005F2D2100D801D901571557120800F430C5
:101AC0002100D8000130D90008000130D8070030CB
:101AD000D93D00305902053003195802031C080093
:101AE000D801D90157110A30D73E86008701083046
:101AF000D73E84008501403F00072000B10001313E
:101B0000413F003DB200B236B10C31082100DD008A
:101B1000200032082100DE005830E5000230E600E7
:101B20002630E7000230E800D71CAE2D66085E02C2
:101B3000031D9C2D65085D02031CC62D013020008D
:101B4000B10031082100DA0703305A02031CC82D06
:101B5000DA0100309131F7218D31C82D5E0868021D
:101B6000031DB42D5D086702031CC62D0130200043
:101B7000B10031082100DA0703305A02031CC82DD6
:101B8000DA0101309131F7218D31C82D2100DA01C0
:101B90002100D71C57165E082000B1006D08183EC2
:101BA0008600023087003108810021005D08200096
:101BB000B1006D08193E86000230870031088100AF
:101BC0002100DF01E001E101E2010800200031080D
:101BD000B4003208B5003308B6000310350D360DD9
:101BE000B7003708BC00BC08031DFD2D0030AE0057
:101BF0000030AF000030B00008002E08B4002F08FD
:101C0000B5003008B6000310350D360DB7003708A3
:101C1000BD00BD08031D132E0030AE000030AF0024
:101C20000030B00008000030B9000030BA000030C9
:101C3000BB0089303D07B4003408BC023108B40051
:101C40003208B5003308B6001030B636B50CB40C07
:101C5000890B252E3408B7003708BD002E08B400C4
:101C60002F08B5003008B6001030B636B50CB40CED
:101C7000890B352E3408B7003708BD068030B40014
:101C80003408BD05B217FF30B105FF30B205003092
:101C9000B305AF17FF30AE05FF30AF050030B0051C
:101CA0001830B4003408B8000130B935BA0DBB0D96
:101CB000890B552E30083302031D642E2F08320283
:101CC000031D642E2E083102031C6D2E2E08B10256
:101CD0002F08B23B3008B33B39140130B135B20D97
:101CE000B30D890B6E2E0130B802031D542E390836
:101CF000A0003A08A1003B08A2003C08B400340848
:101D0000A3003D08B5003508A40097313A2720000C
:101D10002008AE002108AF002208B0000800200013
:101D20002E08B4002F08B5003008B6000310350D9A
:101D3000360DB7003708B800B808031DA62E0030CE
:101D4000AE000030AF000030B00008003108B40031
:101D50003208B5003308B6000310350D360DB70054
:101D60003708BD00BD08031DBC2E0030AE0000309A
:101D7000AF000030B00008003D087B3EB4003408DE
:101D8000B8072E08B4002F08B5003008B600103090
:101D9000B636B50CB40C890BC82E3408B70037081A
:101DA000BD003108B4003208B5003308B600103069
:101DB000B636B50CB40C890BD82E3408B7003708EA
:101DC000BD068030B4003408BD05AF17B217FF3030
:101DD000B105FF30B2050030B3050030B900003066
:101DE000BA000030BB000730B4003408BC002E1C21
:101DF000FF2E3108B9073208BA3D3308BB3D013028
:101E0000B036AF0CAE0C890B002F0130B135B20DDE
:101E1000B30D890B062F0130BC02031DF72E0930CC
:101E2000B4003408BC002E1C1B2F3108B90732083F
:101E3000BA3D3308BB3D0130B036AF0CAE0C890B58
:101E40001C2F0130BB36BA0CB90C890B222F013084
:101E5000BC02031D132F3908A0003A08A1003B085B
:101E6000A2003808B4003408A3003D08B5003508C6
:101E7000A40097313A2720002008AE002108AF00C7
:101E80002208B000080021003C1C08003C1514305A
:101E9000C3000030C40063302000A00020082300ED
:101EA000A00002302000A00020082300A100200094
:101EB0006D088600023087000230423F2300A200F6
:101EC00020006D088600023087000230433F230067
:101ED000A30020006D088600023087000230443FD6
:101EE0002300A40020006D08860002308700023025
:101EF000453F2300A50020006D08860002308700C2
:101F00000230463F2300A60020006D088600023004
:101F100087000230473F2300A70020006D0886009D
:101F2000023087000230483F2300A80020006D08DF
:101F30008600023087000230493F2300A9002000BC
:101F40006D0886000230870002304A3F2300AA0055
:101F500020006D0886000230870002304B3F2300CE
:101F6000AB0020006D0886000230870002304C3F35
:101F70002300AC0020006D0886000230870002308C
:101F80004D3F2300AD0020006D0886000230870021
:101F900002304E3F2300AE0020006D088600023064
:101FA000870002304F3F2300AF0020006D088600FD
:101FB000023087000230503F2300B00020006D083F
:101FC0008600023087000230513F2300B10020001C
:101FD0006D088600023087000230523F2300B200B5
:101FE00020006D088600023087000230533F230036
:101FF000B300D2302000A00020082300B400080065
:102000000334163417341E341F3420342A342B344E
:102010000B340C340D340E340F34103411341234AC
:10202000133414340A341534213422341834193456
:102030001A341B341C341D34233424342534263400
:1020400029342C342D342E34003401340234073436
:10205000083409340634043405342734283407346A
:102060000734303487346B34F8347F343F340934E8
:1020700000345C34A734623486348334033422342D
:10208000F83400344434B634103418341D341C345D
:10209000C7340034B234EA340A34003411345934C9
:1020A000883431340B342F342E3406340434053460
:1020B00000343034D334913441340034FE34FE34AF
:0C20C000FE34FE34FE34FE34FE34FE34E8
:1020CE002000A200A101A3013030230092002000C5
:1020DE002208230091001513151414082000A000E7
:1020EE002008A100230013082000A0002008A30050
:1020FE0023080800F20072089C314A249031210016
:10210E005008860001308700011808005008093E6B
:10211E00860001308700811A0800500886000130C1
:10212E00870001145008093E860001308700811691
:10213E0020000D1DAA287608023E86000130870079
:10214E008101810A08007608023E86000130870070
:10215E008101080023002C082000AD006D080C3E04
:10216E008600023087002D08810023002D082000F4
:10217E00AD006D080D3E8600023087002D088100EF
:10218E0023002E082000AD006D080E3E86000230A2
:10219E0087002D0881006430A9000030AA000130AC
:1021AE0095316B25903121003C13A01EE0282400B0
:1021BE0044152400441408002000E3006530230079
:1021CE002902031CF02864302000E100610823007E
:1021DE00A90029082000E1006D08093E86000230A2
:1021EE008700610881006308E1006D080B3E8600E0
:1021FE0002308700610881006D08093E86000230BA
:10220E0087000108E1006308143E6D07E2006208D2
:10221E008600023087006108810063089E31DE2649
:10222E0008002000A5002100571D0800F0302000F6
:10223E00A4002408A00025089E31392691312000E3
:10224E0021082100E401E407200020082100E30119
:10225E00E30764086002031D362963085F02031852
:10226E003F296408E001E0076308DF01DF0708008B
:10227E0064086202031D4529630861020318080001
:10228E006408E201E2076308E101E10708002000AB
:10229E00A601A7012108200403197E29A501A50A7C
:1022AE00A11B63290130A035A10D890B5A290130DC
:1022BE00A4002408A50757290130A635A70D890BC0
:1022CE00642921082302031D6E2920082202031C03
:1022DE0075292008A2022108A33B26140130A1363D
:1022EE00A00C890B76290130A502031D632927084E
:1022FE00A101A1072608A001A00708002000B00038
:10230E003008013A0030031D0130AE002E08AF0038
:10231E0030082200A212031DA21620002F08220050
:10232E00A211031DA21520003008AE002E082200B7
:10233E00A70020003008013A031DA929023093316D
:10234E00D2239131200030080A3EAE002E08A200A2
:10235E00633096311F26913120002F089D31A42520
:10236E00913120002F089B31002308002000E60049
:10237E0066089C3137249131790886008701011C4B
:10238E00D02924004414200066089031E3209131B6
:10239E00E22920006608143E6D07E40064088600FA
:1023AE00023087000108E5006D08093E8600023004
:1023BE00870065088100200066081A3E6D07E4005C
:1023CE0064088600023087000108E5006D08113EA2
:1023DE00860002308700650881008F314327080090
:1023EE002000B0003008013A0030031D0130AE006D
:1023FE002E08AF0030082100D710031DD71420007F
:10240E002F0821005712031D571620003008013ADD
:10241E00031D162A01309331D2239131222A200036
:10242E00B008031D222A6430A9000030AA00023031
:10243E0095316B259131200030080A3EAE002E08F2
:10244E00A200633096311F26913120002F089D3156
:10245E00A425913120002F089B3100230800200075
:10246E00A40024089D31C0259231780886000130E1
:10247E008700811C0800780A860001308700013031
:10248E00810741310318810A780A860001308700DE
:10249E00403F2000A200413FA30000302302323013
:1024AE0003192202031C0800780A860001308700F7
:1024BE000030C03FC13F2408013A031D692A08308D
:1024CE008C0608002408023A031D702A80308E06FE
:1024DE0008002408633A031D080020308D0608000A
:1024EE0020008E100E100E160A30A0000030A10033
:1024FE009F310127923120000E120A30A0000030C9
:10250E00A1009F310127923120000E162830A00025
:10251E000030A1009F310127923120000E12303081
:10252E00A6002608FA009E2A9C319A249231200099
:10253E000E1DA42A21002D1D9B2A9931E5219231D1
:10254E009C3172249231AE2A9C319A249231200011
:10255E000E1DB42A21002D1DAB2A9931E521200034
:10256E000E100E1608002000E40064089C3124248E
:10257E00923120006208013A031DD02A6B088600B2
:10258E000130870081156B088600013087008114A9
:10259E0008006B08860001308700811D08006B085B
:1025AE0086000130870081106B088600013087009D
:1025BE008111A001A00A00309D313A2592312000F0
:1025CE006B08043E8600013087000108E3006B08AB
:1025DE00053E86000130870063088100DD01DD0ABB
:1025EE0064088831FE2092318F3143270800200085
:1025FE00A501A5012030250203181A2B25089031BC
:10260E00672092312000A4002508203E860002306B
:10261E008700240881000130A4002408A50720307B
:10262E002502031C052B6D08860002308700023040
:10263E004C3F2400A00020006D0886000230870069
:10264E0002304D3F2400A10020006D0886000230AC
:10265E00870002304E3F2400A200441D3A2B441145
:10266E002100A011A0128B139A319A2292319F3120
:10267E00D1278B1708002000D9000030DA00E03097
:10268E00DB004130DC000030AE00C830AF0042301D
:10269E00B0005A08B1005B08B2005C08B3008D317F
:1026AE00E625933120002E08DA002F08DB003008D3
:1026BE00DC005908E03EA800FF3003180030A900E6
:1026CE009E319A26933120002808B1002908B200C5
:1026DE002A08B3005A08AE005B08AF005C08B000D1
:1026EE008D31E625933120002E08CB002F08CC002B
:1026FE003008CD008B31A82320004B03FF3A643EF7
:10270E0008002100B01C08000130B1070030B23DB6
:10271E0037083202031D952B36083102031C0800C0
:10272E00B101B201B01220008D1D9F2B2100B016F9
:10273E002100B01ACB2BB308031DC72BB01DB52B30
:10274E00B01134082000A00020082100B300390881
:10275E00B701B7073808B601B6070800301EC52BFB
:10276E00301235082000A00020082100B3003B08DD
:10277E00B701B7073A08B601B6070800B01008004F
:10278E00B01620008D150800B01220008D110130FA
:10279E002100B30208002000AD002D08013A031DF0
:1027AE00E82B9B31A9239331013A031D002C2C30C9
:1027BE002000A9000130AA000A3095316B25933113
:1027CE00002C20002D08023A031DFB2B2C30A900F3
:1027DE000130AA00053095316B259331760A8600BB
:1027EE00013087000108052C20002D08033A031D37
:1027FE00082C01309431BD24933102309431BD2424
:10280E0093312000A20101309F31792793312000AE
:10281E00A20102309F31792793312100201A08003E
:10282E002C10AC102C15A801A90108002000A50041
:10283E00A401A40A2508013A031D2F2C031023001E
:10284E00D51D03140030031801302000A4003C2CC9
:10285E002508023A031D3C2C03102300C61D031449
:10286E000030031801302000A4002408013A031D93
:10287E0008006C08860001308700811F08006C0874
:10288E0086000130870081156C0A860001308700B2
:10289E0001146C088600013087000117A201A20AFC
:1028AE0025089A31E42294312000A201A20A2508BB
:1028BE009B31992394312000A201A20A25089B3155
:1028CE00892308002000A601A11F742CA009A109CC
:1028DE00A00A0319A10AA601A60AA31F7F2CA2090A
:1028EE00A309A20A0319A30A0130A4002408A6060C
:1028FE00A701A801210820040319AE2CA501A50AE1
:10290E00A11B932C0130A035A10D890B8A2C01300F
:10291E00A4002408A507872C0130A735A80D890B24
:10292E00942C21082302031D9E2C20082202031C36
:10293E00A52C2008A2022108A33B27140130A136A2
:10294E00A00C890BA62C0130A502031D932C260882
:10295E000319B62CA709A809A70A0319A80A28085B
:10296E00A101A1072708A001A00708002000A500CB
:10297E0025089C312424943120006B0886000130F8
:10298E008700811E08006B088600013087008110C9
:10299E006B0886000130870081116B0886000130BC
:1029AE00870001126B088600013087000113073083
:1029BE00A4006B08023E86000130870024088100C7
:1029CE006B08063E8600013087000108A4006B08E4
:1029DE00043E8600013087002408810076088600B8
:1029EE00013087000114A001A00A25089D313A2567
:1029FE0094312000A201A20A250896311F26943197
:102A0E002000A20125089B311D2394312000A20134
:102A1E0025089A31E42208009B314A2395319B31D7
:102A2E00EE23953186319A2695319A31A62295312B
:102A3E009931C32195319931CF2195319931EA21BF
:102A4E0095319A31102295319C31DA2495319A3193
:102A5E00D72295319931C62195319C31AF249531CC
:102A6E002100201C422D05308B312F23953109304A
:102A7E009131182195312100481C372D481096317F
:102A8E007D2695319C31122495312100201C372D45
:102A9E009E311A2695319A31B2229531933188237F
:102AAE0095319931D221953182310E2295319A315B
:102ABE006D2295319A31402295319931C921953146
:102ACE009A3118229531372D2000AC000A30A00023
:102ADE000030A1002A08A301A3072908A201A2071A
:102AEE0094316924953120002108AA01AA072008F3
:102AFE00A901A9072100301C0800B0189C2DB014A4
:102B0E00B101B20120002C08AB002B082100B3004C
:102B1E0020002A082100B701B7072000290821004C
:102B2E00B601B60720008D150800B019B02DB015EE
:102B3E0020002C08AB002B082100B40020002A082E
:102B4E002100B901B907200029082100B801B807F2
:102B5E000800301A0800301620002C08AB002B0895
:102B6E002100B50020002A082100BB01BB07200070
:102B7E0029082100BA01BA0708002000DB00003046
:102B8E00DC00E030DD004130DE000030AE00C83049
:102B9E00AF004230B0005C08B1005D08B2005E08C4
:102BAE00B3008D31E625953120002E08DC002F086C
:102BBE00DD003008DE005B08D900DA01D909DA0938
:102BCE00D90A0319DA0A5908643EA80000305A3DA2
:102BDE00A9009E319A26953120002808B1002908B7
:102BEE00B2002A08B3005C08AE005D08AF005E08B4
:102BFE00B0008E318F26953120002E08C1002F088F
:102C0E00C2003008C3000030BE000030BF004230AA
:102C1E00C0008431C724953120003E08CB003F0808
:102C2E00CC004008CD008B31A82320004B080800B3
:102C3E002000A30023089D31C02596312000A20854
:102C4E00031D3B2E2308013A031D2F2E8C15080061
:102C5E002308023A031D352E8E1708002308633A07
:102C6E00031D08008D1608002208013A031D512E7F
:102C7E002308013A031D452E8C1108002308023A41
:102C8E00031D4B2E8E1308002308633A031D080004
:102C9E008D12080022080A3A031D732E780886004A
:102CAE00013087008110780A8600013087000030DD
:102CBE00C03FC13F2308013A031D672E8C15080043
:102CCE002308023A031D6D2E8E1708002308633A5F
:102CDE00031D08008D16080022080B3A031D08007C
:102CEE007808860001308700811408002100201822
:102CFE00AF2E0130A2070030A33D0230A03E860069
:102D0E008701403F963A031D8E2E413F003A031D28
:102D1E00C72EA201A301201401309A314822963108
:102D2E0001309A315922963132302000A9000030FC
:102D3E00AA00033095316B25963121002016013003
:102D4E009D31A425963101309B3100239631C72E3B
:102D5E0001302100A6070030A73D0630A03E8600B8
:102D6E008701403F643A031DBE2E413F003A031DCA
:102D7E00C72EA601A701A01CC62EA010C72EA014F8
:102D8E0001302100A8070030A93D0830A03E860082
:102D9E008701403F323A031DD62E413F003A031DB4
:102DAE000800A801A90108002000AE002E089C31E1
:102DBE008624963120006A0886008701011C0800CF
:102DCE002A08013A003003190130AC006A08860067
:102DDE008701AC0D01082C06FD392C0681002A084E
:102DEE00013A031D232F2B08883100209631200035
:102DFE00AC006A08860087012C0881000F302B0575
:102E0E00AC002C08053A0319102F2B080F39031D9F
:102E1E00162F26302B020318162F2B08172F0530CE
:102E2E00AC002E081A3E6D07AD002D08860002304C
:102E3E0087002C0881002F2FAA08031D2F2F2E0884
:102E4E001A3E6D07AC002C08860002308700810107
:102E5E006A08860087010030C03FC13F6A088600BD
:102E6E00870181010800200023080319432F22083F
:102E7E0021042004031D542F0030A0000030A100B7
:102E8E000030A20008000130A5002508A30701307C
:102E9E00A236A10CA00C890B4F2FFE302205031970
:102EAE006D2F4A2F0130A5002508A3070130A0077A
:102EBE00003003180130A107003003180130A207BB
:102ECE000130A236A10CA00C890B682FFF30220511
:102EDE0003197A2F592F0130A3020130A035A10D0D
:102EEE00A20D890B752FA11F722F2318842FFF306F
:102EFE00A0057F30A105FF30A2050310A30C230807
:102F0E00A500A601A7011030A535A60DA70D890BAA
:102F1E008B2F2508A0042608A1042708A204240844
:102F2E0003190800A217080020000E127F30A4001B
:102F3E002408FA00A52F9C319A24973120000E1DEB
:102F4E00AB2F21002D1DA22F9931E52197319C31F8
:102F5E0072249731210053082000A4002408FA009F
:102F6E009C31722497312000A501210053082000C6
:102F7E0025020318D42F2508A03E860001308700B5
:102F8E000108A4002408FA009C3172249731013004
:102F9E002000A4002408A507BC2F0E1635309D3145
:102FAE0008259731DD2F9C319A24973120000D187A
:102FBE00E32F21002D1DDA2F9931E5219731EA2FCC
:102FCE009C319A24973120000D1CF02F21002D1DCD
:102FDE00E72F9931E521973136309D31082597310C
:102FEE003B309D31082597313A309D310825FB1431
:022FFE000800C9
:103386002100301408009A31832208008531BD25BA
:1033960008002100571608009931CC2108008D310C
:1033A600432508003A309D31082508003B309D3101
:1033B6000825080036309D310825080078302100A0
:1033C6009900080021002D11AE01AF01080022006E
:1033D600A2159D318825080069302000A00020082C
:1033E600F6000800FE0012001E00FE0BF62900344F
:1033F600640080010131890BFC290034F230210080
:103406009E00C030220097000800013090318120D4
:103416009A31023090318120080001309A316222BF
:103426009A3102309A3162220800013088319320A5
:103436009A3102308831932008002000A00020082D
:103446002200A210031DA214080000302100571A02
:1034560001302000A000200808002000A400A201DE
:10346600A20A240896311F2608002000A000200882
:1034760021003C13031D3C170800013083317B23D8
:103486009A31023083317B2308002000A0002008F7
:1034960021005710031D57140800553023009600CD
:1034A600AA30960095140000000008002000A00035
:1034B600200822002210031D2214A210080020005A
:1034C600A20022089C31862420006A088600870113
:1034D6000114080001308A31BC229A3102308A3147
:1034E600BC229A319D312125080017302100970012
:1034F6004B140A302000A00020082100CC00080050
:1035060015302000A00020082100D3000A30C30097
:103516000030C400080033309D3108259A31E83068
:103526002000A0000330A1009F31012708002300DE
:103536001513303092009101151615159A31502247
:1035460023001511080001309B31BA239A3102304D
:103556009B31BA239A3163309B31BA23080001307C
:10356600923136229A310230923136229A316330C4
:10357600923136220800413020009800FA30970038
:1035860038309600210011140B178B170800240001
:103596000D110430270094000430950096018B1518
:1035A6000B100B178B1708009B312C239A31240024
:1035B6008D1001309A3130229A3102309A31302200
:1035C60008002000A30023089C31372479088600D0
:1035D6008701200022080110031D011408002000A5
:1035E600A1002108A00020082200CC00200021080C
:1035F600A00020082200D00008002000A00020081B
:1036060021003C10031D3C143C133C11BC11BC10A2
:10361600C501BC1208008B1D08000B1C0800270002
:10362600161D080016110B102100201C08009A31E7
:10363600082208002000A30023088731EC27200079
:103646006C0886000130870022080113031D01174C
:103656000800322B20008E169C319A249B312000C4
:103666008E1A382B21002D1D2D2B9931E5210800AE
:103676002000A001A00A2008013A031D482B0030B3
:103686002200A21901302000A000200808004530C1
:103696002000A0002008ED00D230A0006D08143EE6
:1036A6008600023087002008810008002000A30061
:1036B60023089C31242420006B08083E8600013034
:1036C600870022088110031D811408002000A30032
:1036D60023089C31242420006B08083E8600013014
:1036E600870022080111031D011508002000A30010
:1036F60023089C31242420006B08093E86000130F3
:10370600870022080111031D011508002000A300EF
:1037160023089C31242420006B08083E86000130D3
:10372600870022088111031D811508002000A300CF
:1037360023089C31242420006B08083E86000130B3
:10374600870022080112031D011608002000A101AE
:10375600A201A20A23003E1F4D1BB32B2000A2018B
:1037660020002208A0002008A1002108080020004F
:10377600A40024089D31C0259B31780886000130BD
:10378600870001142000A201240896311F26080094
:103796002100300C01392000A200A3012208A40058
:1037A6002308A5002508A101A1072408A001A00758
:1037B6000800F1007108013A031DE52BBE30F00048
:1037C6007008F7007108023A031D0800CD30F000BA
:1037D6007008F70008009931E1219B319D3153258E
:1037E6009B319A31BE229B319A3101229B319A310B
:1037F600CA229B319A31782208002000A300A20138
:10380600231C092C2008A1002108A2070310A00DE3
:103816000310A30CA308031D032C22080800210093
:103826004B1C08000130CC024C08FF3A0319080073
:1038360064302000A00020082100CC008031022046
:1038460008002000A1002108013A031D2E2CBE30DD
:10385600A0002008EB002108023A031D0800CD3025
:10386600A0002008EB0008002000A1002108013A72
:10387600031D412CED30A0002008F9002108023A72
:10388600031D0800EE30A0002008F9000800F10032
:103896007108013A031D542CBE30F0007008210057
:1038A600D0007108023A031D0800CD30F000700800
:1038B6002100D0000800F10070082200A213031DA9
:1038C600A2170230D0027108013A031D6C2CD101F7
:1038D60008007108023A031D0800D2010800200002
:1038E600A1010830210203180800FA1F7C2C0E14CF
:1038F6007D2C0E108E140310FA0D8E100130A000D0
:103906002008A107742C2000A1002108013A031DFC
:10391600912CE930A0002008EA0008002108023AAC
:10392600031D0800EB30A0002008EA000800013063
:103936002100AE070030AF3D0E30A03E8600870165
:10394600403F103A031DA92C413F273A031D0800AA
:10395600AE01AF012D150800923177229C319F31BF
:103966004F279C319D31FB259C319931D9219C31C2
:103976009931D5219C319A318E229C319931DD21A4
:1039860008002000A20022082400C410031DC4144D
:103996002000A208031D08002208A000A10120089B
:1039A6002400C200200021082400C3000800BE3005
:1039B6002000A40024082100CE0001309F31A42756
:1039C6009C31CD302000A40024082100CF00023015
:1039D6009F31A4279C319931EF2108002000A101D5
:1039E60008302102031808008E140310FA0D0E1D6C
:1039F600FE2C7A14022DFE30A0002008FA058E1047
:103A06000130A0002008A107F32C2000A3000E120D
:103A16002308A2002208FA00132D9C319A249D3116
:103A260020000E1D192D21002D1D102D9931E52187
:103A36009D319C31722420000E16080076088600FF
:103A460001308700011C08007608860001308700D7
:103A560001109B31A9239D310038031D0800003059
:103A66009A3120229D3101309C31C4240800200067
:103A7600A10020082200A213031DA2170230D002C3
:103A860020002108013A031D4B2D2200D101080018
:103A960020002108023A031D08002200D201080076
:103AA600773021008C0007308D000C308E0022000C
:103AB6008C0102308D008E01223023008C008D0196
:103AC6008E01773020008C0007308D000C308E0080
:103AD60008002000A1002200A214200020082200D5
:103AE6002213031D221720002108013A031D7F2DF2
:103AF6002200D101D10A080020002108023A031D44
:103B060008002200D201D20A08002000A1010530D7
:103B160021020318080021352A3E8600013087005D
:103B26000030C03FC13F2135343E8600013087005A
:103B3600FF30C03FFF30C13F0130A0002008A10781
:103B46008A2D2000A20001308731EC279D3120000C
:103B56006C0886000130870022080110031D01143D
:103B660002308731EC2720006C0886000130870080
:103B760022080110031D011408002000A1002108DD
:103B8600013A031DCB2D6130A0002008F800080083
:103B96002108023A031DD42D6530A0002008F80044
:103BA60008002108633A031D08005D30A0002008C4
:103BB600F80008002000A401A501201CE62D22081B
:103BC600A4072308A53D0130A235A30D890BE72DD7
:103BD6000130A136A00C890BEC2D21082004031D11
:103BE600E02D2508A101A1072408A001A0070800CF
:103BF6002000A701083027020318080027085E3EA8
:103C0600840090300318013E85000008A5002508B1
:103C1600A6002608A5002508A2003E309E3179267A
:103C26009D3101302000A5002508A707FD2D2400A1
:103C3600C41C0800441C372E0130C2070030C33DA7
:103C46002230203E860002308700403F193A031D8D
:103C56002E2E413F003A031D0800C201C301441045
:103C6600C4109231FE220800C41008002000A300F0
:103C7600230821009D002000200821009E009D149D
:103C8600472E9C319A249E3121009D1C4C2E2D1DC1
:103C9600442E9931E52121001C082000A101A1072D
:103CA60021001B082000A001A0070800633402348D
:103CB600003400340034003400340034003400345E
:103CC60000340034FF34FF34FF3400340034003451
:103CD600003400340034003400340034003400343E
:103CE6000034003400340034003400342000A400D2
:103CF6000E122408A3002308FA00842E9C319A246D
:103D06009E3120000E1D8A2E21002D1D812E9931F7
:103D1600E5219E319C3172249E3120002208A300A9
:103D26002308FA009C31722420000E160800200099
:103D3600AD01A91FA52EA809A909A80A0319A90A50
:103D4600AD01AD0A2808A0002908A100A2018E3005
:103D5600AB002B08A3002D08AC002C08A40097315B
:103D66003A2720002008A8002108A9002208AA0056
:103D760008002000A3000E122308C03EA20022085D
:103D8600FA00C82E9C319A249E3120000E1DCE2E9C
:103D960021002D1DC52E9931E5219E319C317224BD
:103DA6009E319C31F12420000E167A08A2002208CA
:103DB6002100D60008002000E00060089C31242481
:103DC6009E3120006B0886000130870001156B08C4
:103DD60086000130870081146D08093E8600023096
:103DE600870001089531C4252000DF006B08053ED9
:103DF6008600013087005F0881000800013020003E
:103E0600A2000030A30021082302031D0C2F200866
:103E1600220203180800A401A50100302502023081
:103E2600031924020318222F0130A4070030A53DF0
:103E360000302502023003192402031C172F01301B
:103E4600A2070030A33D062F2100111C0800200008
:103E5600111C0800FA309700383096001110013016
:103E660080314D209F31023080314D209F3101300D
:103E76002100C9070030CA3D0130C83E86008701CF
:103E8600403F643A031D492F413F003A031D080095
:103E9600C901CA01481408002000A8012F302802D1
:103EA600031808002808003E840090300318013EDD
:103EB60085000008A5002508A60028082F3E8400D6
:103EC60090300318013E85000008A5002508A700CC
:103ED6002708A5002508A20026089E3179269F31CD
:103EE60001302000A5002508A807512F2000A300B7
:103EF60023089C31242420006B08083E86000130EC
:103F0600870022080111031D01156B08083E860073
:103F16000130870022088110031D81146B08083EBA
:103F260086000130870022080112031D01166B0866
:103F3600083E86000130870022088111031D811585
:103F460008002000A30023089C31242420006B08CD
:103F5600093E86000130870001152030A2006B085B
:103F6600053E860001308700220881003C30A20011
:103F76006B08063E860001308700220881006B0828
:103F8600063E8600013087000108A2006B08043E49
:103F96008600013087002208810008002000A10168
:103FA600230015133030920094011512951615153D
:103FB6002000A101203021020318F92F2108230037
:103FC600910020002108203E86000230870001086B
:103FD600230093009A3150229F3101302000A00027
:103FE6002008A10720302102031CE12F230095128F
:0A3FF6009A31502223001511080033
:020000040001F9
:04000E00FCF9FDFFFD
:00000001FF
