:1000000080311328640008007E14803120007F08AE
:10001000F5009B31C92380319F31D7277508200017
:10002000FF007E10090080311528FA01F601F70162
:10003000F801F901A0308400003085004A309A317F
:10004000E622803120308400013085004D309A3125
:10005000E6228031A03084000130850045309A319D
:10006000E6228031203084000230850025309A312C
:10007000E6228031703084009E3085004530860055
:100080000230870020309A31E0227E102000953126
:10009000DA2D2000AE01AB01AC012200271C062A9C
:1000A000A7102000AD019031D9208031013A031D05
:1000B000632800309131622180310038031D6328AC
:1000C0002000AD01AD0A20002D082200A710031D5D
:1000D000A714A71F74289B31BB2380310038031D50
:1000E00074282200A713D0012200A71CA7292715D6
:1000F000271EA5290130A8070030A93D003029029C
:10010000053003192802031C0800A801A9012712C1
:100110008731EA2780312000A90029082200D20077
:100120002000AE0104302E020318C0282E35323EC6
:10013000860001308700403FA900413FAA002908FE
:100140002200AC0720002A082200AD3D20002E35F9
:100150003C3E860001308700403FA900413FAA0095
:1001600029082200AE0720002A082200AF3D0130F6
:100170002000A9002908AE0704302E02031C96288F
:1001800002302200AD36AC0C890BC2280230AF36EB
:10019000AE0C890BC7282D082000A9007B08103E53
:1001A0008600023087002908810022002C082000E8
:1001B000A9007B08113E86000230870029088100D3
:1001C00022002D082F02031DE7282C082E020318F9
:1001D000A2290530273E8600013087002E09200025
:1001E000A90022002F092000AA00A90A0319AA0ABF
:1001F000403F29072200C600413F20002A3D22003F
:10020000C70020008D122200AC01AD01AE01AF018C
:100210000230500203182D2901302000A9002908BE
:100220002200D0075008013A031D1A29F430CC00EF
:10023000013025295008023A031D2D295208013AA0
:10024000031D27293230CC000030CD002D29300885
:100250002A3ECC000030313DCD004D084702031D41
:1002600033294C084602031C422901302000A90012
:1002700029082200D10703305102031CA229D10111
:10028000A7166C292200D101A71BA229013020004A
:10029000A90029082200D3070A305302031CA2290F
:1002A000D301A7174708B101B1074608B001B0074D
:1002B0005208013A031D61293230CC000030CD00D4
:1002C000672930082A3ECC000030313DCD00C60100
:1002D000C701CC01CD01D20147082000A9007B084D
:1002E000043E86000230870029088100220046086B
:1002F0002000A9007B08053E8600023087002908FF
:10030000810022004D082000A9007B08063E8600DF
:10031000023087002908810022004C082000A90033
:100320007B08073E860002308700290881002200F2
:1003300052082000A9007B08083E86000230870092
:10034000290881009D31BA25080027160800A71743
:10035000271DF4292711A801A90127129D31BA25CB
:1003600080312200D001D101D301AC01AD01AE0139
:10037000AF01C601C701CC01CD01D2014708200061
:10038000A9007B08043E860002308700290881000E
:10039000220046082000A9007B08053E86000230A6
:1003A00087002908810022004D082000A9007B0851
:1003B000063E8600023087002908810022004C0892
:1003C0002000A9007B08073E86000230870029082C
:1003D0008100220052082000A9007B08083E860008
:1003E00002308700290881002200A71E0800013082
:1003F000AA070030AB3D03302B02E83003192A0274
:10040000031C0800AA01AB01A71208002100201C50
:100410000800220027140800F40074089C311B24F3
:1004200082317808860001308700011C632A013080
:10043000F2007808033E86000130870072088107C9
:100440007808043E860001308700010821004A0731
:10045000F200F301F30D7808033E860001308700B7
:100460007308803A803C031D372A72080102031C7E
:10047000612B7808033E86000130870081017808EF
:10048000860001308700011078088600013087005F
:10049000011F612B7808083E860001308700011497
:1004A0007808083E86000130870081167408013AFA
:1004B000031D5C2A20008C177408023A031D612B6F
:1004C00020000D16612B7808083E86000130870059
:1004D000011C612B7808083E86000130870001105E
:1004E0007808860001308700811C612B0130F20002
:1004F000780A86000130870072088107780A860032
:10050000013087007808023E840001308500000831
:100510000102031C612B780A8600013087008101EB
:100520007808860001308700811DCC2A7808860073
:1005300001308700011AB32A7808043E8600013092
:10054000870021300102031CAD2A7808043E860092
:100550000130870001308102612B7808860001306C
:1005600087000116612B7808043E86000130870061
:100570003C3001020318C62A0130F2007808043E1C
:1005800086000130870072088107612B7808860099
:10059000013087000112612B780886000130870046
:1005A000011D132B7808053E86000130870078086E
:1005B000043E840001308500000801020318E82A87
:1005C0007808043E86000130870001308102FF2A4E
:1005D0007808043E8600013087007808053E8400D4
:1005E00001308500000801020318FF2A0130F200E3
:1005F0007808043E86000130870072088107780879
:10060000053E8600013087007808043E84000130F2
:10061000850000080106031D612B78088600013063
:10062000870001112E2B7808860001308700811E7B
:10063000342B7808043E86000130870001308102A7
:100640007808053E8600013087007808043E840063
:100650000130850000080102031C612B7808860028
:10066000013087008110612B0130F2007808043ED0
:10067000860001308700720881077808043E8600F2
:10068000013087007808063E8400013085000008AC
:100690000102031C612B780886000130870081105D
:1006A000780886000130870001137408013A031DA1
:1006B0005B2B20008C117408023A031D612B200073
:1006C0008E137808083E860001308700811E922B29
:1006D0000130F2007808073E86000130870072087A
:1006E00081077808073E8600013087000530010247
:1006F000031C922B7808073E860001308700810199
:100700007808083E86000130870081127408013A9B
:10071000031D8C2B20008C137408023A031D922BAE
:1007200020000D127808093E860001308700811EE6
:1007300008000130F20078080A3E86000130870088
:100740007208810778080A3E860001308700010898
:100750003C3A031D080078080A3E860001308700F5
:1007600081017808093E8600013087008112080067
:100770002000E80068089C31D6248331790886007F
:1007800001308700011C1E2D21005318E22B790A2D
:1007900086000130870081102000680890316620B3
:1007A0008331013A0030031901302000E600790856
:1007B000860001308700E60D01086606FD396606F1
:1007C0008100F72B790A8600013087008118F72B0A
:1007D000790A86000130870081147908860001308B
:1007E000870081107908860001308700011579089B
:1007F000860001308700811CC72C790886000130F3
:1008000087000119252C01302000E6007908023EFE
:10081000860001308700660881077908023E86005D
:100820000130870005300102031C08007908023EF0
:100830008600013087008101790886000130870039
:10084000011568089331B223080079088600013049
:1008500087008119572C7908033E860001308700F4
:100860000130810741310318810A7908033E86006F
:1008700001308700403F2000E600413FE7000030A4
:100880006702963003196602031C08007908033ECC
:100890008600013087000030C03FC13F79088600E4
:1008A0000130870081156808913105210800790819
:1008B000860001308700011A952C7908053E8600D4
:1008C000013087000130810741310318810A79081E
:1008D000053E860001308700403F2000E600413F92
:1008E000E70000306702963003196602031C080017
:1008F0007908053E8600013087000030C03FC13FC7
:100900007908860001308700011601309C31EA2405
:1009100083312100A01E080064302000A9000030AF
:10092000AA0002309631322608007908860001308C
:100930008700811A08007908073E86000130870089
:100940000130810741310318810A7908073E86008A
:1009500001308700403F2000E600413FE7000130C2
:1009600067022C3003196602031C08007908073E51
:100970008600013087000030C03FC13F7908860003
:1009800001308700811600309C31EA240800790884
:10099000860001308700011D080001302000E600BC
:1009A0007908023E860001308700660881077908D1
:1009B000023E86000130870005300102031C08005A
:1009C0007908023E8600013087008101790886009F
:1009D0000130870001117908033E8600013087004D
:1009E0000030C03FC13F7908860001308700811187
:1009F0007908053E8600013087000030C03FC13FC6
:100A0000790886000130870001127908073E8600C8
:100A1000013087000030C03FC13F790886000130B7
:100A200087008112210053181A2D20006808973181
:100A30004027833100309C31EA2408002100201C2B
:100A400008007908860001308700011408002000A2
:100A50003E08C4003F08C5004008C6000310450D0D
:100A6000460DC7004708CA004108C4004208C50037
:100A70004308C6000310450D460DC7004708C900CE
:100A80004A0803194F2D49084A020318562D4A03F4
:100A9000FF3A4907C40019304402031C562D41088F
:100AA000BE004208BF004308C000080049080319FF
:100AB00008004A0849020318652D4903FF3A4A070E
:100AC000C40019304402031808000630C40044086A
:100AD000C800C01BC817C31B4817BF17FF30BE058F
:100AE000FF30BF050030C005C217FF30C105FF3021
:100AF000C2050030C30549084A020318A12D013080
:100B0000C135C20DC30D890B802D0130C9024908C2
:100B10004A0603199C2D0130C802480807390319F9
:100B20009C2D7F2D0130C036BF0CBE0C890B932D40
:100B30000130C4004408CA074A0849060319C62DF3
:100B4000922D4A0849020318C62D0130BE35BF0D4B
:100B5000C00D890BA62D0130CA0249084A060319A7
:100B6000C22D0130C802480807390319C22DA52D2E
:100B70000130C336C20CC10C890BB92D0130C40041
:100B80004408C9074A084906031DB82DC81FD82DB7
:100B9000FF30BE06FF30BF06FF30C0060130BE0783
:100BA000003003180130BF07003003180130C007C0
:100BB000481FEA2DFF30C106FF30C206FF30C306D2
:100BC0000130C107003003180130C207003003189C
:100BD0000130C307C8013E08C1073F08C23D4008B5
:100BE000C33DC31F052EFF30C106FF30C206FF30D4
:100BF000C3060130C107003003180130C2070030BE
:100C000003180130C307C801C80A4108A000420800
:100C1000A1004308A2004A08C4004408A3004808F1
:100C2000C5004508A40088310F2020002008BE0020
:100C30002108BF002208C00008002000EB01EC01E1
:100C4000ED0121003C1C0A2F9B31F9238631200045
:100C500021082004031D08000030913162218631F3
:100C60000038031D472E9C310A248631013A00309A
:100C7000031901302000EA00EA0CEA0C21003C08CC
:100C800020006A067F396A062100BC00492E210037
:100C9000BC13BC1B3C1B512EBE01BF01BD14BC11BB
:100CA0000800BD183C1B682E0130BE070030BF3D58
:100CB0000230BC3E86008701403F4306031D622E82
:100CC000413F4406031DD72EBE01BF01BD10D72EE4
:100CD000BE01BF01BD103C193C1B892E3C11BC114B
:100CE000BC103B309F313D27863121005708031946
:100CF000852E36309D31862586313B309D318625C7
:100D000086313A309D3186258631893132218631CE
:100D1000D72EBC1DC22E8A31E32286312100BC1C95
:100D2000D72EBC10BD12C601C7018A31742286318C
:100D30002100BD14BD1DA92E003044020B30031943
:100D40004302031CA72E0A30C3000030C400C001B8
:100D5000D72E01302000EA006A082100C0074008B1
:100D6000023A031DD72EC001C101C2010030440266
:100D7000C830031943020318D72E0A30C3070030C6
:100D8000C43DD72EBC1DBC18D72EBC15BD163630A1
:100D90009D31862586313B309D31862586313A301E
:100DA0009D318625863134309D318625863121005E
:100DB000BC1DF82E0130C1070030C23D0530BC3EDD
:100DC00086008701403F643A031DE82E413F003A08
:100DD000031DF82EC101C201C001003044020B30D6
:100DE00003194302031CF82E0A30C3020030C43B2F
:100DF000BD1E08000130C6070030C73D75304702F0
:100E0000303003194602031C0800C601C701BC119B
:100E1000BC100800201C08003C1408002000DE0163
:100E20001F309D31A0258731AA3A031D802F003045
:100E30009D31A02587312000DD007B080C3E860017
:100E4000023087005D08810001309D31A025873187
:100E50002000DD007B080D3E8600023087005D0823
:100E6000810002309D31A02587312000DD007B0804
:100E70000E3E8600023087005D08810020309331ED
:100E80006C2387312000DD005D08DE005E08DD0098
:100E90007B08153E8600023087005D0881005E08F1
:100EA000DD007B08163E8600023087005D08810069
:100EB0005E08DD007B08173E8600023087005D0873
:100EC00081007B080C3E8600023087000108FF3A53
:100ED000031D08007B080D3E8600023087000108D4
:100EE000FF3A031D08007B080E3E86000230870093
:100EF0000108FF3A031D08002100A015A0160800F4
:100F0000203093316C2387312000DD005D08DE0046
:100F1000FF30DD005D08A00000309B314E2387319B
:100F2000FF302000DD005D08A00001309B314E2322
:100F30008731FF302000DD005D08A00002309B31CA
:100F40004E238731FF302000DD005D08A000033014
:100F50009B314E238731FF302000DD005D08A0006B
:100F600004309B314E238731FF302000DD005D08C7
:100F7000A00005309B314E238731AA302000DD00D0
:100F80005D08A0001F309B314E23873120005E0892
:100F9000DD007B08153E8600023087005D08810079
:100FA0005E08DD007B08163E8600023087005D0883
:100FB00081005E08DD007B08173E86000230870056
:100FC0005D0881008B13913133218B172100A0150F
:100FD000A01608002000A201A301A101A001003079
:100FE0002300BE1A01302000A20000302300CD1AD9
:100FF00001302000A300220823072107A0000800D9
:1010000045302000A0002008FB00D230A0007B0863
:10101000143E86000230870020088100080020006E
:10102000230803191828220821042004031D292855
:101030000030A0000030A1000030A2000800013004
:10104000A5002508A3070130A236A10CA00C890B2E
:101050002428FE302205031942281F280130A5004C
:101060002508A3070130A007003003180130A107AD
:10107000003003180130A2070130A236A10CA00CE9
:10108000890B3D28FF30220503194F282E280130F7
:10109000A3020130A035A10DA20D890B4A28A11F82
:1010A000472823185928FF30A0057F30A105FF30BD
:1010B000A2050310A30C2308A500A601A701103068
:1010C000A535A60DA70D890B60282508A0042608C4
:1010D000A1042708A204240803190800A217080085
:1010E0002000E80068089C31C22488317608860018
:1010F00001308700811C08007608860001308700D7
:101100000130810741310318810A760886000130D9
:101110008700403F2000E600413FE70016306702AD
:10112000123003196602031C08007608860001309D
:1011300087000030C03FC13F0130E60076088600DE
:101140000130870066088107760886000130870035
:10115000760884000130850000080102031C0800A5
:10116000760886000130870081017608860001300C
:101170008700811068089331B22388312000680805
:101180009B31D8238831013A031DCB282000680801
:101190009731402788312000DD01680889319A2184
:1011A00008002000A30023089E31B22688312000C9
:1011B000A208031DED282308013A031DE1288C1520
:1011C00008002308023A031DE7288E1708002308A9
:1011D000633A031D08008D1608002208013A031D1A
:1011E00003292308013A031DF7288C11080023085E
:1011F000023A031DFD288E1308002308633A031DDD
:1012000008008D12080022080A3A031D2729210030
:101210004F0886000130870081104F0A8600013098
:1012200087000030C03FC13F20002308013A031D62
:101230001B298C1508002308023A031D21298E174B
:1012400008002308633A031D08008D1608002208D1
:101250000B3A031D080021004F088600013087006B
:101260008114080020000E127F30A4002408210001
:10127000D2003D299C31FE24893120000E1D4329D6
:1012800021002D1D3A299A31D62289319D315425CC
:101290008931210054082000A40024082100D20034
:1012A0009D31542589312000A501210054082000DA
:1012B000250203186E292508A03E8600013087000C
:1012C0000108A40024082100D2009D315425893151
:1012D00001302000A4002408A50755290E1635303A
:1012E0009D318625893177299C31FE248931200062
:1012F0000D187D2921002D1D74299A31D62289319E
:1013000084299C31FE24893120000D1C8A2921006A
:101310002D1D81299A31D622893136309D3186257D
:1013200089313B309D31862589313A309D31862582
:10133000FA1408002000E100E001E00A6108FF3E25
:10134000890AA4290310E00DFF3E031DA2296108AC
:10135000DE007B080B3E8600023087005E088100BD
:10136000203093316C2389312000DE006108143E67
:101370007B07DF005F088600023087005E0881007F
:101380006108143E7B07DE005E088600023087009D
:101390000108DF007B08093E8600023087005F08F5
:1013A000810061081A3E7B07DE005E08860002307D
:1013B00087000108DF007B08113E860002308700AD
:1013C0005F0881005D08013A031DF6297B080F3E86
:1013D00086000230870001086004DE007B080F3EB3
:1013E0008600023087005E08810008007B080F3EFF
:1013F00086000230870060090105DE007B080F3E91
:101400008600023087005E0881000800582A0130FB
:101410009431DE248A3102309431DE248A317B0813
:10142000093E86000230870081017B080B3E860062
:101430000230870081017B080F3E86000230870062
:1014400081017B08113E86000230870081016430F3
:101450002000A9000030AA000130963132268A31DE
:101460008D31712508007B08093E86000230870017
:1014700081017B080B3E86000230870081017B08DA
:10148000113E86000230870081018D3171250800F0
:1014900001309431DE24080002309431DE2408004B
:1014A000013092316D220800023092316D22080025
:1014B00023002F08003A0319072A013A0319482A82
:1014C000033A03194C2A013A0319732A123A0319F1
:1014D000502A313A0319332A013A0319542A103A8F
:1014E0000319732A732A08000030913162218A316E
:1014F0002000E8006808E900E908031D0800210051
:101500003C1F922A2300A008031D8F2A2108643A59
:10151000031D8F2A923100222100BD1508002100F1
:10152000BD1108002300A008031DCB2A2108023AA0
:10153000031DCB2A2C08FF3A031DAA2A2D08FF3AC7
:10154000031DAA2A2E08FF3A031DAA2A0000210023
:10155000BD1108007B080C3E860002308700230086
:101560002C080106031D08007B080D3E8600023092
:1015700087002D080106031D08007B080E3E86002B
:10158000023087002E080106031D08008A3106225A
:101590002100BD15080023002008FF3A031DD62AAC
:1015A0002108023A031DD62A000008002300A008E3
:1015B000031DE02A2108653A031DE02A0000080007
:1015C0002100BD11080020000D18EA2AF32A9C31E1
:1015D000FE248A3120000D1CF02A21002D1DE72A4F
:1015E0009A31D6228A313B309F313D278A31210002
:1015F00057080319080020000E12FF30A400240829
:101600002100D200092B21002D190C2B9C31FE2426
:101610008A3120000E19032B21002D19532B9D31E7
:1016200054258A319D31D6258A3121005208200067
:10163000A40024082100D1002000A50121005108A8
:10164000200025020318372B9D31D6258A31210031
:1016500052082000A4002508A03E86000130870023
:10166000240881000130A4002408A5071E2B9D3109
:10167000D6258A31210052082000A4002408210028
:10168000D0009D31D6258A31210052082000A400C7
:1016900024082100CB0020000E162100CB1B7A1459
:1016A000BC11BC14552B20000E169A31D6222100F5
:1016B00008002000E90069089C3175248B31770807
:1016C000083E860001308700011DA82B00309131B3
:1016D00062218B310038031D8A2B2100C81C8C2B02
:1016E0009B310B238B31013A0319812B2100480CCC
:1016F00001392000E500E6016508E7006608E8001A
:10170000842B2000E701E80167082100C810031DB1
:10171000C8148C2B2100C810C81808007708083E90
:1017200086000130870001117708083E86000130ED
:101730008700811CA22B2000A701A70A69088C3111
:10174000DD2408002000A70169088C31DD24080091
:101750007708083E860001308700011E080021003E
:10176000C81808007708083E86000130870001127B
:101770007708083E860001308700811DCF2B2000AE
:10178000E201E20A69089231A7228B31643020001D
:10179000A9000030AA00013096313226080020004E
:1017A000E20169089231A72208002000A600A901E1
:1017B000A801A7012200271E0800F3302000A40082
:1017C0002408A00026089E3150268B3120002108D5
:1017D0002200C901C907200020082200C801C8074B
:1017E0002000A901043029020318232C2935323E98
:1017F000860001308700403FA400413FA500220041
:10180000490820002502031D092C22004808200059
:10181000240203181B2CA808031D1B2C2935323E5B
:1018200086000130870022004808C03F4908C13FB8
:101830002000A801A80A0130A4002408A907043048
:101840002902031CF62BA808031D0800A901043077
:1018500029020318080029353C3E86000130870024
:10186000403FA400413FA500250822004902031D76
:101870003D2C20002408220048020318502C200090
:10188000A708031D502C29353C3E860001308700F7
:1018900022004808C03F4908C13F2000A701A70A0D
:1018A00001302000A4002408A907272C20004B08A1
:1018B000CF004C08D0004D08D1000310500D510D41
:1018C000D2005208D800D808031D6F2C0030CE007B
:1018D0000030CD000030CC000030CB0008004B08B9
:1018E000CF004C08D0004D08D1001730D136D00CB5
:1018F000CF0C890B762C4F08D2005208D300CC179E
:10190000FF30CB05FF30CC050030CD054B08D400AF
:101910004C08D5004D08D600D7018E30D802D81F0C
:10192000AD2C5808803A8F3E03189F2C0030CE0013
:101930000030CD000030CC000030CB00080001307A
:10194000D736D60CD50CD40C890BA02C0130CF0087
:101950004F08D8070319C62C9F2C18305802031CB7
:10196000C32C0030CE000030CD000030CC00003061
:10197000CB0008000130D435D50DD60DD70D890B1D
:10198000BB2C0130D802D808031DBA2C5308031908
:10199000D42CD409D509D609D709D40A0319D50AF4
:1019A0000319D60A0319D70A5708CE005608CD00E6
:1019B0005508CC005408CB0008002000AC002C08CF
:1019C0009C3175248C310030913162218C31003A88
:1019D0000030031901302000A800A80D210048089C
:1019E00020002806FD3928062100C800200027080D
:1019F000013A0319062D2100480C890C01392000F9
:101A0000A800A9012808AA002908092D0130AA0068
:101A10000030AB002A0821004811031D48152000A2
:101A20002708013A031D452DA2012C088831D12039
:101A30008C31770886000130870001177708053E52
:101A400086000130870001082000A8007708043EC6
:101A5000860001308700280881002030A800770820
:101A6000043E860001308700280881007708860040
:101A70000130870081140730A8007708023E8600F5
:101A8000013087002808810008007708063E86009C
:101A9000013087000108A8007708043E8600013065
:101AA00087002808810077088600013087008114AC
:101AB00077088600013087008111770886000130A1
:101AC0008700011277088600013087000111073076
:101AD000A8007708023E86000130870028088100B0
:101AE000080021003C1C08003C151430C3000030E5
:101AF000C40063302000A00020082300A0000230B2
:101B00002000A00020082300A1007B0886000230EE
:101B100087000230423FA2007B0886000230870027
:101B20000230433FA3007B0886000230870002306A
:101B3000443FA4007B088600023087000230453F06
:101B4000A5007B088600023087000230463FA600D1
:101B50007B088600023087000230473FA7007B08E1
:101B60008600023087000230483FA8007B088600CC
:101B7000023087000230493FA9007B08860002300E
:101B8000870002304A3FAA007B08860002308700A7
:101B900002304B3FAB007B088600023087000230EA
:101BA0004C3FAC007B0886000230870002304D3F7E
:101BB000AD007B0886000230870002304E3FAE0049
:101BC0007B0886000230870002304F3FAF007B0861
:101BD0008600023087000230503FB0007B0886004C
:101BE000023087000230513FB1007B08860002308E
:101BF00087000230523FB2007B0886000230870027
:101C00000230533FB300D2302000A0002008230050
:101C1000B40008002100581C9F2E58191E2E0130B8
:101C2000D9070030DA3D01305A02F4300319590265
:101C3000031C0800D901DA0158150800023091315F
:101C400062218E310038031D080001302100D907C0
:101C50000030DA3D00305A02053003195902031CE6
:101C60000800D901DA01581E080058110A30D83E80
:101C7000860087010830D83E84008501403F000778
:101C80002000A7000131413F003DA800A836A70C65
:101C900027082100DE00200028082100DF0058303E
:101CA000E6000230E7002630E8000230E900D81CE8
:101CB0006E2E67085F02031D5F2E66085E02031C1E
:101CC000832E01302000A70027082100DB07033006
:101CD0005B02031C842EDB01D810842E5F0869028E
:101CE000031D742E5E086802031C832E0130200041
:101CF000A70027082100DB0703305B02031C842EAA
:101D0000DB01D814842EDB015F082000A7007B08CC
:101D1000183E8600023087002708810021005E08F7
:101D20002000A7007B08193E8600023087002708A4
:101D300081002100E001E101E201E3010800201C33
:101D400008005814080020003108B4003208B5001B
:101D50003308B6000310350D360DB7003708BC0048
:101D6000BC08031DBA2E0030AE000030AF000030BA
:101D7000B00008002E08B4002F08B5003008B600E7
:101D80000310350D360DB7003708BD00BD08031D23
:101D9000D02E0030AE000030AF000030B0000800A0
:101DA0000030B9000030BA000030BB0089303D0778
:101DB000B4003408BC023108B4003208B50033085E
:101DC000B6001030B636B50CB40C890BE22E3408D0
:101DD000B7003708BD002E08B4002F08B500300842
:101DE000B6001030B636B50CB40C890BF22E3408A0
:101DF000B7003708BD068030B4003408BD05B217FF
:101E0000FF30B105FF30B2050030B305AF17FF302A
:101E1000AE05FF30AF050030B0051830B40034080F
:101E2000B8000130B935BA0DBB0D890B122F30083F
:101E30003302031D212F2F083202031D212F2E08EC
:101E40003102031C2A2F2E08B1022F08B23B3008A2
:101E5000B33B39140130B135B20DB30D890B2B2FC3
:101E60000130B802031D112F3908A0003A08A10063
:101E70003B08A2003C08B4003408A3003D08B500AC
:101E80003508A40088310F2020002008AE0021086A
:101E9000AF002208B000080020002E08B4002F0870
:101EA000B5003008B6000310350D360DB700370801
:101EB000B800B808031D632F0030AE000030AF003B
:101EC0000030B00008003108B4003208B500330813
:101ED000B6000310350D360DB7003708BD00BD083C
:101EE000031D792F0030AE000030AF000030B0008D
:101EF00008003D087B3EB4003408B8072E08B40043
:101F00002F08B5003008B6001030B636B50CB40C4A
:101F1000890B852F3408B7003708BD003108B4009D
:101F20003208B5003308B6001030B636B50CB40C24
:101F3000890B952F3408B7003708BD068030B400F0
:101F40003408BD05AF17B217FF30B105FF30B20539
:101F50000030B3050030B9000030BA000030BB00DB
:101F60000730B4003408BC002E1CBC2F3108B90760
:101F70003208BA3D3308BB3D0130B036AF0CAE0C71
:101F8000890BBD2F0130B135B20DB30D890BC32FB5
:101F90000130BC02031DB42F0930B4003408BC006A
:101FA0002E1CD82F3108B9073208BA3D3308BB3D83
:101FB0000130B036AF0CAE0C890BD92F0130BB36D7
:101FC000BA0CB90C890BDF2F0130BC02031DD02FD6
:101FD0003908A0003A08A1003B08A2003808B40064
:101FE0003408A3003D08B5003508A40088310F204F
:101FF00020002008AE002108AF002208B000080031
:102000000334163417341E341F3420342A342B344E
:102010000B340C340D340E340F34103411341234AC
:10202000133414340A341534213422341834193456
:102030001A341B341C341D34233424342534263400
:1020400029342C342D342E34003401340234073436
:10205000083409340634043405342734283407346A
:102060000734303487346B34F8347F343F340934E8
:1020700000345C34A734623486348334033422342D
:10208000F83400344434B634103418341D341C345D
:10209000C7340034B234EA340A34003411345934C9
:1020A000883431340B342F342E3406340434053460
:1020B00000343034D334913441340034FE34FE34AF
:1020C000FE34FE34FE34FE34FE34FE342000A40020
:1020D000A3012408013A031D7528A101A10A0C1FC0
:1020E0000C1A7328A101210880282408023A031D34
:1020F0008328A201A20A0C1C8D187F28A2012208A5
:10210000A0002008A300230808002000A8012F3009
:102110002802031808002808003E840090300318A5
:10212000013E85000008A5002508A60028082F3ECE
:10213000840090300318013E85000008A5002508A2
:10214000A7002708A5002508A20026089E31F6262C
:10215000903101302000A5002508A807872820001D
:10216000A9000530A4002408A600A701A801313069
:1021700029020318D72829080F39A4002408A7002A
:102180002908A4000430A436890BC32824080F3979
:10219000A5002508A8000A30A4002408A0002808EB
:1021A0009C312D2420002707A5002508A60026081D
:1021B00008002000A8010230A4002408A500A60100
:1021C000A7012708803AA40080302402031DEA28D2
:1021D00025082602031802292000A808031DFD284F
:1021E0002608013E9B31D8239031013A0030031973
:1021F00001302000A4002408A8000130A607003008
:10220000A73DE1282000280808002000A700270893
:102210009C31752491312000A6019B31E823913136
:10222000013A0030031901302000A5002508A6005E
:10223000A608031D08007708093E860001308700C4
:10224000011F08007708093E8600013087008117CA
:1022500077088600013087008116A201A20A2708AC
:102260009E31302608002000A101230015133030D4
:10227000920094011512951615152000A101203029
:10228000210203185B292108230091002000210866
:10229000203E8600023087000108230093009B3116
:1022A0002323913101302000A0002008A107203015
:1022B0002102031C4329230095129B312323230071
:1022C000151108002000A500A601A608031D7C2901
:1022D0002508023A03197C292100D8187329200007
:1022E000A101A201782902302000A1000030A20043
:1022F0002108A0002008A600A608031D9329250890
:10230000033A031993292200A71A8A292000A3015E
:10231000A4018F2903302000A3000030A40023086B
:10232000A0002008A600260808002000E300653071
:1023300023002902031CA22964302000E100610867
:102340002300A90029082000E1007B08093E86003F
:1023500002308700610881006308E1007B080B3EC2
:10236000860002308700610881007B08093E8600F4
:10237000023087000108E1006308143E7B07E20099
:1023800062088600023087006108810063089E3180
:10239000D42608002400441C08009031D920913133
:1023A000003A0030031901302000A900A90D2400D3
:1023B000440820002906FD3929062400C400C41C55
:1023C000FA29C4150130C2070030C33D2230203E37
:1023D000860002308700403F193A031DF129413F32
:1023E000003A031D0800C201C3014410C410943117
:1023F00042240800C41D0800C411C201C301080022
:1024000021003C1323002C082000AD007B080C3E6B
:102410008600023087002D08810023002D0820004F
:10242000AD007B080D3E8600023087002D0881003C
:1024300023002E082000AD007B080E3E86000230EF
:1024400087002D0881006430A9000030AA00013007
:102450009631322692312100A01E322A01309C3161
:102460009B24923101309C31882408002000A50073
:102470002100581D08005816F0302000A400240840
:10248000A00025089E31502692312000210821000D
:10249000E501E507200020082100E401E4076508C4
:1024A0006102031D552A6408600203185E2A65084C
:1024B000E101E1076408E001E00708006508630244
:1024C000031D642A64086202031808006508E3011A
:1024D000E3076408E201E20708002000E60066085E
:1024E0009B31D8239231013A031D802A01309C315F
:1024F0008824923120006608913195219231922AE8
:1025000020006608143E7B07E40064088600023061
:1025100087000108E5007B08093E8600023087003D
:1025200065088100200066081A3E7B07E400640805
:102530008600023087000108E5007B08113E860016
:1025400002308700650881008D3171250800200068
:10255000E40064089C317524923120006208013A3D
:10256000031DBD2A77088600013087008115770892
:10257000860001308700811408007708860001304A
:102580008700811D080077088600013087008110D0
:10259000770886000130870081117708043E8600A5
:1025A000013087000108E3007708053E860001300E
:1025B000870063088100DD01DD0A640889319A2102
:1025C00092318D317125080020008E100E100E16EC
:1025D0000A30A0000030A1009F3162279231200014
:1025E0000E120A30A0000030A1009F316227923104
:1025F00020000E162830A0000030A1009F31622775
:10260000923120000E123030A60026082100D200A0
:102610000C2B9C31FE24923120000E1D122B210028
:102620002D1D092B9A31D62292319D31542592319C
:102630001C2B9C31FE24923120000E1D222B2100E8
:102640002D1D192B9A31D62220000E100E160800CF
:102650002000A40024089E31B226933121004F08A7
:10266000860001308700811C08004F0A8600013077
:1026700087000130810741310318810A4F0A860023
:1026800001308700403F2000A200413FA3000030FE
:102690002302323003192202031C080021004F0AD2
:1026A0008600013087000030C03FC13F2000240871
:1026B000013A031D5E2B08308C0608002408023AFC
:1026C000031D652B80308E0608002408633A031D25
:1026D000080020308D0608002000D9000030DA0004
:1026E000E030DB004130DC000030AE00C830AF002D
:1026F0004230B0005A08B1005B08B2005C08B30079
:102700008E31A326933120002E08DA002F08DB003B
:102710003008DC005908E03EA800FF300318003004
:10272000A9009E319026933120002808B100290885
:10273000B2002A08B3005A08AE005B08AF005C087C
:10274000B0008E31A326933120002E08CB002F0835
:10275000CC003008CD008C31562420004B03FF3ACA
:10276000643E08002000E40064089C317524933125
:102770002000E3019B31E8239331013A0030031933
:1027800001302000E2006208E300E308031D0800B6
:102790007708093E86000130870001176430A900E0
:1027A0000030AA0001309631322693317708860036
:1027B00001308700811AF22B7708860001308700EC
:1027C00081162000A201A20A64089D31F3259331ED
:1027D0002000DD01DD0A640889319A2193318D31B1
:1027E00071250800770886000130870081120800F3
:1027F0002100B01C08000130B1070030B23D37089D
:102800003202031D052C36083102031C0800B101F9
:10281000B201B01220008D1D0F2C2100B016210036
:10282000B01A3B2CB308031D372CB01D252CB0115A
:1028300034082000A00020082100B3003908B701A7
:10284000B7073808B601B6070800301E352C30121D
:1028500035082000A00020082100B3003B08B70184
:10286000B7073A08B601B6070800B0100800B0165E
:1028700020008D150800B01220008D1101302100BC
:10288000B30208002000A501A5012030250203188D
:102890005E2C25089D31A02594312000A400250838
:1028A000203E860002308700240881000130A40009
:1028B0002408A50720302502031C492C7B0886002C
:1028C0000230870002304C3FA00000309B314E2385
:1028D00094317B0886000230870002304D3F200093
:1028E000A00001309B314E2394317B0886000230DA
:1028F000870002304E3F2000A00002309B314E2363
:1029000094312400441D882C44112100A011A012F0
:102910008B139B315A239431913133218B1708004B
:1029200021002018B22C0130A2070030A33D023054
:10293000A03E86008701403F963A031DA12C413FEF
:10294000003A031DC92CA201A3012014323020003B
:10295000A9000030AA0003309631322694312100BC
:102960002016C92C0130A6070030A73D0630A03E36
:1029700086008701403F643A031DC02C413F003A66
:10298000031DC92CA601A701A01CC82CA010C92C8E
:10299000A0140130A8070030A93D0830A03E8600F1
:1029A0008701403F643A031DD72C413F003A031D85
:1029B0000800A801A9018D31712508002000E70059
:1029C00067089331B2239431200067089B31D823E4
:1029D0009431013A031D052D23003008803A031D70
:1029E000FE2C2000AA01AA0A230031082000E600DC
:1029F0006608AB00670897319F2794312000DD01FE
:102A0000DD0A670889319A21080023003008803ADE
:102A1000031D1E2D2000AA01AA0A23003108200050
:102A2000E6006608AB00670897319F2794312000C5
:102A3000DD01DD0A670889319A2108002000670856
:102A40009731402794312000DD01670889319A21B0
:102A500094312000AA01AB01670897319F27080035
:102A60002000A601A11F3B2DA009A109A00A03195E
:102A7000A10AA601A60AA31F462DA209A309A20A1C
:102A80000319A30A0130A4002408A606A701A8017F
:102A9000210820040319752DA501A50AA11B5A2D93
:102AA0000130A035A10D890B512D0130A40024085F
:102AB000A5074E2D0130A735A80D890B5B2D2108E8
:102AC0002302031D652D20082202031C6C2D200803
:102AD000A2022108A33B27140130A136A00C890BC8
:102AE0006D2D0130A502031D5A2D260803197D2DD9
:102AF000A709A809A70A0319A80A2808A101A1077C
:102B00002708A001A00708002100EE00ED01EA015E
:102B10006E08033A03198E2DFF308F2D0130EB0024
:102B20000030EC006B082000EB006B082100ED008A
:102B3000EE08031D9D2D0A309E2D0B302000EB006A
:102B40006B08A20063308831D120953121006E08D6
:102B500003190800CB2D9031D9209531013A031D7E
:102B6000D42D2C302000A9000130AA000A30963163
:102B700032269531D42D9031D9209531013A031D5B
:102B8000D42D2C302000A9000130AA000530963148
:102B900032269531D42D21006E08023A0319AB2D4F
:102BA000013A0319BB2DD42D21006D0896318B26D7
:102BB000210008008831002095319C315124953145
:102BC00087310E2795319B31662395319A31B72293
:102BD00095319A31C02295319A31DB2295319A3163
:102BE000FB2295319D313D2595319B31AE239531A9
:102BF0009A31BA2295319D31132595312100201C3F
:102C0000092E05308B31D52395310930923136228A
:102C100095312200201CFE2D2010943190249531F6
:102C20009C31632495312100201CFE2D9131CA2155
:102C300095319B31722395319331F82395319A3137
:102C4000C32295318031492095319B311323953131
:102C50009F31192795319A31BD2295319B3103233C
:102C60009531FE2D2000AC000A30A0000030A100FC
:102C70002A08A301A3072908A201A207953130253C
:102C8000963120002108AA01AA072008A901A90756
:102C90002100301C0800B018632EB014B101B2013D
:102CA00020002C08AB002B082100B30020002A08CC
:102CB0002100B701B707200029082100B601B60797
:102CC00020008D150800B019772EB01520002C08B3
:102CD000AB002B082100B40020002A082100B90114
:102CE000B907200029082100B801B8070800301AE8
:102CF0000800301620002C08AB002B082100B5007E
:102D000020002A082100BB01BB0720002908210060
:102D1000BA01BA0708002000E8006808FF3A031D5E
:102D2000C82E0230E6006608E700E901EA016A08F9
:102D3000803AE60080306602031DA02E6708690213
:102D40000318080020006908013E9C317524963163
:102D500020006908013E9B31D8239631013A031DBA
:102D6000C22E7708093E86000130870001177708D8
:102D7000860001308700811220006908013E9731EA
:102D80004027963101302000E9070030EA3D972EB8
:102D9000200068089C3175249631200068089B311A
:102DA000D8239631013A031D08007708093E8600B2
:102DB00001308700011777088600013087008112F3
:102DC000200068089731402708002000DB00003011
:102DD000DC00E030DD004130DE000030AE00C83005
:102DE000AF004230B0005C08B1005D08B2005E0880
:102DF000B3008E31A326963120002E08DC002F0868
:102E0000DD003008DE005B08D900DA01D909DA09F3
:102E1000D90A0319DA0A5908643EA80000305A3D5D
:102E2000A9009E319026963120002808B10029087B
:102E3000B2002A08B3005C08AE005D08AF005E086F
:102E4000B0008F314C27963120002E08C1002F088A
:102E5000C2003008C3000030BE000030BF00423066
:102E6000C00085312725963120003E08CB003F0861
:102E7000CC004008CD008C31562420004B080800BF
:102E80002000E50065089C3175249731770886009D
:102E9000013087000030811A01302000E4007708FB
:102EA000093E860001308700011F08007708093EAF
:102EB0008600013087000113770886000130870003
:102EC000811E872F7708093E860001308700811F09
:102ED000932F7708093E8600013087008113A201F5
:102EE00065089E3130269731200065081A3E7B0721
:102EF000E20062088600023087000108E3007B08D8
:102F0000113E86000230870063088100932FA201E2
:102F100065089D31F32597312000AA01AB016508B2
:102F200097319F27973120006408E2006208DD0096
:102F3000650889319A2197318D317125080020006B
:102F4000AE002E089C31C2249731760886000130ED
:102F50008700011C080020002A08013A00300319EC
:102F60000130AC007608860001308700AC0D010806
:102F70002C06FD392C0681002A08013A031DEA2F90
:102F80002B089031AF2097312000AC0076088600E6
:102F9000013087002C0881000F302B05AC002C0875
:102FA000053A0319D72F2B080F39031DDD2F2630C3
:102FB0002B020318DD2F2B08DE2F0530AC002E0866
:102FC0001A3E7B07AD002D088600023087002C08D2
:102FD0008100F32F2E081A3E7B07AC002C088600D8
:102FE00002308700810176088600013087000030BA
:102FF000C03FC13F7608860001308700810108008C
:10356A00080008002100301408009B3137230800A6
:10357A0086311D2608009A31B62208008E310A26A5
:10358A0008003A309D31862508003B309D3186255A
:10359A00080036309D3186250800783021009900D0
:1035AA00080021002D11AE01AF0108002200A71763
:1035BA009D31BA250800FE0012001E00FE0BE12A0A
:1035CA000034640080010131890BE72A0034F330AA
:1035DA0021009E00C03022009700080001309F3170
:1035EA00AF279A3102309F31AF27080001309B3153
:1035FA002C239A3102309B312C2308000130883168
:10360A0070209B310230883170200800003022007F
:10361A00A71B01302000A0002008080001308B31D0
:10362A0059239B3102308B31592308002000A40012
:10363A00A201A20A24088831D120080055302300AB
:10364A009600AA3096009514000000000800200099
:10365A00A20022089C31C224760886000130870025
:10366A000114080015302000A00020082100D40011
:10367A000A30C3000030C400080033309D3186256B
:10368A009B31E8302000A0000330A1009F3162275F
:10369A0008002000A2002008A1002208203E86007F
:1036AA0002308700210881000800230015133030FA
:1036BA0092009101151615159B312323230015112C
:1036CA00080001309C313F249B3102309C313F2459
:1036DA009B3163309C313F24080001309331282309
:1036EA009B310230933128239B3163309331282355
:1036FA00080021004908013A00300319013020006E
:10370A00A0002008A1002108080024000D112700AC
:10371A0094010430950096018B150B100B178B172B
:10372A000800413020009800FA309700383096009F
:10373A00210011140B178B1708001730210097006E
:10374A00220025140A302000A00020082200A6002A
:10375A0008009D3128259B3124008D1001309B31B2
:10376A001B239B3102309B311B2308002000A3013D
:10377A009B317E23013A0030031901302000A20058
:10378A002208A300230808008B1D08000B1C080050
:10379A002700161D080016110B102100201C080016
:1037AA009A31F32208002000A20022089C317524D5
:1037BA0077088600013087000030811A0130200026
:1037CA00A300230808002000A101A201A20A2300E5
:1037DA00C61DD519F22B2000A20120002208A00044
:1037EA002008A100210808002100300C013920001E
:1037FA00A200A3012208A4002308A5002508A1010C
:10380A00A1072408A001A00708002000A101A20125
:10381A00A20A0C1F0C1A152C0C1C8D18152CA201AF
:10382A002208A0002008A10021080800F100710860
:10383A00013A031D242CBE30F0007008F80071080C
:10384A00023A031D0800CD30F0007008F8000800A5
:10385A002000A300A201231C362C2008A100210865
:10386A00A2070310A00D0310A30CA308031D302CFC
:10387A00220808002000A40024089E31B2269C31A8
:10388A0021004F0886000130870001142000A201A0
:10389A0024088831D12008009A31D2229C319D31E6
:1038AA006D259C319B3196239C319A31EC229C31B7
:1038BA009B318A239C319B31A22308002200251CBC
:1038CA0008000130A6022608FF3A031908006430EE
:1038DA002000A00020082200A60080310220080053
:1038EA002000A1002108013A031D7F2CBE30A00050
:1038FA002008F7002108023A031D0800CD30A00075
:10390A002008F70008002000A1002108013A003031
:10391A0003190130A0002400440820002006FE39C3
:10392A0020062400C400C201C30108002000A1002F
:10393A002108013A003003190130A000A00DA00DA2
:10394A002400440820002006FB3920062400C40075
:10395A000800F1007108013A031DB82CBE30F000CE
:10396A0070082100CE007108023A031D0800CD300C
:10397A00F00070082100CE0008002000A1002108F4
:10398A00013A031DCD2C6930A0002008F60008007A
:10399A002108023A031D08006B30A0002008F60037
:1039AA0008002000A1002108013A031DE12C54302F
:1039BA00A0002008F90008002108023A031D0800A7
:1039CA00DC30A0002008F90008002000A10021082E
:1039DA00013A003003190130A000A00EA00DA00D7D
:1039EA0021003C0820002006BF3920062100BC0027
:1039FA00080001302100AE070030AF3D0E30A03E76
:103A0A0086008701403F103A031D0D2D413F273A9A
:103A1A00031D0800AE01AF012D1508009231E42202
:103A2A009D31903185209D319E3111269D319A31EB
:103A3A00CA229D319A31C6229D319B3142239D3142
:103A4A009A31CE22080020008E1A08002100201C7C
:103A5A000800342D20008E169C31FE249D31200052
:103A6A008E1A3A2D21002D1D2F2D9A31D6220800AB
:103A7A00BE302000A40024082100CC0001309F3170
:103A8A0088279D31CD302000A40024082100CD00D4
:103A9A0002309F3188279D319A31B52208002000D3
:103AAA00A10108302102031808002100D21F602D4D
:103ABA0020000E14622D20000E108E140310210017
:103ACA00D20D20008E100130A0002008A107562D2B
:103ADA00773021008C0007308D000C308E002200D8
:103AEA008C0102308D008E01223023008C008D0162
:103AFA008E01773020008C0007308D000C308E004C
:103B0A0008002000A3000E122308A20022082100A8
:103B1A00D200922D9C31FE249D3120000E1D982D3D
:103B2A0021002D1D8F2D9A31D6229D319D3154258C
:103B3A0020000E1608002000A200A101A3013030C7
:103B4A002300920020002208230091001513151467
:103B5A0014082000A0002008A10023001308200058
:103B6A00A0002008A300230808002000A1010530B6
:103B7A002102031808002135323E860001308700F1
:103B8A000030C03FC13F21353C3E860001308700EE
:103B9A00FF30C03FFF30C13F0130A0002008A1071D
:103BAA00BC2D2000A10108302102031808008E1440
:103BBA0003102100D20D20000E1DE62D2100521403
:103BCA00EC2DFE302000A00020082100D2052000A4
:103BDA008E100130A0002008A107D82D2000A400D3
:103BEA0024089C3175247708083E86000130870036
:103BFA00011520002208013A003003190130A30000
:103C0A007708083E860001308700A30D01082306C5
:103C1A00FD392306810008002000A7010830270289
:103C2A000318080027085E3E840090300318013EFE
:103C3A0085000008A5002508A6002608A500250875
:103C4A00A2003E309E31F6269E3101302000A500AA
:103C5A002508A707132E2000A40024089C317524E8
:103C6A007708083E860001308700011620002208E6
:103C7A00013A003003190130A3007708083E860094
:103C8A0001308700A30DA30DA30D01082306F73900
:103C9A002306810008002000A300230821009D00BC
:103CAA002000200821009E009D145E2E9C31FE24D7
:103CBA009E3121009D1C632E2D1D5B2E9A31D6222A
:103CCA0021001C082000A101A10721001B082000D7
:103CDA00A001A00708006334023400340034003421
:103CEA000034003400340034003400340034FF342B
:103CFA00FF34FF340034003400340034003400341C
:103D0A000034003400340034003400340034003409
:103D1A000034003400342000AD01A91F9B2EA809ED
:103D2A00A909A80A0319A90AAD01AD0A2808A00021
:103D3A002908A100A2018E30AB002B08A3002D0890
:103D4A00AC002C08A40088310F2020002008A8000D
:103D5A002108A9002208AA0008002000A1002108C1
:103D6A00013A031DBE2E6130A00020082100CF00B9
:103D7A00080020002108023A031DC92E6530A00060
:103D8A0020082100CF00080020002108633A031D03
:103D9A0008005D30A00020082100CF0008002000A4
:103DAA00E00060089C3175249E3177088600013056
:103DBA0087000115770886000130870081147B0887
:103DCA00093E86000230870001089631E526200068
:103DDA00DF007708053E8600013087005F08810012
:103DEA0008002000A4000E122408A30023082100C2
:103DFA00D200022F9C31FE249E3120000E1D082F76
:103E0A0021002D1DFF2E9A31D6229E319D31542537
:103E1A009E3120002208A30023082100D2009D31F0
:103E2A00542520000E1608000030913162219F317E
:103E3A002000EC006C08ED006D080319292F210001
:103E4A005318322F53142D2F2100531C322F531085
:103E5A0020006D08953184259F3101308331B823C4
:103E6A009F3102308331B8239F319D3128250800C4
:103E7A002000A3000E122308C03EA200220821003F
:103E8A00D2004A2F9C31FE249F3120000E1D502F54
:103E9A0021002D1D472F9A31D6229F319D3154255D
:103EAA009F319D31D62520000E1621005208200090
:103EBA00A20022082100D700080001302000A20039
:103ECA000030A30021082302031D6D2F20082202BF
:103EDA0003180800A401A5010030250202300319C5
:103EEA0024020318832F0130A4070030A53D0030B7
:103EFA002502023003192402031C782F0130A2077D
:103F0A000030A33D672F2000A30023089C317524AD
:103F1A0020302000A2007708053E86000130870085
:103F2A00220881003C30A2007708063E8600013054
:103F3A008700220881007708063E86000130870044
:103F4A000108A2007708043E860001308700220893
:103F5A0081000800F20072089C31AE249F312100D2
:103F6A004E08860001308700011808004E08093EF5
:103F7A00860001308700811A08004E088600013049
:103F8A00870001144E08093E860001308700811619
:103F9A0020000D1DD42F2100CA01CA0A08002100E1
:103FAA00CA0108002100111C08002000111C080089
:103FBA00FA309700383096001110013082310C2205
:103FCA009F31023082310C229F3101302200A10739
:103FDA000030A23D0130203E860001308700403F7C
:103FEA00643A031DFA2F413F003A031D0800A1015C
:063FFA00A20120140800E2
:020000040001F9
:04000E00FCF9FDFFFD
:00000001FF
