:1000000080311628640008007E14803120007F08AB
:10001000F6009A31982280318231EA228031A6316D
:10002000582676082000FF007E100900803118282D
:10003000FC01F701F801F901FA01FB01A03084008D
:10004000003085004A30A531B3258031203084004E
:10005000013085004A30A531B3258031A0308400BD
:10006000013085002530A531B32580312030840052
:10007000023085004730A531B3258031F03084004F
:1000800099308500C5308600013087002030A531C9
:10009000AD257E10200095319B2D7B088600023017
:1000A0008700811E7A287B08033E86000230870085
:1000B0000130810741310318810A7B08033E860025
:1000C00002308700403F2000AD00413FAE000330CA
:1000D0002E02E83003192D02031C08007B08033EA2
:1000E0008600023087000030C03FC13F00309F31A2
:1000F0006B2708007B08860002308700011E7A2AE1
:100100007B0A8600023087000130810741310318E5
:10011000810A7B0A860002308700403F2000AD0044
:10012000413FAE0000302E02053003192D02031CA2
:1001300008007B0A8600023087000030C03FC13FC4
:100140007B0886000230870001127B08453E86004E
:10015000023087007B08443E84000230850000089E
:10016000AD007B08433E84000230850000082D0767
:100170000107AE007B083E3E8600023087002E0855
:100180008100B101B10A043031020318F52831357C
:10019000083E7B07AD002D088600023087007B08F3
:1001A0002E3E840002308500403F80070131413FF0
:1001B000803D3F3131351A3E7B07AD002D0886006A
:1001C000023087007B08303E840002308500403FCB
:1001D00080070131413F803D3F310130AD002D08A6
:1001E000B10704303102031CC7280330A0000030DF
:1001F000A1007B082E3E860002308700403FA2000F
:10020000413FA3009D31102580317B082E3E8600A2
:100210000230870020002008C03F2108C13F033082
:10022000A0000030A1007B08303E8600023087002D
:10023000403FA200413FA3009D31102580317B0843
:10024000303E86000230870020002008C03F210891
:10025000C13F7B082E3E860002308700403FAD0044
:10026000413FAE007B08303E860002308700403FB1
:10027000AF00413FB0002E083002031D41292D0878
:100280002F020318772A7B082E3E86000230870053
:100290007B08303E840002308500003FAD00013F06
:1002A000AE00AD09AE09AD0A0319AE0A403F2D07F5
:1002B000AF00413F2E3DB0007B082C3E860002304F
:1002C00087002F08C03F3008C13F7B083A3E8600B8
:1002D00002308700023001020318BE290130AD0050
:1002E0007B083A3E8600023087002D0881077B0894
:1002F0003A3E8600023087000108013A031D8A2930
:100300007B08363E860002308700F430C03F013063
:10031000C13FBE297B083A3E8600023087000108B3
:10032000023A031DBE297B083E3E8600023087004C
:100330000108013A031DA6297B08363E86000230DB
:1003400087004230C03F0030C13FBE297B08063ED7
:10035000860002308700403FAD00413FAE002D08CF
:100360003A3EAF0000302E3DB0007B08363E86009E
:10037000023087002F08C03F3008C13F7B08363E5F
:10038000860002308700403FAD00413FAE007B0851
:100390002C3E860002308700403FAF00413FB00056
:1003A0002E083002031DD6292D082F02031CF52923
:1003B0000130AD007B083C3E8600023087002D08EE
:1003C00081077B083C3E8600023087000330010233
:1003D000031C772A7B083C3E86000230870081019F
:1003E00001309F316B278031772A7B083C3E8600A5
:1003F0000230870081017B08423E86000230870080
:100400000A30010203180E2A01302000AD007B08DB
:10041000423E8600023087002D0881077B08423E5D
:100420008600023087000A300102031C772A7B080D
:1004300086000230870081152000A201A20A013047
:10044000A7318E2780317B08463E86000230870028
:10045000011C3E2A7B08463E8600023087000110C0
:100460007B082C3E8600023087007B08063E840015
:1004700002308500403F803F413F813F7B08463E40
:10048000860002308700811C772A7B08463E860062
:100490000230870081107B082C3E860002308700E6
:1004A0007B08063E840002308500403F803F413F8C
:1004B000813F7B083E3E8600023087000108200015
:1004C000AD00AE012D08A0002E08A1004230A20010
:1004D0000030A3009931B32180317B08363E86007D
:1004E0000230870020002008C03F2108C13F9A3118
:1004F000542208007B08860002308700811CA22A53
:100500007B088600023087000119902A7B0886004C
:100510000230870001157B088600023087008111B8
:10052000A531C7258031003A03190800A531E5251A
:100530008031003A031908007B08860002308700EA
:10054000011608007B08860002308700011D0800A4
:100550007B0886000230870001117B08860002308C
:10056000870081157B083C3E8600023087008101B0
:100570007B083A3E86000230870081017B08063EF8
:100580008600023087000030C03FC13F7B083F3EFD
:1005900086000230870081017B08463E86000230DB
:1005A000870001107B08463E8600023087008110DC
:1005B0007B082C3E8600023087000030C03FC13FE0
:1005C0009A31542280312000A201A20A0130A731C1
:1005D0008E2708008B1E08000B1D0800A630200087
:1005E00095000B117808860001308700011C432B11
:1005F0000130F2007808033E86000130870072085F
:10060000810721003A08023E860087010108F200B6
:10061000F301F209F309F20A0319F30A7808043E18
:1006200086000130870001087207F4007308031880
:10063000730AF5007808033E8600013087007508CC
:10064000803A803C031D262B74080102031C7F2C7A
:100650007808033E86000130870081017808860013
:100660000130870001107808073E860001308700BE
:1006700001147808860001308700011F7F2C2000BC
:100680008C170D167F2C7808073E860001308700F6
:10069000011C492C7808073E8600013087000110B4
:1006A0007808860001308700811C492C0130F20057
:1006B000780A86000130870072088107780A860070
:1006C000013087007808023E840001308500000870
:1006D0000102031C492C780A860001308700810141
:1006E0007808860001308700811DAC2B78088600D1
:1006F00001308700011A932B7808043E86000130F0
:10070000870044300102031C8D2B7808043E8600CC
:100710000130870001308102492C780886000130C1
:1007200087000116492C7808043E860001308700B6
:10073000783001020318A62B0130F2007808043E3D
:1007400086000130870072088107492C78088600EE
:10075000013087000112492C78088600013087009B
:10076000011DF32B7808053E8600013087007808CC
:10077000043E840001308500000801020318C82BE4
:100780007808043E86000130870001308102DF2BAB
:100790007808043E8600013087007808053E840012
:1007A00001308500000801020318DF2B0130F20040
:1007B0007808043E860001308700720881077808B7
:1007C000053E8600013087007808043E8400013031
:1007D000850000080106031D492C780886000130B9
:1007E000870001110E2C7808860001308700811ED9
:1007F000142C7808043E8600013087000130810205
:100800007808053E8600013087007808043E8400A1
:100810000130850000080102031C492C780886007D
:10082000013087008110492C0130F2007808043E25
:10083000860001308700720881077808043E860030
:10084000013087007808063E8400013085000008EA
:100850000102031C492C78088600013087008110B2
:100860007808860001308700011378080C3E860066
:1008700001308700011421003A0886008701011425
:1008800020008C118E13F001F00A01309B31E72318
:10089000823120008C1F7F2C0130F2007808083E46
:1008A000860001308700720881077808043E8600C0
:1008B000013087000108F200F301F209F309F20A9E
:1008C0000319F30A7208783EF4000030733DF50016
:1008D0007808083E8600013087007508803A803C21
:1008E000031D742C74080102031C7F2C7808083E39
:1008F000860001308700810120008C130D12210039
:100900006C0A860087010130810741310318810A92
:100910006C0A86008701403FC83A031D912C413F75
:10092000003A031D9E2C6C0A860087010030C03FF0
:10093000C13F6B08860001308700811437088600AC
:1009400001308700811C0800370A860001308700CB
:100950000130810741310318810A08002000E800B6
:100960007908860001308700011C08006808A6315C
:10097000212684312000E701E70A0C1F0C1AC42C41
:100980000C1C8D18C42CE701790886000130870003
:1009900067088110031D81147908860001308700E3
:1009A000811CA32D79088600013087000119F92CDC
:1009B0000130E5007908023E8600013087006508B5
:1009C00081077908023E8600013087000530010268
:1009D000031C08007908023E86000130870081016F
:1009E0007908860001308700011568089031E920F8
:1009F0000800790886000130870081192B2D7908BD
:100A0000033E860001308700013081074131031821
:100A1000810A7908033E860001308700403F2000AC
:100A2000E500413FE600003066029630031965029A
:100A3000031C08007908033E86000130870000305F
:100A4000C03FC13F790886000130870081156808E2
:100A50008731D42708007908860001308700011A01
:100A6000702D7908053E860001308700013081072E
:100A700041310318810A7908053E8600013087005C
:100A8000403F2000E500413FE6000030660296301E
:100A900003196502031C08007908053E8600013031
:100AA00087000030C03FC13F7908860001308700D1
:100AB0000116A201A20A0130A7314F27843121007B
:100AC0006B08033E860001308700811C08006430FB
:100AD0002000A6000030A70002308831192008004D
:100AE0007908860001308700811A08007908073EDE
:100AF0008600013087000130810741310318810AE7
:100B00007908073E860001308700403F2000E5005D
:100B1000413FE600013066022C3003196502031CD8
:100B200008007908073E8600013087000030C03F8A
:100B3000C13F79088600013087008116A20101308B
:100B4000A7314F2708007908860001308700011D72
:100B5000080001302000E5007908023E86000130DF
:100B60008700650881077908023E8600013087000A
:100B700005300102031C08007908023E860001309E
:100B8000870081017908860001308700011179080A
:100B9000033E8600013087000030C03FC13F790826
:100BA00086000130870081117908053E86000130FA
:100BB00087000030C03FC13F7908860001308700C0
:100BC00001127908073E8600013087000030C03FDF
:100BD000C13F79088600013087008112680895318D
:100BE0002A2584312000A2010130A7314F270800B7
:100BF0007A08860001308700011C08007A08860008
:100C0000013087000119442E7A0A860001308700DE
:100C10000130810741310318810A7A0A86000130C8
:100C20008700403F2000AD00413FAE0001302E0262
:100C3000F43003192D02031C0800A6314226853129
:100C4000003A03193B2EA531E5258531003A0319F9
:100C50003B2E7A0A8600013087000030C03FC13F3A
:100C60007A0886000130870001157A088600013075
:100C70008700011208007A0A860001308700E830F8
:100C8000C03F0330C13F08007A0A86000130870068
:100C90000130810741310318810A7A0A8600013048
:100CA0008700403F2000AD00413FAE0000302E02E3
:100CB000043003192D02031C08007A0A8600013053
:100CC00087000030C03FC13F7A08860001308700AE
:100CD00001117A080A3E8600013087007A08063E34
:100CE000840001308500403F803F413F813F7A08CA
:100CF000860001308700811CAA2E7A08063E8600F5
:100D000001308700403FAD00413FAE0002302E026F
:100D1000583003192D02031CD82E0130AD007A087B
:100D2000033E8600013087002D0881077A08033EC4
:100D300086000130870003300102031CDE2E7A0892
:100D4000033E860001308700810100309F31222759
:100D50008531DE2E7A08063E860001308700403F4E
:100D60002000AD00413FAE0002302E0227300319B3
:100D70002D020318D82E0130AD007A08033E8600FC
:100D8000013087002D0881077A08033E8600013074
:100D9000870003300102031CDE2E7A08033E860022
:100DA00001308700810101309F3122278531DE2EFD
:100DB0007A08033E86000130870081017A088600A8
:100DC000013087008118E92E7A08860001308700FB
:100DD00001167A08063E860001308700403F200059
:100DE000AD00413FAE002E08AF007D08183E8600E2
:100DF000013087002F0881007A08063E8600013006
:100E000087000108AD007D08193E8600013087008B
:100E10002D0881007A08083E8600013087000030E6
:100E2000C03FC13F7A080A3E86000130870000308B
:100E3000C03FC13F0800210037088600013087000D
:100E4000811220008D19811621003708860001309B
:100E50008700811C08003708063E860001308700A5
:100E6000403F2000A000413FA1002100370A86003A
:100E700001308700403F2000A200413FA30021082D
:100E80002302031D452F20082202031C0800210015
:100E9000370A8600013087000030C03FC13F370865
:100EA000860001308700811AC32F3708033E860071
:100EB000013087008108031DBB2F370886000130F1
:100EC0008700811D892F3708860001308700811136
:100ED0003708043E86000130870001082000A0008A
:100EE00021003708033E86000130870020002008DB
:100EF000810021003708083E86000130870037084E
:100F0000063E840001308500403F803F413F813FE5
:100F100008003708860001308700011EB52F37080A
:100F200086000130870001123708053E8600013037
:100F3000870001082000A00021003708033E86003A
:100F400001308700200020088100210037080A3E78
:100F50008600013087003708063E84000130850096
:100F6000403F803F413F813F080037088600013005
:100F7000870081100800370886000130870081163D
:100F800020008D15080021003708860001308700F9
:100F9000811220008D1121003708033E86000130A8
:100FA00087000130810208002000A500A401A40AE6
:100FB0002408031908007908860001308700811F82
:100FC0000800790A8600013087000114790886003C
:100FD000013087000117A201A20A2508A7311327B3
:100FE00087312000A201A20A2508A731CE27873128
:100FF0002000A201A20A2508A731BE272000080070
:10100000773021008C0007308D000C308E002200DC
:101010008C0102308D008E01223023008C008D0166
:101020008E01773020008C0007308D000C308E0050
:1010300008002000A9001430A0000030A1002708FB
:10104000A301A3072608A201A2079931B321883181
:1010500020002108A701A7072008A601A607210054
:101060003708860001308700011C08003708860019
:101070000130870081185A28370886000130870020
:10108000811420002908A80021003708033E8600AB
:101090000130870020002808810021003708063E23
:1010A00086000130870020002608C03F2708C13F86
:1010B0008D1508002100370886000130870081194E
:1010C0007E28370886000130870081152000290816
:1010D000A80021003708043E860001308700200068
:1010E0002808810021003708083E8600013087006B
:1010F00020002608C03F2708C13F0800210037080C
:10110000860001308700011A080037088600013088
:101110008700011620002908A80021003708053E95
:101120008600013087002000280881002100370850
:101130000A3E86000130870020002608C03F2708AD
:10114000C13F08002000E3006308A63188268831EB
:1011500021003F08860087010118E3283008803A03
:10116000031DBF282000A301A30A2100310820008D
:10117000E2006208A40063089131F821883121005F
:101180003F088600870101142000A201A20A63081B
:10119000A731222788312000A201A20A6308A731C3
:1011A0007E2788312000A201A20A6308A7316E279A
:1011B000883121003F088600870100300118013086
:1011C0002000DD00212921003008803A031DF92884
:1011D0002000A301A30A210031082000E2006208D8
:1011E000A40063089131F82188312000DD01DD0A77
:1011F000212921003F088600870101102000A2015B
:101200006308A731222788312000A201A20A6308BF
:10121000A7317E27883121003F08860087010030F2
:10122000011801302000A2006308A7316E27883121
:101230002000A301A40163089131F8218831200026
:10124000DD01630893317723883164302000A600E4
:101250000030A700013088311920883101308A31EF
:10126000F22208002000EA006A08A631942689319B
:1012700021003E0886008701011C08002000EB01C8
:101280000C1F0C1A47290C1847298D1C50292100C6
:101290003E0886008701011B50292000EB01EB0A64
:1012A00021003E088600870120006B088113031D82
:1012B000811721003E0886008701811B8C293E088A
:1012C00086008701811C70293E08860087018110F5
:1012D0009331132389310130903145208931902990
:1012E00021003E0886008701011990293E088600EA
:1012F0008701811990293E088600870181153630C3
:10130000A7315E2789313430A7315E27893101301A
:10131000A531EE258931902901309A31E3228931B6
:1013200021003E0886008701011D080001309A3126
:10133000E322893121003E0886008701811ABB29FA
:1013400001302000E90021003E0A860087012000CC
:101350006908810721003E0A860087010108193AC1
:10136000031D08003E0A8600870181013E088600B1
:101370008701811608003E088600870181123E0819
:101380008600870101119E310B2608002000A6006F
:101390002608A6311626893120002608A50021003E
:1013A0003A0A8600870120002508810024080319D5
:1013B000302A77088600013087008116A2012608AE
:1013C00092315422893120008E17003098319B20B1
:1013D00089317708860001308700811403302000AE
:1013E000A5007708023E86000130870025088100AD
:1013F0007708860001308700011B08007708860007
:10140000013087000117A001A00A26089C31A924F9
:1014100021006A08223E86000130870081106A0898
:10142000233E8600013087000030C03FC13F77086F
:10143000053E86000130870001082000A5007708DE
:10144000043E860001308700250881004330A50056
:101450007708043E860001308700250881000800D7
:10146000770886000130870081127708063E8600E3
:10147000013087000108A5007708043E860001308E
:1014800087002508810077088600013087008114D5
:1014900077088600013087008111770886000130C7
:1014A000870001120330A5007708023E8600013054
:1014B00087002508810008002000A900AB01AA01CF
:1014C0007B08860002308700011E0800C030A4009F
:1014D0002408A00029089831B0208A317B08323EC8
:1014E00086000230870020002008C03F2108C13F4D
:1014F000AB0105302B020318B62A7B08323E86006A
:1015000002308700403FA400413FA5002B35083E34
:101510007B07A6002608860002308700403FA70010
:10152000413FA80025082802031D982A2408270205
:101530000318AE2A7B08323E8600023087002B3526
:10154000083E7B07A4002408840002308500403F49
:10155000803F413F813FAA01AA0AB62A0130A40078
:101560002408AB0705302B02031C7D2AAA08031DA3
:101570000800AB0105302B02031808002B351A3E7A
:101580007B07A4002408860002308700403FA500A6
:10159000413FA6007B08323E860002308700403F74
:1015A000A700413FA80026082802031DD92A2508C4
:1015B00027020318ED2A7B08323E8600023087009E
:1015C0002B351A3E7B07A4002408840002308500D6
:1015D000403F803F413F813F08000130A400240884
:1015E000AB07BA2A2000A3002308A63194268A312B
:1015F00021003E0886008701011C08003E08860085
:101600008701011908003E08860087010115633033
:101610002000A20022082100A00002302000A20029
:1016200022082100A1007D088600013087000130DA
:10163000423FA2007D088600013087000130433F11
:10164000A3007D088600013087000130443FA400DC
:101650007D088600013087000130453FA5007D08E8
:101660008600013087000130463FA6007D088600D5
:10167000013087000130473FA7007D088600013018
:1016800087000130483FA8007D08860001308700B0
:101690000130493FA9007D088600013087000130F4
:1016A0004A3FAA007D0886000130870001304B3F89
:1016B000AB007D0886000130870001304C3FAC0054
:1016C0007D0886000130870001304D3FAD007D0868
:1016D00086000130870001304E3FAE007D08860055
:1016E0000130870001304F3FAF007D088600013098
:1016F00087000130503FB0007D0886000130870030
:101700000130513FB1007D08860001308700013073
:10171000523FB2007D088600013087000130533F00
:10172000B300D1302000A20022082100B40008003C
:1017300020003108B4003208B5003308B6000310A9
:10174000350D360DB7003708BC00BC08031DAF2BA4
:101750000030AE000030AF000030B00008002E08AE
:10176000B4002F08B5003008B6000310350D360D53
:10177000B7003708BD00BD08031DC52B0030AE0003
:101780000030AF000030B00008000030B900003079
:10179000BA000030BB0089303D07B4003408BC02F9
:1017A0003108B4003208B5003308B6001030B63640
:1017B000B50CB40C890BD72B3408B7003708BD0023
:1017C0002E08B4002F08B5003008B6001030B63629
:1017D000B50CB40C890BE72B3408B7003708BD06ED
:1017E0008030B4003408BD05B217FF30B105FF30BA
:1017F000B2050030B305AF17FF30AE05FF30AF05BF
:101800000030B0051830B4003408B8000130B935E4
:10181000BA0DBB0D890B072C30083302031D162CA3
:101820002F083202031D162C2E083102031C1F2C18
:101830002E08B1022F08B23B3008B33B39140130F7
:10184000B135B20DB30D890B202C0130B802031D48
:10185000062C3908A0003A08A1003B08A2003C0869
:10186000B4003408A3003D08B5003508A400923147
:10187000B22220002008AE002108AF002208B000EC
:10188000080020002E08B4002F08B5003008B6006C
:101890000310350D360DB7003708B800B808031D22
:1018A000582C0030AE000030AF000030B00008000F
:1018B0003108B4003208B5003308B6000310350D06
:1018C000360DB7003708BD00BD08031D6E2C003073
:1018D000AE000030AF000030B00008003D087B3E95
:1018E000B4003408B8072E08B4002F08B50030083B
:1018F000B6001030B636B50CB40C890B7A2C34080F
:10190000B7003708BD003108B4003208B50033080D
:10191000B6001030B636B50CB40C890B8A2C3408DE
:10192000B7003708BD068030B4003408BD05AF17D6
:10193000B217FF30B105FF30B2050030B3050030FB
:10194000B9000030BA000030BB000730B4003408E2
:10195000BC002E1CB12C3108B9073208BA3D33083F
:10196000BB3D0130B036AF0CAE0C890BB22C013050
:10197000B135B20DB30D890BB82C0130BC02031D7B
:10198000A92C0930B4003408BC002E1CCD2C310821
:10199000B9073208BA3D3308BB3D0130B036AF0C51
:1019A000AE0C890BCE2C0130BB36BA0CB90C890BAE
:1019B000D42C0130BC02031DC52C3908A0003A0804
:1019C000A1003B08A2003808B4003408A3003D0879
:1019D000B5003508A4009231B22220002008AE00E4
:1019E0002108AF002208B000080020003E08C40013
:1019F0003F08C5004008C6000310450D460DC7004E
:101A00004708CA004108C4004208C5004308C60090
:101A10000310450D460DC7004708C9004A080319C1
:101A20001D2D49084A020318242D4A03FF3A49078D
:101A3000C40019304402031C242D4108BE00420892
:101A4000BF004308C00008004908031908004A08FD
:101A500049020318332D4903FF3A4A07C4001930DD
:101A60004402031808000630C4004408C800C01B24
:101A7000C817C31B4817BF17FF30BE05FF30BF058F
:101A80000030C005C217FF30C105FF30C20500306D
:101A9000C30549084A0203186F2D0130C135C20D34
:101AA000C30D890B4E2D0130C90249084A0603199E
:101AB0006A2D0130C8024808073903196A2D4D2DD7
:101AC0000130C036BF0CBE0C890B612D0130C40043
:101AD0004408CA074A0849060319942D602D4A088C
:101AE00049020318942D0130BE35BF0DC00D890B7E
:101AF000742D0130CA0249084A060319902D01309D
:101B0000C802480807390319902D732D0130C336D8
:101B1000C20CC10C890B872D0130C4004408C907D1
:101B20004A084906031D862DC81FA62DFF30BE0694
:101B3000FF30BF06FF30C0060130BE07003003187B
:101B40000130BF07003003180130C007481FB82D0F
:101B5000FF30C106FF30C206FF30C3060130C107A7
:101B6000003003180130C207003003180130C307EA
:101B7000C8013E08C1073F08C23D4008C33DC31F1E
:101B8000D32DFF30C106FF30C206FF30C30601303F
:101B9000C107003003180130C207003003180130BC
:101BA000C307C801C80A4108A0004208A1004308B1
:101BB000A2004A08C4004408A3004808C50045081C
:101BC000A4009231B22220002008BE002108BF00EC
:101BD0002208C00008001F30993110218D31AA3A27
:101BE000031D642E0030993110218D312000DD005D
:101BF0007D080C3E8600013087005D0881000130C1
:101C0000993110218D312000DD007D080D3E8600C8
:101C1000013087005D0881000230993110218D313B
:101C20002000DD007D080E3E8600013087005D0843
:101C3000810043309E3194268D312000DD005D0807
:101C4000DE005E08DD007D08153E8600013087005D
:101C50005D0881005E08DD007D08163E86000130CB
:101C600087005D0881005E08DD007D08173E860064
:101C7000013087005D0881007D080C3E8600013040
:101C800087000108FF3A031D08007D080D3E86000D
:101C9000013087000108FF3A031D08007D080E3E51
:101CA0008600013087000108FF3A031D080021006B
:101CB0006B0886000130870081166B08033E8600A2
:101CC000013087008114080043309E3194268D3105
:101CD0002000DD005D08DE00FF30DD0021006A0825
:101CE00086000130870020005D088100FF30DD00A4
:101CF00021006A0A86000130870020005D0881000B
:101D0000FF30DD0021006A08023E860001308700B6
:101D100020005D088100FF30DD0021006A08033EDD
:101D200086000130870020005D088100FF30DD0063
:101D300021006A08043E86000130870020005D080B
:101D40008100FF30DD0021006A08053E8600013079
:101D5000870020005D088100AA30DD0021006A08AC
:101D60001F3E86000130870020005D0881005E086C
:101D7000DD007D08153E8600013087005D0881008A
:101D80005E08DD007D08163E8600013087005D0894
:101D900081005E08DD007D08173E86000130870067
:101DA0005D0881008B139C3178248B1721006B0810
:101DB00086000130870081166B08033E86000130E3
:101DC00087008114080021003D088600013087004B
:101DD000011C08003D088600013087008119362F5C
:101DE0003D08023E86000130870001308107413105
:101DF0000318810A3D08023E860001308700403FFB
:101E00002000AD00413FAE0002302E02BC3003196D
:101E10002D02031C0800A63142268E31003A031918
:101E20002B2FA531C7258E31003A03192B2F210006
:101E30003D08023E8600013087000030C03FC13FB0
:101E40003D0886000130870081153D08860001307D
:101E500087000111080021003D08023E8600013084
:101E60008700BC30C03F0230C13F08003D08023E41
:101E70008600013087000130810741310318810A53
:101E80003D08023E860001308700403F2000AD0043
:101E9000413FAE0000302E02023003192D02031C18
:101EA000080021003D08023E860001308700003016
:101EB000C03FC13F3D0886000130870081113D08C9
:101EC000860001308700811CA52F3D08043E860056
:101ED00001308700403F2000AD00413FAE0001309F
:101EE0002E02913003192D020318E52F21003D0821
:101EF000043E860001308700403F2000AD00413F96
:101F0000AE0000302E02C83003192D02031CE52F4D
:101F10000130AD0021003D0A86000130870020001D
:101F20002D08810721003D0A86000130870002301C
:101F30000102031CEB2F3D0A86000130870081015E
:101F40000030903100208E31EB2F3D08043E86009A
:101F500001308700403F2000AD00413FAE0001301E
:101F60002E02903003192D020318C82F21003D08BE
:101F7000043E860001308700403F2000AD00413F15
:101F8000AE0000302E02D33003192D020318E52FC6
:101F90000130AD0021003D0A86000130870020009D
:101FA0002D08810721003D0A86000130870002309C
:101FB0000102031CEB2F3D0A8600013087008101DE
:101FC0000130903100208E31EB2F21003D0A860038
:101FD00001308700810121003D0886000130870023
:101FE0008118F72F3D0886000130870001153D0854
:101FF000043E8600013087000030C03FC13F08002A
:102000002000AC0021003D08860001308700200040
:102010002C088110031D81142C090139AB0021000B
:102020003D088600013087002000AB0DAB0D010894
:102030002B06FB392B0681002C08013A031D2B28A7
:1020400003309131422190312000A201A20A0230D6
:1020500092315422903120002C080A3EAB002B080C
:10206000A200633092315422903120002C090139B2
:10207000A7313127903120002C090139AB002B0802
:10208000A20001309B31602308002000E8006808AE
:10209000A6319426903121003E0886008701011F59
:1020A0005C28A008031D08002108643A031D0800ED
:1020B00001309E31DA2608002100A008031D080027
:1020C0002108023A031D08002C08FF3A031D72285C
:1020D0002D08FF3A031D72282E08FF3A031D7228AF
:1020E000000008007D080C3E8600013087002100BA
:1020F0002C080106031D08007D080D3E86000130F6
:1021000087002D080106031D08007D080E3E86008D
:10211000013087002E080106031D080001309431AC
:10212000BC2408002000A5002508A6311626903101
:102130007708860001308700811E08007708860036
:1021400001308700811077088600013087008111F7
:102150007708860001308700011277088600013079
:102160008700011303302000A4007708023E860098
:1021700001308700240881007708063E8600013080
:1021800087000108A4007708043E8600013087001C
:102190002408810021003A088600870101142000EC
:1021A000A001A00A25089C31472490312000A201FB
:1021B000A20A25089231542290312000A20125085C
:1021C000A731222790312000A2012508A73113272B
:1021D00008002000E300E201E20A62080319080097
:1021E000790886000130870081176430A60000302E
:1021F000A70001308831192090317908860001301C
:102200008700011B2F2979088600013087000117FC
:102210002000A201A20A6308A731132790312000F1
:10222000A201A20A6308A7317E2790312000A201F3
:10223000A20A6308A7316E27903179088600013021
:1022400087000030011B01302000DD00630893315E
:102250007723903101308A31F2222000080079087A
:10226000860001308700011379088600013087005D
:102270000030011B01302000A2006308A7311327A2
:10228000200008002000AA002A08013A031D58294E
:10229000A631AC269131003A031970292C30200068
:1022A000A6000130A7000A30883119209131702929
:1022B00020002A08023A031D6B292C30A6000130A9
:1022C000A700053088311920913121003A0A860093
:1022D00087010108712920002A08033A031D742987
:1022E00001309031922091312000A20101309B31C8
:1022F0003523913121006B08033E860001308700B1
:10230000011808006B080F3E86000130870001109D
:102310006B080F3E86000130870081106B080F3E6E
:1023200086000130870001156B08083E86000130E9
:1023300087000030C03FC13F08002000DB000030B4
:10234000DC005430DD004230DE000030AE00C8302A
:10235000AF004230B0005C08B1005D08B2005E081A
:10236000B3008B319823913120002E08DC002F0818
:10237000DD003008DE005B08D900DA01D909DA098E
:10238000D90A0319DA0A5908643EA80000305A3DF8
:10239000A9009A311022913120002808B1002908A3
:1023A000B2002A08B3005C08AE005D08AF005E080A
:1023B000B0008C314124913120002E08C1002F083B
:1023C000C2003008C3000030BE008630BF0042307B
:1023D000C0008C31F524913120003E08CB003F082D
:1023E000CC004008CD009731792720004B08080029
:1023F0002000A7002708A6317C269131210039084A
:1024000086008701011C080039088600870120002A
:1024100023088110031D8114230803193A2A240874
:102420009B31B92391312000A5002100390A860093
:1024300087012000250881000F302405A50025080C
:10244000053A0319272A24080F39031D2D2A26309F
:10245000240203182D2A24082E2A0530A500270857
:102460001A3E7D07A6002608860001308700250851
:102470008100462AA308031D462A27081A3E7D0725
:10248000A500250886000130870081012100390858
:10249000023E860087010030C03FC13F3908043E3C
:1024A00086008701810108002000A30023089A31DB
:1024B000322292312000A208031D702A2308013A1B
:1024C000031D642A8C1508002308023A031D6A2A9A
:1024D0008E1708002308633A031D08008D160800B4
:1024E0002208013A031D862A2308013A031D7A2A8D
:1024F0008C1108002308023A031D802A8E1308005D
:102500002308633A031D08008D12080022080A3AC6
:10251000031DA82A21003C088600870181103C0A7F
:10252000860087010030C03FC13F20002308013AE8
:10253000031D9C2A8C1508002308023A031DA22AB9
:102540008E1708002308633A031D08008D16080043
:1025500022080B3A031D080021003C088600870171
:1025600081140800200023080319BB2A2208210433
:102570002004031DCC2A0030A0000030A100003050
:10258000A20008000130A5002508A3070130A236EB
:10259000A10CA00C890BC72AFE3022050319E52ADD
:1025A000C22A0130A5002508A3070130A00700308A
:1025B00003180130A107003003180130A2070130D1
:1025C000A236A10CA00C890BE02AFF3022050319CA
:1025D000F22AD12A0130A3020130A035A10DA20DAB
:1025E000890BED2AA11FEA2A2318FC2AFF30A00537
:1025F0007F30A105FF30A2050310A30C2308A5001E
:10260000A601A7011030A535A60DA70D890B032B38
:102610002508A0042608A1042708A20424080319F9
:102620000800A217080020000D180D18152B3B30CC
:1026300099315F219331210046080319692B20004D
:102640000E12FF30A40024082100C20020000E1941
:10265000262B9831DE209331993196219331210038
:1026600042082000A40024082100C1002000A50188
:1026700021004108200025020318502B9931962192
:102680009331210042082000A4002508A03E8600C6
:102690008701240881000130A4002408A507382BF5
:1026A000993196219331210042082000A40024088A
:1026B0002100C00099319621933121004208200069
:1026C000A40024082100B80020000E162100B81B29
:1026D0007C143630A7315E2793313A30A7315E271C
:1026E00093312000A2010130A731402708002000CB
:1026F000E100E001E00A6108FF3E890A812B031036
:10270000E00DFF3E031D7F2B6108DE007D080B3EC0
:102710008600013087005E08810043309E31942698
:1027200093312000DE006108143E7D07DF005F0862
:102730008600013087005E0881006108143E7D0735
:10274000DE005E088600013087000108DF007D089A
:10275000093E8600013087005F08810061081A3E4B
:102760007D07DE005E088600013087000108DF007B
:102770007D08113E8600013087005F0881005D08FA
:102780000319D22B7D080F3E860001308700010817
:102790006004DE007D080F3E8600013087005E0881
:1027A000810008007D080F3E860001308700600927
:1027B0000105DE007D080F3E8600013087005E08BF
:1027C000810008002000A8007A08860001308700F8
:1027D000011D0800F030A4002408A000280898314A
:1027E000B02093317A080C3E86000130870020002B
:1027F0002008C03F2108C13F7A080C3E8600013006
:102800008700403FA400413FA5007A08083E8600AB
:1028100001308700403FA600413FA700250827025E
:10282000031D142C240826020318252C7A080C3EBC
:102830008600013087007A08083E84000130850058
:10284000403F803F413F813F08007A080C3E8600B0
:1028500001308700403FA400413FA5007A080A3EAE
:10286000860001308700403FA600413FA7002508B1
:102870002702031D3D2C24082602031808007A08AD
:102880000C3E8600013087007A080A3E8400013041
:102890008500403F803F413F813F08002000A60166
:1028A0002030260203186D2C26089931102194310E
:1028B0002000A400260821006A072000A5002508A2
:1028C000860001308700240881000130A40024081C
:1028D000A60720302602031C542C7D080C3E8600DF
:1028E000013087000108A40021006A088600013039
:1028F00087002000240881007D080D3E86000130FD
:1029000087000108A40021006A0A860001308700C0
:102910002000240881007D080E3E860001308700DB
:102920000108A40021006A08023E860001308700E9
:1029300020002408810021006A08223E8600013020
:102940008700011DB42C6A08223E860001308700F2
:1029500001116B0886000130870081126B08033E6D
:1029600086000130870081108B13A631B826943180
:102970009C3178248B1708002000E7006708A631F7
:10298000942694312100AF08031DFD2C2000A401E2
:1029900001308931C62194312000A2010130A731D4
:1029A000132794312000A2010130A731222794314E
:1029B0007D08093E86000130870081017D080B3EBD
:1029C00086000130870081017D080F3E86000130BE
:1029D000870081017D08113E86000130870081015A
:1029E00064302000A6000030A70001308831192093
:1029F000943101308A31F222080021002F08203A58
:102A0000031D182D7D08093E8600013087008101D5
:102A10007D080B3E86000130870081017D08113E54
:102A2000860001308700810101308A31F2220800DE
:102A300021002F08013A031D212D01308831A220E9
:102A4000080021002F08113A031D080001309D31B4
:102A5000872508002000E4007908860001308700FF
:102A6000811F0800790886000130870081137908EA
:102A7000860001308700011F762D790A860001301B
:102A80008700011C0800790A8600013087000110C8
:102A9000A201A20A6408A731CE2795312000A20125
:102AA0006408A731BE279531200064081A3E7D07CF
:102AB000E20062088600013087000108E3007D081B
:102AC000113E860001308700630881007908860086
:102AD000013087000030011B0130DD0064089331B4
:102AE0007723953101308A31F22208002000A201BB
:102AF000A20A6408A7317E2795312000A20164084C
:102B0000A7316E2795312000A301A40164089131FB
:102B1000F821953179088600013087000030011BCB
:102B200001302000DD0064089331772395310130B6
:102B30008A31F2220800983172209531993144216E
:102B400095318D31EB259531A631C4269531A631CD
:102B500064269531A5317C259531A631DD26953148
:102B6000A53176259531A5318E259531A631A02642
:102B70009531A531F7259531A531962595319831B7
:102B80008620953121006B08860001308700011CEA
:102B9000D82D05308A315C22953109309331E223FA
:102BA000953111309F31B527953187311B279531EC
:102BB00021006B08860001308700811CC22D6B0844
:102BC00086000130870081109631FC2695319931BD
:102BD0007A21953121006B08860001308700011CA5
:102BE000C22D9E314F269531983166209531A53101
:102BF0007F25953180314D209531A531792595314D
:102C0000A531C0259531A5319E259531A5319A254F
:102C10009531A53192259531C22D2000E600E501C0
:102C2000E50A6608A631162696317708093E860021
:102C300001308700811C4D2E200065080319080013
:102C40007708093E860001308700011C3A2E77087C
:102C5000093E8600013087008110A401A40A66089D
:102C60008931C62177080C3E8600013087000110AB
:102C7000200008007708093E860001308700811097
:102C80002000A40166088931C62177080C3E860021
:102C9000013087000110200008007708093E8600F7
:102CA000013087008119562E200008002000650899
:102CB000031908006608A631162696317708093EE2
:102CC00086000130870081117708093E86000130B7
:102CD0008700011D7C2E2000E201E20A66089D317A
:102CE000C725963164302000A6000030A7000130CF
:102CF00088311920200008002000E20166089D317B
:102D0000C725200008002000E4006408A6317C26C6
:102D100096312100390886008701811C0800390896
:102D2000023E860087010130810741310318810A84
:102D30003908023E86008701403F2000E200413F03
:102D4000E30015306302E03003196202031C08003F
:102D500021003908023E860087010030C03FC13F94
:102D600001302000E20021003908043E860087017E
:102D700020006208810721003908043E860087018F
:102D8000390A8400850100080102031C0800390883
:102D9000043E860087018101390886008701811081
:102DA0002000A2016408A731222796312000A20149
:102DB0006408A731132796312000DD0164089331A0
:102DC000772396312000A201A20A6408A7317E274A
:102DD00096312000A2016408A7316E279631013098
:102DE0008A31F222963164302000A6000030A7001C
:102DF000013088311920080021006B08860001305D
:102E000087000118472F6B0A8600013087000130C8
:102E1000810741310318810A6B0A8600013087005F
:102E2000403F963A031D162F413F003A031D08000C
:102E30006B0A8600013087000030C03FC13F6B083D
:102E400086000130870001140130A6313726963103
:102E50000130A7319E27963132302000A600003085
:102E6000A700033088311920963121006B08033EFA
:102E700086000130870001140130A73131279631D7
:102E80002000A201A20A01309B316023080021002A
:102E90006B08063E86000130870001308107413112
:102EA0000318810A6B08063E860001308700403F08
:102EB000643A031D5D2F413F003A031D08006B0873
:102EC000063E8600013087000030C03FC13F6B08DE
:102ED000860001308700811D732F6B08860001304A
:102EE0008700811108006B0886000130870081157A
:102EF000080020004B08CF004C08D0004D08D1003E
:102F00000310500D510DD2005208D800D808031DEF
:102F1000922F0030CE000030CD000030CC000030C9
:102F2000CB0008004B08CF004C08D0004D08D10062
:102F30001730D136D00CCF0C890B992F4F08D20007
:102F40005208D300CC17FF30CB05FF30CC05003042
:102F5000CD054B08D4004C08D5004D08D600D7014C
:102F60008E30D802D81FD02F5808803A8F3E0318D1
:102F7000C22F0030CE000030CD000030CC00003039
:102F8000CB0008000130D736D60CD50CD40C890BF9
:102F9000C32F0130CF004F08D8070319E92FC22FE4
:102FA00018305802031CE62F0030CE000030CD0050
:102FB0000030CC000030CB0008000130D435D50DF6
:102FC000D60DD70D890BDE2F0130D802D808031D8E
:102FD000DD2F53080319F72FD409D509D609D709CE
:102FE000D40A0319D50A0319D60A0319D70A5708B0
:102FF000CE005608CD005508CC005408CB00080080
:103000000334163417341E341F3420342A342B343E
:103010000B340C340D340E340F341034113412349C
:10302000133414340A341534213422341834193446
:103030001A341B341C341D342334243425342634F0
:1030400029342C342D342E34003401340234073426
:10305000083409340634043405342734283407345A
:103060000734303487346B34F8347F343F340934D8
:1030700000345C34A734623486348334033422341D
:10308000F83400344434B634103418341D341C344D
:10309000C7340034B234EA340A34003411345934B9
:1030A000883431340B342F342E3406340434053450
:1030B00000343034D334913441340034FE34FE349F
:1030C000FE34FE34FE34FE34FE34FE3401309D31D5
:1030D0004725983102309D314725983163309D3125
:1030E00047250800C5302000A0002008FD00D13091
:1030F000A0007D08143E8600013087002008810072
:103100002030A00020082100EB0008009C3117248B
:1031100098319B310B2398319931D1219831A531C8
:1031200086259831A53182259831A63170269831AF
:10313000A5318A2508002000A1002108A0007B08F5
:103140003A3E860002308700200881002108A00056
:103150007B08423E8600023087002008810008007C
:103160002000A300230821009D002000200821004A
:103170009E009D149D18BA281C082000A101A107DB
:1031800021001B082000A001A00708001730210023
:103190009700E7302000A00020082100ED006D0816
:1031A0008600870101140A302000A00021006D0A6A
:1031B0008600870120002008810008002000A1016E
:1031C00008302102031808002100C21FEA2820004D
:1031D0000E14EC2820000E108E1403102100C20DD6
:1031E00020008E100130A0002008A107E028200058
:1031F000A4000E122408A30023082100C20020000E
:103200000E19FF289831DE20983120002208A300F3
:1032100023082100C2009831DE2020000E1608008D
:103220002000A200A30130302300920020002208D9
:10323000230091001513151414082000A000200885
:10324000A100230013082000A0002008A3002308E9
:10325000080021003A0886008701011C08003A088E
:10326000860087010110A631AC2699310038031D74
:1032700008000030A6312C2621006A08223E860074
:1032800001308700811408007830210099008831CE
:1032900000209931A631F7269931A531CE259931F3
:1032A000A531A7259931A631EA269931A030200011
:1032B000A10021082100EA009831C6200800200062
:1032C000A3000E122308C03EA20022082100C20063
:1032D00020000E1968299831DE2099319931962104
:1032E00020000E16210042082000A2002208210022
:1032F000C600080021006D0886008701011C080037
:103300006D0A86008701013081020108FF3A031926
:1033100008000A302000A00021006D0A8600870105
:103320002000200881008031022008002000A10137
:1033300008302102031808008E1403102100C20D6A
:1033400020000E1DA62921004214AC29FE302000C9
:10335000A00020082100C20520008E100130A0002E
:103360002008A10798292000A401A501201CBC2940
:103370002208A4072308A53D0130A235A30D890B1F
:10338000BD290130A136A00C890BC22921082004D7
:10339000031DB6292508A101A1072408A001A00743
:1033A00008002000A701083027020318080027089A
:1033B0005E3E840098300318013E85000008A50099
:1033C0002508A6002608A5002508A2003E30983151
:1033D000F720993101302000A5002508A707D3293F
:1033E00063340234003400340034003400340034D8
:1033F0000034003400340034FF34FF34FF34003430
:10340000003400340034003400340034003400341C
:10341000003400340034003400340034003400340C
:103420002000AD01A91F1B2AA809A909A80A031990
:10343000A90AAD01AD0A2808A0002908A100A2012F
:103440008E30AB002B08A3002D08AC002C08A40084
:103450009231B22220002008A8002108A9002208E9
:10346000AA0008002000A1002108013A031D3E2AFD
:10347000D930A00020082100BC000800200021084D
:10348000023A031D492ADD30A00020082100BC00BB
:10349000080020002108633A031D0800D530A00071
:1034A00020082100BC0008002000A10105302102F5
:1034B000031808002135083E7B07A000200886007D
:1034C000023087000030C03FC13F21351A3E7B07E4
:1034D000A0002008860002308700FF30C03FFF3088
:1034E000C13F0130A0002008A107562A2000E000BB
:1034F0006008A63116269A317708860001308700C9
:103500000115770886000130870081147D08093E87
:10351000860001308700010891319D212000DF00E5
:103520007708053E8600013087005F0881000800AB
:103530008B1D08002700161D080016110B10210016
:103540006B08860001308700011C0800A7310427A2
:103550009A3120000D1DB32A21003A08023E860050
:103560008701810108000830F00021003A08023E7E
:103570008600870170088100080001302000A20049
:103580000030A30021082302031DC82A20082202BC
:1035900003180800A401A501003025020230031918
:1035A00024020318DE2A0130A4070030A53D0030B4
:1035B0002502023003192402031CD32A0130A2077A
:1035C0000030A33DC22A2000A4002408A63194267E
:1035D0009A3121003E0886008701811D08003E08BF
:1035E0008600870181113E088600870181103E0A0E
:1035F0008600870181013E088600870181123630EE
:10360000A7315E279A313A30A7315E279A310030D0
:10361000A531EE2508002000A8012F30280203184C
:1036200008002808003E840098300318013E8500F9
:103630000008A5002508A60028082F3E8400983021
:103640000318013E85000008A5002508A7002708EB
:10365000A5002508A20026089831F7209B310130EB
:103660002000A5002508A8070D2B2000A300230893
:10367000A63116267708093E860001308700200013
:1036800022088110031D81147708093E860001304D
:10369000870022080110031D01147708093E8600E7
:1036A0000130870022088111031D81157708093E2A
:1036B00086000130870022080111031D0115080052
:1036C0002000A3002308A63194269B3121003E0848
:1036D00086008701200022080110031D011421002B
:1036E0003E088600870101133E088600870101110C
:1036F0003E088600870181113E08860087018110FF
:103700003E0A8600870181013E08860087018112FA
:103710000030A531EE2508002000A3002308A631C3
:10372000162677080C3E86000130870001144330CE
:103730002000A2007708053E86000130870022089D
:1037400081007830A2007708063E860001308700AD
:10375000220881007708063E8600013087000108B4
:10376000A2007708043E860001308700220881000D
:1037700008002000A2000530A0002008A1002208B7
:10378000053A031DC52B0530E22B2208103A031D14
:10379000CB2B0A30E22B2208153A031DD12B0F3018
:1037A000E22B2208203A031DD72B1430E22B2208EB
:1037B000253A031DDD2B1930E22B2208303A031D78
:1037C000E52B1E30A0002008A10021080800F10010
:1037D0007B08463E86000230870070088110031D7A
:1037E00081147B08423E860002308700023081024D
:1037F0007108013A031D022C7B08433E860002300B
:10380000870081017108023A031D0C2C7B08443E9D
:1038100086000230870081017108033A031D080009
:103820007B08453E860002308700810108002000A9
:103830008E100E100E160A30A0000030A1009A3132
:10384000BD229C3120000E120A30A0000030A100E1
:103850009A31BD229C3120000E162830A000003085
:10386000A1009A31BD229C3120000E123030A600FA
:1038700026082100C20020000E193B2C9831DE20C2
:103880009C3120000E19412C0E100E16080020004D
:10389000A1007B08463E8600023087002008811088
:1038A000031D81147B08423E8600023087000230EF
:1038B00081022108013A031D632C7B08433E8600E8
:1038C0000230870081012108023A031D6D2C7B081C
:1038D000443E86000230870081012108033A031D1F
:1038E00008007B08453E8600023087008101080001
:1038F00023001513303092009401151295161515FA
:103900002000A101203021020318A22C210823004D
:1039100091002000210821006A072000A000200853
:10392000860001308700010823009300A531DC25C3
:103930009C3101302000A0002008A1072030210286
:10394000031C862C23009512A531DC2523001511BC
:1039500008002000A1007B08860002308700811447
:103960007B08463E86000230870020080110031DB8
:1039700001142108013A031DC42C7B08433E860034
:10398000023087008101810A2108023A031DCF2CF1
:103990007B08443E8600023087008101810A2108AD
:1039A000033A031D08007B08453E8600023087006D
:1039B0008101810A08002000E3006530210029020E
:1039C000031CE82C64302000E10061082100A900FC
:1039D00029082000E1007D08093E860001308700AB
:1039E000610881006308E1007D080B3E860001301C
:1039F0008700610881007D08093E8600013087004C
:103A00000108E1006308143E7D07E20062088600B9
:103A1000013087006108810063089A31762208002E
:103A20002000A501A601210820040319402DA701AB
:103A3000A70AA11B252D0130A035A10D890B1C2D36
:103A40000130A4002408A707192D0130A535A60DC3
:103A5000890B262D21082302031D302D2008220268
:103A6000031C372D2008A2022108A33B2514013096
:103A7000A136A00C890B382D0130A702031D252D7E
:103A80002608A101A1072508A001A0070800200021
:103A9000A40024089A3132229D3121003C0886007E
:103AA0008701811C08003C0A8600870101308107DC
:103AB00041310318810A3C0A86008701403F2000FB
:103AC000A200413FA300003023023230031922023A
:103AD000031C080021003C0A860087010030C03F1B
:103AE000C13F20002408013A031D792D08308C06BF
:103AF00008002408023A031D802D80308E0608003D
:103B00002408633A031D080020308D0608002000B9
:103B1000E6006608A63188269D3121003F08860010
:103B20008701011C9F2D6A08223E86000130870014
:103B30000114200066089C31DB249D31B12D20004A
:103B40006608143E7D07E4006408860001308700A3
:103B50000108E5007D08093E860001308700650800
:103B60008100200066081A3E7D07E4006408860094
:103B7000013087000108E5007D08113E8600013014
:103B800087006508810001308A31F2220800200098
:103B9000E4006408A63116269D312000620803194E
:103BA000DC2D7708860001308700811577088600B4
:103BB00001308700811408007708860001308700F3
:103BC000811D080077088600013087008110770882
:103BD0008600013087008111A001A00A00309C31CD
:103BE00047249D317708043E860001308700010894
:103BF0002000E3007708053E860001308700630857
:103C00008100DD01DD0A6408933177239D310130A5
:103C10008A31F222080020000E127F30A40024080E
:103C20002100C20020000E19122E9831DE209E3194
:103C3000210043082000A40024082100C20098317C
:103C4000DE209E312000A50121004308200025022E
:103C500003183C2E2508A03E860087010108A40019
:103C600024082100C2009831DE209E31013020005E
:103C7000A4002408A507242E0E163530A7315E2790
:103C80009E3120000D1C412E0D18442E3630A731D8
:103C90005E279E313B30A7315E27FC1408002100CF
:103CA0006A08223E860001308700811C08006A08ED
:103CB000223E860001308700011C8C2E6A08233EBC
:103CC0008600013087000130810741310318810AE5
:103CD0006A08233E860001308700403F193A031DE1
:103CE000732E413F003A031D08006A08233E8600F8
:103CF000013087000030C03FC13F6A08223E860085
:103D00000130870001106A08223E860001308700DA
:103D1000811094314E24080021006A08223E86005A
:103D200001308700811008002000D9000030DA003F
:103D30005430DB004230DC000030AE00C830AF0051
:103D40004230B0005A08B1005B08B2005C08B30012
:103D50008B3198239E3120002E08DA002F08DB00DB
:103D60003008DC005908BD3EA800FF3003180030C1
:103D7000A9009A3110229E3120002808B10029089C
:103D8000B2002A08B3005A08AE005B08AF005C0816
:103D9000B0008B3198239E3120002E08CB002F08D5
:103DA000CC003008CD009731792720004B03FF3A33
:103DB000643E08002000AB002B08A63194269E31FB
:103DC00021002C082000AA007D080C3E860001304E
:103DD00087002A08810021002D082000AA007D0804
:103DE0000D3E8600013087002A08810021002E0840
:103DF0002000AA007D080E3E8600013087002A08B8
:103E000081006430A6000030A700013088311920FD
:103E10009E3121003E088600870101136B08033E96
:103E2000860001308700811C1B2F6A08223E860015
:103E30000130870001156A08223E860001308700A4
:103E4000011408002000AC007A08860001308700C9
:103E50002C088110031D81142C090139AB007A084C
:103E6000860001308700AB0E01082B06EF392B06C8
:103E700081002C080319482F0130913142219F31D4
:103E80002000A201A20A0230923154229F31512F08
:103E900064302000A6000030A700023088311920CD
:103EA0009F3120002C080A3EAB002B08A200633093
:103EB000923154229F3120002C090139A73131273A
:103EC0009F3120002C090139AB002B08A2000130E2
:103ED0009B31602308002000AC007B088600023084
:103EE00087002C088112031D81162C090139AB00B3
:103EF0007B08860002308700AB0DAB0DAB0D0108CF
:103F00002B06F7392B0681002C08AB007B08053EF9
:103F10008600023087002B0881002C0803199B2F94
:103F20000230913142219F312000A201A20A0230C9
:103F3000923154229F3120002C080A3EAB002B08FE
:103F4000A2006330923154229F3120002C090139A4
:103F5000A73131279F3120002C090139AB002B08F4
:103F6000A20001309B31602308002000A80021003E
:103F70003D08860001308700811D0800F0302000D8
:103F8000A4002408A00028089831B0209F31210007
:103F90003D08063E86000130870020002008C03F13
:103FA0002108C13F21003D08063E86000130870000
:103FB000403F2000A400413FA50021003D08043EF1
:103FC000860001308700403F2000A600413FA70047
:103FD00025082702031DEE2F2408260203180800D7
:103FE00021003D08063E8600013087003D08043E62
:103FF000840001308500403F803F413F813F080001
:104AEC00A731EF2708008E31E3260800A6314D26AA
:104AFC0008008531F82508003A30A7315E270800F8
:104B0C003B30A7315E2708003630A7315E270800FE
:104B1C000130A6310B26080001309631832608009F
:104B2C000130A531D525080001308931322108002A
:104B3C0001308431AE24080020008E1A08008E1635
:104B4C00A22D24000D100B160B178B170800FE005E
:104B5C0012001E00FE0BAE2D0034640080010131EA
:104B6C00890BB42D0034E1302000A0002008210076
:104B7C00BA000800013096310D26A5319931292152
:104B8C0008007A08860001308700010E0139080000
:104B9C00F23021009E00C030220097000800153032
:104BAC002000A00020082100C3000800553023007D
:104BBC009600AA3096009514000000000800210011
:104BCC003D08860001308700010C890C0139080072
:104BDC002000A0008B10201CF52D0B1608000B12CA
:104BEC000800A531A225A53124008D100130A73174
:104BFC00AE270800F1007108013A031D0800E430EB
:104C0C00F00070082100BE0008002000A20022085D
:104C1C00A6317C2621003908860087010114080082
:104C2C002000A1002108013A031D08003130A0002A
:104C3C002008F70008002000A1002108013A031DFC
:104C4C0008005930A0002008F90008002000A0003E
:104C5C007B0886000230870020088110031D811418
:104C6C0008002000A0007A08860001308700200888
:104C7C000110031D011408007B0886000230870018
:104C8C00010C2000A000A00C200C013908003F30C2
:104C9C002000A0002008FA007A0886000130870066
:104CAC00011608000B1E08008B1C08008B100B1241
:104CBC00F201F20A0130A631D02608004D30200056
:104CCC00A00020082100B7003708860001308700BB
:104CDC00011408003330A7315E27A631E8302000DC
:104CEC00A0000330A1009A31BD2208002000A100D1
:104CFC002108013A031D0800D030A0002008210033
:104D0C00B90008002000A1002108013A031D080089
:104D1C00E930A00020082100BF0008002000A100FD
:104D2C002108013A031D0800E430A00020082100EE
:104D3C00BE00080031302000A4002408F800013027
:104D4C009B318C23A631A531B92508002000A00188
:104D5C0078088600013087000030011B0130A0006C
:104D6C00200808002300151330309200910115160D
:104D7C001515A531DC252300151108000130A731CC
:104D8C00DE27A6310230A731DE27A6316330A731EA
:104D9C00DE270800F3007308A631002621003E0828
:104DAC008600870172088110031D811408002030D1
:104DBC002000A2002208FB007B088600023087003E
:104DCC0081159A315422080024000D11043027005B
:104DDC0094000430950096018B150B100B178B1754
:104DEC000800C7302000A00020082100EC0095012D
:104DFC00A630200095008B168B170800FF30200082
:104E0C0095007808860001308700011808007808A2
:104E1C00860001308700011408002000A30023083D
:104E2C00A631882621003F08860087012000220831
:104E3C000110031D011408002000A3002308A63153
:104E4C0021267908860001308700200022080113F2
:104E5C00031D011708002000A2000130A6312126F5
:104E6C007908860001308700200022080110031DFC
:104E7C00011408002000A3002308A6319426210069
:104E8C003E0886008701200022088111031D811530
:104E9C0008002000A3002308A631942621003E0818
:104EAC0086008701200022080113031D011708004A
:104EBC002000A3000E122308A20022082100C20029
:104ECC0020000E19662F9831DE2020000E160800E7
:104EDC002000A3002308A63116267708093E860079
:104EEC0001308700200022080110031D0114080066
:104EFC002000A3002308A63116267708093E860059
:104F0C0001308700200022088110031D8114080045
:104F1C002000A3002308A631162677080C3E860035
:104F2C0001308700200022080110031D0114080025
:104F3C002000A0007B0886000230870020080110AA
:104F4C00031D01147B0886000230870081100800C5
:104F5C002000A400A201A20A240892315422A731F5
:104F6C002000A201A20A2408013E9231542208001A
:104F7C002000A3002308A63116267708093E8600D8
:104F8C0001308700200022080111031D01150800C3
:104F9C002000A3002308A63116267708093E8600B8
:104FAC0001308700200022088111031D81150800A3
:104FBC002000A40024089A313222A73121003C0899
:104FCC008600870101142000A2012408923154228A
:104FDC00080062302000A00020082100BD003D0820
:104FEC0086000130870001143D08860001308700DF
:044FFC000115080093
:020000040001F9
:04000E00ECF9FDFF0D
:00000001FF
