:1000000080311F28640008007E14803120007F08A2
:10001000FC002100111C12282000111C12289E3106
:100020005F2680318B190B1C1A282700161D1A28F1
:100030009A313A227C082000FF007E1009008031AE
:100040002128FD012100EF01A0308400003085004F
:1000500046309A31072280312030840001308500FB
:100060004D309A3107228031A03084000130850064
:100070003C309A31072280312030840002308500E4
:1000800025309A3107228031DD3084009E30850092
:10009000453086000230870020309A3101227E10E0
:1000A00020009431E82C003090314820803120002D
:1000B000A8002808AC00AE01AD01AF012200381C39
:1000C000FF299A31552280310038031D692822000A
:1000D0008A282000AC08031D87289C316E248031BB
:1000E0000038031D87282200B8149A312A22803153
:1000F000013A031D82282200B81DB81B8B28B815B1
:10010000DD018B282200B81F8B28B8138B28220012
:10011000B81C8B28B810B81CDB293815381ED92913
:100120000130B9070030BA3D00303A0202300319FD
:100130003902031C0800B901BA013812013020004D
:10014000B0000030B1003108803AA80080302802A9
:10015000031DAC28043030020318E028200030359D
:10016000433E860001308700403FA800413FA90080
:1001700028082200BD07200029082200BE3D2000DB
:1001800030354D3E860001308700403FA800413F9A
:10019000A90028082200BF07200029082200C03D2E
:1001A00001302000B0070030B13D3108803AA8008E
:1001B00080302802031DDE2804303002031CAE28E4
:1001C00003302000A0000030A10022003E082000E3
:1001D000A301A30722003D082000A201A20790313D
:1001E000B1208031200021082200BE01BE0720007E
:1001F00020082200BD01BD0703302000A000003010
:10020000A100220040082000A301A30722003F080C
:100210002000A201A2079031B120803120002108E6
:100220002200C001C007200020082200BF01BF0734
:100230009E3108268031220040083E02031D2229FB
:100240003F083D02031C08000530383E860001309F
:1002500087003F092000A800220040092000A900D3
:10026000A80A0319A90A403F28072200D700413FE6
:100270002000293D2200D800BD01BE01BF01C00100
:10028000B81D9B2902305D0203189B290130200014
:10029000A80028082200DD079A3132228031200090
:1002A000A8002808AE009B311D2380312000A80043
:1002B0002808AF0022005D08013A031D63291430AD
:1002C000DB00053070295D08023A031D9B292000E0
:1002D0002F08013A031D722975302200DB0000301F
:1002E000DC009B292000AE08031D8F292F08A800E1
:1002F000A9012808A0002908A1007530A20000303B
:10030000A3009E3141268031200021082200DC011B
:10031000DC07200020082200DB01DB079B292000EE
:100320002E08013A031D9B2922004108753EDB007F
:100330000030423DDC0022005C085802031DA22967
:100340005B085702031CC12920002F08013A03193A
:10035000AB290330AC290230AA000030AB002A08D8
:10036000A8002808AD000130A80028082200DE07F8
:100370005E0820002D02031808002200DE01B816D6
:100380000800DE01B81D080001302000A800280880
:100390002200DF0703305F02031C0800DF01B817EB
:1003A000B811DD015808C201C2075708C101C107D1
:1003B000080038160800381DEE2938113812B90126
:1003C000BA019E31082680312200DE01DF01BD0125
:1003D000BE01BF01C001B811DD01B813B81E08008D
:1003E0000130BB070030BC3D01303C02F430031942
:1003F0003B02031C0800BB01BC01B812080021002D
:100400002F1C08002200381408002000B300330815
:100410009B3104238231210052088600013087007D
:10042000011C812B00309031482082310038031D9F
:10043000372A2100520A86000130870081102000EF
:1004400033089B31DD238231013A0030031901303A
:100450002000B100210052088600013087002000F2
:10046000B10D01083106FD39310681004D2A210008
:10047000520A86000130870081184D2A520A8600F0
:1004800001308700811452088600013087008110F6
:1004900052088600013087000115210052088600AD
:1004A00001308700811C292B52088600013087000B
:1004B0000119802A01302000B10021005208023EBB
:1004C0008600013087002000310881072100520892
:1004D000023E86000130870005300102031C08003F
:1004E0005208023E860001308700810152088600D2
:1004F0000130870001152000330893319A2308004A
:10050000210052088600013087008119B52A52085F
:10051000033E860001308700013081074131031816
:10052000810A5208033E860001308700403F2000C8
:10053000B100413FB200003032024B3003193102AA
:10054000031C080021005208033E8600013087008A
:100550000030C03FC13F520886000130870081153E
:10056000200033089F31AE27080021005208860082
:1005700001308700011AF52A5208053E8600013035
:1005800087000130810741310318810A5208053E76
:10059000860001308700403F2000B100413FB2009B
:1005A000003032024B3003193102031C08002100D5
:1005B0005208053E8600013087000030C03FC13F31
:1005C0005208860001308700011601309C31A724B3
:1005D00082312100AF1E080064302000A9000030E5
:1005E000AA00023094318F240800210052088600AE
:1005F00001308700811A08005208073E860001304A
:1006000087000130810741310318810A5208073EF3
:10061000860001308700403F2000B100413FB2001A
:1006200000303202963003193102031C0800210009
:100630005208073E8600013087000030C03FC13FAE
:100640005208860001308700811600309C31A724B3
:10065000080021005208860001308700011D0800B3
:1006600001302000B10021005208023E8600013016
:10067000870020003108810721005208023E8600D1
:100680000130870005300102031C08005208023EB9
:100690008600013087008101520886000130870002
:1006A00001115208033E8600013087000030C03F30
:1006B000C13F520886000130870081115208860030
:1006C0000130870001125208860001308700811234
:1006D0005208053E8600013087000030C03FC13F10
:1006E0005208073E8600013087000030C03FC13FFE
:1006F0002000330891312021823100309C31A72421
:1007000008002F1C080052088600013087000114E1
:10071000080020004108C7004208C8004308C9007B
:100720000310480D490DCA004A08CD004408C7000F
:100730004508C8004608C9000310480D490DCA0005
:100740004A08CC004D080319B12B4C084D02031880
:10075000B82B4D03FF3A4C07C70019304702031C62
:10076000B82B4408C1004508C2004608C300080071
:100770004C08031908004D084C020318C72B4C0302
:10078000FF3A4D07C700193047020318080006302A
:10079000C7004708CB00C31BCB17C61B4B17C2179C
:1007A000FF30C105FF30C2050030C305C517FF305B
:1007B000C405FF30C5050030C6054C084D020318BE
:1007C000032C0130C435C50DC60D890BE22B013059
:1007D000CC024C084D060319FE2B0130CB024B080E
:1007E00007390319FE2BE12B0130C336C20CC10CB3
:1007F000890BF52B0130C7004708CD074D084C0683
:100800000319282CF42B4D084C020318282C013016
:10081000C135C20DC30D890B082C0130CD024C0827
:100820004D060319242C0130CB024B08073903195C
:10083000242C072C0130C636C50CC40C890B1B2C8C
:100840000130C7004708CC074D084C06031D1A2C81
:10085000CB1F3A2CFF30C106FF30C206FF30C30663
:100860000130C107003003180130C20700300318FF
:100870000130C3074B1F4C2CFF30C406FF30C506A8
:10088000FF30C6060130C407003003180130C50729
:10089000003003180130C607CB014108C4074208E5
:1008A000C53D4308C63DC61F672CFF30C406FF3058
:1008B000C506FF30C6060130C407003003180130FA
:1008C000C507003003180130C607CB01CB0A440826
:1008D000A0004508A1004608A2004D08C70047082F
:1008E000A3004B08C8004808A4009531A1252000AA
:1008F0002008C1002108C2002208C300080020000F
:10090000A5011F309D3184258431AA3A031D102D85
:1009100006309D31842584312000A40021006E081A
:100920000B3E860002308700200024088100003042
:100930009D31842584312000A40021006E080C3EE6
:1009400086000230870020002408810001309D319C
:10095000842584312000A40021006E080D3E86000D
:100960000230870020002408810002309D31842558
:1009700084312000A40021006E080E3E8600023063
:10098000870020002408810003309D3184258431B4
:100990002000A40021006E08153E8600023087006A
:1009A00020002408810004309D31842584312000FA
:1009B000A40021006E08163E860002308700200049
:1009C0002408810005309D31842584312000A40055
:1009D00021006E08173E86000230870020002408A0
:1009E000810021006E080C3E86000230870001085D
:1009F000FF3A031D08006E080D3E86000230870096
:100A00000108FF3A031D08006E080E3E8600023002
:100A100087000108FF3A031D0800AF15AF16080054
:100A2000FF302000A4002408A00000309A31C82222
:100A30008431FF302000A4002408A00001309A3146
:100A4000C8228431FF302000A4002408A000023016
:100A50009A31C8228431FF302000A4002408A0006D
:100A600003309A31C8228431FF302000A4002408CA
:100A7000A00004309A31C8228431FF302000A40045
:100A80002408A00005309A31C8228431FF302000AC
:100A9000A4002408A00006309A31C8228431AA306C
:100AA0002000A4002408A0001F309A31C8228431FD
:100AB0008B13903119208B172100AF15AF16391603
:100AC00008002100E901201C322E9B31BB23853117
:100AD000200021082004031D132E9B31CC238531D7
:100AE000013A0030031901302100E800E80CE80C5D
:100AF000200868067F396806A000A01F812D201FEE
:100B0000132E201DD22D201BCD2D0130A307003028
:100B1000A43D14302000A0000030A10021002908CD
:100B20002000A301A307210028082000A201A2079A
:100B30009031B12085312000210821002402031DBD
:100B4000A52D2000200821002302031C132E1430A1
:100B50002000A0000030A100210029082000A301EE
:100B6000A307210028082000A201A2079031B1208C
:100B70008531200021082100A401A40720002008BD
:100B80002100A301A3072011AB01AC019B31582325
:100B900085318831A0208531132E2100A301A401C5
:100BA0002011132EA01DE12D883135208531210023
:100BB000A01C132EA010AB01AC019631022685318A
:100BC000132E01302100A3070030A43D1430200073
:100BD000A0000030A100210029082000A301A307E4
:100BE000210028082000A201A2079031B120853100
:100BF0002000210821002402031D022E20002008CD
:100C000021002302031C132EA301A401A0153630DA
:100C10009D31B82585313A309D31B8258531343044
:100C20009D31B825853101302100AB070030AC3D46
:100C30000B302C02B93003192B02031C2B2EAB01F5
:100C4000AC01A011A01036309D31B82585313A3065
:100C50009D31B82585312100211F080021139C31C9
:100C6000D02408002F1C0800201408000030903108
:100C7000482086312000AD002D08B400B501AF0139
:100C8000AF0AAE012100B91D542E2000B408031D87
:100C900008002100B9110A302000AD002D08A20083
:100CA00063309131592108002000340803190800ED
:100CB0002100B9150B302000AD002D08A2006330D3
:100CC000913159218631002F9A3155228631013ACE
:100CD000031D732E2C302000A9000130AA000A3019
:100CE00094318F2486312000B001B1013108803A5F
:100CF000AD0080302D02031D7F2E2F083002031817
:100D0000A12E20003008013E9B3177238631013A25
:100D1000031D9B2E21004C08860001308700011422
:100D20004C0A860001308700011020003008013E87
:100D300091312021863101302000B0070030B13DD3
:100D4000762E200008002C302000A9000130AA00D7
:100D5000053094318F2486319A315F22863120000C
:100D6000AD002D08B500B508031DE52EB201B30195
:100D70003308803AAD0080302D02031DC12E2F08AC
:100D800032020318E32E20003208013E9B31772304
:100D90008631013A031DDD2E21004C08860001300A
:100DA000870001144C0A86000130870001102000E2
:100DB0003208013E91312021863101302000B207F6
:100DC0000030B33DB82E20000800200035089B31CC
:100DD00077238631013A0319EF2E20000800210005
:100DE0004C0886000130870001144C0A860001304F
:100DF00087000110200035089131202120000800D3
:100E000020003408023A0319642E013A0319A32E74
:100E10000A2F080008000030903148208731200058
:100E2000E5006508E700E801E901EA01EB01ED01F1
:100E3000EE019A31552287312000E5006508EC006B
:100E40002100581CDA2F5819422F20006C08013A53
:100E5000031D2D2F2100D81C302F2100D81C3F2F1F
:100E60000130D9070030DA3D00305A02FA30031958
:100E70005902031C0800D901DA0158150800D901EC
:100E8000DA0108000130D9070030DA3D00305A029B
:100E9000053003195902031C0800D901DA01033097
:100EA0002000A0000030A1000A30D83E8600870153
:100EB0000830D83E84008501003F21005E072000F5
:100EC000E500013F21005F3D2000E600403F65074F
:100ED000A200413F663DA3009031B1208731200040
:100EE0002108EE01EE072008ED01ED079D31ED250B
:100EF000873120006E08803AE50080306502031DCE
:100F0000832F01306D02031C0800210058110530A9
:100F10002000E8000230E900BA30EA000130EB00BE
:100F20002100D81CB12F200069086E02031D9A2FE2
:100F300068086D02031CC62F0130E500650821001A
:100F4000DB0703305B02031CC82FDB01D8106430C1
:100F50002000A9000030AA00023094318F2487318C
:100F6000C82F20006E086B02031DB82F6D086A029F
:100F7000031CC62F0130E50065082100DB070330A4
:100F80005B02031CC82FDB01D814C82F2100DB0132
:100F900020006E08E5006508E20018309A319822BA
:100FA000873120006D08E5006508E20019309A31AC
:100FB000982208002F1C0800581408002000AD01DA
:100FC000A91FE92FA809A909A80A0319A90AAD01AF
:100FD000AD0A2808A0002908A100A2018E30AB00AC
:100FE0002B08A3002D08AC002C08A4009531A125E6
:100FF00020002008A8002108A9002208AA00080053
:1010000008002100201323002C082000E5006508BB
:10101000E2000C309A319822883123002D082000FC
:10102000E5006508E2000D309A31982288312300EE
:101030002E082000E5006508E2000E309A31982263
:10104000883164302000A9000030AA0001309431BA
:101050008F2488312100AF1E312801309C3181243A
:10106000883101309C314824080020008E18080087
:101070003B309F316327883121005708031908004E
:1010800020000E10FF30A40024082100D1004B28BE
:101090009C31BB24883120008E1E51282100211F45
:1010A00048289931DC2188319031002088319E31E7
:1010B00024268831210051082000A40024082100A2
:1010C000D0002000A50121005008200025020318AF
:1010D0007C289E3124268831210051082000A4005C
:1010E0002508A03E860001308700240881000130D9
:1010F000A4002408A50763289E31242688312100F6
:1011000051082000A40024082100CF009E3124268D
:101110008831210051082000A40024082100C800C3
:1011200020000E142100C81B6F14A011A01436302B
:101130009D31B82588313A309D31B825210008000D
:1011400036309D31B82588313B309D31B825883106
:1011500020000E107F30A40024082100D100B32805
:101160009C31BB24883120008E1EB9282100211F0C
:10117000B0289931DC21883190310020883121005C
:1011800054082000A40024082100D1009031002040
:1011900088312000A50121005408200025020318F1
:1011A000E4282508A03E8600013087000108A4003D
:1011B00024082100D1009031002088310130200026
:1011C000A4002408A507CB280E1435309D31B8257E
:1011D0008831ED289C31BB24883120008E18F328FB
:1011E0002100211FEA289931DC218831FA289C311D
:1011F000BB24883120008E1C00292100211FF728E4
:101200009931DC21883136309D31B82588313B3029
:101210009D31B8257D1408002000E70067089A3149
:101220008022893121004A08860001308700811C14
:1012300008004A08023E860001308700013081071D
:1012400041310318810A4A08023E860001308700B6
:10125000403F2000E500413FE60009306602C4300F
:1012600003196502031C080021004A08023E86009B
:10127000013087000030C03FC13F01302000E50051
:1012800021004A08043E86000130870020006508DE
:10129000810721004A08043E8600013087004A0A7F
:1012A00084000130850000080102031C08004A0880
:1012B000043E86000130870081014A088600013023
:1012C00087008110200067089B3177238931013A1C
:1012D000031D74292000670893319A238931200067
:1012E00067089131202189312000E20167081A3E08
:1012F0009A31982208002000A600AB01A801A7019E
:10130000A901AA012200381E0800F3302000A40021
:101310002408A00026089E31BD268931200021081E
:10132000AA01AA072008A901A907AB0104302B02D2
:101330000318C1292B35433E860001308700403F0A
:10134000A400413FA5002A082502031DA929290858
:1013500024020318B929A808031DB9292B35433ED7
:101360008600013087002908C03F2A08C13FA80134
:10137000A80A0130A4002408AB0704302B02031C88
:101380009A29A808031D0800AB0104302B0203189A
:1013900008002B354D3E860001308700403FA400F9
:1013A000413FA50025082A02031DD8292408290247
:1013B0000318E829A708031DE8292B354D3E8600B0
:1013C000013087002908C03F2A08C13FA701A70AAA
:1013D0000130A4002408AB07C529532A9A315522AD
:1013E0008931013A031D0A2A01309B317723893163
:1013F000013A031D032A013093319A2389310130C8
:101400009131202189312000A001A00A01309D31B5
:101410006B2508002000E20109309A3198228931B9
:101420002000E2010B309A31982289312000E2013C
:101430000F309A31982289312000E20111309A311F
:10144000982289318E317F2608002000E201093080
:101450009A31982289312000E2010B309A3198228A
:10146000893121006E0886000230870002304F3F2C
:101470002000E2000F309A31982289312000E201E9
:1014800011309A31982289318E317F26080001303F
:1014900092314522080001308A31ED2208000130E6
:1014A00091319221080023002F08003A0319EE29F8
:1014B000013A0319472A103A03194B2A313A031902
:1014C000252AF13A03194F2A652A080020004E0800
:1014D000D2004F08D3005008D4000310530D540D10
:1014E000D5005508DB00DB08031D7F2A0030D10042
:1014F0000030D0000030CF000030CE0008004E0891
:10150000D2004F08D3005008D4001730D436D30C83
:10151000D20C890B862A5208D5005508D600CF1761
:10152000FF30CE05FF30CF050030D0054E08D70084
:101530004F08D8005008D900DA018E30DB02DB1FDB
:10154000BD2A5B08803A8F3E0318AF2A0030D100D5
:101550000030D0000030CF000030CE000800013055
:10156000DA36D90CD80CD70C890BB02A0130D2004E
:101570005208DB070319D62AAF2A18305B02031C76
:10158000D32A0030D1000030D0000030CF0000302E
:10159000CE0008000130D735D80DD90DDA0D890BF2
:1015A000CB2A0130DB02DB08031DCA2A56080319C7
:1015B000E42AD709D809D909DA09D70A0319D80AB8
:1015C0000319D90A0319DA0A5A08D1005908D000B8
:1015D0005808CF005708CE0008002000E800E701B7
:1015E00068089B3177238A312000E5006508E70011
:1015F000653023002902031C042B64302000E50021
:1016000065082300A900092BA908031D092BA901BE
:10161000A90A29082000E5006508E20009309A318E
:1016200098228A3120006808E5006508E2000B3046
:101630009A3198228A31200068081A3E21006E07EC
:101640002000E50065088600023087000108E600FA
:101650006608E20011309A3198228A312300290865
:101660002000E5006508E2006808143E9A319822DF
:101670008A3101309C3148248A3120006708013AC0
:10168000031D622B23002908963166268A3120002B
:10169000E5006508E20068089A31A4228A3120003A
:1016A000A001A00A68089D3153258A318E317F261A
:1016B0008A3164302000A9000030AA000130943142
:1016C0008F2408002000E708031D0800A201A20AD9
:1016D00068089D31D2258A312000680893319A2309
:1016E0008A31200068089131202108002000EC0098
:1016F0006C089A3180228B3120006508013A003055
:1017000003190130E70021004A08860001308700F4
:101710002000E70D01086706FD39670681002100FA
:101720004A08023E8600013087000030C03FC13FBA
:101730004A08043E860001308700810120006508C8
:10174000013A031DF82B0530E7006708E900EA01BC
:10175000EB010F306605E7006708053A0319B42B63
:1017600066080F39031DE42B313066020318E42BA1
:1017700066080F39E7006708EA006608E7000430EA
:10178000E736890BC02B67080F39E8006808EB00C3
:101790000A30E7006708A0006B089C3100248B31F9
:1017A00020006A07E80021004A0A8600013087000D
:1017B0002000680881006608E7006708E2006C08FE
:1017C0001A3E9A319822080005302000E7002100D7
:1017D0004A0A860001308700200067088100053032
:1017E000E7006708E2006C081A3E9A319822080068
:1017F0002000E508031D0800E2016C081A3E9A313A
:10180000982208002000A500A601A7012100581D6C
:101810000800F0302000A4002408A00025089E3114
:10182000BD268C3120002108A701A7072008A601AA
:10183000A6072708260403190800270821005D02CF
:10184000031D262C2000260821005C020318332CDF
:10185000200027082100DD01DD07200026082100E7
:10186000DC01DC0708002000270821005F02031DBF
:101870003D2C2000260821005E0203184A2C20007F
:1018800027082100DF01DF07200026082100DE01F4
:10189000DE0708002000270821006102031D542CE8
:1018A00020002608210060020318612C2000270870
:1018B0002100E101E107200026082100E001E00706
:1018C00008002000270821006302031D6B2C200064
:1018D0002608210062020318782C20002708210026
:1018E000E301E307200026082100E201E2070800E7
:1018F0002000270821006502031D822C20002608F5
:101900002100640203180800200027082100E501D7
:10191000E507200026082100E401E4070800200074
:10192000A501A501203025020318AB2C25089D3107
:1019300084258C312000A4002508203E860002303A
:101940008700240881000130A4002408A507203066
:101950002502031C962C21006E08860002308700A9
:1019600002304B3F2000A00006309A31C8228C3153
:1019700021006E0886000230870002304C3F2000B4
:10198000A00000309A31C8228C3121006E088600F8
:101990000230870002304D3F2000A00001309A3114
:1019A000C8228C3121006E08860002308700023088
:1019B0004E3F2000A00002309A31C8228C31210015
:1019C0006E088600023087000230553F2000A000DC
:1019D00003309A31C8228C3121006E088600023013
:1019E00087000230563F2000A00004309A31C82200
:1019F0008C3121006E088600023087000230573F8C
:101A00002000A00005309A31C8228C312100B91E77
:101A1000132DB912AA302000A4002408A0001E3003
:101A20009A31C8228C312400441D1A2D4411210002
:101A3000AF11AF128B139A31D4228C31903119200F
:101A40008B17080020003108B4003208B5003308B5
:101A5000B6000310350D360DB7003708BC00BC08C2
:101A6000031D392D0030AE000030AF000030B00053
:101A700008002E08B4002F08B5003008B600031087
:101A8000350D360DB7003708BD00BD08031D4F2DBD
:101A90000030AE000030AF000030B0000800003071
:101AA000B9000030BA000030BB0089303D07B400F7
:101AB0003408BC023108B4003208B5003308B6005F
:101AC0001030B636B50CB40C890B612D3408B70054
:101AD0003708BD002E08B4002F08B5003008B60046
:101AE0001030B636B50CB40C890B712D3408B70024
:101AF0003708BD068030B4003408BD05B217FF308A
:101B0000B105FF30B2050030B305AF17FF30AE05A9
:101B1000FF30AF050030B0051830B4003408B8000D
:101B20000130B935BA0DBB0D890B912D3008330248
:101B3000031DA02D2F083202031DA02D2E083102F7
:101B4000031CA92D2E08B1022F08B23B3008B33B6D
:101B500039140130B135B20DB30D890BAA2D013006
:101B6000B802031D902D3908A0003A08A1003B08D7
:101B7000A2003C08B4003408A3003D08B5003508B5
:101B8000A4009531A12520002008AE002108AF0057
:101B90002208B000080020002E08B4002F08B5006D
:101BA0003008B6000310350D360DB7003708B80001
:101BB000B808031DE22D0030AE000030AF00003049
:101BC000B00008003108B4003208B5003308B60090
:101BD0000310350D360DB7003708BD00BD08031DD5
:101BE000F82D0030AE000030AF000030B00008002B
:101BF0003D087B3EB4003408B8072E08B4002F0817
:101C0000B5003008B6001030B636B50CB40C890BF0
:101C1000042E3408B7003708BD003108B40032087C
:101C2000B5003308B6001030B636B50CB40C890BCD
:101C3000142E3408B7003708BD068030B4003408CD
:101C4000BD05AF17B217FF30B105FF30B205003048
:101C5000B3050030B9000030BA000030BB000730D7
:101C6000B4003408BC002E1C3B2E3108B9073208E2
:101C7000BA3D3308BB3D0130B036AF0CAE0C890B1A
:101C80003C2E0130B135B20DB30D890B422E01301F
:101C9000BC02031D332E0930B4003408BC002E1CD6
:101CA000572E3108B9073208BA3D3308BB3D013021
:101CB000B036AF0CAE0C890B582E0130BB36BA0CC7
:101CC000B90C890B5E2E0130BC02031D4F2E390862
:101CD000A0003A08A1003B08A2003808B40034086C
:101CE000A3003D08B5003508A4009531A1252000CA
:101CF0002008AE002108AF002208B0000800210033
:101D0000201C08002015A301A40163302000A000BE
:101D100020082300A00002302000A000200823009B
:101D2000A10021006E088600023087000230423F89
:101D30002300A20021006E088600023087000230D6
:101D4000433F2300A30021006E0886000230870075
:101D50000230443F2300A40021006E0886000230B8
:101D600087000230453F2300A50021006E08860051
:101D7000023087000230463F2300A60021006E0893
:101D80008600023087000230473F2300A700210071
:101D90006E088600023087000230483F2300A8000A
:101DA00021006E088600023087000230493F230080
:101DB000A90021006E0886000230870002304A3FE9
:101DC0002300AA0021006E0886000230870002303E
:101DD0004B3F2300AB0021006E08860002308700D5
:101DE00002304C3F2300AC0021006E088600023018
:101DF000870002304D3F2300AD0021006E088600B1
:101E00000230870002304E3F2300AE0021006E08F2
:101E100086000230870002304F3F2300AF002100D0
:101E20006E088600023087000230503F2300B00069
:101E300021006E088600023087000230513F2300E7
:101E4000B10021006E088600023087000230523F48
:101E50002300B20021006E088600023087000230A5
:101E6000533F2300B300D1302000A00020082300FE
:101E7000B40008002100E60020006D08013A031DAF
:101E80009F2FA001A00A210066089D313B258F31BC
:101E900022002C15210066089B3188238F312000F9
:101EA000A20121006608913159218F3121004C0A8D
:101EB000860001308700011F812F4C0A8600013007
:101EC000870001136608143E6E072000EE006E08BE
:101ED0008600023087000108963166268F31200087
:101EE000EF006F08E200210066089A31A4228F31CA
:101EF0002000A001A00A210066089D3153258F31E2
:101F0000982F21006608143E6E072000EE006E0830
:101F10008600023087000108963166268F31200046
:101F2000EF006F08E200210066089A31B0228F317D
:101F300021006608013A031DCE2F3D17CE2F200049
:101F4000ED08031DCE2FA001210066089D313B2521
:101F50008F3122002C1100309B3188238F312100DA
:101F600066089B3199238F31013A031DBF2F200052
:101F7000E501E601210066088B3176238F312000D0
:101F8000A201A20A21006608913159218F31210056
:101F90006608013A031DCE2F20008D109931FB21D8
:101FA0008F3120006D08EE006E08E5002100660804
:101FB000973130278F3101309B31EE238F31013A39
:101FC000031DFD2F9A3155228F310038031D080063
:101FD0002000A00101309D316B258F312000E201EE
:101FE0000B309A3198228F312000E20111309A3162
:101FF00098228F318E317F2608008E317F2608008F
:102000002000A10108302102031808002100D11F7F
:102010000C2820000E160E2820000E128E1503101C
:102020002100D10D20008E110130A0002008A10751
:1020300002282000A10123001513303092009401E2
:102040001512951615152000A10120302102031844
:10205000412821082300910020002108203E86000D
:10206000023087000108230093009A314C229031FE
:1020700001302000A0002008A10720302102031C0D
:102080002928230095129A314C22230015110800AB
:102090002000A500A601A608031D62282508023A13
:1020A000031962282100D81859282000A101A20193
:1020B0005E2802302000A1000030A2002108A0000C
:1020C0002008A600A608031D79282508033A03194D
:1020D00079282200B81A70282000A301A4017528CD
:1020E00003302000A3000030A4002308A000200833
:1020F000A600260808002000A40024089A31BC226B
:10210000903121004D08860001308700811C0800B5
:102110004D0A8600013087000130810741310318E4
:10212000810A4D0A860001308700403F2000A2004E
:10213000413FA30000302302193003192202031C7F
:10214000080021004D0A8600013087000030C03FA2
:10215000C13F20002408633A031D080020308D068B
:1021600008002000A501A601210820040319E12888
:10217000A701A70AA11BC6280130A035A10D890B14
:10218000BD280130A4002408A707BA280130A535CE
:10219000A60D890BC72821082302031DD12820087A
:1021A0002202031CD8282008A2022108A33B2514E0
:1021B0000130A136A00C890BD9280130A702031DDC
:1021C000C6282608A101A1072508A001A00708002C
:1021D00021003C1D0E290130F0007008BE073E08AA
:1021E0004706031DF528BE013C113E0844060319AD
:1021F000BC1DFC2820008D1021003E084506031957
:10220000BC1D042920008D1421003E084606031D34
:102210000800BC1D080020008D1008003C1C0800B0
:102220000130F0007008BE073E08073A031D0800A1
:10223000BE013C103C15BC1D080020008D14080098
:102240002000A20022089A318C22913121004C08F2
:10225000860001308700011C08004C088600013010
:10226000870001104C0A860001308700011C4E29AE
:102270004C08860001308700811D08004C0886004C
:102280000130870081114C0886000130870001165B
:102290004C08860001308700811208004C08860037
:1022A0000130870081144C0886000130870001113D
:1022B00008002000A30023089A31BC22913120009D
:1022C000A208031D68292308633A031D68298D1697
:1022D0002208013A031D71292308633A031D71295D
:1022E0008D1222080A3A031D872921004D08860015
:1022F0000130870081104D0A8600013087000030D0
:10230000C03FC13F20002308633A03198D162208FD
:102310000B3A031D080021004D088600013087009C
:10232000811408002000A700A50127089B3177230E
:1023300091312000A4002408A500A60127089B31A4
:102340002B2391312000A4002408A6002508013A7F
:10235000031D0800A608031DBC2927089A318C22FA
:1023600021004C0886000130870001164C088600C9
:102370000130870081160800200027089A318C223E
:1023800021004C0886000130870001164C088600A9
:10239000013087008112080021002F18E629013042
:1023A0002000AD002D082100B00730084B3A031D76
:1023B0000800B0012F1432302000A9000030AA001C
:1023C000033094318F2421002F16080001302000A3
:1023D000AD002D082100B0073008323A0319B001D2
:1023E0000130B3070030B43D0430AF3E86008701B2
:1023F000403F323A031DFE29413F003A031D0800C9
:10240000B301B401AF1C062AAF100800AF140800D6
:1024100021003C1908003C1808003D0E890C0139C8
:10242000FA00003020000D1901307A060319080067
:102430002100BE013C143C1E3C1BBC143D1F3E2A27
:102440003D130230FA007A08F50041089B31102351
:102450009231FB007B082100C4004103FF3A44078E
:102460003C3EFA007A08C50045084407FA007A089D
:10247000C6004608053EFA007A08C700BD122000D3
:102480000D1D08002100BD1608002000EF00EE0120
:1024900023003008803A031D782A2000E501E50A70
:1024A000230031082000ED006D08E6006F088B3135
:1024B0007623923120006F089B3177239231013AC5
:1024C000031D782A64302000A9000030AA000130E2
:1024D00094318F2492312000E501E50A6F0897318D
:1024E000302792318E317F2692312000EE01EE0AA4
:1024F0002000EE08031D08006F0893319A239231E3
:1025000020006F089131202108002000A7019B3195
:10251000AA2392312000A6002608A7002400441C0C
:1025200008002000A8019A31552292310038031D7D
:102530009F2A2000A708031D9F2AA801A80A20009F
:1025400028082400C410031DC414C41CC02AC415C8
:102550000130C2070030C33D2230203E86000230E9
:102560008700403F0A3A031DB72A413F003A031D46
:102570000800C201C3014410C4108C318F2408002C
:10258000C41D0800C411C201C301080020008E113F
:102590000E120E140A30A0000030A1009F318827CF
:1025A000923120000E100A30A0000030A1009F31AF
:1025B0008827923120000E142830A0000030A1009E
:1025C0009F318827923120000E103030A600260857
:1025D0002100D100EE2A9C31BB24923120008E1EB6
:1025E000F42A2100211FEB2A9931DC21923190310C
:1025F00000209231FE2A9C31BB24923120008E1E95
:10260000042B2100211FFB2A9931DC2120000E120E
:102610000E1408002000A1002108013A031D080043
:102620002100BC1C0800BC1001302000A0002008C4
:102630002100BF0740083F02031C0800BF013D17EF
:102640003C1E3A2BBC1A312B3430410203182F2B7D
:1026500001302000A00020082100C1070800BC169E
:10266000080007304102031C382B0130C10208006A
:10267000BC1208003C1F0800420841020318472B07
:1026800001302000A00020082100C10708004108F7
:10269000420203184E2B0130C10208003C1308000F
:1026A0002200A01C08000130A1070030A23D27082D
:1026B0002202031D5D2B26082102031C0800A10134
:1026C000A201A01220008D1D672B2200A01622005F
:1026D000A01A932BA308031D8F2BA01D7D2BA011E7
:1026E00024082000A00020082200A3002908A70138
:1026F000A7072808A601A6070800201E8D2B201278
:1027000025082000A00020082200A3002B08A70114
:10271000A7072A08A601A6070800A0100800A0160F
:1027200020008D150800A01220008D11013022001C
:10273000A30208002000B000AE01AF0130089B31B9
:102740002B2393312000AD002D08AF0030089A31C3
:102750008C2293312000AE08031D0800AF08031D32
:10276000D32B21004C0886000130870001144C0A4D
:102770008600013087000118CD2B4C0A86000130FD
:10278000870001144C0886000130870081144C0832
:102790008600013087000115DE2B4C0A86000130CF
:1027A00087000110DE2B21004C08860001308700D5
:1027B00001164C0886000130870081126430200029
:1027C000A9000030AA00013094318F2408002000B5
:1027D000A601A11FF22BA009A109A00A0319A10AB1
:1027E000A601A60AA31FFD2BA209A309A20A031989
:1027F000A30A0130A4002408A606A701A801210805
:10280000200403192C2CA501A50AA11B112C0130B1
:10281000A035A10D890B082C0130A4002408A507C0
:10282000052C0130A735A80D890B122C2108230295
:10283000031D1C2C20082202031C232C2008A202AA
:102840002108A33B27140130A136A00C890B242CAE
:102850000130A502031D112C26080319342CA709E9
:10286000A809A70A0319A80A2808A101A10727088F
:10287000A001A00708002000ED006A08EB006B082B
:10288000A0006D089D312525943120006A08013A89
:10289000031D572C00309C315B24943164302000A0
:1028A000A9000030AA00013094318F2408002000D4
:1028B000EA08031D080022002C1120006D089B313E
:1028C0008823943120006D089B31492394312000E6
:1028D000EB006B08EC006C08EB006B08E2006D0885
:1028E0009A31A422943120006C089631CB26943181
:1028F0002000EB006B08E2006D08143E9A3198222C
:10290000943101309C31482494312000E501E50ADE
:102910006D089731302794318E317F2608002000D2
:10292000AC001430A0000030A1002A08A301A307C6
:102930002908A201A2079331E7239431200021083E
:10294000AA01AA072008A901A9072200201C080043
:10295000A018C02CA014A101A20120002C08AB00DB
:102960002B082200A30020002A082200A701A707A5
:10297000200029082200A601A60720008D150800C6
:10298000A019D42CA01520002C08AB002B08220085
:10299000A40020002A082200A901A9072000290874
:1029A0002200A801A8070800201A0800201620000D
:1029B0002C08AB002B082200A50020002A082200CA
:1029C000AB01AB07200029082200AA01AA070800D2
:1029D0009C31942494319C312424943184317F247B
:1029E00094319931D02194319931B6219431993172
:1029F000C22194319931B92194319931C82194314E
:102A00009A310D2294319931EC2194319931BC21C4
:102A100094319C31D024943121002F1C172D053086
:102A200089317B21943109308C3102249431220088
:102A3000311C0C2D31109131CC2194319C31362434
:102A4000943121002F1C0C2D923185229431993123
:102A5000D42194319331502394319931C52194314B
:102A60008031532094319E319D2694319A311B221E
:102A700094319931BF2194319931CC2194318631EF
:102A8000362694310C2D03302000E200620821002C
:102A9000C00034302000E20062082100C20006308D
:102AA0002000E20062082100C300BC10391E672D1F
:102AB00034309631CB2695312000E20021006E089B
:102AC000153E860002308700200062088100210048
:102AD0006E08153E86000230870001089631662692
:102AE00095312000E20062082100C1000230200080
:102AF000E2006208A50034309B313A239531200072
:102B0000E30063082100C4004408083E2000E200FE
:102B100062082100C500450844072000E200620861
:102B20002100C6004608013E2000E20062082100A4
:102B3000C700391E08003912B91601309C314824EB
:102B40000800200023080319AA2D220821042004CC
:102B5000031DBB2D0030A0000030A1000030A200FA
:102B600008000130A5002508A3070130A236A10CFA
:102B7000A00C890BB62DFE3022050319D42DB12DE2
:102B80000130A5002508A3070130A0070030031875
:102B90000130A107003003180130A2070130A2362E
:102BA000A10CA00C890BCF2DFF3022050319E12DBC
:102BB000C02D0130A3020130A035A10DA20D890B5B
:102BC000DC2DA11FD92D2318EB2DFF30A0057F3060
:102BD000A105FF30A2050310A30C2308A500A60140
:102BE000A7011030A535A60DA70D890BF22D2508DC
:102BF000A0042608A1042708A20424080319080039
:102C0000A217080023002008AA3A031D182E210845
:102C1000013A031D182E55302100E6006E08023ED1
:102C2000860002308700660881008E317F2608000A
:102C300000309031482096312100E6006608E70018
:102C4000E708031D642E201F302E2300A008031D5B
:102C500008002108643A031D08008831012008009B
:102C600023003408D13A0319392E34080A3A031DD7
:102C70000800A008031D08002108023A031D0800EF
:102C800021006E080C3E86000230870023002C08CD
:102C90000106031D080021006E080D3E860002306B
:102CA000870023002D080106031D080021006E087F
:102CB0000E3E86000230870023002E080106031D09
:102CC00008008931ED210800000008002000DE0026
:102CD0000030DF003830E0004230E1000030AE006C
:102CE000C830AF004230B0005F08B1006008B200E9
:102CF0006108B3008D312225963120002E08DF00B7
:102D00002F08E0003008E1005E08DC00DD01DC098E
:102D1000DD09DC0A0319DD0A5C08643EA800003006
:102D20005D3DA9008731DE27963120002808B100DB
:102D30002908B2002A08B3005F08AE006008AF009F
:102D40006108B0008D31CB25963120002E08BE00E1
:102D50002F08BF003008C0009A314322963120006E
:102D60003E08C4003F08C5004008C6000030C1004E
:102D70005030C2004230C300833189239631200095
:102D80004108CE004208CF004308D0008A316622B5
:102D900020004E0808002000DE000030DF00383040
:102DA000E0004230E1000030AE00C830AF004230F9
:102DB000B0005F08B1006008B2006108B3008D3157
:102DC0002225963120002E08DF002F08E000300871
:102DD000E1005E08DC00DD01DC09DD09DC0A031925
:102DE000DD0A5C08343EA80000305D3DA900873153
:102DF000DE27963120002808B1002908B2002A08F1
:102E0000B3005F08AE006008AF006108B0008D310C
:102E10002225963120002E08BE002F08BF00300862
:102E2000C0009A314322963120003E08C4003F087A
:102E3000C5004008C6000030C100C830C2004230A2
:102E4000C30083318923963120004108CE00420817
:102E5000CF004308D0008A31662220004E080800C7
:102E60002000E900E801E80A6908FF3E890A3A2FD4
:102E70000310E80DFF3E031D382F6908E6006608C1
:102E8000E2000B309A3198229731200069081A3EEF
:102E900021006E072000E6006608860002308700E9
:102EA0000108E7006708E20011309A319822973153
:102EB00020006508013A031D7F2F6908143E210098
:102EC0006E072000E60066088600023087000108D1
:102ED000E7006708E20009309A3198229731210013
:102EE0006E080F3E8600023087000108200068044B
:102EF000E6006608E2000F309A31982208002000B0
:102F0000E20109309A319822973121006E080F3E74
:102F1000860002308700200068090105E600660887
:102F2000E2000F309A31982208002100E70067087C
:102F30009A318C22973121004C088600013087009D
:102F4000811CC42F67089D310F2597310038031D60
:102F5000080021004C0886000130870081104C08D1
:102F6000860001308700011DBD2F2000ED01ED0A14
:102F7000210067088F313A2708002000ED01210069
:102F800067088F313A2708009A3155229731013A64
:102F9000031DF32F21004C08860001308700011E1D
:102FA000080067089D310F2597310038031D080080
:102FB00021004C0886000130870001124C08860071
:102FC00001308700811EEC2F2000EA01EA0A21006F
:102FD000670894313B2408002000EA0121006708BB
:102FE00094313B24080021004C0886000130870002
:102FF000011E08004C0886000130870001120800FD
:103000000334163417341E341F3420342A342B343E
:103010000B340C340D340E340F341034113412349C
:10302000133414340A341534213422341834193446
:103030001A341B341C341D342334243425342634F0
:1030400029342C342D342E34003401340234073426
:10305000083409340634043405342734283407345A
:103060000734303487346B34F8347F343F340934D8
:1030700000345C34A734623486348334033422341D
:10308000F83400344434B634103418341D341C344D
:10309000C7340034B234EA340A34003411345934B9
:1030A000883431340B342F342E3406340434053450
:1030B00000343034D334913441340034FE34FE349F
:0C30C000FE34FE34FE34FE34FE34FE34D8
:10336A0008002200201408009E31082608009A311D
:10337A00752208008531612508008831002008007F
:10338A0087310B27080001309931F52108000130F7
:10339A0089310C21080063309C3112240800633003
:1033AA0090317B2008007830210099000800210024
:1033BA00AD01AE0108003A309D31B82508003B3016
:1033CA009D31B825080036309D31B82508000130F6
:1033DA009B316723080021003911BA01BB0108009B
:1033EA002000A20022089A31802208002000A001B1
:1033FA0001309D3125250800FE0012001E00FE0B3B
:10340A00022A0034640080010131890B082A003441
:10341A0001309931B5219A31953143250800F330AD
:10342A0021009E00C130220097000800013082313D
:10343A0005229A319C31FA24080000302200B81B78
:10344A0001302000A0002008080000302200AC183B
:10345A0001302000A00020080800003022002C19AA
:10346A0001302000A0002008080021002F1C3F2A5C
:10347A0092310822270016110B100800200040087C
:10348A003F043E04031908008030C0060800553086
:10349A0023009600AA309600951400000000080048
:1034AA002000A00100302200611801302000A00095
:1034BA00200808002000A0012200E11C672A200041
:1034CA00A001A00A20002008080004302700940068
:1034DA000430950096018B150B100B178B170800FB
:1034EA0015302000A00020082100D400C830A80010
:1034FA000030A90008002000A1002108013A031D9C
:10350A000800D730A00020082100CA0008002000C7
:10351A00A1002108013A031D08006030A00020081C
:10352A002100CC0008002000E4006208E3006408DF
:10353A00453E8600023087006308810008002000AB
:10354A00E4006408013A031D08006208E300630806
:10355A002100C20008002000E4006408013A031DAB
:10356A0008006208E30063082100C1000800200087
:10357A00A1002108633A031D08006930A000200851
:10358A002100CD0008002000A2002008A100220886
:10359A00203E8600023087002108810008002300AF
:1035AA001513303092009101151615159A314C22D7
:1035BA00230015110800413020009800FA309700C6
:1035CA0038309600210011140B178B17080017309A
:1035DA0021009700220036140A302000A00020089B
:1035EA002200B700080033309D31B8259A31E830FF
:1035FA002000A0000330A1009F3188270800200086
:10360A00A1002108013A031D0800CE30A0002008BD
:10361A002100D2000800F8007508F6007608F000CC
:10362A0078089E31FD26F7007708F9007908080026
:10363A002000A20100302100BC1901302000A100A5
:10364A002108A0002008A200220808002000A000EB
:10365A00A1012008013A031D382B003021003C1A31
:10366A0001302000A100210808002000A800250838
:10367A00A6002608A00028089F311E272000A700C0
:10368A002708A900290808002000A100A201210892
:10369A00013A031D562B210041082000A0002008F2
:1036AA00A200220808002100A0185D2BA01D080016
:1036BA00A011A01036309D31B8259B313A309D318A
:1036CA00B82508002000A400A201A20A240891310A
:1036DA0059219B312000A201A20A2408013E9131FE
:1036EA00592108002000A20022089A318C222100C8
:1036FA004C0A860001308700003001180130200092
:10370A00A300230808002000A0002200AC14E11046
:10371A0020002008013A031D0800200803190800A8
:10372A002200E114200008002000A20022089A3199
:10373A00802221004A088600013087000030811863
:10374A0001302000A300230808002000A101A201E3
:10375A00A20A0C1F0C1AB52B0C1C8C1BB52BA20130
:10376A002208A0002008A100210808002200200C3D
:10377A0001392000A200A3012208A4002308A50001
:10378A002508A101A1072408A001A007080020001C
:10379A00A101A201A20A0C1F0C1AD72B0C1C8C1B0C
:1037AA00D72BA2012208A0002008A10021080800A6
:1037BA002000A101A201A20A0C1F0C1AE82B0C1C62
:1037CA008C1BE82BA2012208A0002008A1002108D6
:1037DA0008002000A000A101F92B0030210049189F
:1037EA0001302000A100FE2B2008013A0319F22B18
:1037FA00FE2B210808002000A300A201231C092C8B
:10380A002008A1002108A2070310A00D0310A30C91
:10381A00A308031D032C220808002000A400240882
:10382A009A31BC229C3121004D0886000130870064
:10383A0001142000A201240891315921080099316C
:10384A00D8219C319D319E259C319A31E0229C31B0
:10385A009A3114229C319A316A229C319A31EC2293
:10386A0008002200361C08000130B7023708FF3A68
:10387A000319080064302000A00020082200B700C5
:10388A008031022008002000A1002108013A0030FE
:10389A0003190130A0002400440820002006FE3944
:1038AA0020062400C400C201C30108002000A100B0
:1038BA002108013A003003190130A000A00DA00D23
:1038CA002100200820002006FB3920062100A00044
:1038DA0008002000A001003021003C1A013020001D
:1038EA00A000A008031D7F2C003021003C1B0130E2
:1038FA002000A000200808002000A1002108013AA9
:10390A00003003190130A000A00DA00D24004408C6
:10391A0020002006FB3920062400C4000800453098
:10392A002000A00020082100EE00D1302000A000D5
:10393A0021006E08143E860002308700200020080D
:10394A00810008002000A1002108013A0030031973
:10395A000130A000A00EA00DA00D2100200820001B
:10396A002006BF3920062100A000080001302100EE
:10397A00AD070030AE3D0D30A03E86008701403FC6
:10398A00A83A031DCA2C413F613A031D0800AD0144
:10399A00AE01211708009231C6229C319F31D627E9
:1039AA009C319E317E269C319931E4219C3199319A
:1039BA00E0219C319A31F8229C319931E8210800A2
:1039CA0001302100BA070030BB3D0B30AF3E860004
:1039DA008701403FA83A031DF42C413F613A031D79
:1039EA000800BA01BB013915080021002F1C080084
:1039FA0020000D180800062D20000D149C31E52426
:103A0A009C3120000D180C2D2100391D012D9931F2
:103A1A00F02108002000A201A301A30A9A31222260
:103A2A009D310038031D1E2D2200AC181E2D2000CA
:103A3A00A30120002308A1002108A20022080800EF
:103A4A002000A2002208013A031D08002008013ABA
:103A5A00003003190130A100A10E21003C0820000A
:103A6A002106EF3921062100BC0008002000A2002F
:103A7A002208013A031D08002008013A0030031900
:103A8A000130A100A10DA10DA10D21003C082000CB
:103A9A002106F73921062100BC0008002000A200F7
:103AAA002208013A031D08002008013A00300319D0
:103ABA000130A100A10EA10DA10D21003C0820009A
:103ACA002106BF3921062100BC0008002000A200FF
:103ADA007D2D2008013A003003190130A100210090
:103AEA00490820002106FE3921062100C9000800E4
:103AFA0020002208013A03196E2D832D08002000A8
:103B0A00A200A101A3013030230092002000220864
:103B1A00230091001513151414082000A000200892
:103B2A00A100230013082000A0002008A3002308F6
:103B3A000800F73021008C0004308D0026308E00FA
:103B4A0022008C018D018E010E3023008C008D0124
:103B5A008E01F73020008C0004308D0026308E0054
:103B6A0024008D0108002000A3000E102308A200E3
:103B7A0022082100D100C42D9C31BB249D31200094
:103B8A008E1ECA2D2100211FC12D9931DC219D31A4
:103B9A009031002020000E1408002000A400240800
:103BAA009A318C2220002208013A00300319013090
:103BBA00A30021004C0A8600013087002000A30ED2
:103BCA00A30DA30D01082306BF39230681000800AF
:103BDA002000A101A2012208803AA0008030200220
:103BEA00031DF92D05302102031808002000213594
:103BFA00DC3E860087010030C03FC13F0130A1078B
:103C0A000030A23DF02D2000A10105302102031849
:103C1A0008002135433E8600013087000030C03F4E
:103C2A00C13F21354D3E860001308700FF30C03F3D
:103C3A00FF30C13F0130A0002008A1070A2E200052
:103C4A00A10108302102031808008E150310210073
:103C5A00D10D20008E1E342E210051143A2EFE3032
:103C6A002000A00020082100D10520008E1101307B
:103C7A00A0002008A107262E2000A401A501201CCF
:103C8A004A2E2208A4072308A53D0130A235A30D18
:103C9A00890B4B2E0130A136A00C890B502E21081E
:103CAA002004031D442E2508A101A1072408A00110
:103CBA00A00708009031E8209E3101302200B207A7
:103CCA000030B33D0130313E860001308700403F6D
:103CDA00C83A031D722E413F003A031D772EB201E6
:103CEA00B3013114FA3020009700383096001110D1
:103CFA0008002000A7010830270203180800270837
:103D0A005E3E840098300318013E85000008A50035
:103D1A002508A6002608A5002508A2003E309F31E6
:103D2A0040279E3101302000A5002508A707802ED4
:103D3A002200AC1CB52E9A3122229E31013A031977
:103D4A00B32E0030903148209E310038031DB32E27
:103D5A009A3155229E310038031DB52E2200AC102F
:103D6A000130973195279E31013093310A2308009B
:103D7A002000A300230821009D0020002008210024
:103D8A009E009D14CB2E9C31E5249E3121009D1C62
:103D9A00D02E391DC82E9931F02121001C0820008F
:103DAA00A101A10721001B082000A001A00708000B
:103DBA0063340234003400340034003400340034F4
:103DCA000034003400340034FF34FF34FF3400344C
:103DDA000034003400340034003400340034003439
:103DEA000034003400340034003400340034003429
:103DFA00F200F401700803191C2FF301F30AF01BF7
:103E0A000D2F0310F00D0130F1007108F307042F94
:103E1A000310F40D70087202031C172F7008F202C7
:103E2A0074140310F00C0130F302031D0D2F7408F3
:103E3A0008002000A200A401200803193E2FA301B4
:103E4A00A30AA01B2F2F0310A00D0130A1002108E7
:103E5A00A307262F0310A40D20082202031C392FC2
:103E6A002008A20224140310A00C0130A302031D8F
:103E7A002F2F240808002000A4000E102408A300F5
:103E8A0023082100D1004C2F9C31BB249F312000F4
:103E9A008E1E522F2100211F492F9931DC219F317B
:103EAA00903100209F3120002208A300230821001E
:103EBA00D1009031002020000E1408002000A30039
:103ECA000E102308C03EA20022082100D100702F44
:103EDA009C31BB249F3120008E1E762F2100211F8A
:103EEA006D2F9931DC219F31903100209F319E3115
:103EFA00242620000E14210051082000A2002208C6
:103F0A002100D700080001302000A2000030A300E1
:103F1A0021082302031D932F2008220203180800F8
:103F2A00A401A50100302502023003192402031856
:103F3A00A92F0130A4070030A53D00302502023028
:103F4A0003192402031C9E2F0130A2070030A33D4F
:103F5A008D2F2000A20022089A318C229F31210045
:103F6A004C08860001308700811808004C0886003A
:103F7A0001308700011C08004C0A860001308700C6
:103F8A0001144C0886000130870081154C08860010
:103F9A000130870001164C0886000130870081161F
:103FAA0008002000A8012F3028020318080028085A
:103FBA00003E840098300318013E85000008A500E1
:103FCA002508A60028082F3E840098300318013ED1
:103FDA0085000008A5002508A7002708A5002508D0
:103FEA00A20026089F3140279F3101302000A500FA
:063FFA002508A807D82FDE
:020000040001F9
:04000E007CF9FDFF7D
:00000001FF
