:1000000080311328640008007E14803120007F08AE
:10001000F4009D31532580319031B32074082000C5
:10002000FF007E10090080311528F801F501F60166
:10003000F701EF01A0308400003085004930903195
:100040006620803120308400013085004D309031B1
:1000500066208031A0308400013085004C30903122
:1000600066208031BE3084009F30850020308600BD
:100070000230870020309C3131247E1020008831EE
:100080001728003092315F2280312000A800280814
:10009000AA00AB012200251CE7299C318C24803169
:1000A0000038031D5528220076282000AA08031DC9
:1000B00073289131772180310038031D7328220085
:1000C000A5149C314D248031013A031D6E28220075
:1000D000A51DA51B7728A515CE0177282200A51FF1
:1000E0007728A51377282200A51C7728A510A51C22
:1000F000C3292515251EC1290130A6070030A73DBB
:1001000000302702053003192602031C0800A6014F
:10011000A701251201302000AC000030AD002D08F1
:10012000803AA80080302802031D982804302C0251
:100130000318CC2820002C35303E86000130870083
:10014000403FA800413FA90028082200AA0720003C
:1001500029082200AB3D20002C353A3E86000130B4
:100160008700403FA800413FA90028082200AC07B3
:10017000200029082200AD3D01302000AC070030EE
:10018000AD3D2D08803AA80080302802031DCA2802
:1001900004302C02031C9A2803302000A0000030F9
:1001A000A10022002B082000A301A30722002A0897
:1001B0002000A201A207933166238031200021088C
:1001C0002200AB01AB07200020082200AA01AA07E9
:1001D00003302000A0000030A10022002D082000E4
:1001E000A301A30722002C082000A201A20793313B
:1001F00066238031200021082200AD01AD072000D8
:1002000020082200AC01AC079F3128278031220052
:100210002D082B02031D0E292C082A02031C08009E
:100220000530253E8600013087002C092000A800FB
:1002300022002D092000A900A80A0319A90A403F9D
:1002400028072200C400413F2000293D2200C500AC
:10025000AA01AB01AC01AD01A51D8D2902304E02F2
:1002600003188D2901302000A80028082200CE079D
:100270009C31552480312000A8002808AB009D3116
:10028000132580312000A80028082200D1004E0844
:10029000013A031D552902302000A8002808220039
:1002A000D0007430CA00043060294E08023A031DA1
:1002B0008D295108013A031D62295B30CA000030C4
:1002C000CB008D292000AB08031D81292200510895
:1002D0002000A800A9012808A0002908A1005B307F
:1002E000A2000030A3009F31612780312000210847
:1002F0002200CB01CB07200020082200CA01CA0738
:100300008D2920002B08013A031D8D2922002E087B
:100310005B3ECA0000302F3DCB0022004B08450257
:10032000031D94294A084402031CA329013020001C
:10033000A80028082200CF074F0850020318080021
:10034000CF01A5160800CF01A51D0800013020002F
:10035000A80028082200D20703305202031C08001C
:10036000D201A517A511CE014508AF01AF0744087A
:10037000AE01AE0703302000A80028082200D000FC
:10038000080025160800251DD62925112512A601CD
:10039000A7019F31282780312200CF01D201AA0175
:1003A000AB01AC01AD01A511CE01A513A51E08003E
:1003B0000130A8070030A93D03302902E8300319B5
:1003C0002802031C0800A801A901A51208002100A9
:1003D000201C08002200251408002000ED006D08F4
:1003E0009C31D82481317708860001308700011CB8
:1003F000532B003092315F2281310038031D1B2ABC
:10040000770A860001308700811020006D089D3139
:10041000D3258131013A0030031901302000EB006F
:100420007708860001308700EB0D01086B06FD3967
:100430006B068100302A770A860001308700811818
:10044000302A770A860001308700811477088600F9
:100450000130870081107708860001308700011580
:100460007708860001308700811C002B7708860002
:100470000130870001195E2A01302000EB00770867
:10048000023E8600013087006B0881077708023E34
:1004900086000130870005300102031C0800770840
:1004A000023E860001308700810177088600013016
:1004B000870001156D089331D62308007708860060
:1004C000013087008119902A7708033E86000130A9
:1004D00087000130810741310318810A7708033E04
:1004E000860001308700403F2000EB00413FEC00D8
:1004F00000306C02963003196B02031C0800770869
:10050000033E8600013087000030C03FC13F7708BE
:1005100086000130870081156D089131A221080005
:100520007708860001308700011ACE2A7708053E39
:100530008600013087000130810741310318810AAC
:100540007708053E860001308700403F2000EB0021
:10055000413FEC0000306C02963003196B02031C23
:1005600008007708053E8600013087000030C03F54
:10057000C13F7708860001308700011601309E31A7
:10058000522681312100A01E080064302000A900FD
:100590000030AA00023097314E2708007708860005
:1005A00001308700811A08007708073E8600013075
:1005B00087000130810741310318810A7708073E1F
:1005C000860001308700403F2000EB00413FEC00F7
:1005D00001306C022C3003196B02031C08007708F1
:1005E000073E8600013087000030C03FC13F7708DA
:1005F000860001308700811600309E3152260800A7
:100600007708860001308700011D080001302000B6
:10061000EB007708023E8600013087006B088107F7
:100620007708023E86000130870005300102031C76
:1006300008007708023E86000130870081017708B4
:1006400086000130870001117708033E86000130E3
:1006500087000030C03FC13F770886000130870027
:1006600081117708053E8600013087000030C03FC9
:10067000C13F770886000130870001127708073EE6
:100680008600013087000030C03FC13F77088600F8
:100690000130870081126D0895315F25813100306E
:1006A0009E31522608002100201C08007708860091
:1006B0000130870001140800F30073089C3178248E
:1006C00083317608023E860001308700011D862BAB
:1006D0000130F2007608033E860001308700720880
:1006E00081077608033E8600013087003930010219
:1006F000031C862B7608033E8600013087008101AB
:100700007608023E8600013087000111760A8600D5
:1007100001308700011CB62B7608033E86000130AD
:1007200087007608043E840001308500000801023D
:10073000031C0800760A8600013087000110760A43
:100740008600013087008115760886000130870019
:10075000011C08007608860001308700011073082C
:10076000013A031D080020008D100800760A86005B
:1007700001308700811D0800760A8600013087005D
:1007800081110130F2007608053E860001308700B5
:10079000720881077608053E8600013087007608DA
:1007A000083E84000130850000080102031C1A2C59
:1007B0007608053E8600013087008101760A8600B2
:1007C00001308700011F0800760A8600013087008B
:1007D000811B032C7608043E8600013087003830E8
:1007E00001020318FD2B0130F2007608043E86005A
:1007F00001308700720881070800760A8600013000
:100800008700811708007608043E860001308700C3
:100810000D300102031C142C7608043E86000130C2
:100820008700013081020800760A860001308700C7
:10083000811308007608023E860001308700011C03
:1008400008007608043E8600013087007608063EE0
:10085000840001308500000801020318392C0130A2
:10086000F2007608043E8600013087007208810796
:1008700008007608063E8600013087007608043EB0
:100880008400013085000008010203184F2C76080F
:10089000043E86000130870001308102080076089E
:1008A000023E860001308700011008002000410848
:1008B000C7004208C8004308C9000310480D490D8D
:1008C000CA004A08CD004408C7004508C8004608C9
:1008D000C9000310480D490DCA004A08CC004D0854
:1008E00003197E2C4C084D020318852C4D03FF3A4A
:1008F0004C07C70019304702031C852C4408C1006F
:100900004508C2004608C30008004C080319080047
:100910004D084C020318942C4C03FF3A4D07C700B6
:1009200019304702031808000630C7004708CB00FB
:10093000C31BCB17C61B4B17C217FF30C105FF30B7
:10094000C2050030C305C517FF30C405FF30C5051B
:100950000030C6054C084D020318D02C0130C435B8
:10096000C50DC60D890BAF2C0130CC024C084D06CD
:100970000319CB2C0130CB024B0807390319CB2CC0
:10098000AE2C0130C336C20CC10C890BC22C013015
:10099000C7004708CD074D084C060319F52CC12C9C
:1009A0004D084C020318F52C0130C135C20DC30DA2
:1009B000890BD52C0130CD024C084D060319F12CC2
:1009C0000130CB024B0807390319F12CD42C01302C
:1009D000C636C50CC40C890BE82C0130C70047088B
:1009E000CC074D084C06031DE72CCB1F072DFF300D
:1009F000C106FF30C206FF30C3060130C107003018
:100A000003180130C207003003180130C3074B1F21
:100A1000192DFF30C406FF30C506FF30C606013071
:100A2000C407003003180130C50700300318013037
:100A3000C607CB014108C4074208C53D4308C63D6F
:100A4000C61F342DFF30C406FF30C506FF30C60672
:100A50000130C407003003180130C5070030031807
:100A60000130C607CB01CB0A4408A0004508A1000D
:100A70004608A2004D08C7004708A3004B08C8005D
:100A80004808A40089318C2120002008C1002108D9
:100A9000C2002208C30008002000E3011F309E317D
:100AA000D8268531AA3A031DBE2D00309E31D826A6
:100AB00085312000E20079080C3E86000230870074
:100AC0006208810001309E31D82685312000E20085
:100AD00079080D3E860002308700620881000230EE
:100AE0009E31D82685312000E20079080E3E86002E
:100AF000023087006208810038308931ED2185316C
:100B00002000E2006208E3006308E2007908153E75
:100B1000860002308700620881006308E2007908DD
:100B2000163E860002308700620881006308E200FA
:100B30007908173E86000230870062088100790834
:100B40000C3E8600023087000108FF3A031D0800B2
:100B500079080D3E8600023087000108FF3A031D28
:100B6000080079080E3E8600023087000108FF3A2F
:100B7000031D08002100A015A01608003830893197
:100B8000ED2185312000E2006208E300FF30E20041
:100B90006208A00000309C31FB248531FF3020002A
:100BA000E2006208A00001309C31FB248531FF3057
:100BB0002000E2006208A00002309C31FB24853155
:100BC000FF302000E2006208A00003309C31FB24CB
:100BD0008531FF302000E2006208A00004309C3123
:100BE000FB248531FF302000E2006208A0000530C0
:100BF0009C31FB248531AA302000E2006208A0006D
:100C00001F309C31FB24853120006308E200790805
:100C1000153E860002308700620881006308E2000A
:100C20007908163E8600023087006208810063085A
:100C3000E2007908173E86000230870062088100D2
:100C40008B139131D0218B172100A015A01608001D
:100C5000003092315F2286312000EB006B082100CA
:100C6000EA00EF01E901E90AAB1D432EEA08031D82
:100C70000800AB110A302000EB006B08A2006330C3
:100C800093319D23080021006A0803190800AB1561
:100C90000B302000EB006B08A200633093319D23E2
:100CA0008631F92E9C318C248631013A031D612E48
:100CB0002C302000A9000130AA000A3097314E27BD
:100CC00086312100EB01EC016C08803A2000EB003A
:100CD00080306B02031D6F2E210069086B02031820
:100CE000932E21006B08013E9D31A0258631013AEB
:100CF000031D8D2E20006F080B3E860001308700FB
:100D000081146F08023E86000130870081102100A7
:100D10006B08013E95315F25863101302100EB07DC
:100D20000030EC3D642E210008002C302000A9008A
:100D30000130AA00053097314E2786319C31B72407
:100D400086312000EB006B082100EF00EF08031D47
:100D5000DC2EED01EE016E08803A2000EB008030C1
:100D60006B02031DB62E210069086D020318DA2EEE
:100D700021006D08013E9D31A0258631013A031DF9
:100D8000D42E20006F080B3E8600013087008114AE
:100D90006F08023E860001308700811021006D0837
:100DA000013E95315F25863101302100ED0700308D
:100DB000EE3DAB2E2100080021006F089D31A025DB
:100DC0008631013A0319E62E2100080020006F0841
:100DD0000B3E86000130870081146F08023E8600BA
:100DE00001308700811021006F0895315F252100B7
:100DF000080021006A08023A0319522E013A031929
:100E0000952E032F0800080020002E08B4002F089C
:100E1000B5003008B6000310350D360DB7003708A1
:100E2000B800B808031D1B2F0030AE000030AF0023
:100E30000030B00008003108B4003208B5003308B3
:100E4000B6000310350D360DB7003708BD00BD08DC
:100E5000031D312F0030AE000030AF000030B00075
:100E600008003D087B3EB4003408B8072E08B400E3
:100E70002F08B5003008B6001030B636B50CB40CEB
:100E8000890B3D2F3408B7003708BD003108B40086
:100E90003208B5003308B6001030B636B50CB40CC5
:100EA000890B4D2F3408B7003708BD068030B400D9
:100EB0003408BD05AF17B217FF30B105FF30B205DA
:100EC0000030B3050030B9000030BA000030BB007C
:100ED0000730B4003408BC002E1C742F3108B90749
:100EE0003208BA3D3308BB3D0130B036AF0CAE0C12
:100EF000890B752F0130B135B20DB30D890B7B2FE6
:100F00000130BC02031D6C2F0930B4003408BC0052
:100F10002E1C902F3108B9073208BA3D3308BB3D6B
:100F20000130B036AF0CAE0C890B912F0130BB36BF
:100F3000BA0CB90C890B972F0130BC02031D882F06
:100F40003908A0003A08A1003B08A2003808B40004
:100F50003408A3003D08B5003508A40089318C2170
:100F600020002008AE002108AF002208B0000800D1
:100F700020008E110E120E140A30A0000030A100C5
:100F80009031FD20873120000E100A30A000003083
:100F9000A1009031FD20873120000E142830A000E0
:100FA0000030A1009031FD20873120000E1030303C
:100FB000A60026082100D100E02F9E316626873149
:100FC00020008E1EE62F21002B1DDD2F9C312624B4
:100FD00087319E31A5268731F02F9E3166268731D5
:100FE00020008E1EF62F21002B1DED2F9C31262474
:100FF00020000E120E14080078302100990008001D
:1010000008002000A201A301A30A9C3145248831D5
:101010000038031D10282100461910282000A301C4
:1010200020002308A1002108A200220808009D3109
:10103000712588319E310826883185314C258831CB
:101040009C311E2488319B31F42388319C3100244B
:1010500088319B31F72388319C31162488319C31AB
:10106000822488319C316F2488319B31FA23883166
:101070009E317B2688312100201C462805308C318A
:101080008224883109309431892488312200201C3F
:101090003B28201094310F2488319E311A26883144
:1010A0002100201C3B289231FA2288319C312224D5
:1010B00088319431C72488319C31032488318031B0
:1010C000412088319F310C2788319C313E24883162
:1010D0009B31FD2388319C311A24883186312826A2
:1010E00088313B282000EE006E089C31A124883115
:1010F0007508860001308700811C08007508023ED3
:101100008600013087000130810741310318810AD0
:101110007508023E860001308700403F2000EC0049
:10112000413FED0017306D02703003196C02031C53
:1011300008007508023E8600013087000030C03F7D
:10114000C13F0130EC007508043E86000130870085
:101150006C0881077508043E860001308700750A17
:1011600084000130850000080102031C0800750896
:10117000043E860001308700810175088600013039
:10118000870081106430A9000030AA000130973137
:101190004E27883120006E088831CF2008002100BA
:1011A000EA006A08FF3A031D0E29E901E90AEB018A
:1011B000EC016C08803A2000EB0080306B02031DCC
:1011C000E428210069086B020318080021006B085D
:1011D000013E9C31AC24883121006B08013E9D31D9
:1011E000A0258831013A031D082920006F080B3E15
:1011F00086000130870081146F08023E86000130AE
:101200008700811021006B08013E95315F258831F0
:1012100001302100EB070030EC3DD92821006A089D
:101220009C31AC24883121006A089D31A025883189
:10123000013A031D080020006F080B3E86000130B4
:10124000870081146F08023E8600013087008110FC
:1012500021006A0895315F2508007029FF30883128
:10126000CF2089312000E20109309D3137258931B5
:101270002000E2010B309D31372589312000E20149
:101280000F309D31372589312000E20111309D3129
:101290003725893164302000A9000030AA000130D0
:1012A00097314E2708002000E20109309D31372593
:1012B00089312000E2010B309D3137258931200032
:1012C000E20111309D31372589318E311026080019
:1012D00001309531AE250800013094314B240800CF
:1012E00023002F08003A03192E29013A031968290F
:1012F000033A03198B29013A03198B29123A03196E
:101300006C29313A03195329013A03198B29103AF0
:1013100003198B298B29080020002308031995291C
:10132000220821042004031DA6290030A00000305B
:10133000A1000030A20008000130A5002508A30785
:101340000130A236A10CA00C890BA129FE30220588
:101350000319BF299C290130A5002508A3070130E6
:10136000A007003003180130A10700300318013036
:10137000A2070130A236A10CA00C890BBA29FF30BC
:1013800022050319CC29AB290130A3020130A03575
:10139000A10DA20D890BC729A11FC4292318D62985
:1013A000FF30A0057F30A105FF30A2050310A30C7C
:1013B0002308A500A601A7011030A535A60DA70D8D
:1013C000890BDD292508A0042608A1042708A2040A
:1013D000240803190800A21708002000DE000030CE
:1013E000DF003030E0004230E1000030AE00C830B5
:1013F000AF004230B0005F08B1006008B200610881
:10140000B3008E31A726893120002E08DF002F0877
:10141000E0003008E1005E08DC00DD01DC09DD09E8
:10142000DC0A0319DD0A5C08383EA80000305D3D87
:10143000A9009F31DE27893120002808B100290842
:10144000B2002A08B3005F08AE006008AF00610870
:10145000B0008E31A726893120002E08BE002F084B
:10146000BF003008C0009C315D24893120003E0857
:10147000C4003F08C5004008C6000030C100C830A5
:10148000C2004230C3008431562489312000410813
:10149000CE004208CF004308D0008D3189252000BE
:1014A0004E0808002000DE000030DF003030E00091
:1014B0004230E1000030AE00C830AF004230B00032
:1014C0005F08B1006008B2006108B3008E31A72642
:1014D0008A3120002E08DF002F08E0003008E100EC
:1014E0005E08DC00DD01DC09DD09DC0A0319DD0A28
:1014F0005C08643EA80000305D3DA9009F31DE27F6
:101500008A3120002808B1002908B2002A08B30057
:101510005F08AE006008AF006108B00087310427A3
:101520008A3120002E08BE002F08BF003008C000FE
:101530009C315D248A3120003E08C4003F08C5006C
:101540004008C6000030C1006030C2004230C30015
:10155000843156248A3120004108CE004208CF0051
:101560004308D0008D31892520004E080800363010
:101570009E31BE268A313B309E31BE268A31200004
:101580000E107F30A40024082100D100CA2A9E3109
:1015900066268A3120008E1ED02A21002B1DC72AE4
:1015A0009C3126248A319E31A5268A312100530898
:1015B0002000A40024082100D1009E31A5268A31F4
:1015C0002000A50121005308200025020318FB2A52
:1015D0002508A03E8600013087000108A4002408E9
:1015E0002100D1009E31A5268A3101302000A400BF
:1015F0002408A507E22A0E1435309E31BE268A3112
:10160000042B9E3166268A3120008E180A2B210079
:101610002B1D012B9C3126248A31112B9E316626ED
:101620008A3120008E1C172B21002B1D0E2B9C3184
:1016300026248A3136309E31BE268A313B309E3197
:10164000BE26F81408002000EE006E089C31AC2481
:101650008B3120006F080A3E860001308700811C14
:10166000522B6E08883101208B310038031D080091
:1016700020006F080A3E86000130870081106F0845
:101680000A3E860001308700011C4C2BEB01EB0A5F
:101690006E089531FD2508002000EB016E0895319C
:1016A000FD2508009C318C248B31013A031D812BD0
:1016B00020006F080A3E860001308700811D080067
:1016C0006E08883101208B310038031D080020008E
:1016D0006F080A3E86000130870081116F080A3EBC
:1016E000860001308700011D7B2BEB01EB0A6E08A1
:1016F0009631F62608002000EB016E089631F6269A
:10170000080020006F080A3E860001308700811D16
:1017100008006F080A3E860001308700811108002A
:1017200020008E18972BA02B9E3166268B3120002F
:101730008E1C9D2B21002B1D942B9C3126248B313C
:101740003B309031D8208B31210056080319080016
:1017500020000E10FF30A40024082100D100B32B7C
:101760009E3166268B3120008E1EB92B21002B1D49
:10177000B02B9C3126248B319E31A5268B319F3195
:1017800044278B31210051082000A40024082100A7
:10179000D0002000A50121005008200025020318D8
:1017A000E42B9F3144278B31210051082000A400F5
:1017B0002508A03E86000130870024088100013002
:1017C000A4002408A507CB2B9F3144278B3121008F
:1017D00051082000A40024082100CF009F31442795
:1017E0008B31210051082000A40024082100CB00E7
:1017F00020000E142100CB1B7814BA11BA14363015
:101800009E31BE268B313A309E31BE262100080023
:10181000003092315F228C312000EE006E082100F2
:10182000ED0023002008AA3A031D272C2108013AC5
:10183000031D272C55302000EE007908023E86005B
:10184000023087006E0881008E31102608002100CA
:10185000ED08031D08003A1F382C2300A008031DC3
:1018600008002108643A031D08009231C6220800CE
:101870002300A008031D6D2C2108023A031D6D2CC6
:101880002C08FF3A031D4E2C2D08FF3A031D4E2C49
:101890002E08FF3A031D4E2C0000080079080C3E6C
:1018A00086000230870023002C080106031D080073
:1018B00079080D3E8600023087002D080106031DC1
:1018C000080079080E3E8600023087002E080106C7
:1018D000031D080089312D21080023002008FF3A4C
:1018E000031D782C2108023A031D782C0000080003
:1018F0002300A008031D08002108653A031D080005
:10190000000008002000A600A901A801A7012200EC
:10191000251E0800F3302000A4002408A00026089B
:101920009F319E278C31200021082200C701C70764
:10193000200020082200C601C6072000A9010430AB
:1019400029020318D02C2935303E8600013087004B
:10195000403FA400413FA500220047082000250287
:10196000031DB62C22004608200024020318C82CB0
:10197000A808031DC82C2935303E86000130870099
:1019800022004608C03F4708C13F2000A801A80A1E
:101990000130A4002408A90704302902031CA32C49
:1019A000A808031D0800A901043029020318080033
:1019B00029353A3E860001308700403FA400413F70
:1019C000A500250822004702031DEA2C2000240858
:1019D000220046020318FD2C2000A708031DFD2C41
:1019E00029353A3E86000130870022004608C03F74
:1019F0004708C13F2000A701A70A01302000A4002A
:101A00002408A907D42C2200ED01EE01EF012100EA
:101A10003A1C852D9D31B1258D31200021082004EF
:101A2000031D0800003092315F228D310038031D04
:101A3000292D9D31C2258D31013A031D292D21000B
:101A40003A1B292DBC01BD01BB140530C10000307B
:101A5000C20021003A1B422DBB1C532D0130BC0794
:101A60000030BD3D0230BA3E86008701403F41064E
:101A7000031D3C2D413F4206031D532DBC01BD01FA
:101A8000BB10532D3A1D4D2D3A1136309E31BE26D6
:101A90008D313B309E31BE268D312100BB1C532D34
:101AA000BB10BC01BD01BB1808003A1D632D3A11E3
:101AB000BB140530C1000030C2009D3162258D315C
:101AC0008A31B7220800BA1D782DBA1F692D3A1F36
:101AD00008008B3190238D312100BA1C0800BA1008
:101AE000BB140530C1000030C2008C31082408004E
:101AF000BA1536309E31BE268D313A309E31BE2623
:101B00008D3134309E31BE260800201C08003A1466
:101B1000080020004E08D2004F08D3005008D4001F
:101B20000310530D540DD5005508DB00DB08031DD1
:101B3000A22D0030D1000030D0000030CF000030A6
:101B4000CE0008004E08D2004F08D3005008D40041
:101B50001730D436D30CD20C890BA92D5208D500DE
:101B60005508D600CF17FF30CE05FF30CF05003027
:101B7000D0054E08D7004F08D8005008D900DA0128
:101B80008E30DB02DB1FE02D5B08803A8F3E0318AE
:101B9000D22D0030D1000030D0000030CF00003016
:101BA000CE0008000130DA36D90CD80CD70C890BDE
:101BB000D32D0130D2005208DB070319F92DD22DA5
:101BC00018305B02031CF62D0030D1000030D0002D
:101BD0000030CF000030CE0008000130D735D80DDE
:101BE000D90DDA0D890BEE2D0130DB02DB08031D68
:101BF000ED2D56080319072ED709D809D909DA0996
:101C0000D70A0319D80A0319D90A0319DA0A5A0894
:101C1000D1005908D0005808CF005708CE0008005E
:101C200021003A1C08003A1908003A1563302000D8
:101C3000A00020082300A00002302000A0002008FF
:101C40002300A10079088600023087000230423F5D
:101C5000A20079088600023087000230433FA300CB
:101C600079088600023087000230443FA4007908DA
:101C70008600023087000230453FA50079088600C3
:101C8000023087000230463FA60079088600023005
:101C900087000230473FA70079088600023087009E
:101CA0000230483FA80079088600023087000230E1
:101CB000493FA900790886000230870002304A3F78
:101CC000AA00790886000230870002304B3FAB0043
:101CD000790886000230870002304C3FAC0079085A
:101CE00086000230870002304D3FAD007908860043
:101CF0000230870002304E3FAE0079088600023085
:101D0000870002304F3FAF0079088600023087001D
:101D10000230503FB0007908860002308700023060
:101D2000513FB10079088600023087000230523FEF
:101D3000B20079088600023087000230533FB300BA
:101D4000D1302000A00020082300B40008002000AB
:101D50003108B4003208B5003308B6000310350D61
:101D6000360DB7003708BC00BC08031DBE2E00307E
:101D7000AE000030AF000030B00008002E08B40004
:101D80002F08B5003008B6000310350D360DB7002A
:101D90003708BD00BD08031DD42E0030AE00003052
:101DA000AF000030B00008000030B9000030BA00C9
:101DB0000030BB0089303D07B4003408BC02310854
:101DC000B4003208B5003308B6001030B636B50C92
:101DD000B40C890BE62E3408B7003708BD002E0876
:101DE000B4002F08B5003008B6001030B636B50C78
:101DF000B40C890BF62E3408B7003708BD068030C6
:101E0000B4003408BD05B217FF30B105FF30B2058C
:101E10000030B305AF17FF30AE05FF30AF0500301F
:101E2000B0051830B4003408B8000130B935BA0D27
:101E3000BB0D890B162F30083302031D252F2F08E9
:101E40003202031D252F2E083102031C2E2F2E08CF
:101E5000B1022F08B23B3008B33B39140130B13521
:101E6000B20DB30D890B2F2F0130B802031D152FB2
:101E70003908A0003A08A1003B08A2003C08B400C1
:101E80003408A3003D08B5003508A40089318C2131
:101E900020002008AE002108AF002208B000080092
:101EA000003092315F228F312000E6006608E800A2
:101EB0002100571CFC2F57196C2F0130D807003018
:101EC000D93D01305902F43003195802031C0800AF
:101ED000D801D901571508000130D8070030D93D85
:101EE00000305902053003195802031C0800D801BC
:101EF000D9010830D73E8600870116000104031976
:101F0000F62F0A30D73E8600870116000104031918
:101F1000F62F57110A30D73E860087010830D73E8A
:101F200084008501403F00072000E6000131413F69
:101F3000003DE700E736E60C66082100DD002000E2
:101F400067082100DE009030E5000130E6005930DE
:101F5000E7000130E800D71CCD2F66085E02031DA4
:101F6000B32F65085D02031CCB2F01302000E60073
:101F700066082100DA0703305A02031CE32FDA0156
:101F8000D71064302000A9000030AA000230973139
:101F90004E278F31E32F2100E22F5E086802031DD8
:101FA000D32F5D086702031CE22F01302000E600FA
:101FB00066082100DA0703305A02031CE32FDA0116
:101FC000D714E32FDA0121005E082000E60066083E
:101FD000E20018309D3137258F3121005D08200047
:101FE000E6006608E20019309D3137252100DF0147
:101FF000E001E101E2010800201C0800571408007C
:102000000334163417341E341F3420342A342B344E
:102010000B340C340D340E340F34103411341234AC
:10202000133414340A341534213422341834193456
:102030001A341B341C341D34233424342534263400
:1020400029342C342D342E34003401340234073436
:10205000083409340634043405342734283407346A
:102060000734303487346B34F8347F343F340934E8
:1020700000345C34A734623486348334033422342D
:10208000F83400344434B634103418341D341C345D
:10209000C7340034B234EA340A34003411345934C9
:1020A000883431340B342F342E3406340434053460
:1020B00000343034D334913441340034FE34FE34AF
:1020C000FE34FE34FE34FE34FE34FE3464008001FF
:1020D0000131890B672800342000A4000E10240869
:1020E000A30023082100D10078289E316626903174
:1020F00020008E1E7E2821002B1D75289C31262451
:1021000090319E31A526903120002208A30023089B
:102110002100D1009E31A52620000E1408002000C9
:10212000E30063089C31AC24903120006F08023E2C
:1021300086000130870001146F0A86000130870095
:1021400081167908093E86000230870001088A312D
:1021500052222000E2006F08063E86000130870010
:102160006208810008002100111C08002000111CD9
:102170000800FA3097003830960011100130833192
:102180005C23903101302200A1070030A23D0130D4
:10219000203E860001308700403F643A031DD2286C
:1021A000413F003A031D0800A101A20120140800CC
:1021B0002000A3000E102308C03EA2002208210028
:1021C000D100E5289E316626903120008E1EEB2836
:1021D00021002B1DE2289C31262490319E31A5261A
:1021E00090319F31442720000E1421005108200017
:1021F000A20022082100D600080001302000A20021
:102200000030A30021082302031D08292008220210
:1022100003180800A401A5010030250202300319AB
:10222000240203181E290130A4070030A53D003008
:102230002502023003192402031C13290130A207CE
:102240000030A33D02292000A8012F3028020318E6
:1022500008002808003E840090300318013E8500E5
:102260000008A5002508A60028082F3E840090300D
:102270000318013E85000008A5002508A7002708CF
:10228000A5002508A200260890316C20913101306C
:102290002000A5002508A80725292000A900053051
:1022A000A4002408A600A701A801313029020318C0
:1022B000752929080F39A4002408A7002908A400BB
:1022C0000430A436890B612924080F39A50025089C
:1022D000A8000A30A4002408A00028089D31E425A5
:1022E00020002707A5002508A600260808002000D2
:1022F000A301A30AA601A401A5012508803AA20012
:1023000080302202031D86292308240203189F29F6
:1023100020002408013E9C31AC2491312000A60805
:10232000031D9A296F0A8600013087000030011BC7
:102330000130A6000130A4070030A53D7D29200012
:10234000260808002000A20022089C31AC2491310C
:1023500020006F080A3E86000130870081180800BF
:102360006F080B3E860001308700811C08006F0853
:102370000B3E86000130870001156F08023E860083
:102380000130870081146F080A3E86000130870003
:1023900081156F080A3E860001308700011508008C
:1023A0002000A10123001513303092009401151272
:1023B000951615152000A101203021020318F829D7
:1023C00021082300910020002108BE3E8600013034
:1023D00087000108230093009C316624913101306D
:1023E0002000A0002008A10720302102031CE029C2
:1023F000230095129C31662423001511080020004B
:10240000E700653023002902031C0C2A64302000F9
:10241000E60066082300A90029082000E6006608F7
:10242000E20009309D313725913120006708E60030
:102430006608E2000B309D313725913123002908D1
:102440002000E6006608E2006708143E9D3137254B
:1024500091312000670890318F2008002000A300F0
:1024600023089C31AC24923107302000A2006F0871
:10247000083E860001308700220881003830A20023
:102480006F08063E860001308700220881000C306C
:10249000A2006F08093E86000130870022088100F3
:1024A0006F08063E8600013087000108A2006F0811
:1024B000043E8600013087002208810008002000C9
:1024C000A500A601A608031D792A2508023A0319CA
:1024D000792A2100D718702A2000A101A201752AAB
:1024E00002302000A1000030A2002108A000200836
:1024F000A600A608031D902A2508033A0319902A6E
:102500002200A51A872A2000A301A4018C2A0330E7
:102510002000A3000030A4002308A0002008A6008B
:1025200026080800F20072089C319624923121009E
:102530004D08023E86000130870001190800200086
:102540000D1D080021004D08023E86000130870065
:1025500001154D0A86000130870001144D0A8600DE
:10256000013087008114C8014D0A860001308700C0
:10257000011D08004D088600013087000114720813
:10258000013A031D080020008D14080021003A13B1
:1025900023002C082000E6006608E2000C309D3184
:1025A0003725923123002D082000E6006608E2005E
:1025B0000D309D313725923123002E082000E60092
:1025C0006608E2000E309D313725923164302000DC
:1025D000A9000030AA00013097314E279231210026
:1025E000A01EF62A01309E313F26923101309E31E5
:1025F0002C2608002300621C08009C318C24923198
:10260000003A0030031901302000A600A60D230077
:10261000620820002606FD3926062300E200E21C9F
:102620002A2BE2150130E0070030E13D2230BE3EAA
:10263000860001308700403F193A031D212B413F9E
:10264000003A031D0800E001E1016210E21095313B
:1026500011250800E21D0800E211E001E101080077
:102660002000A40024089C31EF24933121004E085F
:10267000860001308700811C08004E0A8600013068
:1026800087000130810741310318810A4E0A860014
:1026900001308700403F2000A200413FA3000030EE
:1026A0002302323003192202031C080021004E0AC3
:1026B0008600013087000030C03FC13F2000240861
:1026C000633A031D080020308D0608002000A60193
:1026D000A701210820040319962BA501A50AA11B17
:1026E0007B2B0130A035A10D890B722B0130A4008A
:1026F0002408A5076F2B0130A635A70D890B7C2B6D
:1027000021082302031D862B20082202031C8D2B87
:102710002008A2022108A33B26140130A136A00CF8
:10272000890B8E2B0130A502031D7B2B2708A101ED
:10273000A1072608A001A00708002000A300230885
:102740009C31EF2493312000A208031DAC2B2308F9
:10275000633A031DAC2B8D162208013A031DB52BDD
:102760002308633A031DB52B8D1222080A3A031D74
:10277000CB2B21004E0886000130870081104E0AC5
:102780008600013087000030C03FC13F2000230891
:10279000633A03198D1622080B3A031D0800210025
:1027A0004E08860001308700811408002000AD002B
:1027B0002D089C31AC2493312000AE01AE08031DDE
:1027C00008006F080B3E86000130870081146F08F7
:1027D000023E8600013087008118012C6F08023EFE
:1027E00086000130870081146F080A3E86000130A0
:1027F000870081146F080A3E8600013087000114AB
:10280000072C6F08023E860001308700811064307B
:10281000A9000030AA00013097314E27080021009E
:102820002018292C01302000AD002D082100A1071F
:102830002108963A031D0800A1012014323020001F
:10284000A9000030AA00033097314E27210020163E
:10285000080001302000AD002D082100A10721084B
:10286000643A0319A1010130A4070030A53D0430EA
:10287000A03E86008701403F643A031D412C413F42
:10288000003A031D0800A401A501A01C492CA010BA
:102890000800A01408002000EB00EA016B089D313D
:1028A000A02594312000E8006808EA006A08013A8F
:1028B000031D642C01309E312C26943120006B08BE
:1028C0009131FF219431752C20006B08143E79075B
:1028D000E80068088600023087000108E9006908FE
:1028E000E20009309D313725943120006B081A3EF3
:1028F0007907E80068088600023087000108E900CF
:102900006908E20011309D31372594318E3110264F
:1029100008002000A5002100571D0800F03020000D
:10292000A4002408A00025089F319E279431200090
:1029300021082100E401E407200020082100E30130
:10294000E3070C30D73E8600870116000104031907
:10295000080064086002031DAF2C63085F020318BF
:10296000B82C6408E001E0076308DF01DF07080016
:1029700064086202031DBE2C63086102031808008C
:102980006408E201E2076308E101E10708002100B1
:10299000AE1C08000130AF070030B03D35083002F2
:1029A000031DD42C34082F02031C0800AF01B00112
:1029B000AE1220008D1DDE2C2100AE162100AE1AB5
:1029C0000A2DB108031D062DAE1DF42CAE113208E0
:1029D0002000A00020082100B1003708B501B5078C
:1029E0003608B401B40708002E1E042D2E12330839
:1029F0002000A00020082100B1003908B501B5076A
:102A00003808B401B4070800AE100800AE16200064
:102A10008D150800AE1220008D1101302100B10289
:102A200008002000A501A5012030250203182D2D46
:102A300025089E31D82695312000A4002508BE3EE9
:102A4000860001308700240881000130A40024089A
:102A5000A50720302502031C182D790886000230B6
:102A6000870002304C3FA00000309C31FB249531A0
:102A7000790886000230870002304D3F2000A00018
:102A800001309C31FB2495317908860002308700A3
:102A900002304E3F2000A00002309C31FB249531D3
:102AA0002300621D572D62112100A011A0128B136B
:102AB0009D31072595319131D0218B1708002000D9
:102AC000EA006A089C31AC24953120006F080B3E67
:102AD000860001308700811C08006F080B3E8600CD
:102AE0000130870081106F08023E860001308700A8
:102AF000811C942D6F080B3E860001308700011D5C
:102B000008006F080B3E86000130870001116F0836
:102B10000A3E86000130870081156F080A3E860054
:102B200001308700011108006F080A3E860001305D
:102B3000870081146F080A3E86000130870001106B
:102B40006A089D3180259531013A031D0800200057
:102B5000E601E7016A0896314F2608002000ED00E3
:102B6000EC0123003008803A031DE12D2000E6012E
:102B7000E60A230031082000EB006B08E7006D082F
:102B800096314F26953120006D089D31A025953155
:102B9000013A031DF02D64302000A9000030AA0086
:102BA000013097314E2795312000EC01EC0AE60107
:102BB000E60A6D089731A72795318E311026953199
:102BC000F02D20006D089D3180259531013A031DBF
:102BD000F02D2000E601E7016D0896314F26953172
:102BE0002000EC08031D08006D089331D6239531B1
:102BF00020006D0895315F2508002000ED006B086E
:102C0000013A031D2D2E6F0A860001308700011541
:102C10002100C61520006D089D3145259531200005
:102C2000A2016D0893319D23953138302000EC00CE
:102C30006F08043E8600013087006C088100383040
:102C40008931ED2195312000EC006C08E2006D081F
:102C5000143E9D3137259531432E2000EB08031D8E
:102C6000432E6F0A86000130870001112100C61132
:102C700000309D31452595312000A201A20A6D0842
:102C800093319D23953120006B08EC006C08E60021
:102C90006D089731A72795318E3110260800200046
:102CA000E90069089C31A124963120006608013AA8
:102CB000003003190130E8007508860001308700F4
:102CC000E80D01086806FD39680681006608013ACA
:102CD000031D8D2E670891314D2196312000E800AB
:102CE000750A860001308700680881000F3067058B
:102CF000E8006808053A0319812E67080F39031D9B
:102D0000872E263067020318872E6708892E053024
:102D10002000E8006808E2008F2E2000E201690828
:102D20001A3E9D3137257508023E86000130870026
:102D30000030C03FC13F7508043E86000130870067
:102D4000810108002000A601A11FAD2EA009A10944
:102D5000A00A0319A10AA601A60AA31FB82EA20958
:102D6000A309A20A0319A30A0130A4002408A60695
:102D7000A701A801210820040319E72EA501A50A2F
:102D8000A11BCC2E0130A035A10D890BC32E013023
:102D9000A4002408A507C02E0130A735A80D890B73
:102DA000CD2E21082302031DD72E20082202031C4A
:102DB000DE2E2008A2022108A33B27140130A136F1
:102DC000A00C890BDF2E0130A502031DCC2E260896
:102DD0000319EF2EA709A809A70A0319A80A2808AA
:102DE000A101A1072708A001A00708002000ED000D
:102DF0006B08013A031D0E2F6F0A86000130870011
:102E000001176F0A86000130870081166430A9001F
:102E10000030AA00013097314E2708002000EB084F
:102E2000031D08002100C61120006D089D314525B5
:102E3000963120006F0A86000130870001136F0A67
:102E400086000130870081126F08043E8600013041
:102E500087000108EC006F08063E860001308700FD
:102E60006C0881006F08043E86000130870001086D
:102E70008931ED2196312000EC006C08E2006D08EC
:102E8000143E9D31372596312000E601E60A6D0893
:102E90009731A72796318E31102608002000AC000C
:102EA0000A30A0000030A1002A08A301A3072908C6
:102EB000A201A2079631A226973120002108AA017B
:102EC000AA072008A901A90721002E1C0800AE1896
:102ED0007F2FAE14AF01B00120002C08AB002B08EF
:102EE0002100B10020002A082100B501B50720000B
:102EF00029082100B401B40720008D150800AE197F
:102F0000932FAE1520002C08AB002B082100B20037
:102F100020002A082100B701B70720002908210056
:102F2000B601B60708002E1A08002E1620002C083D
:102F3000AB002B082100B30020002A082100B901B2
:102F4000B907200029082100B801B80708002000AF
:102F5000EA00E901E90A6A08FF3E890AB12F031075
:102F6000E90DFF3E031DAF2F6A08E7006708E20086
:102F70000B309D313725973120006A08143E7907C0
:102F8000E70067088600023087000108E80068084B
:102F9000E20009309D313725973120006A081A3E3A
:102FA0007907E70067088600023087000108E8001B
:102FB0006808E20011309D313725973120006608FE
:102FC000013A031DF12F79080F3E86000230870079
:102FD00001086904E7006708E2000F309D313725DA
:102FE000080079080F3E860002308700200069093A
:102FF0000105E7006708E2000F309D313725080022
:1037E80021002E1408009F31282708009C31CD2481
:1037F80008008D31032508008831002008008F312A
:103808005027080001309231922208003A309E3148
:10381800BE2608003B309E31BE26080036309E3159
:10382800BE26080001309C312B2408000130883165
:103838007220080063309D31F6250800633093310B
:103848003023080021002B11AC01AD010800200035
:10385800A20022089C31A1240800FE0012001E00CC
:10386800FE0B322C0034F33021009E00C1302200C0
:103878009700080001308131ED219C319E3190265E
:10388800080000302200A51B01302000A0002008FD
:10389800080000302100461901302000A00020084F
:1038A800080000302100C61901302000A0002008BF
:1038B8000800200040083F043E0403190800803037
:1038C800C0060800553023009600AA3096009514CB
:1038D8000000000008009E3190269C3124008D10C5
:1038E80001309D3190250800F1007108013A031D4F
:1038F80008005330F0007008F6000800533020002C
:10390800A40024082100CC00013092312E220800A6
:103918002000A00100302200D51801302000A000AE
:1039280020080800F1007108013A031D080053300F
:10393800F00070082100CD0008002000A100210837
:10394800013A031D08006430A0002008F5000800B3
:103958002000A1002108013A031D08005330A000EF
:103968002008EF0008002000A00122005D1FBF2CE6
:103978002000A001A00A200020080800173021001C
:10398800970049140A302000A00020082100CA002E
:10399800080015302000A00020082100D3000530C1
:1039A800C1000030C20008002000A1002108013A2F
:1039B800031D0800E330A0002008F700080033309A
:1039C8009E31BE269C31E8302000A0000330A100C3
:1039D8009031FD2008002000A1002108633A031D52
:1039E80008006930A00020082100CE00080020004F
:1039F800A2002008A1002208BE3E860001308700F0
:103A0800210881000800230015133030920091012D
:103A1800151615159C316624230015110800200081
:103A2800A001A10100302200541901302000A1009A
:103A38002108A000080024000D110430270094007C
:103A4800950196018B150B100B178B170800413049
:103A580020009800FA3097003830960021001114A1
:103A68000B178B1708002000E5006208E3006508C3
:103A78007907E40064088600023087006308810043
:103A880008002000A0002100461522005D13200038
:103A98002008013A031D080022005D1708008B1D4D
:103AA80008000B1C08002700161D080016110B1033
:103AB8002100201C08009C31062408002100BA18A7
:103AC800672DBA1D0800BA11BA1036309E31BE26CD
:103AD8009D313A309E31BE26080020302000A000DB
:103AE8002008F900D130A0007908143E8600023081
:103AF80087002008810008002000A20022089C31CD
:103B0800A124750886000130870000308118013033
:103B18002000A300230808002000A400A201A20A94
:103B2800240893319D239D312000A201A20A240874
:103B3800013E93319D2308002000A20022089C31F9
:103B4800AC2420006F08023E860001308700003058
:103B580081180130A3002308080021002E0C013928
:103B68002000A200A3012208A4002308A50025081C
:103B7800A101A1072408A001A00708002000A101B5
:103B8800A201A20A0C1F0C1ACD2D0C1C8C1BCD2DCA
:103B9800A2012208A0002008A10021080800200096
:103BA800A101A201A20A0C1F0C1ADE2D0C1C8C1BF1
:103BB800DE2DA2012208A0002008A100210808008B
:103BC8002000A300A201231CED2D2008A10021083C
:103BD800A2070310A00D0310A30CA308031DE72DD3
:103BE800220808002000A40024089C31EF249D31FD
:103BF80021004E0886000130870001142000A20130
:103C0800240893319D2308008731FC279E319E317B
:103C1800F2269E319D312B259E319C3137249E31D1
:103C28009D311F259E319C31C22408002100491C6A
:103C380008000130CA024A08FF3A03190800643034
:103C48002000A00020082100CA00803102200800BE
:103C58002000A1002108013A003003190130A0001A
:103C68002300620820002006FE3920062300E20017
:103C7800E001E10108002000A1002108013A00301C
:103C880003190130A000A00DA00D23006208200038
:103C98002006FB3920062300E20008002000A100CE
:103CA8002108013A003003190130A000A00EA00D30
:103CB800A00D21003A0820002006BF392006210067
:103CC800BA00080001302100AC070030AD3D0C30CF
:103CD800A03E86008701403FA83A031D752E413F4C
:103CE800613A031D0800AC01AD012B1508008731AE
:103CF800B8279E31913123219E319F317F279E31F4
:103D08009C310E249E319C310A249E319C31E3243F
:103D18009E319C31122408002100201C080020003C
:103D28000D1808009C2E20000D149E3166269E3129
:103D380020000D18A22E21002B1D972E9C31262421
:103D480008002000A1010830210203180800210002
:103D5800D11FB12E20000E16B32E20000E128E1584
:103D680003102100D10D20008E110130A000200881
:103D7800A107A72E2000A3000E102308A2002208E6
:103D88002100D100CA2E9E3166269E3120008E1E4B
:103D9800D02E21002B1DC72E9C3126249E319E310A
:103DA800A52620000E1408002000A200A101A301EE
:103DB80030302300920020002208230091001513C0
:103DC800151414082000A0002008A10023001308DF
:103DD8002000A0002008A30023080800F7302100D5
:103DE8008C0004308D0026308E0022008C018D015D
:103DF8008E010E3023008C008D018E01F7302000DB
:103E08008C0004308D0026308E0024008D010800BF
:103E18002100461D242F9C3145249F31013A031966
:103E2800222F003092315F229F310038031D222F4C
:103E38009C318C249F310038031D242F210046110A
:103E480001308B31232308002000A1010530210215
:103E5800031808002135303E860001308700003005
:103E6800C03FC13F21353A3E860001308700FF3010
:103E7800C03FFF30C13F0130A0002008A1072A2F12
:103E88002000A10108302102031808008E15031034
:103E98002100D10D20008E1E542F210051145A2FBD
:103EA800FE302000A00020082100D10520008E113E
:103EB8000130A0002008A107462F2000A401A50179
:103EC800201C6A2F2208A4072308A53D0130A2352B
:103ED800A30D890B6B2F0130A136A00C890B702F15
:103EE80021082004031D642F2508A101A107240827
:103EF800A001A00708002000A70108302702031826
:103F0800080027085E3E840090300318013E8500B3
:103F18000008A5002508A6002608A5002508A20077
:103F28003E3090316C209F3101302000A5002508DB
:103F3800A707812F2000A300230821009D0020004F
:103F4800200821009E009D14AC2F9E3166269F31CB
:103F580021009D1CB12F2B1DA92F9C312624210047
:103F68001C082000A101A10721001B082000A001B6
:103F7800A0070800633402340034003400340034ED
:103F8800003400340034003400340034FF34FF348B
:103F9800FF3400340034003400340034003400347A
:103FA8000034003400340034003400340034003469
:103FB800003400342000AD01A91FE92FA809A90980
:103FC800A80A0319A90AAD01AD0A2808A000290802
:103FD800A100A2018E30AB002B08A3002D08AC0075
:103FE8002C08A40089318C2120002008A800210871
:083FF800A9002208AA0008003C
:020000040001F9
:04000E00FCF9FDFFFD
:00000001FF
