:100000008A11112864000800FE00030EF0000408A5
:10001000F1000A08F200831203137F08F3008A1527
:10002000EB2C8A111328F601F701F801F90183136B
:100030002030840055308A1563248A11A030840052
:10004000EF308A15632483018A11952E00308A15BA
:10005000AA278A1183120313DD005D08E4008316CA
:100060000313201C052A83120313E408031D5228DE
:1000700083160313201A84282016A0178312031353
:10008000D50101308A1156278A1183160313A0194E
:10009000842883120313D501D50A02308A1156270A
:1000A0008A11842883160313201E842883120313C5
:1000B00064088A1529268A11831603132012A013B7
:1000C0002013A501CA010F3083120313DD005D0860
:1000D00083160313CC00CB0183120313D501D50A79
:1000E00001308A1156278A1183120313D501023079
:1000F0008A1156278A1183160313A01D8128C10176
:10010000C201C601C401C50183160313A0189728B4
:10011000013083120313DD005D0883160313A50766
:1001200025080A3A031DB929A501A014B929201DE3
:10013000B9292011A01BA01DB92901308312031376
:10014000DD005D0883160313A50725083C3A031D4F
:10015000DD28A5015A304B02031CB928CA014C08FE
:100160000F3A0319CE284C08193A031DDC28233016
:10017000D5280B304B020318DC28013083120313FF
:10018000DD005D0883160313CA074A08023A031DFF
:10019000DC28CA014C08233A031DD0281930D52881
:1001A0004C08193A031DDC280F3083120313DD00BD
:1001B0005D0883160313CC00CB014C084E07831255
:1001C0000313DD00DE01DE0DDD09DE09DD0A0319A2
:1001D000DE0A831603132608831203135D07DF006C
:1001E0005E0803185E0AE0006008803A803C031D48
:1001F000FD285F08831603132102031C2B29831695
:1002000003134C084E0783120313DD00DE01DE0DDD
:10021000831603132608831203135D07DF000030E3
:10022000031801305E07E0006008803AE10080308A
:100230006102031D2129831603132108831203136E
:100240005F02031C2B2983160313C101C201831211
:100250000313D501A229013083120313DD005D08C9
:1002600083160313CB070130C1070318C20A0030FD
:10027000C207201B3F290230831203134129043097
:100280008312E2000030E3006208DD005D0883169F
:100290000313C300430883120313DD00DE0183163A
:1002A00003134208831203135E06031D5D298316A0
:1002B00003134108831203135D06031D7629831679
:1002C0000313C101C201C601C401C50120170130D9
:1002D0008A15FB248A110038031D76298312031323
:1002E000D501D50A01308A15BA258A118316031360
:1002F0004C084E0783120313DD00DE01DE0DDD091D
:10030000DE09DD0A0319DE0A8316031326088312A9
:1003100003135D07DF005E0803185E0AE000600853
:10032000803AE10080306102031D9C29831603138B
:100330002108831203135F02031CAA2983120313EB
:10034000D501D50A01308A1156278A118312031369
:10035000D501B52983120313D50101308A1156271F
:100360008A1183120313D501D50A02308A11562748
:100370008A1183160313A019D5290130C107031868
:10038000C20A0030C2070B304206031DC929B8302B
:100390004106031DD529C101C201A0158312031313
:1003A000D50102308A1156278A1183160313201FA4
:1003B0000800013083120313DD005D088316031368
:1003C000C6074608643A031D0800C6010130C40789
:1003D0000318C50A0030C50748084506031DF22961
:1003E00047084406031D0800C401C501201301305D
:1003F0008A15FB248A11013A031D08008312031396
:10040000D50101308A15BA25080083120313201C78
:100410000800831603132014080083120313E2015B
:10042000DF01E001831603134F1C702BCF108312E2
:100430000313E1018A1533248A11013A031D2B2A83
:1004400000308A15AA278A110038031D2B2A83122F
:100450000313E101E10A83120313610883160313F6
:10046000CF10031DCF14CF1F3F2A8A1539248A11BC
:10047000013A031D3F2A83160313CF13EB018316A2
:100480000313CF1C3F2B4F154F1E3D2B0130D007C0
:100490000318D10A0030D10700305102053003198A
:1004A0005002031C0800D001D1014F128A150C25FF
:1004B0008A1183120313DD005D0883160313ED0018
:1004C00083120313E201043062020318982A6208BF
:1004D000D93E840083130008DD00DE015D08831629
:1004E0000313D4070318D50A831203135E08831677
:1004F0000313D507831203136208DE3E840000084D
:10050000DD00DE015D0883160313D6070318D70A42
:10051000831203135E0883160313D7070130831277
:100520000313DD005D08E20704306202031C672A42
:100530008A15A4258A110230831603130310D50CE3
:10054000D40CFF3E031D9E2A02300310D70CD60C9C
:10055000FF3E031DA52A55085702031DB12A540862
:100560005602031808005603FF3A54078312031378
:10057000DD005D0883160313E300D401D501D60125
:10058000D70102306B020318E62A013083120313ED
:10059000DD005D0883160313EB076B08013A031DAA
:1005A000D32A5030DC2A6B08023A031DE62A6D0874
:1005B000013A031DDF2A0F30E7000030E52A580812
:1005C000073EE700003003180130E800630883129B
:1005D0000313DD00DE01831603136808831203137F
:1005E0005E02031DF92A831603136708831203139F
:1005F0005D02031C112B0130DD005D08831603131F
:10060000EC0703306C02031C0800EC01CF160B3022
:1006100083120313DD005D08D50001308A115627CF
:10062000080083160313EC01CF1B0800013083126E
:100630000313DD005D0883160313EE0703306E021B
:10064000031C0800EE01CF17630883120313DD00BB
:100650005D0883160313D8006D08013A031D352B7E
:100660000F30E7000030E80008005808073EE700B8
:10067000003003180130E80008004F160800CF17BB
:100680004F1D522B4F11D001D1014F128A15A425B5
:100690008A1183160313EB01EC01EE01D401D5019D
:1006A000D601D701CF1E08000130D2070318D30AA4
:1006B0000030D30703305302E83003195202031C01
:1006C0000800D201D3010A3083120313DD005D0854
:1006D000D50001308A11562783160313CF12080064
:1006E00083120313201C0800831603134F14080001
:1006F00083120313E200E301E10183160313A01C3C
:1007000008002015703083120313DE005E08F40029
:1007100062088A150D268A1183120313DF005F0811
:1007200083160313A200333083120313D500003065
:10073000D60083160313220883120313DE00DF01A1
:100740005E08D7005F08D8008A11F9268A11831243
:1007500003135508E000600883160313A300220862
:1007600083120313DE005E0883160313A4007030A7
:1007700083120313DE005E08F4005D088A150D265F
:100780008A1183120313DF005F0883160313A2008C
:10079000220883120313DE005E0883160313A100F0
:1007A000EC2B0A3024020318D72B0530D82B3C3011
:1007B000C7000030EA2B2C30C7000130EA2B58303C
:1007C000C7000230EA2B8430C7000330EA2BB03078
:1007D000C7000430C800FD2B2308003A0319D12BB1
:1007E000013A0319DB2B033A0319DF2B013A0319F2
:1007F000E32B073A0319E72BFD2B21088312031380
:10080000DE00831603132708A83E84008312031317
:100810005E0883138000E3010A30630203182C2C66
:100820006308A83E84000008DE00DF015E0883162E
:100830000313B2070318B30A831203135F08831666
:100840000313B307013083120313DE005E08E307CE
:100850000A306302031C102C0A30D5000030D60089
:1008600083160313330883120313D801D8078316A2
:100870000313320883120313D701D7078A11B22753
:100880008A11831203135508DE00831603133408FC
:10089000B53E8400831203135E0883138000831621
:1008A0000313B201B30183120313E3010A3063029D
:1008B0000318762C6308B53E84000008DE00DF01D3
:1008C0005E0883160313BF070318C00A83120313BD
:1008D0005F0883160313C007013083120313DE0081
:1008E0005E08E3070A306302031C5A2C0A30D50065
:1008F0000030D60083160313400883120313D80177
:10090000D807831603133F0883120313D701D707B1
:100910008A11B2278A11831203135508DE005E087C
:1009200083160313A600BF01C0010A302702031873
:10093000A22C013083120313DE005E08831603131A
:10094000A7070800A7010A3034020318B02C0130B1
:1009500083120313DE005E0883160313B407080036
:10096000B401080083120313361C442D3619C92C18
:100970000130B7070318B80A0030B8070130380251
:10098000F43003193702031C0800B701B80136150B
:10099000080002308A15AA278A110038031D0800B2
:1009A000013083120313B7070318B80A0030B807E1
:1009B00000303802053003193702031C0800B70164
:1009C000B80136110230D5000030D6003D083E0790
:1009D000D700D801D80D8A11F9268A118312031382
:1009E0005508DD005D08BC008A1553258A11013ABF
:1009F000031D022DAA3083120313DD005D08C00021
:100A00008C30092D643083120313DD005D08C000B3
:100A10004630DD005D08C100B61C252D40083C02B3
:100A2000031C3C2D0130DD005D08B907033039029D
:100A3000031C3F2DB901B6100A30DD005D08D5005A
:100A400001308A1156278A113F2D3C084102031CB0
:100A50003C2D0130DD005D08B90703303902031C6D
:100A60003F2DB901B6140B30DD005D08D500013013
:100A70008A1156278A113F2D83120313B90183125D
:100A80000313BD01BE010800201C08003614080035
:100A900083120313D700DA01D901D8018316031397
:100AA0004F1E0800733083120313D5005508F4005D
:100AB00057088A150D268A1183120313D60056088B
:100AC00083160313E40083120313DA0104305A027D
:100AD00003188F2D5A08D93E840083160313640827
:100AE000831300020318862D83120313D908031DF4
:100AF000862D83160313640883120313D5005A0846
:100B0000D93E840055088000D901D90A01308312EA
:100B1000D5005508DA0704305A02031C6A2DD9089B
:100B2000031D0800DA0104305A02031808005A08AD
:100B3000DE3E840083130008831603136402031847
:100B4000B32D83120313D808031DB32D831603138B
:100B5000640883120313D5005A08DE3E840055084A
:100B60008000D801D80A01308312D5005508DA0771
:100B7000932D83120313E20062088A1599248A11C7
:100B800000308A15AA278A11003A00300319013073
:100B900083120313DE00DE0DDE0D79085E06FB39DD
:100BA0005E06F9005D08013A0319DE2D790C013962
:100BB000DE00DF015E08E0005F08E12D0130E000AB
:100BC0000030E1006008F910031DF91435088400B5
:100BD000831380145D08013A031D082E3508840034
:100BE0000019202E3508840000150A30DE00350873
:100BF000063E84005E0880000D30DE003508043EAD
:100C000084005E08800062088A15BF248A11202EA5
:100C100083120313350884008313001D202E35082A
:100C2000840000110430DE003508063E84005E08B2
:100C300080000730DE003508043E84005E08800036
:100C4000831203136208013A031D08000615080009
:100C500083120313D90059088A1599248A11831223
:100C60000313350884008313801C08000130D5006D
:100C70003508023E8400550880073508063E84008A
:100C80000008D5003508023E84000008D60055084B
:100C90005602031C622E35088400801B622E350824
:100CA000840080175908013A031D080035088400A4
:100CB000001D5E2E83120313051608008312031312
:100CC000051208003508043E840083130008D5008F
:100CD0003508023E84000008D60055085602031C61
:100CE00008003508023E8400800135088400801029
:100CF00035088400801335088400001D872E79088C
:100D00000139D500D6015508D70056088A2E013082
:100D1000D7000030D80057087910031D79145908FE
:100D2000013A031D0800061108008A150B248A11D8
:100D30008A15CD248A118A1581248A118A150C24DA
:100D40008A118A1512248A118A152D248A118A156E
:100D50001C248A118A1518248A118A1576248A116E
:100D6000000083120313201CD42E8A15B1248A118B
:100D700001308A1148258A1111308A1548268A11B6
:100D8000313083120313ED006D08D50009308A1548
:100D90006E268A110D3083120313ED006D08DD00FD
:100DA00005308A1178238A1183120313321CB12E65
:100DB00032108A157B258A118A15DC248A11831248
:100DC0000313201CB12E8A158D248A118A150F2435
:100DD0008A118A1515248A118A110D228A118A1501
:100DE0006B248A118A1598268A118A1126208A1165
:100DF000B12E83120313DA01D61F052FD509D609A8
:100E0000D50A0319D60ADA01DA0AD81F102FD70932
:100E1000D809D70A0319D80A0130F4007408DA0691
:100E2000DB01DC01560855040319472FD901D90A03
:100E3000D61B262F01300310D50DD60DFF3E031D06
:100E40001B2F0130F4007408D907182F013003104C
:100E5000DB0DDC0DFF3E031D272F56085802031D36
:100E6000332F55085702031C3C2F5508D70256084C
:100E7000031CD803D8025B1401300310D60CD50C28
:100E8000FF3E031D3D2F0130D902031D262F5A08B6
:100E900003194F2FDB09DC09DB0A0319DC0A5C08A4
:100EA000D601D6075B08D501D507080083120313C6
:100EB000D60056088A15F1258A1183120313D50826
:100EC000031D742F5608013A031D682F06160800EB
:100ED0005608023A031D6E2F861608005608633A1C
:100EE000031D0800861508005508013A031D8A2FC6
:100EF0005608013A031D7E2F061208005608023AD2
:100F0000031D842F861208005608633A031D08004B
:100F10008611080055080A3A031DA92F7808840095
:100F200083138010780A84008001840A80015608A7
:100F3000013A031D9D2F061608005608023A031DAC
:100F4000A32F861608005608633A031D080086156D
:100F5000080055080B3A031D080078088400831325
:100F60008014080083120313DA01DB0156085504CC
:100F70000319EB2FD901D90AD61BCA2F0130031050
:100F8000D50DD60DFF3E031DBF2F0130F4007408B0
:100F9000D907BC2F01300310DA0DDB0DFF3E031D16
:100FA000CB2F56085802031DD72F55085702031C94
:100FB000E02F5508D7025608031CD803D8025A144C
:100FC00001300310D60CD50CFF3E031DE12F01307C
:100FD000D902031DCA2F5B08D601D6075A08D501CE
:100FE000D50708004130831203139000FA308F00B8
:100FF00038308E00831603130C140B178B17080060
:1018160008008A15202408008A15092708008A1559
:10182600242408008A11B2240800831203132D14FD
:10183600080001308A154524080083120313281472
:10184600080083120313361608003C308316031370
:101856009000080083160313CF178A15A4250800E5
:101866000030F9180130F4007408080000307919C6
:101876000130F40074080800831203132511A60131
:10188600A701080083120313D50055088A15992469
:1018960008007330831603139F00C1309D000800B3
:1018A600003083160313CF1B0130F40074080800C0
:1018B6000030831203132D1A0130F4007408080057
:1018C60064008001840A0406031900340406642CAB
:1018D60001308A1559278A1501308A1128268A155A
:1018E6008A15402508000F30F40074088316031388
:1018F600CC000530C7000030C800080001308A154A
:101906002E258A1502308A152E258A1563308A15EA
:101916002E25080001308A15CC268A1502308A1534
:10192600CC268A1563308A15CC260800F500750882
:10193600013A031D08004230F400740883120313B1
:10194600B5000800831603138115011481140115CF
:1019560076140A30F4007408F700080083120313A3
:10196600A819BB2C851E0800A815A901AA01080004
:10197600851A0800A811080083120313D500431026
:1019860055088A15992483120313350A8400831394
:10199600001408008A1528248A158A158F258A15A9
:1019A6008A11F2278A158A154C248A158A15A524C8
:1019B6000800761C08000130F7027708FF3A031981
:1019C60008006430F4007408F7008A110220080049
:1019D6008A15D5258A15730883120313FF0072082A
:1019E6008A0071088400700E8300FE0E7E0E0900C8
:1019F60083120313D50055088A15992483120313FD
:101A0600350884000030831300190130D6005608CB
:101A1600080083120313D801D601D701D50100307F
:101A260042190130D80056085807F40057087407C1
:101A3600D500080083120313D50101308A159924B5
:101A460083120313350A8400003083130018013013
:101A5600D5005508080083120313D70057088A15C6
:101A6600F1258A1578088400831300148312031362
:101A7600D50157088A1156270800791C08007910E5
:101A86008A15532500380030031D013083120313D5
:101A9600D900D90D79085906FD395906F90008000B
:101AA60083120313D801D808031D652D01308A154A
:101AB600FB24013A00300319013083120313D700C7
:101AC6005708D80058080800013083120313A607E8
:101AD6000318A70A0030A70727302706031D752D10
:101AE60010302606031D0800A601A70125150800CB
:101AF60083120313201808000130A2070318A30A53
:101B06000030A307963022062304031D0800A20115
:101B1600A3012014201608002F3083160313850016
:101B260001308600870107308316031785000130D0
:101B36008600AF30831203138500013086008701CB
:101B46000800F50105307502031808007508D93E2E
:101B5600840083138001FF30F4007508DE3E8400A4
:101B6600740880000130F4007408F507A52D83126F
:101B76000313D70057088A159924831203133508CF
:101B86008400831380155508013A0030031901308B
:101B9600D60035088400D60E00085606EF395606DC
:101BA60080000800831603130C1C0800831203131D
:101BB6000C1C0800FA308F0038308E000C100130F3
:101BC600B3070318B40A0030B4076430330634048C
:101BD600031D0800B301B40132140800F5007508AE
:101BE600013A031DFB2D4D30F4007408F80008007F
:101BF6007508023A031D042E5130F4007408F800EB
:101C060008007508633A031D08004930F40074089B
:101C1600F8000800F5007508831203139F00740886
:101C2600831603139F00831203139F141D2E8A1518
:101C360067258A15831203139F1C232E251D1A2E32
:101C46008A153F24831203131E0808008312031308
:101C5600D900DA015908033A031D372E8A151D25C6
:101C66008A1583120313382EFF30D8005808DA007D
:101C76005A08013A0319432E5A08FF3A031D080071
:101C8600D50101308A15BA25080083120313D7003F
:101C9600851E0800361D08007030D5005508F40072
:101CA60057088A150D268A1583120313D60056087F
:101CB600BF003F083D020318652E3F08D5005508B2
:101CC600BD0008003F083E02031808003F08D50083
:101CD6005508BE00080083120313DA00D801D901A3
:101CE600AD1D0800AD147030D6005608F4005A0831
:101CF6008A150D268A1583120313D7005708B100DB
:101D06003108D6005608AF007030D6005608F400E9
:101D160055088A150D2683120313D7005708B100FC
:101D26003108D6005608B0000800831203132D1C94
:101D36000800AD18AB2EAD1908000130D5005508C6
:101D4600AE070A302E02031C0800AE01AD150800CE
:101D5600AD1C0800AD102D1AB62E2F083002031C3C
:101D660008002D1608002F089C3ED500FF300318EA
:101D76000030D6005608803AD70080305702031D3F
:101D8600C62E30085502031C0800831203132D12B9
:101D9600080083120313D70057088A15F1258A1500
:101DA600780884008313801C0800780A84000130B8
:101DB6008007840A0318800A780A840000088312C0
:101DC6000313D500840A0008D600003056023230CC
:101DD60003195502031C0800780A84008001840A4E
:101DE60080015708013A031DFB2E103086060800B5
:101DF6005708023A031D022F2030860608005708AE
:101E0600633A031D08000830860608008312031390
:101E1600281C0800A818272F0130A9070318AA0AAA
:101E26000030AA0700302A02103003192902031CC9
:101E36000800A901AA01A8140B30DD005D08D50031
:101E460001308A115627080001308A15AA278A15FB
:101E56000038031D0800013083120313A907031875
:101E6600AA0A0030AA07323029062A04031D402F89
:101E7600A901AA01AB01AC0108000130AB070318A8
:101E8600AC0A0030AC0703302C06031D4C2FE8309B
:101E96002B06031D0800AB01AC01A8100A30DD00BB
:101EA6005D08D50001308A115627080083120313F6
:101EB600E80068088A1599248A15831203133508E1
:101EC600840083138018080035088400801D0800EC
:101ED60000308A15AA278A150038031D902F791D10
:101EE600912F8A1553248A15013A0319872F790CE5
:101EF60083120313E300630C0139E400E50164086F
:101F0600E6006508E7008B2F83120313E601E7015D
:101F160066087911031D7915912F79117919080031
:101F26008312031335088400831380113508840057
:101F3600001EA32FDD01DD0A68088A11B9250800F5
:101F460083120313DD0168088A11B925080083127C
:101F56000313DB00DC015B08013A0319B92FDC0827
:101F6600031DB92F0030A8180130DC005B08023AC7
:101F76000319CD2FDC08031DCD2FB618C52FD501AB
:101F8600D601C92F0230D5000030D6005508F5001D
:101F96007508DC005B08033A0319E62FDC08031D0D
:101FA600E62F83160313CF1ADD2F83120313D701EF
:101FB600D801E22F03308312D7000030D80057082B
:101FC600F5007508DC00DC08031DFE2F8A155B246E
:101FD6008A15003A0319F42F83120313D901DA0183
:101FE600FA2F053083120313D9000030DA0059089E
:0A1FF600F5007508DC005C08080027
:04400E00FCFCFFFFB8
:00000001FF
