:100000008A11112864000800FE00030EF0000408A5
:10001000F1000A08F200831203137F08F3008A1527
:10002000072F8A111328F701F801F90183132030F3
:10003000840060308A1596268A11A0308400DF3053
:100040008A15962683018A11542D83160313281CC2
:1000500008008A1586268A11013A031D44288A154C
:1000600062278A110038031D442883160313281AB7
:100070006A282816A817A8196A28F601F60A023075
:100080008A11F4248A116A2883160313281E6A2809
:100090002812A8132813AD01D201073083120313CD
:1000A000E100610883160313D400D301F601013087
:1000B0008A11F4248A11F60102308A11F4248A117B
:1000C000831603132813A81D6728C901CA01CE018E
:1000D000CC01CD0183160313A8188E28013083129A
:1000E0000313E100610883160313AD072D080A3AD4
:1000F000031D84298A15BF268A11013A031D85280C
:1001000083160313AD01A81484290A308312031344
:10011000E100610883160313AD008429281D84299A
:100120002811A81BA81D8429013083120313E100A4
:10013000610883160313AD072D083C3A031DD4282C
:10014000AD015A305302031CB028D2015408073ABB
:100150000319C5285408193A031DD3282330CC2885
:100160000B3053020318D328013083120313E1002C
:10017000610883160313D2075208023A031DD328DD
:10018000D2015408233A031DC7281930CC2854083B
:10019000193A031DD328073083120313E1006108C5
:1001A00083160313D400D301540856078312031394
:1001B000E100E201E20DE109E209E10A0319E20AC4
:1001C000831603132E08831203136107E3006208EA
:1001D0000318620AE4006408803A803C031DF42896
:1001E0006308831603132902031C202983160313B3
:1001F0005408560783120313E100E201E20D83164F
:1002000003132E08831203136107E3000030031861
:1002100001306207E4006408803AE500803065023E
:10022000031D18298316031329088312031363027D
:10023000031C202983160313C901CA01F60173297F
:10024000013083120313E100610883160313D307FF
:100250000130C9070318CA0A0030CA074B088312C5
:100260000313E100E201831603134A088312031308
:100270006206031D412983160313490883120313E1
:100280006106031D842983160313C901CA01CE0127
:10029000CC01CD0128175408560783120313E1003F
:1002A000E201E20DE109E209E10A0319E20A83161B
:1002B00003132E08831203136107E3006208031877
:1002C000620AE4006408803AE50080306502031D9C
:1002D0006F29831603132908831203136302031C77
:1002E0007929F601F60A01308A11F4248A11F601FF
:1002F0008029F60101308A11F4248A11F601F60AE8
:1003000002308A11F4248A1183160313A8199E2936
:100310000130C9070318CA0A0030CA070B304A0661
:10032000031D9429B8304906031D9E29C901CA013D
:10033000A815F60102308A11F4248A1183160313DA
:10034000281F0800013083120313E100610883169F
:100350000313CE074E08643A031D0800CE01013096
:10036000CC070318CD0A0030CD0750084D06031DF9
:10037000BB294F084C06031D0800CC01CD012813F2
:10038000080083120313EC00ED01EB018316031345
:10039000A81C08002815703083120313E8006808B1
:1003A000F4006C088A11D5278A1183120313E9001F
:1003B000690883160313AA00333083120313E00085
:1003C0000030E100831603132A0883120313E800A8
:1003D000E9016808E2006908E3008A11B2258A1180
:1003E000831203136008EA006A0883160313AB0044
:1003F0002A0883120313E800680883160313AC006D
:10040000703083120313E8006808F40076088A113C
:10041000D5278A1183120313E90069088316031391
:10042000AA002A0883120313E8006808831603133E
:10043000A900352A0A302C020318202A0530212A67
:100440003C30CF000030332A2C30CF000130332A2B
:100450005830CF000230332A8430CF000330332AA3
:10046000B030CF000430D000462A2B08003A0319E0
:100470001A2A013A0319242A033A0319282A013AAD
:1004800003192C2A073A0319302A462A290883120D
:100490000313E800831603132F08B03E8400831271
:1004A0000313680883138000ED010A306D020318FE
:1004B000752A6D08B03E84000008E800E90168086C
:1004C00083160313BA070318BB0A831203136908C0
:1004D00083160313BB07013083120313E800680877
:1004E000ED070A306D02031C592A0A30E000003083
:1004F000E100831603133B0883120313E301E307B0
:10050000831603133A0883120313E201E2078A11E8
:10051000A2268A11831203136008E80083160313CE
:100520003C08BD3E840083120313680883138000D7
:1005300083160313BA01BB0183120313ED010A30C2
:100540006D020318BF2A6D08BD3E84000008E80054
:10055000E901680883160313C7070318C80A831242
:100560000313690883160313C807013083120313AA
:10057000E8006808ED070A306D02031CA32A0A3060
:10058000E0000030E10083160313480883120313D0
:10059000E301E30783160313470883120313E20101
:1005A000E2078A11A2268A11831203136008E80069
:1005B000680883160313AE00C701C8010A302F0272
:1005C0000318EB2A013083120313E800680883162E
:1005D0000313AF070800AF010A303C020318F92AE1
:1005E000013083120313E800680883160313BC0765
:1005F0000800BC01080083120313E601AD1E132B93
:100600000130B0070318B10A0030B10703303102DE
:10061000E83003193002031C0800B001B1010030BA
:100620008A11B52708002D1EE22B0130AE070318F2
:10063000AF0A0030AF0700302F02053003192E0239
:10064000031C0800AE01AF012D124E084D07E40057
:100650004F086407E5006508CA00E601E60A0430B1
:10066000660203184A2B6608343E84008313000890
:10067000E4006408BF076608393E84000008E4000F
:100680006408C0070130E4006408E607043066022D
:10069000031C332B0330E4006408F4003F088A1184
:1006A00092278A1183120313E5006508BF00033007
:1006B000E4006408F40040088A1192278A1183122A
:1006C0000313E5006508C0003F0840020318DF2B54
:1006D0004003FF3A3F07E4006408BE0002304802CE
:1006E0000318902B0130E4006408C8074808013A59
:1006F000031D7D2BF430C4008E2B4808023A031DE5
:10070000902B4A08013A031D892B4230C400003067
:100710008F2B33083A3EC400003003180130C50067
:100720003E08E400E50145086502031D992B4408D5
:100730006402031CA92B0130E4006408C9070330DC
:100740004902031CDF2BC90101308A11B5278A1128
:10075000DF2B0830831203138606C9010A304C02CE
:100760000318B62B0130E4006408CC070A304C02B1
:10077000031CDF2BAD152D1FC22B2D133E08E400EB
:100780006408B300AD1FDF2BAD133E08E40064081E
:10079000B3004A08E400E5016408E0006508E100F0
:1007A0004230E2000030E3008A116D278A11831283
:1007B00003136108C501C5076008C401C4078A1591
:1007C00077270800AD1CF22B2D19E82B2D15AD1144
:1007D0008A157E268A11013A031D0800831203132D
:1007E0002D1608002D1D08002D11AD15C901C801D9
:1007F000B3012D13AD13BE018A15772708008312AC
:100800000313501C08005019262C0130D10703187F
:10081000D20A0030D20701305202F43003195102DB
:10082000031C08008A15BF268A11013A031D1F2CDC
:1008300083120313D101D201501550120800F43075
:1008400083120313D1000130D20008000130D10718
:100850000318D20A0030D2070030520205300319C3
:100860005102031C0800D101D20150110230E000F6
:100870000030E10057085807E200E301E30D8A1158
:10088000B2258A11831203136008E8006808D600B5
:100890008A1566268A11013A031D562CBE30831232
:1008A0000313E8006808DA00AA305D2C7830831260
:1008B0000313E8006808DA006430E8006808DB0029
:1008C000D01C742C5A085602031C862C0130E800F8
:1008D0006808D30703305302031C892CD30100306E
:1008E0008A15A9278A11892C56085B02031C862CBD
:1008F0000130E8006808D30703305302031C892C39
:10090000D30101308A15A9278A11892C8312031378
:10091000D30183120313D01C5016D701D80108004D
:1009200083120313201C0800A018BF2C0130A1075C
:100930000318A20A0030A207003022021030031967
:100940002102031C0800A101A201A014F60101303C
:100950008A11F4248A110B3083120313E100610819
:10096000F60002308A11F4248A110B30831203132B
:10097000E1006108F60063308A11F42408000130B8
:1009800083120313A1070318A20A0030A207323012
:1009900021062204031DD12CA101A201A301A4015F
:1009A00008000130A3070318A40A0030A40703308D
:1009B0002406031DDD2CE8302306031D0800A301D7
:1009C000A401A0100A30E1006108F60002308A118B
:1009D000F4248A110A3083120313E1006108F6003F
:1009E00063308A11F424080083120313E0006008C6
:1009F0008A158D278A11F608031D122D8312031301
:100A00006008013A031D062D061608006008023A28
:100A1000031D0C2D861608006008633A031D0800AC
:100A2000861508007608013A031D2A2D8312031348
:100A30006008013A031D1E2D061208006008023AE4
:100A4000031D242D861208006008633A031D080068
:100A50008611080076080A3A031D4B2D7908840098
:100A600083138010790A84008001840A8001831234
:100A700003136008013A031D3F2D061608006008A5
:100A8000023A031D452D861608006008633A031DCF
:100A900008008615080076080B3A031D080079083F
:100AA00084008313801408008A11FF278A118A1595
:100AB000E9268A118A15A7268A118A1549268A11DC
:100AC0008A154F268A118A156B268A118A15552692
:100AD0008A118A1517278A11000083160313201C18
:100AE000902D8A15CD268A1101308A110F268A1180
:100AF00011308A1147278A11313083120313EE0017
:100B00006E08F60009308A111D278A110D308312F4
:100B10000313EE006E08F60005308A11C1218A1118
:100B200083160313201D6D2D20118A15C5278A11E8
:100B30008A15F8268A1183160313201C6D2D8A1539
:100B4000B3268A118A154C268A118A1552268A11D3
:100B50008A11FB228A118A115F268A118A112520A7
:100B60008A116D2D83120313E501E11FBE2DE009EB
:100B7000E109E00A0319E10AE501E50AE31FC92DCD
:100B8000E209E309E20A0319E30A0130F4007408F8
:100B9000E506E601E701610860040319002EE4019F
:100BA000E40AE11BDF2D01300310E00DE10DFF3EF3
:100BB000031DD42D0130F4007408E407D12D013059
:100BC0000310E60DE70DFF3E031DE02D61086302F3
:100BD000031DEC2D60086202031CF52D6008E20283
:100BE0006108031CE303E302661401300310E10C07
:100BF000E00CFF3E031DF62D0130E402031DDF2D46
:100C000065080319082EE609E709E60A0319E70A49
:100C10006708E101E1076608E001E00708008312C8
:100C20000313E200E401E3012D1E0800C130E000DF
:100C30006008F40062088A11D5278A118312031311
:100C4000E1006108C100E401053064020318422E8E
:100C50006408343E840041088313000203183A2ECE
:100C60004108E0006408343E840060088000E3012D
:100C7000E30A422E0130E0006008E4070530640218
:100C8000031C282EE308031D0800E401053064025C
:100C9000031808006408393E8400831300084102E9
:100CA00003185A2E4108E0006408393E84006008A9
:100CB000800008000130E0006008E407462E83123F
:100CC0000313251C0800A518812EA5190800013062
:100CD000E0006008A6070A302602031C08008A15F7
:100CE000BF268A11013A031D7A2E83120313A6012F
:100CF000A51508000A3083120313E0006008A6005F
:100D00000800A51C0800A510251A8C2E270828020B
:100D1000031C08002516080027089C3EE000FF3051
:100D200003180030E1006108803AE200803062027E
:100D3000031D9C2E28086002031C08008312031365
:100D40002512080083120313E501E601610860041F
:100D50000319DB2EE401E40AE11BBA2E0130031073
:100D6000E00DE10DFF3E031DAF2E0130F4007408CD
:100D7000E407AC2E01300310E50DE60DFF3E031D28
:100D8000BB2E61086302031DC72E60086202031CAC
:100D9000D02E6008E2026108031CE303E30265143D
:100DA00001300310E10CE00CFF3E031DD12E013099
:100DB000E402031DBA2E6608E101E1076508E001BF
:100DC000E0070800F60076088A158D278A11790851
:100DD00084008313801C0800790A84000130800796
:100DE000840A0318800A790A840000088312031316
:100DF000E000840A0008E10000306102323003198B
:100E00006002031C0800790A84008001840A8001C2
:100E10007608013A031D0F2F103086060800760869
:100E2000023A031D162F2030860608007608633A22
:100E3000031D080008308606080083120313E4002F
:100E4000E201E301A51D0800A5147030E000600870
:100E5000F40064088A11D5278A1183120313E10074
:100E60006108A9002908E0006008A7007030E000D0
:100E70006008F40076088A11D52783120313E10075
:100E80006108A9002908E0006008A8000800F60031
:100E900083120313851E0800501D08007030E00007
:100EA0006008F40076088A11D5278A11831203138B
:100EB000E1006108D900590857020318642F590846
:100EC000E0006008D700080059085802031808001D
:100ED0005908E0006008D8000800F401F501831209
:100EE0000313601C792F6208F4070318F50A6308DE
:100EF000F50701300310E20DE30DFF3E031D7A2FCD
:100F000001300310E10CE00CFF3E031D812F61084E
:100F10006004031D6F2F7508E101E1077408E0010B
:100F2000E007080083120313E000E20174080319CC
:100F3000B32FE101E10AF41BA42F0310F40D0130DB
:100F4000F5007508E1079B2F0310E20D740860029D
:100F5000031CAE2F7408E00262140310F40C01307D
:100F6000E102031DA42F6208080083120313E300AB
:100F70006308013A0030031D0130E1006108E2001E
:100F80006308AD12031DAD166208AD11031DAD154A
:100F90006308E1006108B20063080A3EE1006108ED
:100FA000F60063308A11F4240800F50075088312F6
:100FB00003139F007408831603139F008312031307
:100FC0009F14E52F8A1539278A11831203139F1C5A
:100FD000ED2F83160313251DE22F8A157126831228
:100FE00003131E08080083160313811501148114CE
:100FF000011577140A30F4007408F800080008009E
:101C92008A15592608008A11902408008A155D26A3
:101CA20008008A11FF230800831203132514080079
:101CB2008312031320140800831203135016080022
:101CC2003C308316031390000800F501F50AF40175
:101CD2007508080083120313AD158A1577270800CB
:101CE200831603132511A601A7010800723083167B
:101CF20003139F00C1309D000800003083120313BC
:101D0200501A0130F40074080800003083120313E3
:101D1200251A0130F40074080800F40074088312D4
:101D220003135010031D5014080064008001840A3C
:101D32000406031900340406972EF4007408831273
:101D420003132D10031D2D14AD10080001308A1548
:101D520027278A1502308A1527278A1563308A15A4
:101D62002727080001308A11E2268A1502308A11DB
:101D7200E2268A1563308A11E2260800F401F40A89
:101D82007408013A031DCB2E003083120313AD19E0
:101D92000130F4007408080083120313A019D72E2F
:101DA200851E0800A015A101A2010800851A0800DD
:101DB200A01108004130831203139000FA308F0003
:101DC20038308E00831603130C140B178B17080080
:101DD2008A1561268A158A154D278A158A15DB26EA
:101DE2008A158A1577268A158A11F3270800771C27
:101DF20008000130F8027808FF3A0319080064303D
:101E0200F4007408F8008A11022008008A15E227FB
:101E12008A15730883120313FF0072088A0071087F
:101E22008400700E8300FE0E7E0E090083160313DB
:101E320028140730F4007408D4009630CF00003024
:101E4200D0000230F4007408CB00080083120313A0
:101E5200E10061088A158D278A15790884008313A9
:101E62000014F6018312031361088A11F424080096
:101E7200013083160313A6070318A70A0030A70729
:101E820027302706031D472F10302606031D0800A2
:101E9200A601A701251508002F308316031385001C
:101EA2000130860087010730831603178500013051
:101EB2008600AF308312031385000130860087014C
:101EC2000800F401F408031D6C2F00308312031381
:101ED200A0180130F400F408031D752F003083129E
:101EE2000313D0180130F40074080800F50105301E
:101EF2007502031808007508343E840083138001BC
:101F0200FF30F4007508393E840074088000013007
:101F1200F4007408F507782FF5007508013A031DDF
:101F2200972FD730F4007408F90008007508023AB8
:101F3200031DA02FDB30F4007408F90008007508B7
:101F4200633A031D08005C30F4007408F9000800CD
:101F520083120313E3006308013A0030031D0130CA
:101F6200E1006108E2006308D010031DD01462088A
:101F72005012031D501663080A3EE1006108F60084
:101F820002308A11F4240800831603132018080073
:101F92000130A2070318A30A0030A30796302206D5
:101FA2002304031D0800A201A301201401308A1595
:101FB2008E268A1501308A159E2683160313A017D2
:101FC2000800831603130C1C0800831203130C1C55
:101FD2000800FA308F0038308E000C100130AB0749
:101FE2000318AC0A0030AC0764302B062C04031D26
:0E1FF2000800AB01AC01831603132015080094
:04400E00FCFCFFFFB8
:00000001FF
