:100000008A11112864000800FE00030EF0000408A5
:10001000F1000A08F200831203137F08F3008A1527
:100020006C2F8A111328F701F801F901831320308E
:10003000840056308A15FF268A11A0308400CF3004
:100040008A15FF2683018A114C2D00308A116D26F6
:100050008A1183120313DF005F08E600831603137F
:10006000201CEC2983120313E608031D4D28831678
:100070000313201A7B282016A017F60101308A11DD
:10008000B2238A1183160313A0197B28F601F60AFE
:1000900002308A11B2238A117B2883160313201E93
:1000A0007B288312031366088A112E268A11831671
:1000B00003132012A0132013A501CA010F308312CD
:1000C0000313DF005F0883160313CC00CB01F60196
:1000D000F60A01308A11B2238A11F60102308A1120
:1000E000B2238A1183160313A01D7828C101C2010F
:1000F000C601C401C50183160313A0188E28013060
:1001000083120313DF005F0883160313A507250876
:100110000A3A031DA429A501A014A429201DA4297D
:100120002011A01BA01DA429013083120313DF009E
:100130005F0883160313A50725083C3A031DD4283E
:10014000A5015A304B02031CB028CA014C080F3AD3
:100150000319C5284C08193A031DD3282330CC288D
:100160000B304B020318D328013083120313DF0036
:100170005F0883160313CA074A08023A031DD328EF
:10018000CA014C08233A031DC7281930CC284C0853
:10019000193A031DD3280F3083120313DF005F08C1
:1001A00083160313CC00CB014C084E0783120313B4
:1001B000DF00E001E00DDF09E009DF0A0319E00AD2
:1001C000831603132608831203135F07E1006008F8
:1001D0000318600AE2006208803A803C031DF4289C
:1001E0006108831603132102031C202983160313BD
:1001F0004C084E0783120313DF00E001E00D831665
:1002000003132608831203135F07E100003003186D
:1002100001306007E2006208803AE3008030630248
:10022000031D182983160313210883120313610287
:10023000031C202983160313C101C201F60193296F
:10024000013083120313DF005F0883160313CB070B
:100250000130C1070318C20A0030C207201B34292D
:10026000023083120313362903308312E400003076
:10027000E5006408DF005F0883160313C30043082A
:1002800083120313DF00E001831603134208831275
:1002900003136006031D52298316031341088312BA
:1002A00003135F06031DA42983160313C101C201B2
:1002B000C601C401C501201701308A157C278A11A7
:1002C0000038031D6929F601F60A01308A11B727A3
:1002D0008A11831603134C084E0783120313DF00A1
:1002E000E001E00DDF09E009DF0A0319E00A8316E7
:1002F00003132608831203135F07E1006008031845
:10030000600AE2006208803AE30080306302031D65
:100310008F29831603132108831203136102031C20
:100320009929F601F60A01308A11B2238A11F601E1
:10033000A029F60101308A11B2238A11F601F60ACA
:1003400002308A11B2238A1183160313A019BE2921
:100350000130C1070318C20A0030C2070B30420641
:10036000031DB429B8304106031DBE29C101C201D5
:10037000A015F60102308A11B2238A1183160313E5
:10038000201F0800013083120313DF005F0883166B
:100390000313C6074608643A031D0800C60101306E
:1003A000C4070318C50A0030C50748084506031DE1
:1003B000DB2947084406031D0800C401C5012013BA
:1003C00001308A157C278A11013A031D0800F601C5
:1003D00001308A11B727080083120313201C08007C
:1003E000831603132014080083120313E200E301B1
:1003F000E10183160313A01C08002015703083123E
:100400000313DE005E08F40062088A117F278A1158
:1004100083120313DF005F0883160313A200333037
:1004200083120313D6000030D7008316031322086B
:1004300083120313DE00DF015E08D8005F08D900D5
:100440008A1198248A11831203135608E000600869
:1004500083160313A300220883120313DE005E0831
:1004600083160313A400703083120313DE005E08AA
:10047000F40076088A117F278A1183120313DF00A4
:100480005F0883160313A200220883120313DE0001
:100490005E0883160313A100682A0A302402031899
:1004A000532A0530542A3C30C7000030662A2C30CD
:1004B000C7000130662A5830C7000230662A8430EF
:1004C000C7000330662AB030C7000430C800792A5C
:1004D0002308003A03194D2A013A0319572A033A0F
:1004E00003195B2A013A03195F2A073A0319632AA1
:1004F000792A210883120313DE00831603132708C9
:10050000A83E8400831203135E0883138000E30176
:100510000A3063020318A82A6308A83E8400000872
:10052000DE00DF015E0883160313B2070318B30A67
:10053000831203135F0883160313B307013083127A
:100540000313DE005E08E3070A306302031C8C2AF3
:100550000A30D6000030D700831603133308831205
:100560000313D901D9078316031332088312031327
:10057000D801D8078A11EE258A1183120313560871
:10058000DE00831603133408B53E84008312031380
:100590005E088313800083160313B201B301831234
:1005A0000313E3010A3063020318F22A6308B53E1D
:1005B00084000008DE00DF015E0883160313BF0716
:1005C0000318C00A831203135F0883160313C007BE
:1005D000013083120313DE005E08E3070A30630272
:1005E000031CD62A0A30D6000030D7008316031326
:1005F000400883120313D901D907831603133F0858
:1006000083120313D801D8078A11EE258A118312A9
:1006100003135608DE005E0883160313A600BF010D
:10062000C0010A30270203181E2B01308312031366
:10063000DE005E0883160313A7070800A7010A302F
:10064000340203182C2B013083120313DE005E08E2
:1006500083160313B4070800B401080083120313C0
:10066000371CAE2B3719452B0130B8070318B90AD0
:100670000030B90701303902F43003193802031C85
:100680000800B801B9013715080002308A116D263B
:100690008A110038031D0800013083120313B807C4
:1006A0000318B90A0030B9070030390205300319C0
:1006B0003802031C0800B801B901371E08003711C1
:1006C0000230D6000030D7003E083F07D800D901DD
:1006D000D90D8A1198248A11831203135608DE005B
:1006E0005E08BD008A11D7268A11013A031D802BAE
:1006F0008C3083120313DE005E08C1006430872B48
:10070000643083120313DE005E08C1004630DE0051
:100710005E08C200B71C9B2B41083D02031CAA2B9C
:100720000130DE005E08BA0703303A02031CAB2B2F
:10073000BA01B710AB2B3D084202031CAA2B0130B3
:10074000DE005E08BA0703303A02031CAB2BBA0185
:10075000B714AB2BBA01BE01BF010800201C080072
:100760003714080083120313D60056088A11D227C3
:100770008A11F608031DCA2B831203135608013A87
:10078000031906165608023A031986165608633AE4
:10079000031986157608013A031DDC2B8312031317
:1007A0005608013A031906125608023A031986122E
:1007B0005608633A0319861176080A3A031DF92B85
:1007C0007708840083138010770A84008001840AEC
:1007D0008001831203135608013A031DF12B0616FC
:1007E000F52B5608023A031986165608633A031980
:1007F000861576080B3A031D012C770884008313B5
:10080000801476086F3A031D212C83120313AE0166
:10081000AF01B0012D122D14AD102D11AD115608E0
:10082000013A031D152CAD1408005608023A031DA9
:100830001B2C2D1508005608033A031D0800AD15A2
:10084000080076086E3A031D0800831203132D106A
:100850000800831203132D1C08000130AF07031892
:10086000B00A0030B00700303002323003192F02D6
:10087000031C0800AF01B001F60101308A11B22358
:100880008A11F60102308A11B2238A1183120313EE
:10089000AD1C4E2C0430D7005708D8002D1D542C09
:1008A0000630D7005708D800AD1D5A2C0830D700A5
:1008B0005708D8000130D7005708AE072E08013A74
:1008C0000319662C2E08023A031D7A2C03102D1EE4
:1008D0000314031C6F2C831203132D16722C831226
:1008E00003132D1200302D1A0130F60002308A1148
:1008F000B22308000310831203132D1E0314031CDC
:10090000852C831203132D16882C831203132D12AA
:1009100000302D1A0130F60001308A11B2238A11FD
:10092000831203132E085806031D0800AE010800A9
:1009300083120313DB01D71FA42CD609D709D60ACB
:100940000319D70ADB01DB0AD91FAF2CD809D90953
:10095000D80A0319D90A0130F4007408DB06DC0157
:10096000DD01570856040319E62CDA01DA0AD71B11
:10097000C52C01300310D60DD70DFF3E031DBA2C38
:100980000130F4007408DA07B72C01300310DC0DD5
:10099000DD0DFF3E031DC62C57085902031DD22C46
:1009A00056085802031CDB2C5608D8025708031CB3
:1009B000D903D9025C1401300310D70CD60CFF3ECA
:1009C000031DDC2C0130DA02031DC52C5B08031962
:1009D000EE2CDC09DD09DC0A0319DD0A5D08D7010C
:1009E000D7075C08D601D6070800F60076088A15F6
:1009F00007278A11780884008313801C08000130BF
:100A000083120313D6007808023E8400560880073C
:100A10007808063E84000008D6007808023E84006C
:100A20000008D70056085702031C2D2D78088400B3
:100A3000801B2D2D7808840080177608013A031D4D
:100A4000080078088400001D292D83120313051661
:100A5000080083120313051208007808043E84007E
:100A600083130008D6007808023E84000008D700EF
:100A700056085702031C08007808023E84008001D3
:100A80007808840080107808840080137608013A82
:100A9000031D0800061108008A15CE268A118A1542
:100AA0005D278A118A151C278A118A15D2268A1178
:100AB0008A15DC268A118A15D8268A118A15B0274C
:100AC0008A11000083120313201C7E2D11308A111D
:100AD0005A278A11313083120313EB006B08F6009A
:100AE00009308A1108278A110D3083120313EB0095
:100AF0006B08F60005308A11F4218A118312031362
:100B0000311C622D31108A11EC278A118A158D272C
:100B10008A1183120313201C622D8A15CF268A1195
:100B20008A15D5268A118A1511278A118A11A326BA
:100B30008A118A1125208A11622D83120313D8008D
:100B400058088A1507278A117808840083138014AF
:100B5000831203135608013A031DCB2D7808840035
:100B60000019E62D780884000015780A84008014A6
:100B70000A30D7007808063E8400570880000D3000
:100B8000D7007808043E84005708800058088A156A
:100B900028278A11E62D780884008313001DE62D8E
:100BA000780884000011780A8400801004308312D1
:100BB0000313D7007808063E8400570880000730EA
:100BC000D7007808043E840057088000831203137E
:100BD0005808013A031D0800061508008312031384
:100BE000DB01DC01570856040319272EDA01DA0A63
:100BF000D71B062E01300310D60DD70DFF3E031D67
:100C0000FB2D0130F4007408DA07F82D01300310D1
:100C1000DB0DDC0DFF3E031D072E57085902031D97
:100C2000132E56085802031C1C2E5608D8025708CB
:100C3000031CD903D9025B1401300310D70CD60C66
:100C4000FF3E031D1D2E0130DA02031D062E5C0837
:100C5000D701D7075B08D601D60708008312031314
:100C6000DE00DB01DA015E08033A03193B2EFF3098
:100C7000DC000030452E8A1534278A1183120313B5
:100C8000D800D9015808DC005908DD005C08D800FC
:100C90005808DB00DE08031D4F2E6E305A2E8312DB
:100CA00003135E08053A031D572E0000612E6F30B6
:100CB00083120313D8005808F6005E088A11B22385
:100CC0008A11831203135E0803190800F60101302C
:100CD0008A11B72783120313080083120313DA0063
:100CE000DB01DB08031D852E5A08023A0319852E05
:100CF000B7187D2ED601D701812E0230D6000030E4
:100D0000D7005608F5007508DB00DB08031DA12E8F
:100D10005A08053A0319A12E8A15F7268A11003AB6
:100D20000319972E83120313D801D9019D2E053084
:100D300083120313D8000030D9005808F500750855
:100D4000DB005B08080083120313281C0800A818A6
:100D5000B62EA81908000130F4007408A9070A305B
:100D60002902031C0800A901A8150800A81C0800F6
:100D7000A810281AC12E2A082B02031C08002816C6
:100D800008002A089C3EF400FF3003180030F500EC
:100D90007508803AF60080307602031DD12E2B08AC
:100DA0007402031C08008312031328120800831224
:100DB0000313DB01D801D801D80AD901DA015A0896
:100DC000803AF60080307602031DE82E580859025A
:100DD0000318042F83120313DB08031DFD2E59088B
:100DE000013E8A157C278A11013A0030031901302F
:100DF000F600760883120313DB000130D9070318CD
:100E0000DA0A0030DA07DF2E831203135B080800CA
:100E100083120313DA00D801D901A81D0800A81411
:100E20007030D6005608F4005A088A117F278A11BC
:100E300083120313D7005708AC002C08D6005608BD
:100E4000AA007030D6005608F40076088A117F2771
:100E500083120313D7005708AC002C08D60056089D
:100E6000AB00080083120313D90059088A1507271D
:100E70008A11780884008313801808007808840099
:100E8000801D0800831203133619080078088400B7
:100E9000801178088400001E532FD601D60A590805
:100EA0008A119D25080083120313D60159088A115F
:100EB0009D250800F60083120313371D080037161E
:100EC0007030D6005608F40076088A117F278A1100
:100ED00083120313D7005708C00040083E020318CE
:100EE000762F4008D6005608BE00080040083F0292
:100EF000031808004008D6005608BF000800F50097
:100F00007508831203139F007408831603139F0050
:100F1000831203139F148F2F8A15C2278A118312FD
:100F200003139F1C952F251D8C2F8A15EA268312EB
:100F300003131E080800831603130C1C08008312F9
:100F400003130C1C0800FA308F0038308E000C1090
:100F50000130B2070318B30A0030B3076430320619
:100F60003304031D0800B201B301311408008312D9
:100F70000313D70057088A150727780884008313BE
:100F800080157608013A00300319013083120313EB
:100F9000D60078088400D60E00085606EF395606AB
:100FA00080000800F5007508013A031DDB2F4E3064
:100FB000F4007408F7007508023A031DE32F52305D
:100FC000F4007408F7007508633A031D08004A30FE
:100FD000F4007408F70008008312031320180800B7
:100FE0000130A2070318A30A0030A3079630220697
:100FF0002304031D0800A201A301201420160800E9
:101D9A00080008008A11292408008A15CD2608009F
:101DAA008A112E2308008312031328140800013015
:101DBA008A15E0260800F60076088A150727080023
:101DCA003C30831603139000080083120313251175
:101DDA00A601A70108007330831603139F00C130C0
:101DEA009D000800003083120313281A0130F40002
:101DFA007408080064008001840A04060319003488
:101E0A000406002FF5007508013A031D0800433047
:101E1A00F4007408F800080001308A1132278A1584
:101E2A0001308A11F5248A158A15D627080001304F
:101E3A008A159E278A1502308A159E278A156330CD
:101E4A008A159E270800F6008312031344107608A9
:101E5A008A150727780A8400831300140800F601FC
:101E6A0001308A150727780A840000308313001886
:101E7A000130F600760808004130831203139000FF
:101E8A00FA308F0038308E00831603130C140B17A8
:101E9A008B17080083160313811501148114011589
:101EAA008312031334140A30F4007408B5000800CE
:101EBA008A15E5268A158A15EB278A158A15412778
:101ECA008A158A15F0268A158A154F2708008A115D
:101EDA009B278A15730883120313FF0072088A006E
:101EEA0071088400700E8300FE0E7E0E09008312B4
:101EFA000313D60056088A1507277808840000308D
:101F0A0083130019013083120313D70057080800FE
:101F1A0083120313341C08000130B5023508FF3A56
:101F2A00031908006430F4007408B5008A1102200D
:101F3A00080083120313D70057088A11D2278A157B
:101F4A007708840083130014F601831203135708D9
:101F5A008A11B2230800F601F60A01308A11B22367
:101F6A000F3083120313D700570883160313CC00CC
:101F7A000530C7000030C80008000130831203137F
:101F8A00A6070318A70A0030A70727302706031D4C
:101F9A00D02F10302606031D0800A601A70125151B
:101FAA00080083120313361C080036108A11D7263C
:101FBA0000380030031D013083120313DC00DC0DEE
:101FCA0036085C06FD395C06B60008002F30831619
:101FDA000313850001308600870107308316031733
:101FEA00850001308600AF3083120313850001306B
:061FFA00860087010800CB
:04400E00FCFCFFFFB8
:00000001FF
