:1000000080311F28640008007E14803120007F08A2
:10001000F1002100111C12282000111C12289C3113
:10002000C62480318B190B1C1A282700161D1A288C
:100030009831972071082000FF007E100900803160
:100040002128FA01EC01ED01A03084000030850088
:100050005030A731E5278031203084000130850001
:100060005030A731E5278031A03084000130850071
:100070005030A731E52780312030840002308500E0
:100080003530A731E5278031853084009C308500EC
:10009000A0308600023087002030A731DF277E1095
:1000A00020009431922C00309E313C26803120007B
:1000B000A0002008A200A601A501A7012200321C71
:1000C000ED2999311A2180310038031D6928220059
:1000D0008A282000A208031D87289B31D72380315E
:1000E0000038031D87282200B214A731F927803178
:1000F000013A031D82282200B21DB21B8B28B215C3
:10010000D7018B282200B21F8B28B2138B28220024
:10011000B21C8B28B210B21CC9293215321EC72955
:100120000130B3070030B43D00303402023003190F
:100130003302031C0800B301B40132120130200065
:10014000A8000030A9002908803AA00080302002D1
:10015000031DAC28043028020318E02820002835AD
:100160003D3E860001308700403FA000413FA10096
:1001700020082200B707200021082200B83D2000F7
:100180002835473E860001308700403FA000413FB0
:10019000A10020082200B907200021082200BA3D52
:1001A00001302000A8070030A93D2908803AA000AE
:1001B00080302002031DDE2804302802031CAE28F4
:1001C0000330F2000030F30022003808F501F50793
:1001D0003708F401F4079F315D278031730822004E
:1001E000B801B8077208B701B7070330F200003052
:1001F000F3003A08F501F5073908F401F4079F31D7
:100200005D27803173082200BA01BA077208B9016C
:10021000B9079B31BC23803122003A083802031D04
:10022000132939083702031C08000530323E8600C6
:100230000130870039092000A00022003A0920007F
:10024000A100A00A0319A10A403F20072200D10003
:10025000413F2000213D2200D200B701B801B90181
:10026000BA01B21D892902305702031889290130C9
:100270002000A00020082200D707983104208031F8
:100280002000A0002008A6009931CA21803120005A
:10029000A0002008A70022005708013A031D542996
:1002A0006030D500043061295708023A031D8929BE
:1002B00020002708013A031D632943302200D5009E
:1002C0000030D60089292000A608031D7D292708B3
:1002D000A000A1012008F2002108F3004330F4003F
:1002E0000030F5009C312B24803173082200D601A8
:1002F000D6077208D501D507892920002608013ABA
:10030000031D892922003B08433ED50000303C3DB7
:10031000D600220056085202031D902955085102AA
:10032000031CAF2920002708013A0319992903303B
:100330009A290230A3000030A4002308A00020085E
:10034000A5000130A00020082200D807580820008E
:100350002502031808002200D801B2160800D801AF
:10036000B21D080001302000A00020082200D9079B
:1003700003305902031C0800D901B217B211D7018A
:100380005208BC01BC075108BB01BB07080032166C
:100390000800321DDC2932113212B301B4019B3145
:1003A000BC2380312200D801D901B701B801B901BD
:1003B000BA01B211D701B213B21E08000130B5075D
:1003C0000030B63D01303602F43003193502031C0B
:1003D0000800B501B601B212080021004F1C080048
:1003E0002200321408002000AD002D089A31CB22E3
:1003F000813120006D08860001308700011C5A2BD6
:1004000000309E313C2681310038031D222A200015
:100410006D0A86000130870081102D089C3165240B
:100420008131013A0030031901302000AB006D0822
:10043000860001308700AB0D01082B06FD392B0625
:100440008100382A20006D0A86000130870081185B
:10045000382A6D0A86000130870081146D088600F5
:100460000130870081106D0886000130870001157A
:100470006D08860001308700811C072B6D088600FF
:10048000013087000119652A0130AB006D08023E7A
:100490008600013087002B0881076D08023E860028
:1004A0000130870005300102031C08006D08023E80
:1004B00086000130870081016D08860001308700C9
:1004C00001152D0887318427080020006D0886005B
:1004D000013087008119972A6D08033E860001309C
:1004E00087000130810741310318810A6D08033EFE
:1004F000860001308700403FAB00413FAC00003038
:100500002C024B3003192B02031C08006D08033E1C
:100510008600013087000030C03FC13F6D08860073
:100520000130870081152D089D3199250800200094
:100530006D08860001308700011AD52A6D08053E36
:100540008600013087000130810741310318810A9C
:100550006D08053E860001308700403FAB00413FFB
:10056000AC0000302C024B3003192B02031C080096
:100570006D08053E8600013087000030C03FC13F56
:100580006D08860001308700011601309931EC2199
:1005900081312100CF1E080064302000A40000300B
:1005A000A50002309231EC22080020006D08860080
:1005B00001308700811A08006D08073E860001306F
:1005C00087000130810741310318810A6D08073E19
:1005D000860001308700403FAB00413FAC00003057
:1005E0002C02963003192B02031C08006D08073EED
:1005F0008600013087000030C03FC13F6D08860093
:1006000001308700811600309931EC21080020006C
:100610006D08860001308700011D08000130AB0025
:100620006D08023E8600013087002B0881076D08A7
:10063000023E86000130870005300102031C0800DD
:100640006D08023E86000130870081016D0886003A
:100650000130870001116D08033E860001308700DC
:100660000030C03FC13F6D08860001308700811116
:100670006D0886000130870001126D088600013088
:10068000870081126D08053E86000130870000302A
:10069000C03FC13F6D08073E860001308700003033
:1006A000C03FC13F2D089131222181310030993165
:1006B000EC21080021004F1C080020006D08860076
:1006C000013087000114080020003908BF003A08F3
:1006D000C0003B08C1000310400D410DC20042089C
:1006E000C5003C08BF003D08C0003E08C100031023
:1006F000400D410DC2004208C400450803198C2B6F
:10070000440845020318932B4503FF3A4407BF00F2
:1007100019303F02031C932B3C08B9003D08BA0076
:100720003E08BB00080044080319080045084402BD
:100730000318A22B4403FF3A4507BF0019303F02BC
:10074000031808000630BF003F08C300BB1BC317D7
:10075000BE1B4317BA17FF30B905FF30BA0500308A
:10076000BB05BD17FF30BC05FF30BD050030BE0521
:10077000440845020318DE2B0130BC35BD0DBE0D0B
:10078000890BBD2B0130C402440845060319D92B3F
:100790000130C302430807390319D92BBC2B0130A0
:1007A000BB36BA0CB90C890BD02B0130BF003F0807
:1007B000C507450844060319032CCF2B45084402FE
:1007C0000318032C0130B935BA0DBB0D890BE32B8F
:1007D0000130C502440845060319FF2B0130C3024E
:1007E000430807390319FF2BE22B0130BE36BD0C3D
:1007F000BC0C890BF62B0130BF003F08C40745082D
:100800004406031DF52BC31F152CFF30B906FF301E
:10081000BA06FF30BB060130B907003003180130BB
:10082000BA07003003180130BB07431F272CFF30E5
:10083000BC06FF30BD06FF30BE060130BC070030ED
:1008400003180130BD07003003180130BE07C30193
:100850003908BC073A08BD3D3B08BE3DBE1F422CCF
:10086000FF30BC06FF30BD06FF30BE060130BC07BE
:10087000003003180130BD07003003180130BE07F7
:10088000C301C30A3C08F2003D08F3003E08F4002F
:100890004508BF003F08F5004308C0004008F600C7
:1008A0009531AB2572082000B9007308BA007408AE
:1008B000BB00080000309E313C2684312000DD0062
:1008C0005D08DF00E101E201E301E401E501E60189
:1008D00099311A2184312000DD005D08E0002200FA
:1008E0005A1C292D5A19912C20006008013A031D29
:1008F0007C2C2200DA1C7F2C2200DA1C8E2C01308A
:10090000DB070030DC3D00305C02FA3003195B028B
:10091000031C0800DB01DC015A150800DB01DC01C7
:1009200008000130DB070030DC3D00305C020530A0
:1009300003195B02031C0800DB01DC010330F20039
:100940000030F3000A305A3E86000130870008303C
:100950005A3E840001308500003F60072000DD0022
:10096000013F2200613D2000DE00403F5D07F400B2
:10097000413F5E3DF5009F315D27843173082000C3
:10098000E601E6077208E501E5079B31882384311B
:1009900020006608803ADD0080305D02031DD22C05
:1009A00001306502031C080022005A11C7302000E4
:1009B000E1000130E2009F30E3000130E40022005A
:1009C000DA1C002D200062086602031DE92C610874
:1009D0006502031C152D0130DD005D082200DD07D6
:1009E00003305D02031C172DDD01DA106430200096
:1009F000A4000030A50002309231EC228431172D82
:100A0000200066086402031D072D65086302031CAD
:100A1000152D0130DD005D082200DD0703305D0289
:100A2000031C172DDD01DA14172D2200DD01200033
:100A30006608DD005D08DA0018309831A3208431A3
:100A400020006508DD005D08DA0019309831A32028
:100A5000080021004F1C080022005A140800003032
:100A60009E313C268531F90079082000A800AD01AF
:100A70000230F9007908A700A6012100D91D4E2DEA
:100A80002000A808031D08002100D9110A30F90030
:100A90007908F40063309431ED2408002000280820
:100AA000031908002100D9150B30F9007908F4006A
:100AB00063309431ED248531F62D99311A21853139
:100AC000013A031D6C2D2C302000A4000130A5003C
:100AD0000A309231EC2285312000A901AA012A08AE
:100AE000803AF90080307902031D782D2708290209
:100AF0000318992D20002908013E9831ED208531F9
:100B0000013A031D932D20006C08860001308700F8
:100B100001146C0A86000130870001102908013E8B
:100B200091312221853101302000A9070030AA3DF2
:100B30006F2D200008002C302000A4000130A500FB
:100B400005309231EC228531993129218531F90026
:100B500079082000AD00AD08031DDC2DAB01AC0110
:100B60002C08803AF90080307902031DB92D27083E
:100B70002B020318DA2D20002B08013E9831ED20BE
:100B80008531013A031DD42D20006C088600013008
:100B9000870001146C0A86000130870001102B08C1
:100BA000013E91312221853101302000AB07003018
:100BB000AC3DB02D2000080020002D089831ED201C
:100BC0008531013A0319E62D2000080020006C0849
:100BD00086000130870001146C0A8600013087000E
:100BE00001102D0891312221200008002000280842
:100BF000023A03195D2D013A03199B2D002E0800BE
:100C00000800F7011F30903166208631AA3A031D93
:100C10007C2E0630903166208631F6007B080B3E34
:100C2000860002308700760881000030903166200F
:100C30008631F6007B080C3E86000230870076087D
:100C400081000130903166208631F6007B080D3E30
:100C500086000230870076088100023090316620DD
:100C60008631F6007B080E3E86000230870076084B
:100C700081000330903166208631F6007B08153EF6
:100C800086000230870076088100043090316620AB
:100C90008631F6007B08163E860002308700760813
:100CA00081000530903166208631F6007B08173EC2
:100CB000860002308700760881007B080C3E8600A3
:100CC000023087000108FF3A031D08007B080D3E33
:100CD0008600023087000108FF3A031D08007B08E8
:100CE0000E3E8600023087000108FF3A031D08000F
:100CF0002100CF15CF160800FF30F6007608F2006D
:100D0000003098316B208631FF30F6007608F20013
:100D1000013098316B208631FF30F6007608F20002
:100D2000023098316B208631FF30F6007608F200F1
:100D3000033098316B208631FF30F6007608F200E0
:100D4000043098316B208631FF30F6007608F200CF
:100D5000053098316B208631FF30F6007608F200BE
:100D6000063098316B208631AA30F6007608F20002
:100D70001F3098316B2086318B139E3112268B17D2
:100D80002100CF15CF16591608002000EB012100D5
:100D9000401C802F99317821863173087204031D1D
:100DA000652F9931DB218631013A0030031901307A
:100DB0002000EA00EA0CEA0C2100400820006A0644
:100DC0007F396A062100C000C01FE82E401F652F32
:100DD000401D2C2F401B272F0130C3070030C43D7E
:100DE0001430F2000030F3004908F501F507480817
:100DF000F401F4079F315D27863173082100440216
:100E0000031D042F72084302031C652F1430F200E7
:100E10000030F3004908F501F5074808F401F4072C
:100E20009F315D27863173082100C401C407720811
:100E3000C301C3074011CB01CC0198312920863171
:100E4000923162228631883191208631652F2100CE
:100E5000C301C4014011652FC01D3B2F96310B26E5
:100E600086312100C01C652FC010CB01CC0195310B
:100E70004C258631652F01302100C3070030C43D69
:100E80001430F2000030F3004908F501F507480876
:100E9000F401F4079F315D27863173082100440275
:100EA000031D542F72084302031C652FC301C401A4
:100EB000C01536309B316E2386313A309B316E231C
:100EC000863134309B316E23863101302100CB07CF
:100ED0000030CC3D0B304C02B93003194B02031CDF
:100EE000792FCB01CC01C011C01036309B316E235D
:100EF00086312100411F080041139A318C220800DD
:100F00004F1C0800401408002000AA00A901A601F7
:100F10002A089A31E0228731F90079082000A600DA
:100F2000A908031DB72F2A08013A031DA42FA70102
:100F3000A70A2300471AA12F2100301AA12F200051
:100F4000A70120002708B42F2A08023A031DB72F53
:100F5000A801A80A23003E1AB22F2100201AB22F9E
:100F60002000A80120002808F9007908A9002A0813
:100F70009A31382287312000A908031D0800A608ED
:100F8000031DE52F6C0886000130870001146C0AF0
:100F90008600013087000118DF2F6C0A86000130BF
:100FA000870001146C08023E86000130870001149E
:100FB0006C08023E8600013087000115EF2F6C0A95
:100FC0008600013087000110EF2F6C088600013089
:100FD000870001166C08860001308700811264309A
:100FE000A4000030A50001309231EC2208005530F9
:100FF00023009600AA309600951400000000080017
:1010000008002000A2012F30220203180800220845
:10101000003E840090300318013E85000008F70070
:101020007708A00022082F3E840090300318013E6C
:1010300085000008F7007708A1002108F70077086D
:10104000F40020089D310A2588310130F700770827
:101050002000A20703282000E100E001E00A362872
:1010600033280310E00D0310E00D3E286108023A1A
:1010700003193028013A031931283E28E009610894
:10108000DE005E08DA000B309831A32088312000A2
:1010900061081A3E7B07DE005E088600023087008A
:1010A0000108DF005F08DA0011309831A320883191
:1010B00020005D08013A031D7C286108143E7B076F
:1010C000DE005E088600023087000108DF005F084E
:1010D000DA0009309831A32088317B080F3E860062
:1010E00002308700010820006104DE005E08DA009B
:1010F0000F309831A32008002000DA010930983120
:10110000A32088317B080F3E86000230870001084B
:1011100020006005DE005E08DA000F309831A32061
:10112000080036309B316E2388313B309B316E2373
:10113000883120000E127F30F60076082100ED0085
:10114000A4289A317722883120000E1DAA28210078
:10115000411FA128A731C92788319B312423883119
:1011600021006E08F6007608ED009B3124238831BB
:10117000F70121006E0877020318D0287708A03EF7
:101180008600013087000108F60076082100ED0096
:101190009B31242388310130F6007608F707B928FF
:1011A00020000E1635309B316E238831DA289A31B3
:1011B0007722883120000D18E0282100411FD72810
:1011C000A731C9278831E7289A3177228831200052
:1011D0000D1CED282100411FE428A731C9278831C3
:1011E00036309B316E2388313B309B316E23FA14AD
:1011F00008002000DF005F089A3123228831210097
:101200006A08860001308700811C08006A08023ED7
:101210008600013087000130810741310318810ABF
:101220006A08023E860001308700403F2000DD0052
:10123000413FDE0009305E02C43003195D02031C29
:10124000080021006A08023E860001308700003055
:10125000C03FC13F01302000DD0021006A08043E8C
:1012600086000130870020005D08810721006A08A0
:10127000043E8600013087006A0A84000130850040
:1012800000080102031C08006A08043E86000130C1
:10129000870081016A0886000130870081102000E4
:1012A0005F089831ED208831013A031D6129200043
:1012B0005F0887318427883120005F08913122211F
:1012C00088312000DA015F081A3E9831A320080017
:1012D0002000A000A501A201A101A301A4012200F8
:1012E000321E0800F330F6007608F20020002008D5
:1012F0009B31A223893173082000A401A40772083E
:10130000A301A307A501043025020318AE29253542
:101310003D3E860001308700403FF600413FF70028
:1013200024087702031D9629230876020318A629AC
:10133000A208031DA62925353D3E86000130870001
:101340002308C03F2408C13FA201A20A0130F600D1
:101350007608A50704302502031C8729A208031D6F
:101360000800A50104302502031808002535473E72
:10137000860001308700403FF600413FF7007708C4
:101380002402031DC529760823020318D529A108C4
:10139000031DD5292535473E8600013087002308E7
:1013A000C03F2408C13FA101A10A0130F600760820
:1013B000A507B229F701F701203077020318F429B5
:1013C0007708903166208931F6007708303E860034
:1013D00002308700760881000130F6007608F707B2
:1013E00020307702031CE0297B088600023087004A
:1013F00002304B3FF200063098316B2089317B0878
:1014000086000230870002304C3FF20000309831F5
:101410006B2089317B0886000230870002304D3F07
:10142000F200013098316B2089317B088600023050
:10143000870002304E3FF200023098316B20893134
:101440007B088600023087000230553FF2000330EF
:1014500098316B2089317B0886000230870002308A
:10146000563FF200043098316B2089317B088600AA
:10147000023087000230573FF200053098316B2070
:1014800089312100D91E4D2AD912AA30F6007608DA
:10149000F2001E3098316B2089312400541D542AEB
:1014A00054112100CF11CF128B139831AF20893105
:1014B0009E3112268B17080020004608CA004708F4
:1014C000CB004808CC0003104B0D4C0DCD004D084F
:1014D000D300D308031D752A0030C9000030C800AE
:1014E0000030C7000030C60008004608CA004708A0
:1014F000CB004808CC001730CC36CB0CCA0C890B7B
:101500007C2A4A08CD004D08CE00C717FF30C6051B
:10151000FF30C7050030C8054608CF004708D00097
:101520004808D100D2018E30D302D31FB32A53080A
:10153000803A8F3E0318A52A0030C9000030C80049
:101540000030C7000030C60008000130D236D10C90
:10155000D00CCF0C890BA62A0130CA004A08D30749
:101560000319CC2AA52A18305302031CC92A0030BB
:10157000C9000030C8000030C7000030C6000800B5
:101580000130CF35D00DD10DD20D890BC12A0130DC
:10159000D302D308031DC02A4E080319DA2ACF0943
:1015A000D009D109D209CF0A0319D00A0319D10AE7
:1015B0000319D20A5208C9005108C8005008C700D0
:1015C0004F08C60008002000E000DF0160089831E5
:1015D000ED208A312000DD005D08DF00653023004A
:1015E0002902031CFA2A64302000DD005D08230074
:1015F000A900FF2AA908031DFF2AA901A90A290891
:101600002000DD005D08DA0009309831A3208A311E
:1016100020006008DD005D08DA000B309831A3205F
:101620008A31200060081A3E7B07DD005D088600D5
:10163000023087000108DE005E08DA0011309831C0
:10164000A3208A31230029082000DD005D08DA008C
:101650006008143E9831A3208A3101309931382135
:101660008A3120005F08013A031D562B2300290808
:101670009631D1268A312000DD005D08DA0060084D
:101680009A31F6228A31F201F20A200060089D3177
:10169000C0258A31A731F2278A3164302000A400A6
:1016A0000030A50001309231EC2208002000DF0854
:1016B000031D0800F401F40A60089B313C238A31C1
:1016C00020006008873184278A312000600891312A
:1016D000222108002000E40064089A3123228B3183
:1016E00020005D08013A003003190130DF002100BD
:1016F0006A088600013087002000DF0D01085F06C0
:10170000FD395F06810021006A08023E8600013033
:1017100087000030C03FC13F6A08043E86000130A8
:101720008700810120005D08013A031DEC2B053084
:10173000DF005F08E100E201E3010F305E05DF003A
:101740005F08053A0319A82B5E080F39031DD82B33
:1017500031305E020318D82B5E080F39DF005F08B6
:10176000E2005E08DF000430DF36890BB42B5F082F
:101770000F39E0006008E3000A30DF005F08F20084
:1017800063089931A8218B3120006207E000210015
:101790006A0A8600013087002000600881005E0828
:1017A000DF005F08DA0064081A3E9831A3200800C1
:1017B00005302000DF0021006A0A86000130870022
:1017C00020005F0881000530DF005F08DA00640850
:1017D0001A3E9831A32008002000DD08031D0800F0
:1017E000DA0164081A3E9831A3200800752C99315B
:1017F0001A218B31013A031D212C01309831ED2043
:101800008B31013A031D0C2C0130873184278B3139
:101810000130913122218B3102309831ED208B3112
:10182000013A031D1B2C0230873184278B31023093
:10183000913122218B31F201F20A01309A314D228D
:1018400008002000DA0109309831A3208B312000F4
:10185000DA010B309831A3208B312000DA010F30F0
:101860009831A3208B312000DA0111309831A32068
:101870008B31A731F22708002000DA0109309831B6
:10188000A3208B312000DA010B309831A3208B315B
:101890007B0886000230870002304F3F2000DA00CC
:1018A0000F309831A3208B312000DA0111309831AC
:1018B000A3208B31A731F2270800013091315C2140
:1018C000080001308A31E322080001309F3193275C
:1018D0000800023091315C21080002308A31E32295
:1018E000080002309F319327080023002F08003A98
:1018F0000319F72B013A03195D2C033A0319692CDC
:10190000133A0319612C313A03193C2C013A03199B
:101910006D2CF03A0319652C033A0319712C902CA5
:1019200008002000A6002608013A031DE72C21002C
:10193000A01CE72CA01001302000A50025082100E4
:10194000A30724082302031CE72CA3012117201E50
:10195000C92CA01ABC2C2A3025020318BA2C01303D
:101960002000A50025082100A507013094313B2463
:101970008C31E72CA016E72C03302502031CC72C62
:101980000130A502013094313B248C31E72CA012A8
:10199000E72C201FE72C260825020318DA2C01303B
:1019A0002000A50025082100A507013094313B2423
:1019B0008C31E72C2100250826020318E62C013083
:1019C000A502013094313B248C31E72C20132000F8
:1019D0002608023A031D08002100B01C0800B010C0
:1019E00001302000A50025082100B3073408330288
:1019F000031C0800B3013117301E1C2DB01A102D26
:101A00002A30350203180E2D01302000A5002508CC
:101A10002100B507023094313B240800B0160800BD
:101A200003303502031C1A2D0130B5020230943107
:101A30003B240800B0120800301F080036083502A9
:101A400003182C2D01302000A50025082100B50722
:101A5000023094313B240800210035083602031877
:101A6000372D0130B502023094313B240800301389
:101A7000080020002908AC002A08AD002B08AE00A1
:101A800003102D0D2E0DAF002F08B400B408031D58
:101A9000502D0030A6000030A7000030A80008003C
:101AA0002608AC002708AD002808AE0003102D0D55
:101AB0002E0DAF002F08B500B508031D662D0030B0
:101AC000A6000030A7000030A80008000030B100D8
:101AD0000030B2000030B30089303507AC002C086C
:101AE000B4022908AC002A08AD002B08AE00103063
:101AF000AE36AD0CAC0C890B782D2C08AF002F083E
:101B0000B5002608AC002708AD002808AE0010304C
:101B1000AE36AD0CAC0C890B882D2C08AF002F080D
:101B2000B5068030AC002C08B505AA17FF30A90512
:101B3000FF30AA050030AB05A717FF30A605FF3020
:101B4000A7050030A8051830AC002C08B000013003
:101B5000B135B20DB30D890BA82D28082B02031D3A
:101B6000B72D27082A02031DB72D26082902031CBA
:101B7000C02D2608A9022708AA3B2808AB3B311430
:101B80000130A935AA0DAB0D890BC12D0130B00272
:101B9000031DA72D3108F2003208F3003308F400CA
:101BA0003408AC002C08F5003508AD002D08F6000F
:101BB0009531AB2572082000A6007308A7007408B1
:101BC000A800080003302000DA005A082100A40011
:101BD0002A302000DA005A082100A6000230200036
:101BE000DA005A082100A700A0102A3097313627C2
:101BF0008D312000DA007B08153E86000230870018
:101C00005A0881007B08153E8600023087000108D3
:101C10009631D1268D312000DA005A082100A50026
:101C200002302000DA005A08F7002A309831FC20F0
:101C30008D312000DB005B082100A80028080D3E44
:101C40002000DA005A082100A900290828072000EE
:101C5000DA005A082100AA002A08013E2000DA0012
:101C60005A082100AB00A11703302000DA005A08FF
:101C70002100B4002A302000DA005A082100B60002
:101C800002302000DA005A082100B700B0102A30D4
:101C9000973136278D312000DA007B08163E86000A
:101CA000023087005A0881007B08163E8600023009
:101CB000870001089631D1268D312000DA005A08BC
:101CC0002100B50002302000DA005A08F7002A305F
:101CD0009831FC208D312000DB005B082100B8002A
:101CE00038080D3E2000DA005A082100B9003908F2
:101CF00038072000DA005A082100BA003A08013EED
:101D00002000DA005A082100BB00B117591E080054
:101D10005912D916013099313821080020002608BF
:101D2000AC002708AD002808AE0003102D0D2E0DC5
:101D3000AF002F08B000B008031DA52E0030A6008C
:101D40000030A7000030A80008002908AC002A08CD
:101D5000AD002B08AE0003102D0D2E0DAF002F0887
:101D6000B500B508031DBB2E0030A6000030A7004B
:101D70000030A800080035087B3EAC002C08B007F6
:101D80002608AC002708AD002808AE001030AE369B
:101D9000AD0CAC0C890BC72E2C08AF002F08B5007A
:101DA0002908AC002A08AD002B08AE001030AE3672
:101DB000AD0CAC0C890BD72E2C08AF002F08B50644
:101DC0008030AC002C08B505A717AA17FF30A9056D
:101DD000FF30AA050030AB050030B1000030B20082
:101DE0000030B3000730AC002C08B400261CFE2ED7
:101DF0002908B1072A08B23D2B08B33D0130A836A7
:101E0000A70CA60C890BFF2E0130A935AA0DAB0D2E
:101E1000890B052F0130B402031DF62E0930AC00EA
:101E20002C08B400261C1A2F2908B1072A08B23D35
:101E30002B08B33D0130A836A70CA60C890B1B2F2D
:101E40000130B336B20CB10C890B212F0130B40232
:101E5000031D122F3108F2003208F3003308F4009A
:101E60003008AC002C08F5003508AD002D08F60050
:101E70009531AB2572082000A6007308A7007408EE
:101E8000A80008002000E8006508013A031DA02F03
:101E9000F201F20A68089D31E9258F3122002015F0
:101EA000200068089B310D238F31F4012000680861
:101EB0009431ED248F3120006C0A860001308700B8
:101EC000011F832F6C0A8600013087000113680808
:101ED000143E7B07E6006608860002308700010892
:101EE0009631D1268F312000E7006708DA006808B4
:101EF0009A31F6228F31F201F20A200068089D31F2
:101F0000C0258F318C2F16302000E6006608F200C5
:101F100068089A3162228F3120006808013A031D57
:101F2000962F013094313B248F31D02F2000680848
:101F3000023A031DD02F023094313B248F31D02F31
:101F40002000E508031DD02FF20168089D31E92526
:101F50008F312200201100309B310D238F31200062
:101F6000680899310B218F31013A031DBE2F2000E3
:101F7000DD01DE0168088B316A238F31F401F40A38
:101F8000200068089431ED248F3120006808013A60
:101F9000031DCC2F8C13D02F6808023A03190D12A1
:101FA000983142208F3120006508E6006608DD0088
:101FB000680888312B208F310130993158218F31B9
:101FC000013A031DFD2F99311A218F310038031D6D
:101FD0000800F20101309A314D228F312000DA01E0
:101FE0000B309831A3208F312000DA011130983165
:101FF000A3208F31A731F2270800A731F22708006C
:102000000334163417341E341F3420342A342B344E
:102010000B340C340D340E340F34103411341234AC
:10202000133414340A341534213422341834193456
:102030001A341B341C341D34233424342534263400
:1020400029342C342D342E34003401340234073436
:10205000083409340634043405342734283407346A
:102060000734303487346B34F8347F343F340934E8
:1020700000345C34A734623486348334033422342D
:10208000F83400344434B634103418341D341C345D
:10209000C7340034B234EA340A34003411345934C9
:1020A000883431340B342F342E3406340434053460
:1020B00000343034D334913441340034FE34FE34AF
:1020C000FE34FE34FE34FE34FE34FE34F400F301FC
:1020D000F501303023009200740891001513151497
:1020E0001408F2007208F3001308F2007208F500F9
:1020F000750808002100201DA0280130F00070089C
:10210000A20722082F06031D8728A20120112208FA
:102110002C060319A01D8E2820008C1321002208F4
:102120002D060319A01D962820008C1721002208D7
:102130002E06031D0800A01D080020008C130800B7
:10214000201C08000130F0007008A2072208053AA0
:10215000031D0800A20120102015A01D080020006A
:102160008C1708002100301DD8280130F0007008BD
:10217000B20732083F06031DBF28B20130113208F2
:102180003C060319B01DC62820000D12210032089C
:102190003D060319B01DCE2820000D16210032087F
:1021A0003E06031D0800B01D080020000D120800A7
:1021B000301C08000130F0007008B2073208053A00
:1021C000031D0800B20130103015B01D08002000BA
:1021D0000D16080021004F1802290130F900790876
:1021E000D00750084B3A031D0800D0014F1432307D
:1021F0002000A4000030A50003309231EC22210021
:102200004F1608000130F9007908D0075008323A1B
:102210000319D0010130D3070030D43D0430CF3E44
:1022200086008701403F323A031D1829413F003A9A
:10223000031D0800D301D401CF1C2029CF100800B2
:10224000CF140800F40074089A313822913120002C
:102250006C08860001308700011C08006C088600AD
:102260000130870001106C0A860001308700011CD4
:102270004F296C08860001308700811D08006C081A
:1022800086000130870081116C08860001308700CC
:1022900001166C08860001308700811208006C0866
:1022A000023E86000130870001146C08023E860061
:1022B00001308700011108002000E700E60123003B
:1022C0003008803A031D8F292000DD01DD0A23003C
:1022D00031082000E5006508DE0067088B316A23BD
:1022E0009131200067089831ED209131013A031DAA
:1022F0008F2964302000A4000030A5000130923105
:10230000EC2291312000DD01DD0A670888312B20A5
:102310009131A731F22791312000E601E60A200031
:10232000E608031D080067088731842791312000E3
:1023300067089131222108002000A0019931B921BC
:102340009131F80078082000A0002400541C0800F7
:102350002000A10199311A2191310038031DB629BD
:102360002000A008031DB629A101A10A2000210810
:102370002400D410031DD414D41CD729D415013043
:10238000D2070030D33D2230303E86000230870035
:10239000403F0A3A031DCE29413F003A031D080081
:1023A000D201D3015410D4108931DA210800D41D90
:1023B0000800D411D201D3010800F60076089C3140
:1023C0000E24913121006B08860001308700811CAA
:1023D00008006B0A86000130870001308107413117
:1023E0000318810A6B0A860001308700403FF40021
:1023F000413FF50000307502193003197402031CC7
:1024000008006B0A8600013087000030C03FC13FE2
:102410007608013A031D0F2A083020008C06760842
:10242000023A031D162A803020008E067608633A91
:10243000031D0800203020008D06080020008E10AB
:102440000E100E160A30F2000030F3009D31742594
:10245000923120000E120A30F2000030F3009D315C
:102460007425923120000E162830F2000030F3005F
:102470009D317425923120000E123030F80078081A
:102480002100ED00462A9A317722923120000E1D5C
:102490004C2A2100411F432AA731C92792319B3181
:1024A00024239231562A9A317722923120000E1D30
:1024B0005C2A2100411F532AA731C92720000E1092
:1024C0000E1608006330F20072082300A0000230EC
:1024D000F2007208A100A201A301A401A501A601B6
:1024E000A701A8017B088600023087000230493F1F
:1024F000A900AA017B0886000230870002304B3F0A
:10250000AB007B0886000230870002304C3FAC00F5
:102510007B0886000230870002304D3FAD007B080B
:1025200086000230870002304E3FAE007B088600F6
:102530000230870002304F3FAF00B001B101B2015D
:10254000B301D230F2007208B40008002100DC1C94
:1025500008000130DD070030DE3D63085E02031D28
:10256000B32A62085D02031C0800DD01DE01DC12F3
:1025700020008D1DBD2A2100DC162100DC1AE52A71
:10258000DF08031DE12ADC1DD12ADC116008F200FE
:102590007208DF006508E301E3076408E201E2076F
:1025A00008005C1EDF2A5C126108F2007208DF007E
:1025B0006708E301E3076608E201E2070800DC10B0
:1025C0000800DC1620008D150800DC1220008D119B
:1025D00001302100DF020800F8001430F200003062
:1025E000F30020002508F501F5072408F401F4079D
:1025F00093313F23923173082000A501A50772088B
:10260000A401A40721005C1C0800DC181B2BDC14AF
:10261000DD01DE017808F7007708DF0020002508DB
:102620002100E301E307200024082100E201E20782
:1026300020008D150800DC192D2BDC157808F7001B
:102640007708E000200025082100E501E5072000CB
:1026500024082100E401E40708005C1A08005C1665
:102660007808F7007708E100200025082100E7013D
:10267000E707200024082100E601E6070800200003
:10268000A101F31F4A2BF209F309F20A0319F30A15
:10269000A101A10AF51F552BF409F509F40A031944
:1026A000F50A0130F6007608A106A201A30173081D
:1026B00072040319842BA001A00AF31B692B0130BB
:1026C000F235F30D890B602B0130F6007608A00778
:1026D0005D2B0130A235A30D890B6A2B730875029F
:1026E000031D742B72087402031C7B2B7208F40206
:1026F0007308F53B22140130F336F20C890B7C2B66
:102700000130A002031D692B210803198C2BA2099B
:10271000A309A20A0319A30A2308F301F307220855
:10272000F201F20708002000E10061089A31382226
:10273000933120006C08023E860001308700011CA6
:1027400008006C08023E8600013087008118D12BFA
:102750006C08023E860001308700011DC02B6C080A
:10276000023E86000130870081146C08860001302B
:10277000870081146C08860001308700011508006D
:102780006C08023E86000130870001106C0886004C
:102790000130870081146C08860001308700011128
:1027A00008006C08860001308700811808006C085A
:1027B000023E86000130870081106C08023E8600D0
:1027C00001308700011061089E316A260800200050
:1027D000E5006208E3006308F20065089D314F25BB
:1027E000933120006208013A031D032C0030993117
:1027F0004821933164302000A4000030A50001304E
:102800009231EC2208002000E208031D080022009B
:102810002011200065089B310D23933120006508AD
:102820009A310F2293312000E3006308E40064082A
:10283000E3006308DA0065089A31F622933120003C
:1028400064089731362793312000E3006308DA00EB
:102850006508143E9831A320933101309931382115
:1028600093312000DD01DD0A650888312B2093318A
:10287000A731F22708002000A4002408013A031D14
:10288000672C0230A2002208F700210025089831A9
:10289000FC2094312000A30023082100A800250378
:1028A000FF3A2807373E2000A20022082100A90095
:1028B000290828072000A20022082100AA002A08CF
:1028C000053E2000A20022082100AB00A117200035
:1028D0002408023A031D08000230A2002208F70073
:1028E000210035089831FC202000A3002308210096
:1028F000B8003503FF3A3807373E2000A20022080F
:102900002100B900390838072000A2002208210060
:10291000BA003A08053E2000A20022082100BB00B0
:10292000B11708009831DF2094319931FD2194319D
:102930008631012694319831BB209431A731B327D9
:102940009431A731BF279431A731B62794319831FC
:10295000192094319831602094319831312094318C
:10296000A731B92794319A318C22943121004F1C20
:10297000C12C0530893168219431093096316D269A
:1029800094312200251CB62C25109031EA20943178
:1029900099319821943121004F1CB62C91319C2102
:1029A00094319831C72094319231A6229431A731C5
:1029B000C22794318031532094319E31F9269431CD
:1029C00098318C209431A731BC2794319831212043
:1029D000943185312F259431B62CF50075089C3142
:1029E0000E249431F408031D072D7508013A031DC8
:1029F000FB2C20008C157508023A031D012D2000C8
:102A00008E177508633A031D072D20008D16740874
:102A1000013A031D1D2D7508013A031D112D2000DB
:102A20008C117508023A031D172D20008E137508AE
:102A3000633A031D1D2D20008D1274080A3A031DF0
:102A4000412D21006B0886000130870081106B0A40
:102A50008600013087000030C03FC13F7508013A51
:102A6000031D352D20008C153B2D7508023A031DE2
:102A70003B2D20008E177508633A031D412D200061
:102A80008D1674080B3A031D080021006B088600A0
:102A9000013087008114080023002008AA3A031D92
:102AA000622D2108013A031D622D55302000E800F7
:102AB0007B08023E86000230870068088100A7314B
:102AC000F227080000309E313C2695312000E800B6
:102AD0006808E900E908031DA92D2100401F7B2D8E
:102AE0002300A008031D08002108643A031D080004
:102AF0009F312927080023003408D23A0319842D76
:102B000034080A3A031D0800A008031D0800210824
:102B1000023A031D08007B080C3E86000230870045
:102B20002C080106031D08007B080D3E86000230BC
:102B300087002D080106031D08007B080E3E860055
:102B4000023087002E080106031D08008B31F62392
:102B500008000000080075080319B32D74087304F9
:102B60007204031DC42D0030F2000030F300003069
:102B7000F40008000130F7007708F5070130F4365B
:102B8000F30CF20C890BBF2DFE3074050319DD2DFB
:102B9000BA2D0130F7007708F5070130F207003051
:102BA00003180130F307003003180130F407013037
:102BB000F436F30CF20C890BD82DFF307405031991
:102BC000EA2DC92D0130F5020130F235F30DF40D77
:102BD000890BE52DF31FE22D7518F42DFF30F2055A
:102BE0007F30F305FF30F4050310F50C7508F7008E
:102BF000F801F9011030F735F80DF90D890BFB2DAF
:102C00007708F2047808F3047908F40476080319C5
:102C10000800F417080020000D1808003B309D3113
:102C20002C25963121006F080319080020000E1290
:102C3000FF30F60076082100ED00212E9A31772230
:102C4000963120000E1D272E2100411F1E2EA73178
:102C5000C92796319B31242396319B31F22396313B
:102C600021006D08F6007608EC00F7016C08770289
:102C700003184C2E9B31F223963121006D08F6008B
:102C80007708A03E86000130870076088100013079
:102C9000F6007608F707362E9B31F2239631210095
:102CA0006D08F60076082200AE009B31F2239631C3
:102CB00021006D08F6007608E80020000E162100BD
:102CC000E81B7A14C011C01436309B316E23963144
:102CD0003A309B316E2321000800F700F801F9011A
:102CE00022005A1D0800F030F6007608F20077083E
:102CF0009B31A22396317308F901F9077208F80194
:102D0000F8077908780403190800790822005F029F
:102D1000031D8C2E78085E020318952E7908DF01BA
:102D2000DF077808DE01DE07080079086102031D6D
:102D30009B2E780860020318A42E7908E101E107B0
:102D40007808E001E007080079086302031DAA2E55
:102D5000780862020318B32E7908E301E3077808C4
:102D6000E201E207080079086502031DB92E780820
:102D700064020318C22E7908E501E5077808E4012A
:102D8000E407080079086702031DC82E7808660268
:102D9000031808007908E701E7077808E601E60765
:102DA00008002000D6000030D7002030D800423084
:102DB000D9000030A600C830A7004230A80057084C
:102DC000A9005808AA005908AB008D313925963161
:102DD00020002608D7002708D8002808D900560860
:102DE000D400D501D409D509D40A0319D50A540849
:102DF000643EA0000030553DA1009C31E82496318E
:102E000020002008A9002108AA002208AB005708CA
:102E1000A6005808A7005908A8008E318E269631C2
:102E200020002608B6002708B7002808B800983107
:102E30003920963120003608BC003708BD0038081C
:102E4000BE000030B9002830BA004230BB008331E8
:102E50006423963120003908C6003A08C7003B08B1
:102E6000C8008A315C222000460808002000D600F5
:102E70000030D7002030D8004230D9000030A60002
:102E8000C830A7004230A8005708A9005808AA0077
:102E90005908AB008D313925973120002608D7001D
:102EA0002708D8002808D9005608D400D501D4092D
:102EB000D509D40A0319D50A54082A3EA0000030C7
:102EC000553DA1009C31E824973120002008A9003D
:102ED0002108AA002208AB005708A6005808A7003E
:102EE0005908A8008D313925973120002608B600F1
:102EF0002708B7002808B8009831392097312000FA
:102F00003608BC003708BD003808BE000030B900E4
:102F1000C830BA004230BB008331642397312000AF
:102F20003908C6003A08C7003B08C8008A315C224D
:102F30002000460808002000E90069089A3138227C
:102F4000973120006C08860001308700811CC72F54
:102F500069089F31C92797310038031D08002000F8
:102F60006C0886000130870081106C0886000130F3
:102F70008700011DC12FE501E50A69088F3142274D
:102F800008002000E50169088F31422708009931C7
:102F90001A219731013A031DF32F20006C08860097
:102FA00001308700011E080069089F31C927973149
:102FB0000038031D080020006C08860001308700DF
:102FC00001126C08860001308700811EED2FE2019E
:102FD000E20A69089331E72308002000E20169084A
:102FE0009331E723080020006C0886000130870039
:102FF000011E08006C0886000130870001120800DD
:1030000036309B316E230800003022002019013039
:10301000F20072080800F33021009E00C130220047
:1030200097000800F600F401F40A76089431ED24C4
:1030300008000130A731D52798310230A731D527B4
:10304000080001308831F920983102308831F920A8
:1030500008002100C0182E28C01D0800C011C01093
:103060000800013098311220983102309831122036
:10307000080020003808370436040319080080309F
:10308000B8060800F20101309D314F259831F20158
:1030900002309D314F250800173021009700220093
:1030A0002A140A30F2007208AB0008001530F20052
:1030B00072082100EE00C830C8000030C9000800C6
:1030C0000130A731B22798310230A731B2279831A9
:1030D0008D31E2250800F4007208F3007408303ED8
:1030E0008600023087007308810008000430270042
:1030F00094000430950096018B150B100B178B175D
:10310000080033309B316E239831E830F2000330F1
:10311000F3009D317425080001308131F32198318D
:1031200002308131F32198319A31B6220800210012
:103130004F1C9F289E31992698319E31C926270021
:1031400016110B1008002000DC005A08DB005C0898
:10315000A03E8600023087005B0881000800230043
:103160001513303092009101151615158731F72788
:10317000230015110800013099316821983102307F
:103180009931682198316330993168210800013004
:103190009131DD21983102309131DD219831633058
:1031A0009131DD210800413020009800FA3097006D
:1031B00038309600210011140B178B170800A0302F
:1031C000F2007208FB00D230F2007B08143E860049
:1031D00002308700720881000800F40074089A31F8
:1031E000382220006C0A8600013087000030011868
:1031F0000130F500750808002000A0007708F800ED
:103200007808F20020089C31A524F90079082000F4
:10321000A10021080800F40074089A31232221003B
:103220006A08860001308700003081180130F500FF
:1032300075080800F201003023003F180130F20049
:10324000F208031D2729003048180130F2007208E7
:103250000800F3012300BF1C3029F301F30A3629CB
:10326000C81C36290230F2007208F3007308080007
:10327000F3007308013A003003190130F200240012
:1032800054087206FE397206D400D201D301080038
:10329000F3007308013A003003190130F200F20D17
:1032A000F20D210040087206FB397206C0000800CA
:1032B000F200F30161290030210069180130F300A8
:1032C00066297208013A03195B2966297308080008
:1032D000F60076089C310E24993121006B08860097
:1032E000013087000114F40176089431ED240800C0
:1032F00021005C0C0139F400F5017408F600750832
:10330000F7007708F301F3077608F201F2070800E7
:10331000F3007308013A003003190130F200F20D96
:10332000F20D240054087206FB397206D40008001E
:1033300022002A1C08000130AB022B08FF3A0319B7
:1033400008006430F2007208AB00803102200800EF
:10335000F500F401751CB0297208F3007308F40736
:103360000310F20D0310F50CF508031DAA297408CB
:103370000800F301F401F40A20000C1F0C1AC42900
:103380000C1C8D18C429F4017408F2007208F300B3
:1033900073080800F50100302100A0190130F30086
:1033A0000030B0190130F40073087407F20072089D
:1033B000F50075080800F301F401F40A20000C1F61
:1033C0000C1AE6290C1C8D18E629F4017408F20089
:1033D0007208F30073080800F3007308013A003024
:1033E00003190130F200F20EF20DF20D2100400837
:1033F0007206BF397206C0000800A731C52799318F
:103400009B31542399319831D320993198310B2035
:10341000993198317620993198314C200800F40088
:10342000F3017408013A031D182A210025081E2AF9
:103430007408023A031D212A21003508F20072089F
:10344000F30073080800F3007308013A031D2E2AE5
:10345000E230F20072082100EA0008007308023A24
:10346000031D0800E730F20072082100EA0008009E
:10347000F3007308013A031D432ABE30F2007208BC
:103480002000EC0008007308023A031D0800C73052
:10349000F20072082000EC000800F4005C2A7208B8
:1034A000013A003003190130F30021006908730666
:1034B000FE397306E90008007408013A03194F2A1F
:1034C000612A0800F4007408013A031D6D2A72088D
:1034D000F30073082100A50008007408023A031DD8
:1034E00008007208F30073082100B50008000130DD
:1034F0002100CD070030CE3D0D30C03E8600870153
:10350000403FA83A031D862A413F613A031D080047
:10351000CD01CE014117080092311E229A31883127
:1035200001209A319C3148249A31A731D1279A3110
:10353000A731CD279A31983181209A3198310020D6
:10354000080001302100DA070030DB3D0B30CF3EB0
:1035500086008701403FA83A031DB02A413F613AE7
:10356000031D0800DA01DB015915080021004F1C7A
:10357000080020008E1A0800C22A20008E169A31F8
:10358000A1229A3120008E1AC82A2100591DBD2A75
:10359000A731DA270800F3007308013A031DD62A81
:1035A000D030F20072082000ED0008007308023AE3
:1035B000031D0800D930F20072082000ED00080059
:1035C000F300F2017308013A031DEB2A00302100D9
:1035D000201A0130F2007308023A031DF42A003069
:1035E0002100301A0130F200720808002000DC00CF
:1035F0005C08013A031D022B5A08DB005B0821001E
:10360000A600080020005C08023A031D08005A08C2
:10361000DB005B082100B6000800F2002200A014C5
:103620002300BF107208013A031D1A2B72080319F8
:103630001A2BBF14C8107208023A031D0800720842
:1036400003190800C8140800F301083073020318B6
:1036500008002100ED1F2F2B20000E14312B20001D
:103660000E108E1403102100ED0D20008E1001307D
:10367000F2007208F307252BF60076089A313822FB
:103680007408013A003003190130F50020006C0A7B
:10369000860001308700F50EF50DF50D0108750661
:1036A000BF39750681000800773021008C00073093
:1036B0008D000C308E0022008C018D018E01223095
:1036C00023008C008D018E01773020008C000730A4
:1036D0008D000C308E0024008D010800F5002000C4
:1036E0000E127508F40074082100ED007A2B9A314F
:1036F00077229B3120000E1D802B2100411F772B4C
:10370000A731C9279B319B31242320000E160800C6
:10371000F301F4017408803AF20080307202031D54
:10372000932B053073020318080073355E3E860044
:10373000013087000030C03FC13F0130F307003047
:10374000F43D8A2BF500750821009D0072089E004B
:103750009D14AD2B9A31A1229B3121009D1CB22BCF
:10376000591DAA2BA731DA2721001C08F301F30702
:103770001B08F201F2070800F30105307302031879
:10378000080073353D3E8600013087000030C03FA1
:10379000C13F7335473E860001308700FF30C03F90
:1037A000FF30C13F0130F2007208F307BD2BF50175
:1037B000F301F30A2100201E301ADF2BF3017308F6
:1037C000F2007208F500F508031DF02BF401F40A6D
:1037D000201F301BEC2BF4017408F2007208F50076
:1037E00075080800F3010830730203180800200070
:1037F0008E1403102100ED0D20000E1D022C21005F
:103800006D14072CFE30F20072082100ED05200037
:103810008E100130F2007208F307F32BF3007308E7
:10382000013A031D182C6C30F20072082100EB00E5
:103830007308023A031D212CEC30F20072082100BB
:10384000EB007308633A031D08006830F200720849
:103850002100EB000800F601F701721C332C7408FC
:10386000F6077508F73D0130F435F50D890B342C5A
:103870000130F336F20C890B392C73087204031DE6
:103880002D2C7708F301F3077608F201F207080000
:10389000F901083079020318080079085E3E8400B7
:1038A00090300318013E85000008F7007708F80003
:1038B0007808F7007708F4003E309D310A259C31E6
:1038C0000130F7007708F907492CF600F501760872
:1038D000013A031D742CF301F30A20000C1F0C1A8B
:1038E000722CF3017308802C7608023A031D832C96
:1038F000F401F40A20000C1C8D187F2CF4017408CC
:10390000F2007208F50075080800633402340034D0
:103910000034003400340034003400340034003407
:103920000034FF34FF34FF340034003400340034FA
:1039300000340034003400340034003400340034E7
:1039400000340034003400340034F400F60172080E
:103950000319C42CF501F50AF21BB52C0310F20D66
:103960000130F3007308F507AC2C0310F60D720854
:103970007402031CBF2C7208F40276140310F20CBC
:103980000130F502031DB52C7608080090317A202D
:103990009C319031B2209C3101302200A6070030CA
:1039A000A73D0130253E860001308700403FC83AE0
:1039B000031DDC2C413F003A031DE12CA601A701A9
:1039C0002514FA30200097003830960011100800B6
:1039D0002000A501A11FF32CA009A109A00A031929
:1039E000A10AA501A50A2008F2002108F300F401AC
:1039F0008E30A3002308F5002508A4002408F60053
:103A00009531AB2572082000A0007308A10074084E
:103A1000A2000800F60020000E127608F5007508D6
:103A20002100ED00162D9A3177229D3120000E1DC8
:103A30001C2D2100411F132DA731C9279D319B311A
:103A400024239D317408F50075082100ED009B3199
:103A5000242320000E160800F50020000E12750821
:103A6000C03EF40074082100ED00392D9A31772210
:103A70009D3120000E1D3F2D2100411F362DA73105
:103A8000C9279D319B3124239D319B31F223200096
:103A90000E1621006D08F4007408EF000800F40011
:103AA0007408013A031D622D7208013A00300319AF
:103AB0000130F300F30E210020087306EF3973067E
:103AC000A00008007408023A031D08007208013AB9
:103AD000003003190130F300F30E210030087306A3
:103AE000EF397306B00008000130F4000030F50033
:103AF00073087502031D7E2D7208740203180800F6
:103B0000F601F7010030770202300319760203183C
:103B1000942D0130F6070030F73D00307702023077
:103B200003197602031C892D0130F4070030F53D9E
:103B3000782DF40074089A3138229D3120006C08E9
:103B4000860001308700811808006C08860001306B
:103B50008700011C08006C0A8600013087000114F0
:103B60006C0886000130870081156C0886000130E2
:103B7000870001166C088600013087008116080056
:103B8000F4007408013A031DD52D7208013A003083
:103B900003190130F300F30EF30DF30D210020089B
:103BA0007306BF397306A00008007408023A031DAB
:103BB00008007208013A003003190130F300F30ED7
:103BC000F30DF30D210030087306BF397306B00002
:103BD0000800F4007408013A031DFE2D7208013A32
:103BE000003003190130F300F30DF30DF30D210044
:103BF00020087306F7397306A00008007408023A1B
:103C0000031D08007208013A003003190130F30067
:103C1000F30DF30DF30D210030087306F739730629
:103C2000B0000800F3012300151330309200940116
:103C3000151295161515F301203073020318352E51
:103C40007308230091007308303E8600023087001D
:103C5000010893008731F7279E310130F200720886
:103C6000F30720307302031C202E230095128731A6
:103C7000F727230015110800F700F801F808031DC5
:103C8000532E7708023A0319532E2200DA184B2ECE
:103C9000F301F4014F2E0230F3000030F4007308FA
:103CA000F2007208F800F808031D682E7708033A3E
:103CB0000319682E2200B21A602EF501F601642E57
:103CC0000330F5000030F6007508F2007208F800C5
:103CD000780808002000E000DF0160089831ED203E
:103CE0009E312000DD005D08DF0001309931382170
:103CF0009E3120005F08013A031D08006008143E51
:103D00007B07DD005D0886000230870001089631E0
:103D1000D1269E312000DE005E08DA0060089A316C
:103D2000F6229E31F201F20A200060089D31C02582
:103D3000080021002019080020180800210E890C15
:103D40000139F000003020000D1901307006031910
:103D500008002100A2012014201E201BA014A11F76
:103D6000C22EA1132B08F0007008AF002808F00045
:103D70007008AC002908F0007008AD002A08F000B7
:103D80007008AE00A11220000D1D08002100A11630
:103D9000080021003019080030180800310E890C85
:103DA0000139F000003020000D19013070060319B0
:103DB00008002100B2013014301E301BB014B11FB6
:103DC000F22EB1133B08F0007008BF003808F00075
:103DD0007008BC003908F0007008BD003A08F00017
:103DE0007008BE00B11220000D1D08002100B116A0
:103DF00008002200A01C112FA731EB279E31013AA9
:103E000003190F2F00309E313C269E310038031DD0
:103E10000F2F99311A219E310038031D112F2200D6
:103E2000A010013097319B279E3101308C319124B5
:103E30009E310130933193239E31023097319B277D
:103E40009E3102308C3191249E3102309331932384
:103E500008002100401323002C082000DD005D082D
:103E6000DA000C309831A3209F3123002D08200068
:103E7000DD005D08DA000D309831A3209F3123006A
:103E80002E082000DD005D08DA000E309831A320F6
:103E90009F3164302000A4000030A5000130923131
:103EA000EC229F312100CF1E592F013099318821FA
:103EB0009F310130993138210800F701F80173086A
:103EC000720403198C2FF901F90AF31B712F0130C9
:103ED000F235F30D890B682F0130F6007608F907EB
:103EE000652F0130F735F80D890B722F73087502B5
:103EF000031D7C2F72087402031C832F7208F402C6
:103F00007308F53B77140130F336F20C890B842FDC
:103F10000130F902031D712F7808F301F3077708C8
:103F2000F201F2070800F900F70179089831ED2055
:103F30009F31F6007608F700F80179089A31E022FF
:103F40009F31F6007608F8007708013A031D080053
:103F5000F808031DBA2F79089A31382220006C081E
:103F600086000130870001166C088600013087004A
:103F70008116080079089A31382220006C088600E2
:103F80000130870001166C0886000130870081121D
:103F90000800F700F801F401F40AA731EB279F317C
:103FA0000038031DD72F2200A018D72FF401740862
:103FB000F3007308F800F808031DFE2F7708013A94
:103FC000031DED2FF501F50A2300471AEB2F210001
:103FD000301AEB2FF5017508FB2F7708023A031D05
:103FE000FE2FF601F60A23003E1AFA2F2100201AAE
:103FF000FA2FF6017608F3007308F8007808080035
:104F6400080021005C1408009B31BC230800983120
:104F7400562008008631C526080088310020080024
:104F840084315A2408007830210099000800210057
:104F9400CD01CE0108003A309B316E2308003B302E
:104FA4009B316E230800F40074089A312322080010
:104FB40021005911DA01DB010800FE0012001E0075
:104FC400FE0BE02F0034640080010131890BE62FD1
:104FD400003400302200B21B0130F20072080800D5
:104FE4002100401C08004015C301C4010800003022
:0C4FF4002200A0180130F2007208080032
:020000040001F9
:04000E007CF9FDFF7D
:00000001FF
