:1000000080311328640008007E14803120007F08AE
:10001000FB009E31912680319331D3237B08200051
:10002000FF007E10090080311528FC01F001F1016C
:10003000F201F301F401F501ED01A030840000307C
:10004000850050309E311E268031203084000130E2
:1000500085004E309E311E268031A0308400013054
:10006000850040309E311E2680313C308400923025
:100070008500203086000230870020309E3118260F
:100080007E10200095316D2DFA007A089031E32022
:1000900080317508860001308700011CA4280130DA
:1000A000F8007508033E8600013087007808810754
:1000B0007308023E860087017508043E8400013003
:1000C000850000080107F800F901F90D7508033EE5
:1000D0008600013087007908803A803C031D722831
:1000E00078080102031CB2297508033E860001301E
:1000F00087008101750886000130870001107508AE
:10010000860001308700011FB2297508083E86006D
:100110000130870001147508083E86000130870011
:1001200081167A08013A031D972820000D167A08D7
:10013000023A031D9D2820008C177A08033A031DFC
:10014000B22920008D14B2297508083E86000130BE
:100150008700011CB2297508083E8600013087001F
:1001600001107508860001308700811CB22901301A
:10017000F800750A86000130870078088107750A43
:100180008600013087007508023E8400013085003A
:1001900000080102031CB229750A8600013087009D
:1001A00081017508860001308700811D0D297508C1
:1001B000860001308700011AF4287508043E860085
:1001C0000130870009300102031CEE287508043E47
:1001D00086000130870001308102B229750886004F
:1001E000013087000116B2297508043E86000130EF
:1001F00087003C300102031807290130F800750818
:10020000043E86000130870078088107B22975080E
:100210008600013087000112B2297508860001307E
:100220008700011D54297508053E860001308700AE
:100230007508043E8400013085000008010203189F
:1002400029297508043E86000130870001308102AB
:1002500040297508043E8600013087007508053E78
:100260008400013085000008010203184029013094
:10027000F8007508043E8600013087007808810781
:100280007508053E8600013087007508043E84002D
:100290000130850000080106031DB229750886009B
:1002A0000130870001116F29750886000130870031
:1002B000811E75297508043E8600013087000130D3
:1002C00081027508053E8600013087007508043EEE
:1002D00084000130850000080102031CB229750862
:1002E0008600013087008110B2290130F8007508BE
:1002F000043E860001308700780881077508043EB7
:100300008600013087007508063E840001308500B4
:1003100000080102031CB22975088600013087001D
:100320008110750886000130870001137508093EA9
:1003300086000130870001157308860087010114CB
:100340007A08013A031DA62920008E137A08023A82
:10035000031DAC2920008C117A08033A031DB22931
:1003600020000E137508083E860001308700811EAC
:10037000E9290130F8007508073E86000130870042
:10038000780881077508073E860001308700053030
:100390000102031CE9297508073E86000130870029
:1003A00081017508083E86000130870081127A08B5
:1003B000013A031DDD2920000D127A08023A031DBF
:1003C000E32920008C137A08033A031DE929200051
:1003D0008D107508093E860001308700811E0800D7
:1003E0000130F80075080A3E860001308700780861
:1003F000810775080A3E8600013087000108463AE9
:10040000031D080075080A3E86000130870081013F
:100410007508093E8600013087008112080020001F
:10042000EA006A0891318621823120006D08860039
:1004300001308700011C08006A08013A031D282AC0
:100440006D0886000130870081100C188114412A44
:1004500020006A08023A031D352A6D088600013023
:10046000870081100C1B8114412A20006A08033A7E
:10047000031D412A6D0886000130870081100C1A87
:10048000811420006D08860001308700811C0C2B30
:100490006D0886000130870001196F2A0130E800DD
:1004A0006D08023E860001308700680881076D08EC
:1004B000023E86000130870005300102031C08005F
:1004C0006D08023E86000130870081016D088600BC
:1004D0000130870001156A088C3181240800200052
:1004E0006D0886000130870081199C2A6D08033E43
:1004F0008600013087000130810741310318810AED
:100500006D08033E860001308700403FE800413F10
:10051000E90000306902963003196802031C0800E4
:100520006D08033E8600013087000030C03FC13FA8
:100530006A088831C620080020006D088600013056
:100540008700011ADA2A6D08053E8600013087000F
:100550000130810741310318810A6D08053E86008C
:1005600001308700403FE800413FE9000030690268
:10057000963003196802031C08006D08053E8600CA
:10058000013087000030C03FC13F6D088600013058
:100590008700011601309E313B2682312100A01FC9
:1005A000080064302000A9000030AA000230973112
:1005B000A727080020006D08860001308700811AF7
:1005C00008006D08073E8600013087000130810772
:1005D00041310318810A6D08073E8600013087000B
:1005E000403FE800413FE900013069022C30031927
:1005F0006802031C08006D08073E86000130870072
:100600000030C03FC13F6D08860001308700811671
:1006100000309E313B26080020006D088600013026
:100620008700011D08000130E8006D08023E8600C9
:1006300001308700680881076D08023E860001309E
:10064000870005300102031C08006D08023E860089
:100650000130870081016D0886000130870001119B
:100660006D08033E8600013087000030C03FC13F67
:100670006D0886000130870081116D08053E8600F7
:10068000013087000030C03FC13F6D088600013057
:10069000870001126D08073E860001308700003098
:1006A000C03FC13F6D0886000130870081126A0893
:1006B0008B312B23823100309E313B2608002000F5
:1006C0003E08C4003F08C5004008C6000310450DA1
:1006D000460DC7004708CA004108C4004208C500CB
:1006E0004308C6000310450D460DC7004708C90062
:1006F0004A080319872B49084A0203188E2B4A031C
:10070000FF3A4907C40019304402031C8E2B4108EC
:10071000BE004208BF004308C00008004908031992
:1007200008004A08490203189D2B4903FF3A4A076B
:10073000C40019304402031808000630C4004408FD
:10074000C800C01BC817C31B4817BF17FF30BE0522
:10075000FF30BF050030C005C217FF30C105FF30B4
:10076000C2050030C30549084A020318D92B0130DD
:10077000C135C20DC30D890BB82B0130C902490820
:100780004A060319D42B0130C80248080739031957
:10079000D42BB72B0130C036BF0CBE0C890BCB2B32
:1007A0000130C4004408CA074A0849060319FE2B51
:1007B000CA2B4A0849020318FE2B0130BE35BF0D73
:1007C000C00D890BDE2B0130CA0249084A06031905
:1007D000FA2B0130C802480807390319FA2BDD2B20
:1007E0000130C336C20CC10C890BF12B0130C4009F
:1007F0004408C9074A084906031DF02BC81F102CDE
:10080000FF30BE06FF30BF06FF30C0060130BE0716
:10081000003003180130BF07003003180130C00753
:10082000481F222CFF30C106FF30C206FF30C3062E
:100830000130C107003003180130C207003003182F
:100840000130C307C8013E08C1073F08C23D400848
:10085000C33DC31F3D2CFF30C106FF30C206FF3031
:10086000C3060130C107003003180130C207003051
:1008700003180130C307C801C80A4108A000420894
:10088000A1004308A2004A08C4004408A300480885
:10089000C5004508A4008931262120002008BE009B
:1008A0002108BF002208C000080021003E1C0800EB
:1008B0009F3182278431200021082004031D080075
:1008C000EB01EB0A0C1C0C1B672C0C1EEB016B08DC
:1008D0002100BE13031DBE17BE1B3E1B732CC0019F
:1008E000BF14BE110800BF183E1B832C013020002E
:1008F000E70067082100C00740084306031DDE2CFF
:10090000C001BF10DE2CC001BF103E193E1B8F2C52
:100910003E11BE11BE10893187218431DE2CBE1DEF
:10092000CD2C8C310B2484312100BE1CDE2CBE105A
:10093000BF12C501C6018931EB2184312100BF14EA
:10094000203020008D062100BF1DB22C153043023F
:10095000031CB02C14302000E70067082100C300FE
:10096000C101DE2C01302000E70067082100C1072B
:100970004108023A031DDE2CC101C2013F1AC22CFC
:100980003F16DE2C643043020318DE2C0A302000B0
:10099000E70067082100C307DE2CBE1DBE18DE2C51
:1009A000BE15BF1636309031FD2084313A3090317B
:1009B000FD20843134309031FD20843121003F1EF0
:1009C000072D01302000E70067082100C207430817
:1009D0002000E700E8016708A0006808A1000A30CD
:1009E000A2000030A3009131C021843121004208CF
:1009F0002000E900EA0121086A06031D012D2008F4
:100A00006906031D312D2100C2013F12312D153021
:100A10004302031C312D01302000E700670821004C
:100A2000C20743082000E700E8016708A000680843
:100A3000A1000A30A2000030A3009131C02184310E
:100A4000210042082000E900EA0121086A06031D8E
:100A50002B2D20086906031D312D2100C2010A300B
:100A6000C3022100BF1E08000130C5070030C63D8B
:100A7000EA304602603003194502031C0800C50134
:100A8000C601BE11BE1008002000DE011F309131EA
:100A900017218531AA3A031DB62D00309131172157
:100AA00085312000DD006C080C3E86000230870096
:100AB0005D08810001309131172185312000DD0072
:100AC0006C080D3E8600023087005D088100023010
:100AD0009131172185312000DD006C080E3E860023
:100AE000023087005D088100083096317826853114
:100AF0002000DD005D08DE005E08DD006C08153EAC
:100B00008600023087005D0881005E08DD006C0809
:100B1000163E8600023087005D0881005E08DD0019
:100B20006C08173E8600023087005D0881006C0863
:100B30000C3E8600023087000108FF3A031D0800C2
:100B40006C080D3E8600023087000108FF3A031D45
:100B500008006C080E3E8600023087000108FF3A4C
:100B6000031D08002100A016A017080008309631C8
:100B7000782685312000DD005D08DE00FF30DD00D5
:100B80005D082300A000FF302000DD005D08230089
:100B9000A100FF302000DD005D082300A200FF302F
:100BA0002000DD005D082300A300FF302000DD00F1
:100BB0005D082300A400FF302000DD005D08230055
:100BC000A500AA302000DD005D082300BF00200042
:100BD0005E08DD006C08153E8600023087005D0867
:100BE00081005E08DD006C08163E8600023087003A
:100BF0005D0881005E08DD006C08173E860002304B
:100C000087005D0881008B1394312B248B17210002
:100C1000A016A017080021003E1C08003E15143045
:100C20002000A00020082100C30063302000A000A5
:100C300020082200A00002302000A000200822008E
:100C4000A10020006C088600023087000230423F7D
:100C50002200A20020006C088600023087000230CB
:100C6000433F2200A30020006C088600023087006A
:100C70000230443F2200A40020006C0886000230AD
:100C800087000230453F2200A50020006C08860046
:100C9000023087000230463F2200A60020006C0888
:100CA0008600023087000230473F2200A700200064
:100CB0006C088600023087000230483F2200A800FE
:100CC00020006C088600023087000230493F220075
:100CD000A90020006C0886000230870002304A3FDD
:100CE0002200AA0020006C08860002308700023033
:100CF0004B3F2200AB0020006C08860002308700CA
:100D000002304C3F2200AC0020006C08860002300C
:100D1000870002304D3F2200AD0020006C088600A5
:100D20000230870002304E3F2200AE0020006C08E7
:100D300086000230870002304F3F2200AF002000C3
:100D40006C088600023087000230503F2200B0005D
:100D500020006C088600023087000230513F2200DC
:100D6000B10020006C088600023087000230523F3C
:100D70002200B20020006C0886000230870002309A
:100D8000533F2200B300D3302000A00020082200EF
:100D9000B400080020002E08B4002F08B500300869
:100DA000B6000310350D360DB7003708B800B80887
:100DB000031DE12E0030AE000030AF000030B00067
:100DC00008003108B4003208B5003308B60003103B
:100DD000350D360DB7003708BD00BD08031DF72ED1
:100DE0000030AE000030AF000030B00008003D0819
:100DF0007B3EB4003408B8072E08B4002F08B500B5
:100E00003008B6001030B636B50CB40C890B032F81
:100E10003408B7003708BD003108B4003208B50007
:100E20003308B6001030B636B50CB40C890B132F4E
:100E30003408B7003708BD068030B4003408BD055B
:100E4000AF17B217FF30B105FF30B2050030B30560
:100E50000030B9000030BA000030BB000730B400E9
:100E60003408BC002E1C3A2F3108B9073208BA3DAD
:100E70003308BB3D0130B036AF0CAE0C890B3B2FB5
:100E80000130B135B20DB30D890B412F0130BC02D9
:100E9000031D322F0930B4003408BC002E1C562F1D
:100EA0003108B9073208BA3D3308BB3D0130B036CE
:100EB000AF0CAE0C890B572F0130BB36BA0CB90CF6
:100EC000890B5D2F0130BC02031D4E2F3908A00095
:100ED0003A08A1003B08A2003808B4003408A30077
:100EE0003D08B5003508A4008931262120002008DE
:100EF000AE002108AF002208B00008002000A500C5
:100F0000250891313121873120002508A400730A7A
:100F100086008701240881002308013A031DD02F91
:100F200074088600013087008116A10125088B31E5
:100F30009A238731740886000130870081140730B6
:100F40002000A4007408023E8600013087002408B7
:100F500081007408860001308700011B08007408B6
:100F60008600013087000117003090319C20740802
:100F7000053E86000130870001082000A4007408A7
:100F8000043E860001308700240881000830A40058
:100F90007408043E860001308700240881000800A0
:100FA000740886000130870081127408063E8600AE
:100FB000013087000108A4007408043E8600013057
:100FC000870024088100740886000130870081149E
:100FD0007408860001308700811174088600013092
:100FE000870001120730A4007408023E8600013019
:100FF000870024088100080078302100990008004B
:10100000013082310F228831023082310F22883143
:10101000033082310F2208002000DB000030DC00AA
:101020005030DD004230DE000030AE00C830AF008E
:101030004230B0005C08B1005D08B2005E08B30049
:101040008E31A826883120002E08DC002F08DD0014
:101050003008DE005B08D900DA01D909DA09D90ABB
:101060000319DA0A5908643EA80000305A3DA90065
:1010700092317D22883120002808B1002908B20071
:101080002A08B3005C08AE005D08AF005E08B0003F
:101090008631CA26883120002E08C1002F08C200E0
:1010A0003008C3000030BE000030BF004130C00037
:1010B00083315F23883120003E08CB003F08CC00FD
:1010C0004008CD008D31072520004B080800200086
:1010D000AE002E089131692188317208860087019F
:1010E000011C080020002A08013A003003190130D1
:1010F000AC00720886008701AC0D01082C06FD3992
:101100002C0681002A08013A031DAF282B089331D1
:10111000A92388312000AC007208860087012C08C2
:1011200081000F302B05AC002C08053A03199C28D0
:101130002B080F39031DA22826302B020318A228E2
:101140002B08A3280530AC002E081A3E6C07AD0012
:101150002D088600023087002C088100BB28AA08D1
:10116000031DBB282E081A3E6C07AC002C08860015
:101170000230870081017208860087010030C03F7D
:10118000C13F720886008701810108002000A90084
:10119000A801A80A2908013A031DD928A50122009F
:1011A000D41DE319D6282000A501A50A2000250892
:1011B000F6282908023A031DE828A6012200C51DC9
:1011C000E319E5282000A601A60A20002608F62833
:1011D0002908033A031DF928A7012200C51DD419C7
:1011E000F4282000A701A70A20002708A40024084B
:1011F000A8002808013A031D08006D088600013088
:101200008700811F08006D08860001308700811566
:101210006D0A86000130870001146D0886000130D8
:1012200087000117A201A20A29089E31C62688312B
:101230002000A201A20A29089F31612788312000DD
:10124000A201A20A29089F31512708002000230883
:1012500003192F29220821042004031D40290030EE
:10126000A0000030A1000030A20008000130A5005D
:101270002508A3070130A236A10CA00C890B3B293D
:10128000FE3022050319592936290130A500250809
:10129000A3070130A007003003180130A107003078
:1012A00003180130A2070130A236A10CA00C890B53
:1012B0005429FF3022050319662945290130A3026C
:1012C0000130A035A10DA20D890B6129A11F5E2956
:1012D00023187029FF30A0057F30A105FF30A2053B
:1012E0000310A30C2308A500A601A7011030A53503
:1012F000A60DA70D890B77292508A0042608A104AF
:101300002708A204240803190800A21708002000D7
:101310000E127F30A40024082100D30092299031BE
:101320007220893120000E1D982921002F1D8F2940
:101330009E310D2689319031CA208931210054080F
:101340002000A40024082100D3009031CA20893154
:101350002000A50121005408200025020318C329FC
:101360002508203E8600013087000108A4002408DB
:101370002100D3009031CA20893101302000A4001F
:101380002408A507AA290E1635309031FD20893191
:10139000CC2990317220893120000D18D2292100EA
:1013A0002F1DC9299E310D268931D92990317220EE
:1013B000893120000D1CDF2921002F1DD6299E31E7
:1013C0000D26893136309031FD2089313B30903106
:1013D000FD20FC14080021003E1FFE292200A00869
:1013E000031DFB292108643A031DFB2994315A246B
:1013F0002100BF1508002100BF1108002200A0082D
:10140000031D3C2A2108023A031D3C2A2C08FF3AFE
:10141000031D162A2D08FF3A031D162A2E08FF3A2F
:10142000031D162A00002100BF11080020006C08CF
:101430000C3E86000230870022002C080106031DA6
:10144000080020006C080D3E860002308700220054
:101450002D080106031D080020006C080E3E8600C2
:101460000230870022002E080106031D08008F317C
:1014700051272100BF15080022002008FF3A031D54
:10148000472A2108023A031D472A000008002200CB
:10149000A008031D512A2108653A031D512A0000A6
:1014A00008002100BF1108002000E4006408913109
:1014B00069218A31720886008701811C0800720840
:1014C000860087010130810741310318810A7208C3
:1014D00086008701403F2000E200413FE3001630D4
:1014E0006302123003196202031C080072088600AE
:1014F00087010030C03FC13F0130E2007208860022
:1015000087016208810772088600870172088400DB
:10151000850100080102031C08007208860087018B
:1015200081017208860087018110A20164089E3142
:10153000D5268A312000A20164089E31C6268A3150
:101540002000DD0164088A31BF228A312000A20117
:10155000A20A64089F3121278A312000A201640871
:101560009F3111278A3186310B268A316430200061
:10157000A9000030AA0001309731A72708002000F9
:10158000E100E001E00A6108FF3E890AC92A031070
:10159000E00DFF3E031DC72A6108DE006C080B3E0C
:1015A0008600023087005E08810008309631782678
:1015B0008A312000DE006108143E6C07DF005F08FE
:1015C0008600023087005E0881006108143E6C07C7
:1015D000DE005E088600023087000108DF006C082C
:1015E000093E8600023087005F08810061081A3ECC
:1015F0006C07DE005E088600023087000108DF000D
:101600006C08113E8600023087005F0881005D088B
:10161000013A031D1B2B6C080F3E86000230870029
:1016200001086004DE006C080F3E8600023087006F
:101630005E08810008006C080F3E860002308700BB
:1016400060090105DE006C080F3E8600023087004D
:101650005E08810008002000E4006D08860001306B
:101660008700811F08006D08860001308700811304
:101670006D08860001308700011F762B6D0A8600F9
:1016800001308700011C08006D0A860001308700C8
:101690000110A201A20A64089F3161278B3120004A
:1016A000A20164089F3151278B31200064081A3E43
:1016B0006C07E20062088600023087000108E30040
:1016C0006C08113E860002308700630881006D08B7
:1016D0008600013087000030011B0130DD00640806
:1016E0008A31BF228B3186310B2608002000A201EF
:1016F000A20A64089F3121278B312000A2016408CF
:101700009F3111278B312000AA01AB016408883179
:1017100067208B3120006D08860001308700003083
:10172000011B0130DD0064088A31BF228B31863114
:101730000B2608002000A2002208933130238B31B1
:101740002000A108031DBC2B2208013A031DAA2B6F
:101750008E1708002208023A031DB02B8C150800D2
:101760002208033A031DB62B0E1708002208633A1D
:10177000031D08008D1608002108013A031DD82B0F
:101780002208013A031DC62B8E1308002208023AD4
:10179000031DCC2B8C1108002208033A031DD22B09
:1017A0000E1308002208633A031D08008D1208007A
:1017B00021080A3A031D012C700886007108870071
:1017C0008110700886007108870041310030C03FE9
:1017D000C13F2208013A031DEF2B8E170800220893
:1017E000023A031DF52B8C1508002208033A031D4D
:1017F000FB2B0E1708002208633A031D08008D1604
:10180000080021080B3A031D0800700886007108C3
:1018100087008114080020000D18122C1B2C903119
:1018200072208C3120000D1C182C21002F1D0F2C34
:101830009E310D268C313B309231E5228C312100D6
:1018400057080319080020000E12FF30A4002408D6
:101850002100D300312C21002F19342C903172201B
:101860008C3120000E192B2C21002F197B2C90314C
:10187000CA208C319131A3218C31210053082000E2
:10188000A40024082100D2002000A5012100520854
:101890002000250203185F2C9131A3218C312100F7
:1018A00053082000A4002508203E86000130870050
:1018B000240881000130A4002408A507462C91319A
:1018C000A3218C31210053082000A400240821000A
:1018D000D1009131A3218C31210053082000A400B4
:1018E00024082100CB0020000E162100CB1B7C1405
:1018F000BE11BE147D2C20000E169E310D26210037
:1019000008002000E700E601E60A6708013A031D27
:10191000942CE3012200D41DE319912C2000E30153
:10192000E30A20006308B12C6708023A031DA32CC8
:10193000E4012200C51DE319A02C2000E401E40A03
:1019400020006408B12C6708033A031DB42CE5019C
:101950002200C51DD419AF2C2000E501E50A2000A6
:101960006508E2006208E6006608013A031D080007
:101970006D0886000130870081176430A9000030AF
:10198000AA0001309731A7278C3120006D0886000E
:1019900001308700011BF52C6D088600013087009F
:1019A0000117A201A20A67089E31C6268C312000C9
:1019B000A201A20A67089F3121278C312000A201D1
:1019C000A20A67089F3111278C3120006D0886001C
:1019D000013087000030011B0130DD0067088A31CB
:1019E000BF228C3186310B26080020006D0886004E
:1019F0000130870001136D08860001308700003038
:101A0000011B0130A20067089E31C6260800200095
:101A10004B08CF004C08D0004D08D1000310500DEA
:101A2000510DD2005208D800D808031D202D0030D7
:101A3000CE000030CD000030CC000030CB000800DC
:101A40004B08CF004C08D0004D08D1001730D136DC
:101A5000D00CCF0C890B272D4F08D2005208D30091
:101A6000CC17FF30CB05FF30CC050030CD054B083F
:101A7000D4004C08D5004D08D600D7018E30D802CE
:101A8000D81F5E2D5808803A8F3E0318502D003025
:101A9000CE000030CD000030CC000030CB0008007C
:101AA0000130D736D60CD50CD40C890B512D013012
:101AB000CF004F08D8070319772D502D1830580242
:101AC000031C742D0030CE000030CD000030CC005F
:101AD0000030CB0008000130D435D50DD60DD70D20
:101AE000890B6C2D0130D802D808031D6B2D5308CB
:101AF0000319852DD409D509D609D709D40A0319A4
:101B0000D50A0319D60A0319D70A5708CE00560872
:101B1000CD005508CC005408CB0008002000EA0096
:101B2000E901E90A6A08913131218D3120006A0802
:101B3000013A031DA62DE60122005519641DA32DAF
:101B40002000E601E60A20006608C32D6A08023A72
:101B5000031DB52DE70122004619641DB22D20009A
:101B6000E701E70A20006708C32D6A08033A031D4E
:101B7000C62DE80122004619551DC12D2000E8019F
:101B8000E80A20006808E5006508E9007408083ED6
:101B9000860001308700011DEA2D6908013A031D06
:101BA00008007408083E860001308700011174089F
:101BB000083E860001308700811CE42DA301A30AA2
:101BC0006A0887317E2708002000A3016A08873150
:101BD0007E2708007408083E860001308700011E39
:101BE000080020006908013A031D08007408083E37
:101BF00086000130870001127408083E860001301B
:101C00008700811D122EE201E20A6A089531302513
:101C10008D3164302000A9000030AA0001309731D6
:101C2000A72708002000E2016A0895313025080046
:101C30002000E300630892311C228E3121005008FD
:101C40008600870101185A2E22003008803A031DB1
:101C5000362E2000AA01AA0A220031082000E20044
:101C60006208AB006308883167208E31210050087C
:101C70008600870101142000A201A20A63089E3198
:101C8000D5268E312000A201A20A63089F312127A8
:101C90008E312000A201A20A63089F3111278E31E4
:101CA0002100500886008701003001180130200013
:101CB000DD00982E22003008803A031D702E20008F
:101CC000AA01AA0A220031082000E2006208AB0043
:101CD0006308883167208E312000DD01DD0A982EEF
:101CE000210050088600870101102000A20163082E
:101CF0009E31D5268E312000A201A20A63089F31B1
:101D000021278E31210050088600870100300118FC
:101D100001302000A20063089F3111278E3120007E
:101D2000AA01AB016308883167208E312000DD01F4
:101D300063088A31BF228E3164302000A900003050
:101D4000AA0001309731A7278E3186310B26080073
:101D500020003108B4003208B5003308B600031083
:101D6000350D360DB7003708BC00BC08031DBF2E6B
:101D70000030AE000030AF000030B00008002E0888
:101D8000B4002F08B5003008B6000310350D360D2D
:101D9000B7003708BD00BD08031DD52E0030AE00CA
:101DA0000030AF000030B00008000030B900003053
:101DB000BA000030BB0089303D07B4003408BC02D3
:101DC0003108B4003208B5003308B6001030B6361A
:101DD000B50CB40C890BE72E3408B7003708BD00EA
:101DE0002E08B4002F08B5003008B6001030B63603
:101DF000B50CB40C890BF72E3408B7003708BD06B4
:101E00008030B4003408BD05B217FF30B105FF3093
:101E1000B2050030B305AF17FF30AE05FF30AF0598
:101E20000030B0051830B4003408B8000130B935BE
:101E3000BA0DBB0D890B172F30083302031D262F57
:101E40002F083202031D262F2E083102031C2F2FCC
:101E50002E08B1022F08B23B3008B33B39140130D1
:101E6000B135B20DB30D890B302F0130B802031D0F
:101E7000162F3908A0003A08A1003B08A2003C0830
:101E8000B4003408A3003D08B5003508A40089312A
:101E9000262120002008AE002108AF002208B00053
:101EA00008002200AF08031DAF2F2000A30101305E
:101EB00087317E278F312000A20101309E31C62656
:101EC0008F312000A20101309E31D5268F312000B4
:101ED000A301023087317E278F312000A20102301A
:101EE0009E31C6268F312000A20102309E31D526B8
:101EF0008F312000A301033087317E278F312000EE
:101F0000A20103309E31C6268F312000A20103308A
:101F10009E31D5268F3120006C08093E86000230A4
:101F2000870081016C080B3E86000230870081012A
:101F30006C080F3E86000230870081016C08113E5C
:101F400086000230870081016430A9000030AA00B9
:101F500001309731A7278F3186310B2608002200E8
:101F60002F08203A031DCA2F20006C08093E860066
:101F70000230870081016C080B3E8600023087002A
:101F800081016C08113E8600023087008101863194
:101F90000B26080022002F08013A031DD32F013021
:101FA0008E311826080022002F08113A031DDC2F5D
:101FB00001309431F524080022002F08023A031D55
:101FC000E52F02308E311826080022002F08213A12
:101FD000031DEE2F02309431F524080022002F0853
:101FE000033A031DF72F03308E3118260800220014
:101FF0002F08313A031D080003309431F5240800FE
:102000000334163417341E341F3420342A342B344E
:102010000B340C340D340E340F34103411341234AC
:10202000133414340A341534213422341834193456
:102030001A341B341C341D34233424342534263400
:1020400029342C342D342E34003401340234073436
:10205000083409340634043405342734283407346A
:102060000734303487346B34F8347F343F340934E8
:1020700000345C34A734623486348334033422342D
:10208000F83400344434B634103418341D341C345D
:10209000C7340034B234EA340A34003411345934C9
:1020A000883431340B342F342E3406340434053460
:1020B00000343034D334913441340034FE34FE34AF
:1020C000FE34FE34FE34FE34FE34FE342300151399
:1020D000303092009101151615159E3143262300CC
:1020E0001511080001302100B0070030B13D10305B
:1020F000A03E86008701403F103A031D8128413FE2
:10210000273A031D0800B001B1012F1508009531D1
:10211000F025903193317F2390319131DE21903140
:102120009E31052690319E31012690319E316D26DB
:1021300090319E31092608002000A20022082300C9
:10214000C410031DC4142000A208031D08002208A7
:10215000A000A10120082300C200200021082300C4
:10216000C3000800773021008C0005308D000C3052
:102170008E0022008C018D018E01023023008C0024
:102180008D018E01773020008C0005308D000C30E1
:102190008E0008002000A101083021020318080069
:1021A0002100D31FD62820000E14D82820000E109E
:1021B0008E1403102100D30D20008E100130A000DA
:1021C0002008A107CC28F7007708013A031DEC2866
:1021D0003D30F6007608F5007708023A031DF42832
:1021E0004C30F6007608F5007708033A031D080026
:1021F0005B30F6007608F50008002000A3000E1200
:102200002308A20022082100D3000929903172205E
:10221000903120000E1D0F2921002F1D06299E310F
:102220000D2690319031CA2020000E1608002000A3
:10223000A200A101A3013030230092002000220857
:10224000230091001513151414082000A000200885
:10225000A100230013082000A0002008A3002308E9
:1022600008002000A1002108013A031D3B293D3050
:10227000A0002008F4002108023A031D43294C3035
:10228000A0002008F4002108033A031D08005B3079
:10229000A0002008F4000800F7007708013A031DA9
:1022A00056293D30F60076082100CF007708023A23
:1022B000031D5F294C30F60076082100CF00770817
:1022C000033A031D08005B30F60076082100CF00BA
:1022D00008002000A1002108013A031D7429E730FD
:1022E000A0002008F20008002108023A031D7D2901
:1022F000E930A0002008F20008002108033A031D7D
:102300000800EB30A0002008F20008002000A10027
:102310002108013A031D9129C530A0002008ED00D5
:1023200008002108023A031D9A29CE30A000200897
:10233000ED0008002108033A031D0800D730A00073
:102340002008ED0008002000A10108302102031838
:1023500008008E1403102100D30D20000E1DB32998
:1023600021005314B929FE302000A00020082100CC
:10237000D30520008E100130A0002008A107A52958
:102380002000A401A501201CC9292208A4072308B4
:10239000A53D0130A235A30D890BCA290130A13614
:1023A000A00C890BCF2921082004031DC32925086F
:1023B000A101A1072408A001A00708002000A7018F
:1023C000083027020318080027085E3E840090307A
:1023D0000318013E85000008A5002508A600260870
:1023E000A5002508A2003E3092319F229131013094
:1023F0002000A5002508A707E0292300C41C080029
:10240000441C1A2A0130C2070030C33D2230A03ECE
:10241000860001308700403F193A031D112A413FD1
:10242000003A031D0800C201C3014410C4109631D4
:1024300034260800C41008002000A1002108013A39
:10244000031D272AED30A00020082100D000200025
:102450002108023A031D312AEE30A0002008210095
:10246000D00020002108033A031D0800EF30A0002F
:1024700020082100D0000800633402340034003406
:1024800000340034003400340034003400340034AC
:10249000FF34FF34FF34003400340034003400349F
:1024A000003400340034003400340034003400348C
:1024B00000340034003400343D302000A4002408EF
:1024C0002100CC0001309331FE2392314C302000AA
:1024D000A40024082100CD0002309331FE23923164
:1024E0005B302000A40024082100CE00033093318B
:1024F000FE2392319E31122608002000AD01A91F53
:10250000882AA809A909A80A0319A90AAD01AD0AD0
:102510002808A0002908A100A2018E30AB002B08DA
:10252000A3002D08AC002C08A4008931262120002E
:102530002008A8002108A9002208AA0008002000FD
:10254000A4000E122408A30023082100D300AB2A04
:1025500090317220923120000E1DB12A21002F1DD2
:10256000A82A9E310D2692319031CA209231200046
:102570002208A30023082100D3009031CA202000A4
:102580000E1608002000E0006008913131219231E0
:102590007408860001308700011574088600013038
:1025A0008700811420006C08093E860002308700F5
:1025B000010888310C202000DF007408053E8600E9
:1025C000013087005F08810008002000A3000E1280
:1025D0002308C03EA20022082100D300F22A903135
:1025E0007220923120000E1DF82A21002F1DEF2AA3
:1025F0009E310D2692319031CA2092319131A32122
:1026000020000E16210053082000A20022082100FD
:10261000D700080001302000A2000030A3002108EC
:102620002302031D152B2008220203180800A40111
:10263000A5010030250202300319240203182B2BB8
:102640000130A4070030A53D0030250202300319F7
:102650002402031C202B0130A2070030A33D0F2BC6
:102660002000A0002008013A031D3B2BDC30F000C5
:102670000030F10008002008023A031D442BE0302E
:10268000F0000030F10008002008033A031D4D2B34
:102690006A30F0000130F10008002008633A031DA1
:1026A0000800D830F0000030F10008002000A2003F
:1026B000013091318621933120006D088600013070
:1026C000870022080110031D011402309131862178
:1026D000933120006D088600013087002208011028
:1026E000031D011403309131862120006D088600FE
:1026F0000130870022080110031D0114080020008A
:10270000A8012F302802031808002808003E840082
:1027100090300318013E85000008A5002508A6009A
:1027200028082F3E840090300318013E85000008E1
:10273000A5002508A7002708A5002508A20026084F
:1027400092319F22933101302000A5002508A8076F
:10275000812B2000A9000530A4002408A600A701B1
:10276000A801313029020318D12B29080F39A40000
:102770002408A7002908A4000430A436890BBD2B27
:1027800024080F39A5002508A8000A30A400240851
:10279000A00028089F31B62720002707A50025089C
:1027A000A600260808008B1E08000B1D08004230FA
:1027B000200095000B11013080314420933102300C
:1027C00080314420933103308031442093310130F3
:1027D0002200B6070030B73D0130353E860001309B
:1027E0008700403F643A031DF72B413F003A031D29
:1027F0000800B601B7012100A01408002000A300C2
:102800002308913131217408093E86000130870088
:10281000011508302000A2007408053E8600013032
:102820008700220881003C30A2007408063E860022
:1028300001308700220881007408063E86000130BE
:1028400087000108A2007408043E8600013087005A
:102850002208810008002000A10123001513303058
:10286000920094011512951615152000A101203033
:1028700021020318532C2108230091002000210875
:10288000A03E8600013087000108230093009E319E
:102890004326943101302000A0002008A1072030F9
:1028A0002102031C3B2C230095129E31432623005A
:1028B0001511080022002C082000AD006C080C3E09
:1028C0008600023087002D08810022002D0820009C
:1028D000AD006C080D3E8600023087002D08810097
:1028E00022002E082000AD006C080E3E860002304B
:1028F00087002D0881006430A9000030AA00013053
:102900009731A727943121003E13A01F892C230063
:102910004415230044140800F800780891314C2134
:10292000943121004F08860001308700011808000B
:102930004F08093E860001308700811A08004F08C1
:1029400086000130870001144F08093E86000130DF
:102950008700811620000D1DB42C7308023E8600EE
:1029600087018101810AB92C7308023E8600870124
:1029700081017808013A031D080020308D06080007
:102980002000E300653022002902031CCD2C6430B6
:102990002000E10061082200A90029082000E100D0
:1029A0006C08093E860002308700610881006308D8
:1029B000E1006C080B3E8600023087006108810050
:1029C0006C08093E8600023087000108E1006308B8
:1029D000143E6C07E200620886000230870061083E
:1029E000810063089231C22208002000E6006608D8
:1029F00092311C2294312100500886008701011C6D
:102A0000092D23004414200066089431C024943119
:102A10001B2D20006608143E6C07E4006408860045
:102A2000023087000108E5006C08093E860002308C
:102A3000870065088100200066081A3E6C07E400E4
:102A400064088600023087000108E5006C08113E2A
:102A50008600023087006508810086310B26080059
:102A60002000E40064089131312195312000620892
:102A7000013A031D462D7408860001308700811538
:102A800074088600013087008114080074088600ED
:102A900001308700811D080074088600013087001E
:102AA0008110740886000130870081117408043E8B
:102AB0008600013087000108E3007408053E8600A7
:102AC0000130870063088100DD01DD0A64088A3176
:102AD000BF22953186310B2608009F3102279531A0
:102AE0009F31A42795318531442595319F31312778
:102AF00095319D31F82595319E3179269531923168
:102B00005C2295319F31932795319D31FB2595317D
:102B10009031872095312100A01C8B2DA01095317C
:102B2000AE2595319F31C82795312100201C8B2D72
:102B30009131FD2195319F31412795319631BE2646
:102B400095319E31E42695318831002095319D31B3
:102B5000FE2595319E31852695318B2D210020183B
:102B6000D72D0130A1070030A23D0130A03E8600E4
:102B70008701403F963A031DBF2D413F003A031D98
:102B80000800A101A201201432302000A900003069
:102B9000AA0003309731A727953121002017013073
:102BA00093315623953101309E31B826080001300B
:102BB0002100A5070030A63D0530A03E8600870114
:102BC000403F643A031DE62D413F003A031D0800D3
:102BD000A501A601A01DEE2DA0110800A01508005A
:102BE00020008E100E100E160A30A0000030A1003A
:102BF00093310A23953120000E120A30A0000030D4
:102C0000A10093310A23953120000E162830A00030
:102C10000030A10093310A23953120000E1230308C
:102C2000A60026082100D300182E9031722095317D
:102C300020000E1D1E2E21002F1D152E9E310D264B
:102C400095319031CA209531282E903172209531DE
:102C500020000E1D2E2E21002F1D252E9E310D260B
:102C600020000E100E1608002000A501A50120303E
:102C700025020318502E2508913117219631200086
:102C8000A4002508A03E86000130870024088100AA
:102C90000130A4002408A50720302502031C3B2E88
:102CA0006C0886000230870002304C3F2300A000F1
:102CB00020006C0886000230870002304D3F230060
:102CC000A10020006C0886000230870002304E3FD1
:102CD0002300A200441D702E44112100A012A01355
:102CE0008B1390316620963194312B248B1708007A
:102CF0002000D9000030DA005030DB004230DC0028
:102D00000030AE00C830AF004230B0005A08B10009
:102D10005B08B2005C08B3008E31A8269631200013
:102D20002E08DA002F08DB003008DC005908F83ED6
:102D3000A800FF3003180030A90092317D2296319F
:102D400020002808B1002908B2002A08B3005A0858
:102D5000AE005B08AF005C08B0008E31A82696314B
:102D600020002E08CB002F08CC003008CD008D317C
:102D7000072520004B03FF3A643E08002100B21CE7
:102D800008000130B3070030B43D39083402031D98
:102D9000CB2E38083302031C0800B301B401B21271
:102DA00020008D1DD52E2100B2162100B21A012F50
:102DB000B508031DFD2EB21DEB2EB2113608200002
:102DC000A00020082100B5003B08B901B9073A0866
:102DD000B801B8070800321EFB2E32123708200057
:102DE000A00020082100B5003D08B901B9073C0842
:102DF000B801B8070800B2100800B21620008D15FF
:102E00000800B21220008D1101302100B502080027
:102E10002000A300230893313023973170088600E7
:102E200071088700811C08007008860071088700FF
:102E300041310130810741310318810A7008860051
:102E4000710887004131403F2000A100413FA200AE
:102E500000302202323003192102031C08007008DE
:102E600086007108870041310030C03FC13F230810
:102E7000013A031D3E2F80308E0608002308023AD7
:102E8000031D452F08308C0608002308033A031D54
:102E90004C2F40308E0608002308633A031D0800BB
:102EA00020308D0608002000A601A11F5E2FA0097A
:102EB000A109A00A0319A10AA601A60AA31F692F46
:102EC000A209A309A20A0319A30A0130A400240835
:102ED000A606A701A801210820040319982FA5011F
:102EE000A50AA11B7D2F0130A035A10D890B742FE0
:102EF0000130A4002408A507712F0130A735A80DC3
:102F0000890B7E2F21082302031D882F200822020F
:102F1000031C8F2F2008A2022108A33B2714013095
:102F2000A136A00C890B902F0130A502031D7D2F27
:102F300026080319A02FA709A809A70A0319A80A98
:102F40002808A101A1072708A001A0070800200068
:102F5000AC000A30A0000030A1002A08A301A3079A
:102F60002908A201A2079731532797312000210891
:102F7000AA01AA072008A901A9072100321C0800FC
:102F8000B218D82FB214B301B40120002C08AB0042
:102F90002B082100B50020002A082100B901B9073B
:102FA000200029082100B801B80720008D1508006D
:102FB000B219EC2FB21520002C08AB002B08210011
:102FC000B60020002A082100BB01BB072000290809
:102FD0002100BA01BA070800321A08003216200090
:102FE0002C08AB002B082100B70020002A08210084
:102FF000BD01BD07200029082100BC01BC07080055
:103BF0002100321408009E31AB2608008431552480
:103C000008003A309031FD2008003B309031FD2013
:103C1000080036309031FD20080021002F11B0013E
:103C2000B1010800E4302000A0002008F3000800E3
:103C3000FE0012001E00FE0B192E003464008001ED
:103C40000131890B1F2E0034F23021009E00C0305C
:103C500022009700080021009501423020009500C5
:103C60008B168B1708002000A300A101A10A2308CE
:103C70008B319A2308002000A000200821003E1369
:103C8000031D3E170800553023009600AA30960009
:103C900095140000000008002000A20022089131C5
:103CA000692172088600870101140800173021007D
:103CB000970049140A302000A00020082100CA0003
:103CC0000800013094318C249E31023094318C24D0
:103CD0009E31033094318C24080033309031FD2024
:103CE0009E31E8302000A0000330A10093310A2368
:103CF000080001309E314C269E3102309E314C2608
:103D00009E3103309E314C26080001308A31542206
:103D10009E3102308A3154229E3103308A3154223E
:103D200008008B1D08002700161D080016110B1037
:103D30002100201C08009E316126080024000D117E
:103D40000430270094000430950096018B150B1069
:103D50000B178B17080015302000A0002008210049
:103D6000D40014302000A00020082100C300080067
:103D70002000A000200821003E10031D3E143E1329
:103D80003E11BE11BE10C401BE1208002000A300E7
:103D9000230892311C222100500886008701200050
:103DA00022080110031D011408002000A3002308AD
:103DB0009131862120006D0886000130870022089D
:103DC0000113031D0117080001308D318E259E312E
:103DD00002308D318E259E3103308D318E259E31FE
:103DE0009F31ED270800F92E20008E1690317220A9
:103DF0009E3120008E1AFF2E21002F1DF42E9E31A1
:103E00000D26080020302000A0002008EC00D33050
:103E1000A0006C08143E8600023087002008810054
:103E200008002000A3002308913131217408083EC6
:103E3000860001308700200022088110031D8114B4
:103E400008002000A3002308913131217408083EA6
:103E5000860001308700200022080111031D011592
:103E6000080001309F3171279F3102309F31712747
:103E70009F3103309F3171279F3163309F3171270C
:103E800008000130973108279F3102309731082709
:103E90009F310330973108279F31633097310827CE
:103EA00008002000A3002308913131217408083E46
:103EB000860001308700200022088111031D811532
:103EC00008002000A3002308913131217408083E26
:103ED000860001308700200022080112031D011610
:103EE00008002000A3002308933130239F3170087D
:103EF00086007108870001142000A10123088B317E
:103F00009A2308002100320C01392000A200A301ED
:103F10002208A4002308A5002508A101A107240860
:103F2000A001A00708009E31F3269F3124008D10C8
:103F300001309E3133269F3102309E3133269F312E
:103F400003309E31332608008731FC279F319031A2
:103F5000B2209F319E312B269F319E3124269F31E6
:103F60009E319E269F319E31562608002000A300D8
:103F7000A201231CBF2F2008A1002108A2070310C3
:103F8000A00D0310A30CA308031DB92F22080800DD
:103F90002100491C08000130CA024A08FF3A0319EF
:103FA00008000A302000A00020082100CA0080314B
:103FB000022008002000A101A201A20A22003D1F48
:103FC0004C1BE62F5B1BE62F2000A20120002208DD
:103FD000A0002008A10021080800730886008701BE
:103FE000011C080073088600870101109F31DA2741
:103FF0009F310038031D0800013090319C200800DB
:020000040001F9
:04000E00ECF9FDFF0D
:00000001FF
