:100000008A11112864000800FE00030EF0000408A5
:10001000F1000A08F200831203137F08F3008A1527
:10002000FE2A8A111328F601F701F801F90183135A
:100030002030840057308A157C218A11A03084003A
:10004000EE308A157C218A118317203084002A30F3
:100050008A157C2183018A15042F00308A150C250E
:100060008A1183120313DE005E08E000E401E3015D
:10007000E501831603134A1C0F2A8A15FE218A11F3
:100080000038031D462883160313652883120313C3
:10009000E008031D622883160313CA148A1544213D
:1000A0008A11013A031D5C2883160313CA1DCA1B5B
:1000B0006628CA15E301662883160313CA1F66283B
:1000C000CA13662883160313CA18CA10CA1CE82963
:1000D0004A154A1EE6290130CB070318CC0A003026
:1000E000CC0700304C02023003194B02031C0800FD
:1000F000CB01CC014A12013083120313E600003019
:10010000E7006708803AFF0080307F02031D8A28DD
:10011000043066020318C828831203136608D43E0D
:10012000840083130008DE00DF015E0883160313DA
:10013000CF070318D00A831203135F088316031333
:10014000D007831203136608D93E84000008DE003E
:10015000DF015E0883160313D1070318D20A831246
:1001600003135F0883160313D207013083120313AE
:10017000E6070318E70A0030E7076708803AFF0040
:1001800080307F02031DC62804306602031C8C28C1
:10019000033083120313D7000030D80083160313F3
:1001A000500883120313DA01DA07831603134F088A
:1001B00083120313D901D9078A154A258A1183129C
:1001C0000313580883160313D001D00783120313B7
:1001D000570883160313CF01CF070330831203138D
:1001E000D7000030D800831603135208831203137C
:1001F000DA01DA0783160313510883120313D901B6
:10020000D9078A154A258A118312031358088316C1
:100210000313D201D2078312031357088316031363
:10022000D101D1078A15BA228A1183160313520805
:100230005002031D1D2951084F02031C08005103E1
:10024000FF3A4F0783120313DE005E088316031381
:10025000DE00CF01D001D101D201CA1D92290230A6
:10026000630203189229013083120313DE005E0833
:1002700083160313E3078A154A218A118312031395
:10028000DE005E08E4008A15D0218A118312031370
:10029000DE005E08E500831603136308013A031DC0
:1002A00053292E3060296308023A031D92298312D4
:1002B00003136508013A031D63290A3083160313EB
:1002C000E100003091298312E408031D84296508A8
:1002D000DE00DF015E08D7005F08D8000A30D900D1
:1002E0000030DA008A1522248A1183120313580879
:1002F00083160313E201E2078312031357088316E0
:100300000313E101E107922983126408013A031DF6
:1003100092298316031353080A3EE10000300318A4
:100320000130E200831603135E0883120313DE001C
:10033000DF01831603136208831203135F02031D98
:10034000A729831603136108831203135E02031C9B
:10035000C8296508013A0319AF290330B0290230D2
:10036000E1000030E2006108DE005E08E3000130D9
:10037000DE005E0883160313E40764088312031388
:1003800063020318080083160313E401CA16080069
:1003900083160313E401CA1D0800013083120313FE
:1003A000DE005E0883160313E50703306502031CB5
:1003B0000800E501CA17CA11E3015E08831203139E
:1003C000DE005E0883160313D30008004A160800F7
:1003D0004A1DFC294A114A12CB01CC018A15BA22C6
:1003E0008A1183160313E401E501CF01D001D10185
:1003F000D201CA11E301CA13CA1E08000130CD0799
:100400000318CE0A0030CE0701304E02F430031933
:100410004D02031C0800CD01CE01CA120800831250
:100420000313311C0800831603134A14080000301C
:100430008A150C258A1183120313DD005D08E10083
:100440008A1574218A1183120313DD005D08E2000E
:10045000E701E501E50AE601003086190130E50013
:1004600001308A150E228A1183120313DD005D0804
:10047000E70083160313201C9F2B83120313E1084C
:10048000031D682A6208013A031D4E2A6508013AD5
:10049000031D4E2A83160313A017622A8316031323
:1004A000A013A01D622A01308A150E228A11013A7A
:1004B000031D622A01308A15FD238A1101308A1535
:1004C00048238A1183160313201A6E2A20166E2AD7
:1004D00083160313201E6E2A2012A013A0187F2A51
:1004E000013083120313DD005D0883160313A20796
:1004F0002208053A031D452BA201A014452B201DFF
:10050000452B2011A010A01BA01D452B01308312EC
:100510000313DD005D0883160313A20722083C3A8B
:10052000031DC62AA2015A304702031CA22AC60193
:100530004808193A0319B72A4808233A031DC52A5F
:100540002D30BE2A0B3047020318C52A0130831212
:100550000313DD005D0883160313C6074608023A3D
:10056000031DC52AC60148082D3A031DB92A2330A8
:10057000BE2A4808233A031DC52A193083120313E3
:10058000DD005D0883160313C800C7014808831205
:100590000313DD00DE01DD09DE09DD0A0319DE0AD1
:1005A000831603132308831203135D07DF005E081D
:1005B00003185E0AE0006008803A803C031DE42ACC
:1005C0005F08831603132102031C032B83160313F6
:1005D0002308480783120313DD00DE01DE0D5E08E9
:1005E000803ADF0080305F02031DFC2A831603136C
:1005F0002108831203135D02031C032B83160313CC
:10060000BE01BF01452B013083120313DD005D08DD
:1006100083160313C7070130BE070318BF0A003053
:10062000BF07831203136708013A0319172B03301E
:10063000E3000030E4006308DD005D08E6006608C2
:10064000DD00DE01831603133F08831203135E06E9
:10065000031D302B831603133E08831203135D061C
:10066000031D452B83160313BE01BF0101308A15FC
:100670000E228A110038031D452B01308A15FD23F7
:100680008A1101308A1548238A1183160313A01991
:10069000692B0130BE070318BF0A0030BF070530C1
:1006A0003F06031D552BDC303E06031D0800BE012E
:1006B000BF01A01501308A150E228A11013A031DCF
:1006C000080001308A15FD238A1101308A1548235C
:1006D0000800831203136708013A031D992B0130A8
:1006E000DD005D0883160313C2074208323A031D7A
:1006F0000800C2010130C0070318C10A0030C10759
:1007000044084106031D862B43084006031D0800CC
:10071000C001C10101308A150E228A11013A031D60
:10072000080001308A15FD238A1101308A154823FB
:10073000080083160313C201C001C101080083121F
:100740000313311C080083160313201401308A158B
:100750000E228A110038031D080001308A15FD237E
:100760008A1101308A154823080083120313E4001C
:10077000E701E301E601E50183160313A01C08006D
:10078000201908002015703083120313E000600860
:10079000F40064088A157D238A1183120313E10093
:1007A0006108E5001930D7000030D8006508E00086
:1007B000E1016008D9006108DA008A15A7268A11CC
:1007C000831203135708E2006208E6007030E0006D
:1007D0006008F4005F088A157D238A1183120313D1
:1007E000E100610883160313A10083120313E608D6
:1007F000031DFC2B0530022C033083126602031804
:10080000072C3C3083160313C30000302D2C053019
:10081000831266020318122C2C3083160313C300B4
:1008200001302D2C07308312660203181D2C58301E
:1008300083160313C30002302D2C09308312660285
:100840000318282C843083160313C30003302D2C87
:10085000B03083160313C3000430C4002108831290
:100860000313E000831603132408A53E84008312BB
:100870000313600883138000E7010A30670203183E
:100880005D2C6708A53E84000008E000E1016008D7
:1008900083160313AF070318B00A8312031361080A
:1008A00083160313B007013083120313E0006008BE
:1008B000E7070A306702031C412C0A30D7000030DA
:1008C000D80083160313300883120313DA01DA0702
:1008D000831603132F0883120313D901D9078A152E
:1008E0004A258A11831203135708E0008316031365
:1008F0003108B23E84008312031360088313800022
:1009000083160313AF01B00183120313E7010A300A
:1009100067020318A72C6708B23E84000008E000B5
:10092000E101600883160313BC070318BD0A831294
:100930000313610883160313BD07013083120313E9
:10094000E0006008E7070A306702031C8B2C0A30BE
:10095000D7000030D800831603133D088312031319
:10096000DA01DA07831603133C0883120313D90153
:10097000D9078A154A258A11831203135708E00004
:10098000600883160313A300BC01BD010A302402D2
:100990000318D32C013083120313E0006008831680
:1009A0000313A4070800A4010A3031020318E12C44
:1009B000013083120313E000600883160313B107AC
:1009C0000800B101080000308A150C258A11831235
:1009D0000313E2006208E500E3010230E20062086E
:1009E000E400E601B31D002DE508031D0800B31166
:1009F0000A30E2006208D70063308A1559260800E1
:100A000083120313650803190800B3150B30E200C5
:100A10006208D70063308A1559268A11AC2D8312DB
:100A20000313E701E8016808803AE20080306202BF
:100A3000031D1C2D6408670203183F2D8312031346
:100A40006708013E8A150E228A11013A031D362DD0
:100A5000831203136708013E8A15FD238A1183124E
:100A600003136708013E8A1548238A110130831257
:100A70000313E7070318E80A0030E807132D831271
:100A8000031308008A15FE218A11013A031D522D15
:100A90002C3083120313DF000130E0000A308A1586
:100AA00012268A1183120313E901EA016A08803AC7
:100AB000E20080306202031D5F2D640869020318A2
:100AC000822D831203136908013E8A150E228A11B2
:100AD000013A031D792D831203136908013E8A151B
:100AE000FD238A11831203136908013E8A154823E6
:100AF0008A11013083120313E9070318EA0A003050
:100B0000EA07562D8312031308008A15EE218A1175
:100B100083120313E2006208E60066088A150E22BB
:100B20008A11013A031DA02D8312031366088A154A
:100B3000FD238A118312031366088A1548238A113C
:100B40002C3083120313DF000130E00005308A15DA
:100B50001226831203130800831203136508013A57
:100B600003190F2D033A0319422D013A0319852D5C
:100B7000BA2D0800080083120313DF005F088A15EE
:100B800055228A11790884008317001C6E2E0030CC
:100B90008A150C258A110038031DE92D790A840075
:100BA00083178010831203135F088A1590228A111D
:100BB000013A00300319013083120313DD00790874
:100BC0008400DD0D831700085D06FD395D06800099
:100BD000F72D790A840083178018F72D790A84008D
:100BE0008014790884008010790884000015790841
:100BF0008400801C452E7908840000191A2E0130CB
:100C000083120313DD007908023E84005D0880072B
:100C10007908023E840003300002031C08007908B2
:100C2000023E840080017908840000155F088A155F
:100C3000FD230800790884008317801908007908CB
:100C4000033E840001308007840A0318800A790873
:100C5000033E8400000883120313DD00840A0008A9
:100C6000DE0000305E02963003195D02031C0800AE
:100C70007908033E84008001840A80017908840099
:100C800080155F088A1548230800790884008317B7
:100C9000001D0800013083120313DD007908023EB5
:100CA00084005D0880077908023E8400033000025A
:100CB000031C08007908023E840080017908840042
:100CC00000117908033E84008001840A80017908BC
:100CD000840080115F088A154823080083120313DB
:100CE000311C08007908840000145F08023A031DD3
:100CF0000800D701D70A01308A1559260800831247
:100D00000313E10061088A1542228A1178088400E1
:100D10008313801C0800013083120313DF0078085E
:100D2000023E84005F08800778088400801BDF2E65
:100D30001430D7000030D8007808043E8400000842
:100D4000DF00E0015F08D9006008DA008A15A726F5
:100D50008A117808023E8400831203135808803AEF
:100D6000803C031DB62E570883130002031C0800A5
:100D70007808840083138017831203136108013AF3
:100D8000031DCE2E78088400001DCA2E8312031383
:100D90000517080083120313051308006108023ABF
:100DA000031D0800780884008313001DDB2E8312C6
:100DB00003138716080083120313871208001430E8
:100DC000D7000030D8007808033E84008313000861
:100DD000DF00E0015F08D9006008DA008A15A72665
:100DE0008A117808023E8400831203135808803A5F
:100DF000803C031DFE2E570883130002031C0800CD
:100E00007808023E840083138001780884008010F3
:100E1000780884008013831203136108013A031DCC
:100E2000132F851308006108023A031D08000712FA
:100E3000080083120313DB005908013A031D622FD7
:100E40005B08023A031D312FD70101308A1559265C
:100E50008A1183120313D701D70A02308A15592643
:100E60008A1178088400831300195B2F78088400A6
:100E70000015831203135B08013A031D412F8517E8
:100E8000462F5B08023A031D5B2F07166430DA0019
:100E90007808043E84005A0880008C30DA00780814
:100EA000033E84005A0880007808023E84008001D6
:100EB000780884008014F714831203135B088A15E2
:100EC000E7220800831203135B08023A031D752F03
:100ED000D701D70A01308A1559268A1183120313C4
:100EE000D70102308A1559268A11780884008313A5
:100EF000001D9F2F780884000011831203135B08E4
:100F0000013A031D852F85178A2F5B08023A031DBE
:100F10009F2F07162830DA007808043E84005A080C
:100F200080005030DA007808033E84005A088000C0
:100F30007808023E84008001780884008014F7104D
:100F400000308A15E722080083120313D900DD015F
:100F5000DB01DA01DC01831603134A1E080073303B
:100F600083120313D7005708F40059088A157D230C
:100F70008A1183120313D8005808DC00DD01043005
:100F80005D020318DF2F5D08D43E84005C088313E4
:100F900000020318D72FDB08031DD72F5C08D700EA
:100FA0005D08D43E840057088000DB01DB0A013075
:100FB000D7005708DD0704305D02031CC32FDB0890
:100FC000031D0800DD0104305D02031808005D0800
:100FD000D93E8400831300085C020318FB2FDA0853
:100FE000031DFB2F5C08D7005D08D93E840057081D
:100FF0008000DA01DA0A0130D7005708DD07E32F55
:10123A000800080008008A15BA2208008A153B210E
:10124A0008008A15CE2508008A151E2108008A156D
:10125A00762708008312031320140800831203134D
:10126A003614080063308A15D12408008312031348
:10127A002C1408003C308316031390000800003039
:10128A0077180130F400740808000030F7180130AC
:10129A00F40074080800831203133311B401B50172
:1012AA00080083120313D70057088A154222080040
:1012BA007330831603139F00C1309D00080001306C
:1012CA008A1556218A1502308A15562108000030DF
:1012DA0083160313CA1B0130F40074080800003097
:1012EA0083120313361A0130F400740808006400EC
:1012FA008001840A04060319003404067D29193082
:10130A00F400740883160313C8000530C3000030C4
:10131A00C400080001308A11BB258A1502308A11DF
:10132A00BB258A158A157C22080001308A153022CD
:10133A008A1502308A1530228A1563308A153022BE
:10134A00080083120313AC19B029061D0800AC1556
:10135A00AD01AE01080006190800AC1108004130C1
:10136A00831203139000FA308F0038308E008316F0
:10137A0003130C140B178B1708008316031381151C
:10138A00011481140115831203133D140A30F40069
:10139A007408BE00080083120313D70100304919EC
:1013AA000130D80000304E190130D90059085807C9
:1013BA00D70008008A153F218A158A1516238A152F
:1013CA008A15B4218A158A155D218A158A15C221C2
:1013DA000800F501831203134A1CF629F501F50AE0
:1013EA00FC294F1CFC290230F4007408F50075082A
:1013FA000800F40100308312031349190130F40084
:10140A00F408031D0C2A00304E190130F400740848
:10141A00080083120313D70057088A154222780856
:10142A008400003083130019013083120313D8009B
:10143A0058080800831203133D1C08000130BE023D
:10144A003E08FF3A031908006430F4007408BE002D
:10145A008A110220080083120313D90059088A1539
:10146A002E238A157608840083130014831203132B
:10147A00D70159088A1559260800F5007508013A56
:10148A00031D4C2A4930F4007408F8000800750856
:10149A00023A031D08004E30F4007408F8000800F0
:1014AA00F5007508013A031D5F2A2030F40074081C
:1014BA00F90008007508023A031D08002530F400F7
:1014CA007408F9000800013083120313B4070318E3
:1014DA00B50A0030B50761303506031D762AA830F3
:1014EA003406031D0800B401B50133150800831240
:1014FA000313311C0800861A0800872A86168A15E3
:10150A0068228A1583120313861A8D2A331D832AA9
:10151A008A1550210800F500F4017508013A031DE7
:10152A00982A0000A22A7508023A031DA22A00304E
:10153A0083120313061A0130F400740808000130FC
:10154A0083120313BB070318BC0A0030BC07C83058
:10155A003B063C04031DB42ABB01BC013A14FA3011
:10156A008F0038308E000C100800F5010530750226
:10157A00031808007508D43E840083138001FF30E5
:10158A00F4007508D93E8400740880000130F40024
:10159A007408F507BB2A83120313D701D801D80AA6
:1015AA008A156C218A15003803197718DF2A8312E5
:1015BA000313D801831203135808F5007508D700DE
:1015CA0057080800F4007714831203134A107408AA
:1015DA00013A031DF42A74080319F42A4A144F1015
:1015EA007408023A031D08007408031908004F140E
:1015FA000800831603130C1C092B831203130C1CFB
:10160A00092B8A15A4228A15730883120313FF0073
:10161A0072088A0071088400700E8300FE0E7E0E26
:10162A0009002E30831603138500153086008701C2
:10163A002E30831603178500013086002E30831260
:10164A00031385001530860087018316031395015D
:10165A000800F5007508013A031D372BE630F4003F
:10166A007408F6007508023A031D3F2BEA30F400AD
:10167A007408F6007508633A031D08005330F40035
:10168A007408F600080083120313DA005A088A1550
:10169A0042228A15780A84008313001D0800780AFA
:1016AA0084000011780A8400801908008312031349
:1016BA00D7015A088A156223080083120313D90036
:1016CA0059088A15422278088400831380158312E8
:1016DA0003135708013A003003190130D80078087B
:1016EA008400D80E00085806EF3958068000080012
:1016FA00F5007508831203139F00740883160313F9
:10170A009F00831203139F148D2B8A1568228A1552
:10171A00831203139F1C932B331D8A2B8A15502186
:10172A00831203131E08080083120313D900DA0177
:10173A00421D08007030D7005708F40059088A156E
:10174A007D238A1583120313D8005808DA005A0831
:10175A00031908005A084802031808005A08D70053
:10176A005708C800080083120313DC00DA01DB0102
:10177A00B61D0800B6147030D8005808F4005C088A
:10178A008A157D238A1583120313D9005908B800D4
:10179A007030D8005808F40057088A157D23831240
:1017AA000313D9005908B90008008312031331182A
:1017BA00F32B0130E2006208B20732084B3A031DEC
:1017CA000800B20131143230DF000030E00003308B
:1017DA008A15122683120313311608000130E2001B
:1017EA006208B2073208323A031D0800B201080043
:1017FA0083120313DA005A088A1542228A15780AD4
:10180A00840083130015831203135A088A150E22C3
:10181A008A150038031D1D2C780A8400831380154D
:10182A0083120313D701D70A5A088A1562230800BC
:10183A00780A8400831380110800F401F5018312E9
:10184A000313571C2E2C5908F4070318F50A5A08D3
:10185A00F50701300310D90DDA0DFF3E031D2F2CB9
:10186A0001300310D80CD70CFF3E031D362C580844
:10187A005704031D242C7508D801D8077408D7010A
:10188A00D7070800771C5D2C8A156C218A15013A46
:10189A0003195C2C00308A150C258A150038031DA3
:1018AA005C2C8A15FE218A150038031D5D2C7710E1
:1018BA0001308A156D248A1501308A117F268A150E
:1018CA0002308A156D248A1502308A117F26080093
:1018DA0083120313DC005C088A1542228A157808F1
:1018EA00840083138018080078088400801D08008B
:1018FA00831203135C088A15D0228A150038031D47
:10190A000800780884008313801178088400001E78
:10191A00962C83120313D901D90A5C088A11192754
:10192A00080083120313D9015C088A1119270800D9
:10193A0083120313361C0800B618B02CB619080017
:10194A000130D7005708B70705303702031C0800D3
:10195A00B701B6150800B61C0800B610361ABB2C1B
:10196A0038083902031C08003616080038089C3E5D
:10197A00D700FF3003180030D8005808803AD90041
:10198A0080305902031DCB2C39085702031C08006A
:10199A00831203133612080083120313D90059085D
:1019AA008A152E238A15760884008313801C080062
:1019BA00760A840001308007840A0318800A760AAE
:1019CA008400000883120313D700840A0008D80091
:1019DA0000305802193003195702031C0800760A0E
:1019EA0084008001840A80015908013A031DFF2CF2
:1019FA00803087065908023A031D052D40308706B4
:101A0A005908633A031D080002308706080083124A
:101A1A000313DB00DC01DC08031D1B2D5B08013A04
:101A2A0003191B2D0030AC180130DC00DC08031D43
:101A3A002F2D5B08023A03192F2DC218272DD70123
:101A4A00D8012B2D0230D7000030D8005708F400F7
:101A5A007408DC00DC08031D482D5B08033A0319EF
:101A6A00482D83160313CA1A3F2D83120313D90173
:101A7A00DA01442D03308312D9000030DA00590804
:101A8A00F4007408DC005C08080083120313DC010C
:101A9A00DD01580857040319832DDB01DB0AD81B23
:101AAA00622D01300310D70DD80DFF3E031D572DAF
:101ABA000130F4007408DB07542D01300310DC0DEB
:101ACA00DD0DFF3E031D632D58085A02031D6F2DBD
:101ADA0057085902031C782D5708D9025808031CC5
:101AEA00DA03DA025C1401300310D80CD70CFF3E7B
:101AFA00031D792D0130DB02031D622D5D08D8011B
:101B0A00D8075C08D701D707080083120313A01C63
:101B1A0008000130A1070318A20A0030A20727080B
:101B2A002202031D9A2D26082102031C0800A10186
:101B3A00A201A0120718A01683120313A01AC92D16
:101B4A00A308031DC62DA01DB62DA0112408F4005C
:101B5A007408A3002908A701A7072808A601A60751
:101B6A000800201EC42D20122508F4007408A300C2
:101B7A002B08A701A7072A08A601A6070800A01094
:101B8A000800A01607140800A01207100130A302CB
:101B9A000800831203132C1C0800AC18E52D013031
:101BAA00AD070318AE0A0030AE0700302E02193016
:101BBA0003192D02031C0800AD01AE01AC14080084
:101BCA0001308A150C258A150038031D08000130DA
:101BDA0083120313AD070318AE0A0030AE070030B4
:101BEA002E02193003192D02031C002EAD01AE017D
:101BFA00AF01B00108000130AF070318B00A003086
:101C0A00B00701303006031D0C2EF4302F06031DD9
:101C1A000800AF01B001AC10080083120313E10001
:101C2A001430D7000030D8006008DA01DA075F08FC
:101C3A00D901D9078A15A7268A15831203135808CA
:101C4A00E001E0075708DF01DF07201C0800A018A1
:101C5A003D2EA014A101A2016108F5007508A30098
:101C6A006008A701A7075F08A601A60707140800CE
:101C7A00A0194B2EA0156108F5007508A40060088C
:101C8A00A901A9075F08A801A8070800201A0800E7
:101C9A0020166108F5007508A5006008AB01AB07BE
:101CAA005F08AA01AA07080083120313D80058087C
:101CBA008A152E238A1583120313D708031D722E41
:101CCA005808013A031D6A2E87175808023A031961
:101CDA0007175808633A031987145708013A031D6E
:101CEA00832E5808013A031D7B2E87135808023A9F
:101CFA00031907135808633A0319871057080A3A51
:101D0A00031D9E2E7608840083138010760A8400B1
:101D1A008001840A80015808013A031D962E87170C
:101D2A009A2E5808023A031907175808633A0319F2
:101D3A00871457080B3A031D08007608840083139A
:101D4A008014080083120313DC01D81FB32ED709AD
:101D5A00D809D70A0319D80ADC01DC0ADA1FBE2E11
:101D6A00D909DA09D90A0319DA0A0130F400740820
:101D7A00DC06DD01DE01580857040319F52EDB01E4
:101D8A00DB0AD81BD42E01300310D70DD80DFF3E25
:101D9A00031DC92E0130F4007408DB07C62E01307A
:101DAA000310DD0DDE0DFF3E031DD52E58085A0225
:101DBA00031DE12E57085902031CEA2E5708D902BF
:101DCA005808031CDA03DA025D1401300310D80C38
:101DDA00D70CFF3E031DEB2E0130DB02031DD42E70
:101DEA005C080319FD2EDD09DE09DD0A0319DE0A86
:101DFA005E08D801D8075D08D701D70708008A15F9
:101E0A001F218A158A15DF218A158A159A218A15B2
:101E1A008A152F218A158A1523218A158A152921BF
:101E2A008A158A1520218A158A1564218A158A1528
:101E3A0033218A158A1584218A158A151D218A1546
:101E4A0083120313311C482F8A15A6218A153130B3
:101E5A008A11A4278A1521308A1599238A151130E7
:101E6A0083120313EF006F08D70009308A15B823CD
:101E7A008A150D3083120313EF006F08DF00053057
:101E8A008A11B5238A15831203133A1C252F3A1097
:101E9A008A15DA238A158A151F228A1583120313D3
:101EAA00311C252F8A1537218A158A158A258A1504
:101EBA008A1526218A158A152C218A158A112D2020
:101ECA008A158A1547248A158A158F218A158A1533
:101EDA009D248A158A1117228A158A11E3248A15E4
:101EEA00252F00308A150C258A1583120313E20068
:101EFA006208E300E501E6018A15FE218A158312CC
:101F0A000313E2006208E400421CFC2F4219A92FC5
:101F1A006408013A031D932FC21C952FC21CA62FD9
:101F2A000130C3070318C40A0030C4070030440252
:101F3A00FA3003194302031C0800C301C401421505
:101F4A000800C301C40108000130C3070318C40A0A
:101F5A000030C40700304402053003194302031C51
:101F6A000800C301C40148080319F62F42114808A2
:101F7A00E2006208E7007C30E2006208E5007630A1
:101F8A00E2006208E600C21CE62F65086702031C2D
:101F9A00E32F0130E2006208C50703304502031C43
:101FAA00F62FC501C2106430DF000030E0000230B5
:101FBA008A1512268A1583120313F62F8312031326
:101FCA00F52F67086602031CF52F0130E20062084C
:101FDA00C50703304502031CF62FC501C214F62FAC
:101FEA00C50183120313C601C701C8010800311CC9
:061FFA000800421408007B
:04400E00BCFCFFFFF8
:00000001FF
