:100000008A11112864000800FE00030EF0000408A5
:10001000F1000A08F200831203137F08F3008A1527
:10002000CA2B8A111328F601F701F801F90183138D
:10003000203084004F308A15AA228A11A030840013
:10004000E6308A15AA228A118317203084003030C6
:100050008A15AA2283018A159A2F00308A156E25E7
:100060008A1183120313D5005508DA008A15A222DB
:100070008A1183120313D5005508DB00E001DC016F
:10008000DC0ADF0101308A152D238A118312031344
:10009000D5005508E00083160313201C192A83128B
:1000A0000313DA08031D92285B08013A031D602838
:1000B0005C08013A031D602883160313A0178228E9
:1000C00083160313A013A01D822883120313CF01EC
:1000D00001308A1535278A1183120313CF010230AC
:1000E0008A1535278A1101308A152D238A11013A84
:1000F000031D822801308A15C0248A1101308A1517
:10010000FB238A1183160313201A98282016A0199E
:10011000982883120313CF01CF0A01308A1535279F
:100120008A11982883160313201E98282012A013E2
:1001300083160313A018AB28013083120313D500D4
:10014000550883160313A2072208053A031DB82990
:10015000A201A014B829201DB8292011A010A01BAD
:10016000A01DB829013083120313D500550883164A
:100170000313A20722083C3A031DF228A2015A30B9
:100180004702031CCE28C6014808193A0319E32880
:100190004808233A031DF1282D30EA280B30470286
:1001A0000318F128013083120313D5005508831674
:1001B0000313C6074608023A031DF128C601480882
:1001C0002D3A031DE5282330EA284808233A031D69
:1001D000F128193083120313D50055088316031331
:1001E000C800C701480883120313D500D601D509FA
:1001F000D609D50A0319D60A8316031323088312D6
:1002000003135507D70056080318560AD800580894
:10021000803A803C031D10295708831603132102DE
:10022000031C322983160313230848078312031380
:10023000D500D601D60D5608803AD7008030570237
:10024000031D282983160313210883120313550263
:10025000031C322983160313BE01BF01831203134B
:10026000CF01A129013083120313D500550883164D
:100270000313C7070130BE070318BF0A0030BF07CA
:10028000831203136008013A031946290330DD0085
:100290000030DE005D08D5005508DF005F08D5009E
:1002A000D601831603133F08831203135606031D5A
:1002B0005F29831603133E08831203135506031D9B
:1002C000B82983160313C201C001C101BE01BF01D9
:1002D00001308A152D238A110038031D772901303A
:1002E0008A15C0248A1101308A15FB238A118316CE
:1002F0000313480883120313D500D601D509D60984
:10030000D50A0319D60A831603132308831203138D
:100310005507D70056080318560AD8005808803ADF
:10032000D90080305902031D9B298316031321082D
:10033000831203135702031CA92983120313CF014D
:10034000CF0A01308A1535278A1183120313CF0192
:10035000B42983120313CF0101308A1535278A117E
:1003600083120313CF01CF0A02308A1535278A1171
:1003700083160313A019E3290130BE070318BF0A2F
:100380000030BF0705303F06031DC829DC303E069C
:10039000031D0800BE01BF01A01583120313CF0186
:1003A00001308A1535278A1101308A152D238A11CB
:1003B000013A031D080001308A15C0248A1101305A
:1003C0008A15FB230800831203136008013A031DFA
:1003D000132A0130D500550883160313C2074208BB
:1003E000323A031D0800C2010130C0070318C10AD8
:1003F0000030C10744084106031D002A4308400697
:10040000031D0800C001C10101308A152D238A1186
:10041000013A031D080001308A15C0248A110130F9
:100420008A15FB23080083160313C201C001C10112
:10043000080083120313251C0800831603132014DD
:1004400083120313CF01CF0A01308A1535278A1191
:1004500001308A152D238A110038031D0800013050
:100460008A15C0248A1101308A15FB230800003048
:100470008A156E258A1183120313D6005608D800F8
:10048000DC01DB01DD01831603134A1C192C8A15DC
:10049000BB228A110038031D502A831603136F2ACA
:1004A00083120313D808031D6C2A83160313CA147E
:1004B0008A1572228A11013A031D662A83160313D4
:1004C000CA1DCA1B702ACA15E301702A83160313BA
:1004D000CA1F702ACA13702A83160313CA18CA10B7
:1004E000CA1CF22B4A154A1EF02B0130CB07031809
:1004F000CC0A0030CC0700304C02023003194B020A
:10050000031C0800CB01CC014A12013083120313F3
:10051000DE000030DF005F08803AFF0080307F029D
:10052000031D942A04305E020318D22A8312031397
:100530005E08D43E840083130008D600D701560815
:1005400083160313CF070318D00A83120313570827
:1005500083160313D007831203135E08D93E840069
:100560000008D600D701560883160313D1070318D5
:10057000D20A83120313570883160313D2070130DC
:1005800083120313DE070318DF0A0030DF075F085A
:10059000803AFF0080307F02031DD02A04305E02C3
:1005A000031C962A033083120313CF000030D000BF
:1005B00083160313500883120313D201D207831644
:1005C00003134F0883120313D101D1078A15AC25F9
:1005D0008A1183120313500883160313D001D00726
:1005E000831203134F0883160313CF01CF07033081
:1005F00083120313CF000030D00083160313520878
:1006000083120313D201D2078316031351088312F6
:100610000313D101D1078A15AC258A118312031364
:10062000500883160313D201D207831203134F0815
:1006300083160313D101D1078A159D238A118316CE
:10064000031352085002031D272B51084F02031CAD
:1006500008005103FF3A4F0783120313D6005608D0
:1006600083160313DE00CF01D001D101D201CA1DD0
:100670009C2B0230630203189C2B0130831203135E
:10068000D600560883160313E3078A1578228A11C9
:1006900083120313D6005608DC008A15D9228A116A
:1006A00083120313D6005608DD0083160313630874
:1006B000013A031D5D2B64306A2B6308023A031D67
:1006C0009C2B831203135D08013A031D6D2B05302B
:1006D00083160313E10000309B2B8312DC08031DFB
:1006E0008E2B5D08D600D7015608CF005708D000E2
:1006F0000530D1000030D2008A15E5248A1183121A
:100700000313500883160313E201E2078312031355
:100710004F0883160313E101E1079C2B83125C0849
:10072000013A031D9C2B831603135308053EE10079
:10073000003003180130E200831603135E088312B1
:100740000313D600D7018316031362088312031321
:100750005702031DB12B8316031361088312031381
:100760005602031CD22B5D08013A0319B92B033042
:10077000BA2B0230D9000030DA005908D6005608EA
:10078000DB000130D600560883160313E407640823
:10079000831203135B020318080083160313E4019A
:1007A000CA16080083160313E401CA1D08000130AD
:1007B00083120313D600560883160313E50703308C
:1007C0006502031C0800E501CA17CA11E3015E08AF
:1007D00083120313D600560883160313D3000800B0
:1007E0004A1608004A1D062C4A114A12CB01CC01B8
:1007F0008A159D238A1183160313E401E501CF01B5
:10080000D001D101D201CA11E301CA13CA1E0800E6
:100810000130CD070318CE0A0030CE0701304E025A
:10082000F43003194D02031C0800CD01CE01CA1299
:10083000080083120313251C0800831603134A14AF
:10084000080083120313DC00DF01DB01DE01DD01A0
:1008500083160313A01C080020190800201570300F
:1008600083120313D8005808F4005C088A15642426
:100870008A1183120313D9005908DD001930CF0003
:100880000030D0005D08D800D9015808D1005908BF
:10089000D2008A15D8268A11831203134F08DA0072
:1008A0005A08DE007030D8005808F40057088A153E
:1008B00064248A1183120313D90059088316031381
:1008C000A10083120313DE08031D682C05306E2C73
:1008D000033083125E020318732C3C30831603131B
:1008E000C3000030992C053083125E0203187E2C61
:1008F0002C3083160313C3000130992C0730831268
:100900005E020318892C583083160313C30002308B
:10091000992C093083125E020318942C84308316BC
:100920000313C3000330992CB03083160313C300A4
:100930000430C400210883120313D8008316031364
:100940002408A53E840083120313580883138000F3
:10095000DF010A305F020318C92C5F08A53E84003E
:100960000008D800D901580883160313AF070318ED
:10097000B00A83120313590883160313B00701301A
:1009800083120313D8005808DF070A305F02031CE4
:10099000AD2C0A30CF000030D0008316031330088E
:1009A00083120313D201D207831603132F08831275
:1009B0000313D101D1078A15AC258A1183120313C1
:1009C0004F08D800831603133108B23E8400831207
:1009D000031358088313800083160313AF01B0017B
:1009E00083120313DF010A305F020318132D5F081F
:1009F000B23E84000008D800D901580883160313BA
:100A0000BC070318BD0A8312031359088316031386
:100A1000BD07013083120313D8005808DF070A30DE
:100A20005F02031CF72C0A30CF000030D000831681
:100A300003133D0883120313D201D2078316031355
:100A40003C0883120313D101D1078A15AC258A1102
:100A5000831203134F08D800580883160313A3000A
:100A6000BC01BD010A30240203183F2D013083125E
:100A70000313D800580883160313A4070800A40121
:100A80000A30310203184D2D013083120313D800B0
:100A9000580883160313B1070800B101080000309D
:100AA0008A156E258A1183120313D5005508DD00BF
:100AB000D601D701D70AD801A71D6A2DDD08031D6D
:100AC0000800A7116E30D5005508CF005D088A15C3
:100AD00035270800831203135D0803190800A715C2
:100AE0006F30D5005508CF005D088A1535278A116B
:100AF000022E83120313D901DA015A08803AD50075
:100B000080305502031D862D570859020318A92D60
:100B1000831203135908013E8A152D238A11013AC5
:100B2000031DA02D831203135908013E8A15C0240A
:100B30008A11831203135908013E8A15FB238A1177
:100B4000013083120313D9070318DA0A0030DA07D9
:100B50007D2D8312031308008A15BB228A1183128C
:100B60000313DB01DC015C08803AD50080305502BC
:100B7000031DBC2D57085B020318DF2D83120313DE
:100B80005B08013E8A152D238A11013A031DD62DDB
:100B9000831203135B08013E8A15C0248A11831255
:100BA00003135B08013E8A15FB238A11013083126F
:100BB0000313DB070318DC0A0030DC07B32D8312B4
:100BC000031308008A15B2228A1183120313D50079
:100BD0005508D80058088A152D238A11013A03199F
:100BE000F42D8312031308008312031358088A1587
:100BF000C0248A118312031358088A15FB23831219
:100C000003130800831203135D08013A0319792DB9
:100C1000033A0319AC2D013A0319E22D102E0800F6
:100C2000080000308A156E258A1183120313D7003D
:100C30005708D900DB01DC01DD01DE018A15BB228A
:100C40008A1183120313D7005708DA00391CC42E07
:100C50003919462E5A08013A031D302EB91C322E7E
:100C6000B91C432E0130BA070318BB0A0030BB077A
:100C700000303B02FA3003193A02031C0800BA01A3
:100C8000BB0139150800BA01BB0108000130BA07E1
:100C90000318BB0A0030BB0700303B0205300319C4
:100CA0003A02031C0800BA01BB010330CF00003038
:100CB000D0003E083F07D700D801D80D400857079D
:100CC000D1000030031801305807D2008A15D82609
:100CD0008A11831203135008DE01DE074F08DD017D
:100CE000DD078A15E2238A11831203135E08803A16
:100CF000FF0080307F02031D7F2E01305D02031C48
:100D000008008312031339113930D7005708DB006C
:100D10006A30D7005708DC00B91CAA2E5E08803A5A
:100D2000D70080305702031D972E5B085D02031C1D
:100D3000A62E013083120313D7005708BC070330D7
:100D40003C02031C0800BC01B91008008312031305
:100D5000BC0108005E08803A803C031DB12E5D088E
:100D60005C02031CC02E013083120313D700570806
:100D7000BC0703303C02031C0800BC01B914080086
:100D800083120313BC010800251C08003914080055
:100D900083120313D90059088A15C4228A117808CE
:100DA00084008313801C0800013083120313D700D2
:100DB0007808023E84005708800778088400801B6A
:100DC000172F1430CF000030D0007808043E840084
:100DD0000008D700D8015708D1005808D2008A155A
:100DE000D8268A117808023E840083120313500823
:100DF000803A803C031DFF2E4F0883130002031C22
:100E0000080078088400831380178312031359089D
:100E1000013A031D080078088400001D132F831277
:100E2000031386150800831203138611080014307B
:100E3000CF000030D0007808033E84008313000800
:100E4000D700D8015708D1005808D2008A15D826F3
:100E50008A117808023E8400831203135008803AF6
:100E6000803C031D362F4F0883130002031C08002B
:100E70007808023E84008313800178088400801083
:100E8000780884008013831203135908013A031D64
:100E9000080006110800831203132A1C0800013001
:100EA000AC070318AD0A0030AD0700302D02193031
:100EB00003192C02031C0800AC01AD01CF01013065
:100EC0008A1535278A1183120313CF0102308A1540
:100ED00035278A1183120313AA1C722F0430D10004
:100EE0005108D2002A1D782F0630D1005108D200B7
:100EF000AA1D7E2F0830D1005108D2000130D10048
:100F00005108AB072B08013A03198A2F2B08023A24
:100F1000031D9E2F03102A1E0314031C932F8312FC
:100F200003132A16962F831203132A1200302A1A4B
:100F30000130CF0002308A153527080003108312D4
:100F400003132A1E0314031CA92F831203132A164A
:100F5000AC2F831203132A1200302A1A0130CF005B
:100F600001308A1535278A11831203132B08520684
:100F7000031D0800AB01080083120313201C0800A6
:100F8000A018D32F0130A1070318A20A0030A2072E
:100F900000302202323003192102031C0800A10193
:100FA000A201A014080001308A156E258A110038AC
:100FB000031D0800013083120313A1070318A20ABE
:100FC0000030A20700302202323003192102031C34
:100FD000EE2FA101A201A301A40108000130A30783
:100FE0000318A40A0030A40701302406031DFA2FB9
:100FF000F4302306031D0800A301A401A01008007B
:10149A00080008008A114B2708008A159D230800B6
:1014AA008A15692208008A11BC2708008A154D226C
:1014BA0008008A1111260800831203132E1408004B
:1014CA0001308A15842208008312031320140800AD
:1014DA003C3083160313900008000030771801305F
:1014EA00F400740808000030F7180130F40074089A
:1014FA000800831203132711A801A9010800831207
:10150A000313CF004F088A15C422080073308316CC
:10151A0003139F00C1309D00080001308A15612322
:10152A008A1502308A1561230800003083160313D6
:10153A00CA1B0130F4007408080000308312031338
:10154A002E1A0130F4007408080064008001840A2D
:10155A000406031900340406AB2AF40183120313A8
:10156A00431CB92AF401F40A74080800F401003093
:10157A008312031342190130F40074080800F500BD
:10158A007508013A031D08004230F4007408F80097
:10159A0008001930F400740883160313C8000530D4
:1015AA00C3000030C400080083120313D0010030C6
:1015BA0042190130CF004F08F4007408D0005008D7
:1015CA00080083120313A019F02A851E0800A0152B
:1015DA00A101A2010800851A0800A0110800F40060
:1015EA0077148312031343107408013A031D080089
:1015FA0074080319080043140800413083120313C6
:10160A009000FA308F0038308E00831603130C14C2
:10161A000B178B1708008316031381150114811405
:10162A0001158312031335140A30F4007408B60046
:10163A0008008A156D228A158A1515248A158A15B5
:10164A0002238A158A158B228A158A151023080007
:10165A0083120313CF004F088A15C4227808840026
:10166A00003083130019013083120313D00050088D
:10167A00080083120313351C08000130B60236082D
:10168A00FF3A031908006430F4007408B6008A119E
:10169A0002200800F5007508013A031D582B47304F
:1016AA00F4007408F6007508023A031D08004B306E
:1016BA00F4007408F600080083120313D1005108DD
:1016CA008A154F238A15760884008313001483121F
:1016DA000313CF0151088A153527080001308312F8
:1016EA000313A8070318A90A0030A90761302906BD
:1016FA00031D812BA8302806031D0800A801A90193
:10170A0027150800013083120313B3070318B40A1C
:10171A000030B407C83033063404031D972BB301D5
:10172A00B4013214FA308F0038308E000C100800E1
:10173A00F50105307502031808007508D43E8400C7
:10174A0083138001FF30F4007508D93E84007408C1
:10175A0080000130F4007408F5079E2B83120313EE
:10176A00CF01D001D00A8A159A228A1500380319A6
:10177A007718C22B83120313D00183120313500864
:10178A00F5007508CF004F080800831603130C1CD8
:10179A00D52B831203130C1CD52B8A1587238A1584
:1017AA00730883120313FF0072088A007108840009
:1017BA00700E8300FE0E7E0E0900F401F501750815
:1017CA00803AFF0080307F02031DED2B0530740242
:1017DA000318080074083D3E840083138001013019
:1017EA00F4070318F50A0030F507E42B83120313F4
:1017FA00D20052088A15C4228A15780A84008313F3
:10180A00001D0800780A84000011780A84008019F3
:10181A00080083120313CF0152088A1549240800CD
:10182A002F30831603138500133086000C3087008F
:10183A000F3083160317850012308600AF308312EB
:10184A0003138500133086000C30870083160313B8
:10185A00950108008312031325183F2C0130F40068
:10186A007408A60726084B3A031D0800A60125148A
:10187A00251608000130F4007408A6072608323A33
:10188A00031D0800A601080083120313D1005108A2
:10189A008A15C422780884008313801583120313DF
:1018AA004F08013A003003190130D000780884004B
:1018BA00D00E00085006EF39500680000800F500E7
:1018CA007508831203139F007408831603139F007D
:1018DA00831203139F14742C8A1573238A15831297
:1018EA0003139F1C7A2C271D712C8A157E228312C2
:1018FA0003131E080800771C962C8A159A228A154B
:10190A00013A0319952C00308A156E258A1500387C
:10191A00031D952C8A15BB228A150038031D962CA7
:10192A00771001308A150A258A1501308A11C826CE
:10193A00080083120313D400D201D301AE1D08009C
:10194A00AE147030D0005008F40054088A1564248C
:10195A008A1583120313D1005108B0007030D000E9
:10196A005008F4004F088A15642483120313D10027
:10197A005108B100080083120313D20052088A15D5
:10198A00C4228A15780A840083130015831203136C
:10199A0052088A152D238A150038031DE02C780A6F
:1019AA0084008313801583120313CF01CF0A5208D0
:1019BA008A1549240800780A8400831380110800D4
:1019CA00F401F501831203134F1CF12C5108F4079B
:1019DA000318F50A5208F50701300310D10DD20D8C
:1019EA00FF3E031DF22C01300310D00CCF0CFF3E3A
:1019FA00031DF92C50084F04031DE72C7508D0016C
:101A0A00D0077408CF01CF07080083120313D3004D
:101A1A0053088A15C4228A1578088400831380180B
:101A2A00080078088400801D0800831203135308F5
:101A3A008A15B3238A150038031D08007808840024
:101A4A008313801178088400001E332D8312031338
:101A5A00D101D10A53088A152F26080083120313CD
:101A6A00D10153088A152F260800831203132E1C4E
:101A7A000800AE184D2DAE1908000130CF004F08EE
:101A8A00AF0705302F02031C0800AF01AE1508008E
:101A9A00AE1C0800AE102E1A582D30083102031C55
:101AAA0008002E16080030089C3ECF00FF300318AD
:101ABA000030D0005008803AD10080305102031D16
:101ACA00682D31084F02031C0800831203132E12DB
:101ADA00080083120313D300D401D408031D7D2DFB
:101AEA005308013A03197D2D0030A0180130D400A3
:101AFA00D408031D912D5308023A0319912DB918E0
:101B0A00892DCF01D0018D2D0230CF000030D000B9
:101B1A004F08F4007408D400D408031DAA2D5308F2
:101B2A00033A0319AA2D83160313CA1AA12D831285
:101B3A000313D101D201A62D03308312D100003044
:101B4A00D2005108F4007408D40054080800831223
:101B5A000313D401D50150084F040319E52DD3010D
:101B6A00D30AD01BC42D01300310CF0DD00DFF3E78
:101B7A00031DB92D0130F4007408D307B62D0130C6
:101B8A000310D40DD50DFF3E031DC52D500852027A
:101B9A00031DD12D4F085102031CDA2D4F08D10223
:101BAA005008031CD203D202541401300310D00C83
:101BBA00CF0CFF3E031DDB2D0130D302031DC42DC4
:101BCA005508D001D0075408CF01CF070800831267
:101BDA000313D100D201391D08007030CF004F081D
:101BEA00F40051088A1564248A1583120313D0005D
:101BFA005008D20052080319080052083D0203187F
:101C0A000B2E5208CF004F08BD00080052083E02B2
:101C1A000318142E5208CF004F08BE0008005208BD
:101C2A003F0203181D2E5208CF004F08BF000800BC
:101C3A00520840020318262E5208CF004F08C0004F
:101C4A00080052084102031808005208CF004F0842
:101C5A00C100080083120313D2005108013A031D80
:101C6A00592E5208023A031D472ECF0101308A1518
:101C7A0035278A1583120313CF01CF0A02308A153A
:101C8A0035278A157808840083130019522E78089C
:101C9A0084000015831203130615F7148312031325
:101CAA0052088A15F4220800831203135208023AD2
:101CBA00031D6C2ECF01CF0A01308A1535278A15EC
:101CCA0083120313CF0102308A1535278A15780843
:101CDA0084008313001D772E780884000011831274
:101CEA0003130611F71000308A15F4220800831234
:101CFA000313D100D501D301D201D40183160313F2
:101D0A004A1E0800733083120313CF004F08F400F1
:101D1A0051088A1564248A1583120313D0005008C7
:101D2A00D400D501043055020318B72E5508D43E05
:101D3A0084005408831300020318AF2ED308031D2E
:101D4A00AF2E5408CF005508D43E84004F088000B7
:101D5A00D301D30A0130CF004F08D507043055020A
:101D6A00031C9B2ED308031D0800D501043055021D
:101D7A00031808005508D93E84008313000854024A
:101D8A000318D32ED208031DD32E5408CF005508AA
:101D9A00D93E84004F088000D201D20A0130CF0018
:101DAA004F08D507BB2E83120313D401D01FE42E8C
:101DBA00CF09D009CF0A0319D00AD401D40AD21FF5
:101DCA00EF2ED109D209D10A0319D20A0130F4003F
:101DDA007408D406D501D60150084F040319262FDA
:101DEA00D301D30AD01B052F01300310CF0DD00D1C
:101DFA00FF3E031DFA2E0130F4007408D307F72EB4
:101E0A0001300310D50DD60DFF3E031D062F5008D5
:101E1A005202031D122F4F085102031C1B2F4F0899
:101E2A00D1025008031CD203D20255140130031008
:101E3A00D00CCF0CFF3E031D1C2F0130D302031D13
:101E4A00052F540803192E2FD509D609D50A0319C7
:101E5A00D60A5608D001D0075508CF01CF07080087
:101E6A0083120313D00050088A154F238A15831250
:101E7A000313CF08031D4A2F5008013A031D462FAA
:101E8A0005175008023A031985174F08013A031D2E
:101E9A00572F5008013A031D532F05135008023AD1
:101EAA00031985134F080A3A031D6E2F760884001A
:101EBA0083138010760A84008001840A8001500806
:101ECA00013A031D6A2F05176E2F5008023A0319AB
:101EDA0085174F080B3A031D762F76088400831363
:101EEA0080144F086F3A031D942FAB01AC01AD016A
:101EFA002A122A14AA102A11AA115008013A031DFB
:101F0A00882FAA1408005008023A031D8E2F2A159A
:101F1A0008005008033A031D0800AA1508004F08D4
:101F2A006E3A031D08002A1008008A154E228A15E7
:101F3A008A151E238A158A1592228A158A15552210
:101F4A008A158A155B228A158A1552228A158A15DC
:101F5A0065228A158A1561228A158A15CE228A1562
:101F6A0083120313251CD82F8A15E6228A150130FD
:101F7A008A157C268A1511308A15EC258A150530B2
:101F8A0083120313E5006508CF0029308A159E24C1
:101F9A008A15093083120313E5006508D7002D302E
:101FAA008A1121248A1583120313321CB52F321089
:101FBA008A152F248A158A153E238A15831203133C
:101FCA00251CB52F8A154F228A158A1558228A157B
:101FDA008A155E228A158A1137228A158A15802463
:101FEA008A158A153A258A158A112D208A158A1189
:061FFA004F258A15B52FEA
:04400E00BCFCFFFFF8
:00000001FF
