:1000000080311328640008007E14803120007F08AE
:10001000F7009D31302580319031CD2077082000C8
:10002000FF007E10090080311528FD01F801F9015B
:10003000FA01FB01FC01EF01A030840000308500D3
:1000400048309C31322480312030840001308500DA
:1000500050309C3132248031A03084000130850042
:1000600046309C3132248031BF3084009F3085007F
:10007000203086000230870020309C312C247E10F6
:10008000200096313E2E2000B30033089C31C2245C
:1000900080317C08860001308700011CA9292100DD
:1000A00051186D287C0A86000130870081102000DD
:1000B00033089D31D0258031013A003003190130D9
:1000C0002000B1007C08860001308700B10D0108D6
:1000D0003106FD393106810082287C0A8600013014
:1000E0008700811882287C0A8600013087008114ED
:1000F0007C0886000130870081107C088600013072
:10010000870001157C08860001308700811C522978
:100110007C088600013087000119B02801302000DA
:10012000B1007C08023E860001308700310881075B
:100130007C08023E86000130870005300102031C66
:1001400008007C08023E86000130870081017C089F
:10015000860001308700011533089331F62308002B
:100160007C088600013087008119E2287C08033E64
:100170008600013087000130810741310318810A70
:100180007C08033E860001308700403F2000B1001C
:10019000413FB20000303202963003193102031C95
:1001A00008007C08033E8600013087000030C03F15
:1001B000C13F7C08860001308700811533089231E9
:1001C000E82208007C08860001308700011A2029F7
:1001D0007C08053E860001308700013081074131EF
:1001E0000318810A7C08053E860001308700403FE5
:1001F0002000B100413FB2000030320296300319B6
:100200003102031C08007C08053E8600013087008F
:100210000030C03FC13F7C088600013087000116D6
:1002200001309E31512680312100A01E080064302B
:100230002000A9000030AA0002309631962608005E
:100240007C08860001308700811A08007C08073E80
:100250008600013087000130810741310318810A8F
:100260007C08073E860001308700403F2000B10037
:10027000413FB200013032022C3003193102031C1D
:1002800008007C08073E8600013087000030C03F30
:10029000C13F7C08860001308700811600309E3106
:1002A000512608007C08860001308700011D0800E7
:1002B00001302000B1007C08023E8600013087003A
:1002C000310881077C08023E860001308700053036
:1002D0000102031C08007C08023E860001308700F2
:1002E00081017C0886000130870001117C08033EF3
:1002F0008600013087000030C03FC13F7C08860087
:100300000130870081117C08053E8600013087009E
:100310000030C03FC13F7C088600013087000112D9
:100320007C08073E8600013087000030C03FC13F97
:100330007C08860001308700811221005118A52910
:10034000200033089431B624803100309E3151268C
:1003500008002100201C08007C088600013087006E
:1003600001140800F60076089C3161248131790877
:10037000860001308700011C0E2A0130F200790846
:10038000033E860001308700720881072200400882
:10039000F200F301F209F309F20A0319F30A7908EA
:1003A000043E86000130870001087207F4007308DC
:1003B0000318730AF5007908033E860001308700B0
:1003C0007508803A803C031DE72974080102031C6C
:1003D00008007908033E8600013087008101790812
:1003E00086000130870001107908083E8600013040
:1003F000870001147908093E860001308700011E3C
:1004000008007908093E860001308700011276084D
:10041000013A031D080020000D1208007908083E6B
:10042000860001308700011CD22A7908083E860028
:100430000130870001107908860001308700811C97
:10044000D22A0130F200790A860001308700720852
:100450008107790A8600013087007908023E84000E
:100460000130850000080102031CD22A790A8600A7
:100470000130870081017908860001308700811DE5
:10048000872A7908860001308700011A682A7908CE
:10049000043E860001308700483001020318592AC3
:1004A0000130F2007908043E8600013087007208AE
:1004B00081077908043E8600013087000108483A28
:1004C000031DD22A79088600013087000116D22A3E
:1004D0007908043E8600013087000D300102031CBC
:1004E000782A7908043E86000130870001308102B5
:1004F0007908043E86000130870001080C3A031D8C
:10050000D22A79088600013087000112D22A7908A0
:10051000860001308700011DD22A7908043E86003A
:10052000013087007908053E84000130850000080D
:1005300001020318A52A0130F2007908043E860062
:100540000130870072088107BA2A7908053E8600C3
:10055000013087007908043E8400013085000008DE
:1005600001020318BA2A7908043E86000130870088
:10057000013081027908053E860001308700790844
:10058000043E84000130850000080106031DD22AC4
:100590007908860001308700011179088600013052
:1005A000870081107908093E860001308700811D8F
:1005B00008000130F20079080C3E86000130870007
:1005C0007208810779080C3E860001308700010817
:1005D000053A031D080079080C3E860001308700AB
:1005E00081017908093E86000130870081110800E9
:1005F0002000AF01AB01003092314E228231200049
:10060000A9002908AE00AC012200431C362C9C3105
:100610006B2482312000A9002908AC00AD01913182
:1006200092218231013A031D1E2B2000AE08031DCA
:100630001E2BAC08031D1E2BAD01AD0A20002D089A
:100640002200C310031DC3149D3122258231013ABB
:10065000031D2F2B2200C3192F2BC315C3132200F8
:10066000C31C062C4315431E042C0130C407003064
:10067000C53D00304502053003194402031C080043
:10068000C401C50143122000AF0104302F0203183A
:10069000732B2F354E3E860001308700403FA90066
:1006A000413FAA0029082200C80720002A0822008A
:1006B000C93D20002F35583E860001308700403F5D
:1006C000A900413FAA0029082200CA0720002A08E1
:1006D0002200CB3D01302000A9002908AF070430DB
:1006E0002F02031C492B02302200C936C80C890B8B
:1006F000752B0230CB36CA0C890B7A2B9F3106271B
:100700008231220049084B02031D882B48084A0207
:10071000031808000530433E8600013087004A096F
:100720002000A90022004B092000AA00A90A0319F1
:10073000AA0A403F29072200E200413F20002A3D4B
:100740002200E300C801C901CA01CB019D317D250A
:1007500082312000A90029082200EE00C31DD52BFC
:1007600002306C020318D52B01302000A9002908A3
:100770002200EC076C08013A031DC22B7430E8001C
:100780000430CD2B6C08023A031DD52B6E08013ABC
:10079000031DCF2B6630E8000030E900D52B4C0854
:1007A000663EE80000304D3DE90069086302031D24
:1007B000DB2B68086202031CEA2B01302000A90031
:1007C00029082200ED0703306D02031C0800ED012B
:1007D000C3160800ED01C31D0800C31B080001304B
:1007E0002000A90029082200EF0703306F02031C34
:1007F0000800EF01C317C311EC016308CD01CD0759
:100800006208CC01CC07080043160800431D242CC5
:1008100020002E08033A0319242C22004311C4019E
:10082000C50143129F31062782312200EC01ED0100
:10083000EF01C801C901CA01CB01E201E301E801EE
:10084000E901EE01C311C3172200C31E08000130E5
:10085000C6070030C73D03304702E830031946029F
:10086000031C0800C601C701C31208002100201C98
:10087000080022004314080020004108C700420875
:10088000C8004308C9000310480D490DCA004A08B2
:10089000CD004408C7004508C8004608C900031039
:1008A000480D490DCA004A08CC004D080319642CB4
:1008B0004C084D0203186B2C4D03FF3A4C07C70040
:1008C00019304702031C6B2C4408C1004508C200C4
:1008D0004608C30008004C08031908004D084C02E4
:1008E00003187A2C4C03FF3A4D07C7001930470212
:1008F000031808000630C7004708CB00C31BCB17FE
:10090000C61B4B17C217FF30C105FF30C2050030B0
:10091000C305C517FF30C405FF30C5050030C60547
:100920004C084D020318B62C0130C435C50DC60D58
:10093000890B952C0130CC024C084D060319B12CC3
:100940000130CB024B0807390319B12C942C01302C
:10095000C336C20CC10C890BA82C0130C700470854
:10096000CD074D084C060319DB2CA72C4D084C0273
:100970000318DB2C0130C135C20DC30D890BBB2C14
:100980000130CD024C084D060319D72C0130CB02A3
:100990004B0807390319D72CBA2C0130C636C50CC1
:1009A000C40C890BCE2C0130C7004708CC074D087A
:1009B0004C06031DCD2CCB1FED2CFF30C106FF30A4
:1009C000C206FF30C3060130C107003003180130F2
:1009D000C207003003180130C3074B1FFF2CFF3044
:1009E000C406FF30C506FF30C6060130C40700301C
:1009F00003180130C507003003180130C607CB01CA
:100A00004108C4074208C53D4308C63DC61F1A2D0C
:100A1000FF30C406FF30C506FF30C6060130C407EC
:100A2000003003180130C507003003180130C60735
:100A3000CB01CB0A4408A0004508A1004608A2004B
:100A40004D08C7004708A3004B08C8004808A40089
:100A50008931812120002008C1002108C20022081C
:100A6000C30008002100E801E901EA013B1C0D2E4A
:100A70009D31AE258531200021082004031D08008A
:100A8000003092314E2285310038031D5B2D9D319F
:100A9000BF258531013A0030031901302000ED00F7
:100AA000ED0CED0C21003B0820006D067F396D0632
:100AB0002100BB005D2D2100BB13BB1B3B1B652D23
:100AC000BD01BE01BC14BB110800BC183B1B7C2D32
:100AD0000130BD070030BE3D0230BB3E86008701BD
:100AE000403F4206031D762D413F4306031DDA2D8C
:100AF000BD01BE01BC10DA2DBD01BE01BC103B1909
:100B00003B1B902D3B11BB11BB100A30C2000030C3
:100B1000C3009D313F2585318931E2218531DA2DB0
:100B2000BB1DC92D8B31732385312100BB1CDA2DF0
:100B3000BB10BC12C501C6018D316E258531210067
:100B4000BC14BC1DB02D003043020B30031942020F
:100B5000031CAE2D0A30C2000030C300BF01DA2DE5
:100B600001302000ED006D082100BF073F08023A68
:100B7000031DDA2DBF01C001C10100304302C8309E
:100B8000031942020318DA2D0A30C2070030C33DB0
:100B9000DA2DBB1DBB18DA2DBB15BC1636309E31C5
:100BA000D32685313A309E31D326853134309E317B
:100BB000D32685312100BB1DFB2D0130C00700303D
:100BC000C13D0530BB3E86008701403F643A031DAE
:100BD000EB2D413F003A031DFB2DC001C101BF01B8
:100BE000003043020B3003194202031CFB2D0A3074
:100BF000C2020030C33BBC1E08000130C5070030F4
:100C0000C63D75304602303003194502031C08000A
:100C1000C501C601BB11BB100800201C08003B1415
:100C200008002000E3011F309E31EC268631AA3AED
:100C3000031D832E00309E31EC2686312000E20019
:100C40006E080C3E86000230870062088100013089
:100C50009E31EC2686312000E2006E080D3E8600B3
:100C6000023087006208810002309E31EC26863116
:100C70002000E2006E080E3E860002308700620807
:100C8000810048308A31432286312000E200620828
:100C9000E3006308E2006E08153E8600023087001C
:100CA000620881006308E2006E08163E860002308A
:100CB0008700620881006308E2006E08173E860024
:100CC00002308700620881006E080C3E8600023008
:100CD00087000108FF3A031D08006E080D3E8600DC
:100CE000023087000108FF3A031D08006E080E3E1F
:100CF0008600023087000108FF3A031D080021002A
:100D0000A015A016080048308A3143228631200001
:100D1000E2006208E300FF30E2006208A000003059
:100D20009C31E5248631FF302000E2006208A000FB
:100D300001309C31E5248631FF302000E20062085A
:100D4000A00002309C31E5248631FF302000E20013
:100D50006208A00003309C31E5248631FF3020007A
:100D6000E2006208A00004309C31E5248631FF30A7
:100D70002000E2006208A00005309C31E5248631A5
:100D8000AA302000E2006208A0001F309C31E52458
:100D9000863120006308E2006E08153E86000230AE
:100DA0008700620881006308E2006E08163E860034
:100DB00002308700620881006308E2006E08173E77
:100DC000860002308700620881008B139131BD21BB
:100DD0008B172100A015A016080021003B1C08005D
:100DE0003B1908003B151430C2000030C3006330CB
:100DF0002000A00020082200A00002302000A00057
:100E000020082200A10020006E0886000230870022
:100E10000230423F2200A20020006E08860002300D
:100E200087000230433F2200A30020006E088600A6
:100E3000023087000230443F2200A40020006E08E8
:100E40008600023087000230453F2200A5002000C6
:100E50006E088600023087000230463F2200A6005E
:100E600020006E088600023087000230473F2200D3
:100E7000A70020006E088600023087000230483F3D
:100E80002200A80020006E08860002308700023091
:100E9000493F2200A90020006E088600023087002A
:100EA00002304A3F2200AA0020006E08860002306D
:100EB000870002304B3F2200AB0020006E08860006
:100EC0000230870002304C3F2200AC0020006E0848
:100ED00086000230870002304D3F2200AD00200026
:100EE0006E0886000230870002304E3F2200AE00BE
:100EF00020006E0886000230870002304F3F22003B
:100F0000AF0020006E088600023087000230503F9C
:100F10002200B00020006E088600023087000230F8
:100F2000513F2200B10020006E0886000230870089
:100F30000230523F2200B20020006E0886000230CC
:100F400087000230533F2200B300D1302000A000C0
:100F500020082200B40008002000A601A11FB72F1E
:100F6000A009A109A00A0319A10AA601A60AA31FA4
:100F7000C22FA209A309A20A0319A30A0130A400DF
:100F80002408A606A701A801210820040319F12FAF
:100F9000A501A50AA11BD62F0130A035A10D890BF3
:100FA000CD2F0130A4002408A507CA2F0130A73592
:100FB000A80D890BD72F21082302031DE12F20083C
:100FC0002202031CE82F2008A2022108A33B2714B9
:100FD0000130A136A00C890BE92F0130A502031DB9
:100FE000D62F26080319F92FA709A809A70A03195C
:100FF000A80A2808A101A1072708A001A007080046
:101000009E318F26883124008D1001309D318D2531
:1010100008002000AE002E089C318024883120007A
:101020002A08013A003003190130AC007808860024
:1010300001308700AC0D01082C06FD392C0681001B
:101040002A08013A031D4E282B0891316821883166
:101050002000AC00780A8600013087002C0881004F
:101060000F302B05AC002C08053A03193B282B0840
:101070000F39031D412826302B02031841282B0865
:1010800042280530AC002E081A3E6E07AD002D0830
:101090008600023087002C08810057282E081A3E4F
:1010A0006E07AC002C0886000230870081017808AA
:1010B000023E8600013087000030C03FC13F780803
:1010C000043E860001308700810108002000B8003E
:1010D00038089C31802488317808860001308700E8
:1010E000811C08007808023E86000130870001302C
:1010F000810741310318810A7808023E86000130D9
:101100008700403F2000B600413FB700173037024C
:10111000703003193602031C08007808023E86006E
:10112000013087000030C03FC13F0130B600780871
:10113000043E860001308700360881077808043EA7
:10114000860001308700780A84000130850000089D
:101150000102031C08007808043E86000130870065
:101160008101780886000130870081106430A90071
:101170000030AA00013096319626883120003808C8
:101180009531E625080021002018E5280130A10747
:101190000030A23D0130A03E86008701403F963AD4
:1011A000031DD428413F003A031D0E29A101A201CD
:1011B000201432302000A9000030AA0003309631FC
:1011C00096268831210020160E290130A107003013
:1011D000A23D0130A03E86008701403F643A031DD6
:1011E000F328413F003A031DF728A101A201013075
:1011F000A5070030A63D0530A03E86008701403F90
:10120000643A031D0529413F003A031D0E29A5013B
:10121000A601A01C0D29A0100E29A0140130A707BB
:101220000030A83D0730A03E86008701403F643A69
:10123000031D1C29413F003A031D0800A701A80116
:1012400008006529FF309531E625893120006E08B8
:10125000093E86000230870081016E080B3E860041
:101260000230870081016E080F3E86000230870041
:1012700081016E08113E86000230870081016430D2
:10128000A9000030AA0001309631962608002000FF
:101290006E08093E86000230870081016E080B3E11
:1012A00086000230870081016E08113E8600023000
:1012B000870081018631ED260800013095319725A0
:1012C0000800013094313324080022002F08003A2E
:1012D00003192229013A03195D29033A03198029C8
:1012E000013A03198029123A03196129313A031985
:1012F0004729013A03198029103A031980298029C6
:1013000008002000230803198A2922082104200448
:10131000031D9B290030A0000030A1000030A20076
:1013200008000130A5002508A3070130A236A10C52
:10133000A00C890B9629FE3022050319B4299129A6
:101340000130A5002508A3070130A00700300318CD
:101350000130A107003003180130A2070130A23686
:10136000A10CA00C890BAF29FF3022050319C1295C
:10137000A0290130A3020130A035A10DA20D890BD7
:10138000BC29A11FB9292318CB29FF30A0057F3024
:10139000A105FF30A2050310A30C2308A500A60198
:1013A000A7011030A535A60DA70D890BD229250858
:1013B000A0042608A1042708A20424080319080091
:1013C000A217080020000E107F30A4002408FB00A4
:1013D000EC299E316526893120008E1EF2292100DC
:1013E0002C1DE9299C311C2489319E313D268931EF
:1013F000210052082000A4002408FB009E313D2655
:1014000089312000A501210052082000250203187F
:101410001B2A2508203E8600013087000108A40011
:101420002408FB009E313D26893101302000A400B4
:101430002408A507032A0E1435309E31D32689319E
:10144000242A9E316526893120008E182A2A2100FF
:101450002C1D212A9C311C248931312A9E3165267C
:10146000893120008E1C372A21002C1D2E2A9C3108
:101470001C24893136309E31D32689313B309E3150
:10148000D326FD1408002000DE000030DF0070309D
:10149000E0004230E1000030AE00C830AF00423022
:1014A000B0005F08B1006008B2006108B3008E317F
:1014B000A3268A3120002E08DF002F08E000300824
:1014C000E1005E08DC00DD01DC09DD09DC0A03194E
:1014D000DD0A5C08483EA80000305D3DA90090315F
:1014E00066208A3120002808B1002908B2002A08A5
:1014F000B3005F08AE006008AF006108B0008E3135
:10150000A3268A3120002E08BE002F08BF00300815
:10151000C0009C314F248A3120003E08C4003F089F
:10152000C5004008C6000030C100C830C2004230CB
:10153000C30084313C248A3120004108CE00420897
:10154000CF004308D0008C315E2420004E080800F4
:101550002000DE000030DF007030E0004230E100AB
:101560000030AE00C830AF004230B0005F08B100BC
:101570006008B2006108B3008E31A3268A312000D2
:101580002E08DF002F08E0003008E1005E08DC00D4
:10159000DD01DC09DD09DC0A0319DD0A5C08643EB3
:1015A000A80000305D3DA900903166208A312000FE
:1015B0002808B1002908B2002A08B3005F08AE006D
:1015C0006008AF006108B0008F314C278A312000DD
:1015D0002E08BE002F08BF003008C0009C314F24E9
:1015E0008A3120003E08C4003F08C5004008C600FC
:1015F0000030C1009030C2004230C30084313C242E
:101600008A3120004108CE004208CF004308D000B4
:101610008C315E2420004E0808002000E50065089B
:101620009C318B248B3120006208013A031D232B4F
:101630006F0886000130870081156F088600013031
:101640008700811408006F08860001308700811D23
:1016500008006F0886000130870081106F0886003F
:101660000130870081116F08043E86000130870039
:101670000108E3006F08053E86000130870063081B
:1016800081006F08043E86000130870001088A311E
:1016900043228B312000E3006508143E6E07E4000E
:1016A00064088600023087006308810000309231B0
:1016B0004E228B31003A0030031901302000E30044
:1016C000E30D22003E0820006306FD396306220078
:1016D000BE002000A001A00A6508973148278B3181
:1016E0008631ED26080020008E187A2B832B9E3140
:1016F00065268B3120008E1C802B21002C1D772B22
:101700009C311C248B313B30903188208B3121005F
:1017100055080319080020000E10FF30A40024080B
:10172000FB00952B9E3165268B3120008E1E9B2B56
:1017300021002C1D922B9C311C248B319E313D2687
:101740008B319E31A4268B317B082000A400240815
:101750002100D0002000A501210050082000250212
:101760000318C42B9E31A4268B317B082000A400D3
:101770002508203E860001308700240881000130C2
:10178000A4002408A507AC2B9E31A4268B317B082E
:101790002000A40024082100CF009E31A4267B084D
:1017A0002000A40024082100CC0020000E142100F9
:1017B000CC1B7D14BB11BB1408002000A600A9019E
:1017C000A801A7012200431E0800F3302000A40056
:1017D0002408A00026089F319F278B312000210874
:1017E0002200E501E507200020082200E401E407CB
:1017F0002000A9010430290203182B2C29354E3E64
:10180000860001308700403FA400413FA500220030
:10181000650820002502031D112C22006408200009
:1018200024020318232CA808031D232C29354E3E1F
:1018300086000130870022006408C03F6508C13F70
:101840002000A801A80A0130A4002408A907043038
:101850002902031CFE2BA808031D0800A90104305F
:101860002902031808002935583E860001308700F8
:10187000403FA400413FA500250822006502031D4A
:10188000452C20002408220064020318582C200054
:10189000A708031D582C2935583E860001308700C3
:1018A00022006408C03F6508C13F2000A701A70AC5
:1018B00001302000A4002408A9072F2C20004E0886
:1018C000D2004F08D3005008D4000310530D540D1C
:1018D000D5005508DB00DB08031D772C0030D10054
:1018E0000030D0000030CF000030CE0008004E089D
:1018F000D2004F08D3005008D4001730D436D30C90
:10190000D20C890B7E2C5208D5005508D600CF1773
:10191000FF30CE05FF30CF050030D0054E08D70090
:101920004F08D8005008D900DA018E30DB02DB1FE7
:10193000B52C5B08803A8F3E0318A72C0030D100ED
:101940000030D0000030CF000030CE000800013061
:10195000DA36D90CD80CD70C890BA82C0130D20060
:101960005208DB070319CE2CA72C18305B02031C8E
:10197000CB2C0030D1000030D0000030CF00003040
:10198000CE0008000130D735D80DD90DDA0D890BFE
:10199000C32C0130DB02DB08031DC22C56080319DF
:1019A000DC2CD709D809D909DA09D70A0319D80ACA
:1019B0000319D90A0319DA0A5A08D1005908D000C4
:1019C0005808CF005708CE0008002000E500650841
:1019D0009C318B248C31003092314E228C31003A74
:1019E0000030031901302000E300E30D22003E081F
:1019F00020006306FD3963062200BE002000620855
:101A0000013A031D332D6F08093E8600013087001F
:101A10008114A201650893311D238C3120006508D3
:101A20009C31D9248C3120006F088600013087005A
:101A300001174830E3006F08043E8600013087003C
:101A40006308810048308A3143228C312000E30052
:101A50006508143E6E07E4006408860002308700C3
:101A6000630881005A2D6F0886000130870001133A
:101A70006F08093E8600013087008110A201A20A8A
:101A8000650893311D238C3120006F08083E8600C5
:101A90000130870081176F088600013087008111AF
:101AA0006F0886000130870001126F088600013040
:101AB000870001110730E3006F08023E8600013005
:101AC0008700630881006208E3006308A0006508DE
:101AD000973148278C318631ED260800003092314D
:101AE0004E228D312000EB006B08EC002200200814
:101AF000AA3A031D912D2108013A031D912D55305D
:101B00002000EB006E08023E8600023087006B0862
:101B100081008631ED260A302100C2000030C3006A
:101B200008002000EC08031D080021003B1FA82D21
:101B30002200A008031DA52D2108643A031DA52D30
:101B4000933189232100BC1508002100BC11080035
:101B50002200A008031DE62D2108023A031DE62DF0
:101B60002C08FF3A031DC02D2D08FF3A031DC02D80
:101B70002E08FF3A031DC02D00002100BC110800F3
:101B800020006E080C3E86000230870022002C08E0
:101B90000106031D080020006E080D3E860002307D
:101BA000870022002D080106031D080020006E0892
:101BB0000E3E86000230870022002E080106031D1B
:101BC0000800893121212100BC15080022002008CD
:101BD000FF3A031DF12D2108023A031DF12D0000EB
:101BE00008002200A008031DFB2D2108653A031DF3
:101BF000FB2D000008002100BC1108002100561C2C
:101C00009F2E5619122E0130D7070030D83D0130D3
:101C10005802F43003195702031C0800D701D801F9
:101C200056150800023092314E228D310038031DC6
:101C3000080001302100D7070030D83D003058029D
:101C4000053003195702031C0800D701D801561E9E
:101C5000080056110A30D63E860087010830D63E6D
:101C600084008501403F00072000AD000131413F65
:101C7000003DAE00AE36AD0C2D082100DC0020008A
:101C80002E082100DD00C730E4000130E5009F3060
:101C9000E6000130E700D61C6D2E65085D02031DCD
:101CA000532E64085C02031C6B2E01302000AD0033
:101CB0002D082100D90703305902031C832ED901B6
:101CC000D61064302000A9000030AA0002309631FE
:101CD00096268D31832E2100822E5D086702031D1A
:101CE000732E5C086602031C822E01302000AD00BA
:101CF0002D082100D90703305902031C832ED90176
:101D0000D614832ED90121005D082000AD006E0895
:101D1000183E8600023087002D08810021005C08F3
:101D20002000AD006E08193E8600023087002D08A5
:101D300081002100DE01DF01E001E1010800201C3B
:101D400008005614080020003108B4003208B5001D
:101D50003308B6000310350D360DB7003708BC0048
:101D6000BC08031DBA2E0030AE000030AF000030BA
:101D7000B00008002E08B4002F08B5003008B600E7
:101D80000310350D360DB7003708BD00BD08031D23
:101D9000D02E0030AE000030AF000030B0000800A0
:101DA0000030B9000030BA000030BB0089303D0778
:101DB000B4003408BC023108B4003208B50033085E
:101DC000B6001030B636B50CB40C890BE22E3408D0
:101DD000B7003708BD002E08B4002F08B500300842
:101DE000B6001030B636B50CB40C890BF22E3408A0
:101DF000B7003708BD068030B4003408BD05B217FF
:101E0000FF30B105FF30B2050030B305AF17FF302A
:101E1000AE05FF30AF050030B0051830B40034080F
:101E2000B8000130B935BA0DBB0D890B122F30083F
:101E30003302031D212F2F083202031D212F2E08EC
:101E40003102031C2A2F2E08B1022F08B23B3008A2
:101E5000B33B39140130B135B20DB30D890B2B2FC3
:101E60000130B802031D112F3908A0003A08A10063
:101E70003B08A2003C08B4003408A3003D08B500AC
:101E80003508A4008931812120002008AE002108F6
:101E9000AF002208B000080020002E08B4002F0870
:101EA000B5003008B6000310350D360DB700370801
:101EB000B800B808031D632F0030AE000030AF003B
:101EC0000030B00008003108B4003208B500330813
:101ED000B6000310350D360DB7003708BD00BD083C
:101EE000031D792F0030AE000030AF000030B0008D
:101EF00008003D087B3EB4003408B8072E08B40043
:101F00002F08B5003008B6001030B636B50CB40C4A
:101F1000890B852F3408B7003708BD003108B4009D
:101F20003208B5003308B6001030B636B50CB40C24
:101F3000890B952F3408B7003708BD068030B400F0
:101F40003408BD05AF17B217FF30B105FF30B20539
:101F50000030B3050030B9000030BA000030BB00DB
:101F60000730B4003408BC002E1CBC2F3108B90760
:101F70003208BA3D3308BB3D0130B036AF0CAE0C71
:101F8000890BBD2F0130B135B20DB30D890BC32FB5
:101F90000130BC02031DB42F0930B4003408BC006A
:101FA0002E1CD82F3108B9073208BA3D3308BB3D83
:101FB0000130B036AF0CAE0C890BD92F0130BB36D7
:101FC000BA0CB90C890BDF2F0130BC02031DD02FD6
:101FD0003908A0003A08A1003B08A2003808B40064
:101FE0003408A3003D08B5003508A40089318121DB
:101FF00020002008AE002108AF002208B000080031
:102000000334163417341E341F3420342A342B344E
:102010000B340C340D340E340F34103411341234AC
:10202000133414340A341534213422341834193456
:102030001A341B341C341D34233424342534263400
:1020400029342C342D342E34003401340234073436
:10205000083409340634043405342734283407346A
:102060000734303487346B34F8347F343F340934E8
:1020700000345C34A734623486348334033422342D
:10208000F83400344434B634103418341D341C345D
:10209000C7340034B234EA340A34003411345934C9
:1020A000883431340B342F342E3406340434053460
:1020B00000343034D334913441340034FE34FE34AF
:1020C000FE34FE34FE34FE34FE34FE342000AD0116
:1020D000A91F7128A809A909A80A0319A90AAD010D
:1020E000AD0A2808A0002908A100A2018E30AB008B
:1020F0002B08A3002D08AC002C08A40089318121F5
:1021000020002008A8002108A9002208AA00080031
:102110002000A3000E102308C03EA2002208FB00EE
:1021200094289E316526903120008E1E9A28210029
:102130002C1D91289C311C2490319E313D269031DC
:102140009E31A42620000E147B08A2002208210044
:10215000D50008002000E30063089C318B249031F7
:1021600020006F0886000130870001156F08860087
:102170000130870081146E08093E86000230870016
:1021800001088A31A8222000E2006F08053E86007F
:10219000013087006208810008002100111C08003E
:1021A0002000111C0800FA309700383096001110FA
:1021B00001308131B221903101302100C807003057
:1021C000C93D0130C73E86008701403F643A031D88
:1021D000EB28413F003A031D0800C801C90147141C
:1021E000080001302000A2000030A30021082302D3
:1021F000031DFC282008220203180800A401A501E1
:10220000003025020230031924020318122901307C
:10221000A4070030A53D0030250202300319240236
:10222000031C07290130A2070030A33DF628200037
:10223000A30023089C318B2448302000A2006F08A3
:10224000053E860001308700220881000C30A20084
:102250006F08063E860001308700220881006F0863
:10226000053E8600013087000108A2006F08043E89
:102270008600013087002208810008002000A801A4
:102280002F302802031808002808003E84009030F0
:102290000318013E85000008A5002508A6002808AF
:1022A0002F3E840090300318013E85000008A500F1
:1022B0002508A7002708A5002508A20026089F31A9
:1022C000DF27913101302000A5002508A80740290B
:1022D0002000A9000530A4002408A600A701A80139
:1022E000313029020318902929080F39A400240845
:1022F000A7002908A4000430A436890B7C292408EF
:102300000F39A5002508A8000A30A4002408A00061
:1023100028089D31E12520002707A5002508A600F3
:10232000260808002000A801A501A501A50AA6010C
:10233000A7012708803AA40080302402031DA229A7
:10234000250826020318BA292000A808031DB5296C
:102350002608013E9D315D259131013A0030031977
:1023600001302000A4002408A8000130A607003096
:10237000A73D99292000280808002000A10123007A
:102380001513303092009401151295161515200082
:10239000A101203021020318E52921082300910022
:1023A00020002108A03E860001308700010823009C
:1023B00093009C315824913101302000A000200866
:1023C000A10720302102031CCD29230095129C3146
:1023D0005824230015110800003092314E2291310B
:1023E0000038031D162A2200BE1C182A9C313F24E7
:1023F0009131013A03190D2A913192219131003A1C
:1024000003190D2A22003E0C01392000E700E801E3
:102410006708E9006808EA00102A2000E901EA01DB
:1024200069082200BE10031DBE14182A2200BE1027
:1024300001309631EF2608002000E60065302200CA
:102440002902031C292A64302000E40064082200C9
:10245000A90029082000E4006E08093E8600023029
:102460008700640881006608E4006E080B3E860061
:102470000230870064088100220029082000E4005F
:102480006608143E6E07E500650886000230870086
:102490006408810066089031AA2008002000A50089
:1024A000A601A608031D682A2508023A0319682A0E
:1024B0002100D6185F2A2000A101A201642A02305F
:1024C0002000A1000030A2002108A0002008A600E2
:1024D000A608031D7F2A2508033A03197F2A220034
:1024E000C31A762A2000A301A4017B2A033020000E
:1024F000A3000030A4002308A0002008A60026089E
:1025000008002000A40024089C31962492317A0807
:10251000860001308700811C08007A0A860001309D
:1025200087000130810741310318810A7A0A860049
:1025300001308700403F2000A200413FA30000304F
:102540002302323003192202031C08007A0A860093
:10255000013087000030C03FC13F2408633A031DAB
:10256000080020308D060800F20072089C317524A6
:10257000923121004E0886000130870001180800C2
:102580004E08093E860001308700811908004E0878
:1025900086000130870001144E08093E8600013094
:1025A000870081152200C00121004E0886000130FD
:1025B0008700011F08004E08093E86000130870091
:1025C00001167208013A031D080020000D160800CC
:1025D0002000A80028089C318B2492312000A601FD
:1025E000A7019C316B249231013A031DFD2A220080
:1025F000BE1CFD2A2000A701A70A20002708A5006D
:102600002508A600A608031D08006F08093E8600DD
:1026100001308700011F08006F08093E8600013065
:10262000870081176F088600013087008116A2019C
:10263000A20A28089F315F2708002000A300230872
:102640009C31962493312000A208031D2C2B2308D3
:10265000633A031D2C2B8D162208013A031D352BDE
:102660002308633A031D352B8D1222080A3A031DF5
:10267000492B7A0886000130870081107A0A86008B
:10268000013087000030C03FC13F2308633A03197F
:102690008D1622080B3A031D08007A0886000130C7
:1026A0008700811408002300441C08009131922106
:1026B0009331003A0030031901302000A900A90D20
:1026C0002300440820002906FD3929062300C40000
:1026D000C41C832BC4150130C2070030C33D223017
:1026E000A03E860001308700403F193A031D7A2B37
:1026F000413F003A031D0800C201C3014410C41049
:10270000953149250800C41D0800C411C201C30148
:10271000080021003B1322002C082000AD006E08A9
:102720000C3E8600023087002D08810022002D0813
:102730002000AD006E080D3E8600023087002D0897
:10274000810022002E082000AD006E080E3E86009B
:10275000023087002D0881006430A9000030AA00F3
:1027600001309631962693312100A01EBB2B0130FB
:102770009E312A26933101309E3117260800200011
:10278000A5002100561D08005616F0302000A400B8
:102790002408A00025089F319F279331200021089D
:1027A0002100E301E307200020082100E201E20705
:1027B00063085F02031DDE2B62085E020318E72B2D
:1027C0006308DF01DF076208DE01DE070800630837
:1027D0006102031DED2B6208600203180800630804
:1027E000E101E1076208E001E00708002000AF0016
:1027F0002F089C318B2493312000AE019C316B2437
:102800009331013A0030031901302000AD002D084A
:10281000AE00AE08031D08006F08093E86000130B7
:10282000870001176430A9000030AA0001309631FA
:102830009626933120006F08860001308700811AA8
:102840002C2C6F088600013087008116A201A20A95
:102850002F089F312227080020006F0886000130D2
:102860008700811208002000EA00E9016A089D3112
:102870005D2594312000E7006708E9006908013A06
:10288000031D4C2C01309E311726943120006A081C
:1028900092311C2294315E2C20006A08143E6E078F
:1028A000E70067088600023087000108E8006E082C
:1028B000093E8600023087006808810020006A080F
:1028C0001A3E6E07E700670886000230870001089D
:1028D000E8006E08113E860002308700680881001B
:1028E0008631ED26080020008E110E120E140A30DB
:1028F000A0000030A1009031F120943120000E1092
:102900000A30A0000030A1009031F1209431200065
:102910000E142830A0000030A1009031F120943135
:1029200020000E103030A6002608FB009A2C9E31A5
:102930006526943120008E1EA02C21002C1D972C82
:102940009C311C2494319E313D269431AA2C9E3119
:102950006526943120008E1EB02C21002C1DA72C42
:102960009C311C2420000E120E1408002000B00020
:1029700030089C318B24943120006F088600013090
:1029800087000030811A0130AF006F08093E8600D1
:1029900001308700011F08006F08093E86000130E2
:1029A000870001136F08860001308700811EEA2C22
:1029B0006F08093E860001308700811F08006F08FC
:1029C000093E8600013087008113A20130089F3143
:1029D0005F2708002000A20130089F312227943190
:1029E000200030089D316D259431013A031D080007
:1029F0002000AA01AB01300888310920080021001D
:102A0000AF1C08000130B0070030B13D360831027C
:102A1000031D0C2D35083002031C0800B001B10164
:102A2000AF1220008D1D162D2100AF162100AF1A08
:102A3000422DB208031D3E2DAF1D2C2DAF113308C2
:102A40002000A00020082100B2003808B601B60717
:102A50003708B501B50708002F1E3C2D2F1234088A
:102A60002000A00020082100B2003A08B601B607F5
:102A70003908B501B5070800AF100800AF162000EF
:102A80008D150800AF1220008D1101302100B20217
:102A900008002000A501A501203025020318652D9E
:102AA00025089E31EC2695312000A4002508A03E83
:102AB000860001308700240881000130A40024082A
:102AC000A50720302502031C502D6E088600023019
:102AD000870002304C3FA00000309C31E524953146
:102AE00020006E0886000230870002304D3FA000B3
:102AF00001309C31E524953120006E0886000230BB
:102B0000870002304E3FA00002309C31E524953111
:102B10002300441D8F2D44112100A011A0128B13FE
:102B20009C31F12495319131BD218B170800200093
:102B3000B300B20122003008803A031DCA2D2000E4
:102B4000AA01AA0A220031082000B1003108AB0016
:102B50003308883109209531200033089D315D25E7
:102B60009531013A031DD92D64302000A9000030B1
:102B7000AA0001309631962695312000B201B20AA2
:102B8000A001A00A33089731482795318631ED26F8
:102B90009531D92D200033089D316D259531013AAD
:102BA000031DD92D2000AA01AB013308883109206B
:102BB00095312000B208031D080033089331F62335
:102BC0009531200033089431B62408002000B3006A
:102BD0003308FF3A031D212EB201B20AB401B50138
:102BE0003508803AB10080303102031DF92D3208DA
:102BF00034020318080020003408013E9C318B2465
:102C0000953120003408013E9D315D259531013A12
:102C1000031D1B2E20006F08093E8600013087002F
:102C200001176F0886000130870081123408013EC9
:102C30009431B624953101302000B4070030B53D01
:102C4000F02D200033089C318B249531200033086F
:102C50009D315D259531013A031D080020006F0864
:102C6000093E86000130870001176F088600013099
:102C70008700811233089431B62408009D314E2517
:102C800096319D31F32596318631112696319C314E
:102C9000102496319B31E92396319B31F2239631F2
:102CA0009C31212496319C31082496319D31152583
:102CB00096318831002096319B31EC2396319E313C
:102CC0007A2696312100201C6D2E05308B31DD23B4
:102CD000963109309331BF2396312100471C622E73
:102CE00047108831C32096319E3105269631210048
:102CF000201C622E9331532396319C31142496313B
:102D00009431FF2496319B31F52396318231F8229C
:102D100096319131EC2196319F317F2796319B314D
:102D2000EF2396319C310C249631622E2000AC00AA
:102D30000A30A0000030A1002A08A301A307290837
:102D4000A201A2078731AC27963120002108AA01F1
:102D5000AA072008A901A90721002F1C0800AF1805
:102D6000C72EAF14B001B10120002C08AB002B0816
:102D70002100B20020002A082100B601B607200079
:102D800029082100B501B50720008D150800AF19ED
:102D9000DB2EAF1520002C08AB002B082100B30060
:102DA00020002A082100B801B807200029082100C6
:102DB000B701B70708002F1A08002F1620002C08AB
:102DC000AB002B082100B40020002A082100BA0122
:102DD000BA07200029082100B901B907080020001E
:102DE000E60066089C318B24963120006F08083E6F
:102DF000860001308700011D1A2F2200BE1808002E
:102E000020006F08083E86000130870001116F081E
:102E1000083E860001308700811C142FE201E20A7F
:102E200066088C31E52408002000E20166088C3138
:102E3000E524080020006F08083E86000130870066
:102E4000011E08002200BE18080020006F08083E7E
:102E500086000130870001126F08083E86000130AD
:102E60008700811D422FE201E20A66088B310D23A3
:102E7000963164302000A9000030AA00013096315C
:102E8000962608002000E20166088B310D23080019
:102E90002000A400A301A30A2408FF3E890A522FA0
:102EA0000310A30DFF3E031D502F2408A1006E0840
:102EB0000B3E860002308700210881002408143E62
:102EC0006E07A10021088600023087000108A200D9
:102ED0006E08093E8600023087002208810024081F
:102EE0001A3E6E07A1002108860002308700010803
:102EF000A2006E08113E8600023087002208810081
:102F00002008013A031D942F6E080F3E8600023000
:102F1000870001082304A1006E080F3E86000230DE
:102F200087002108810008006E080F3E86000230ED
:102F3000870023090105A1006E080F3E86000230BC
:102F400087002108810008002000BC00BB01B801F7
:102F50003C08033A0319B02FFF30B9000030B92FF5
:102F60009C31B72497312000B600B7013608B9006C
:102F70003708BA003908B6003608BB00BC08031D84
:102F8000C32F0A30C52F0B302000B6003608A20030
:102F9000633093311D23973120003C08031908004A
:102FA000F12F913192219731013A031DFA2F2C30E4
:102FB0002000A9000130AA000A30963196269731E8
:102FC000FA2F913192219731013A031DFA2F2C30BB
:102FD0002000A9000130AA000530963196269731CD
:102FE000FA2F20003C08023A0319D12F013A0319A5
:102FF000E12FFA2F20003B089531E625200008003C
:1037CE000800080021002F1408009C31AC240800CA
:1037DE008531322508009B31E82308008D31FE2506
:1037EE00080001309231B42208003A309E31D326BF
:1037FE0008003B309E31D326080036309E31D3264A
:10380E00080001309C3126240800013088316620E2
:10381E00080063309D319D2508006330923181226E
:10382E000800783021009900080021002C11AD010C
:10383E00AE0108002200C3179F31062708002000A2
:10384E00A20022089C3180240800FE0012001E00F7
:10385E00FE0B2D2C0034640080010131890B332CBA
:10386E000034F33021009E00C13022009700080082
:10387E0000302200C31B01302000A00020080800E9
:10388E0000302200BE1801302000A00020080800E1
:10389E00200040083F043E04031908008030C00693
:1038AE000800553023009600AA30960095140000AB
:1038BE0000000800F1007108013A031D0800C53030
:1038CE00F0007008F90008002000A001003023006D
:1038DE00CD1901302000A00020080800F100710869
:1038EE00013A031D0800C530F00070082100CE001B
:1038FE0008002000A1002108013A031D0800DD3058
:10390E00A0002008F80008002000A1002108013ABC
:10391E00031D0800C530A0002008EF00080020009D
:10392E00A1002108633A031D0800E230A000200820
:10393E00FA0008001730210097004A140A302000C0
:10394E00A00020082100CB00080015302000A000A8
:10395E0020082100D2000A30C2000030C300080047
:10396E002000A00123004E1CBF2C2000A001A00AA5
:10397E002000200808002000A1002108013A031DA4
:10398E000800D430A0002008FC00080033309E311F
:10399E00D3269C31E8302000A0000330A1009031E6
:1039AE00F12008002000A00023004E102000200867
:1039BE00013A031D080023004E1408002000A20047
:1039CE002008A1002208A03E8600013087002108B1
:1039DE008100080023001513303092009101151656
:1039EE0015159C31582423001511080024000D11C3
:1039FE00270094010430950096018B150B100B17C0
:103A0E008B170800413020009800FA3097003830AC
:103A1E009600210011140B178B170800C5302000DB
:103A2E00A40024082100CD000130913117219D31D1
:103A3E009B31E72308002000A2019C314724013A64
:103A4E000030031901302000A1002108A200220835
:103A5E0008008B1D08000B1C08002700161D08000F
:103A6E0016110B102100201C08009B31F8230800B2
:103A7E002100BB18442DBB1D0800BB11BB103630F6
:103A8E009E31D3269D313A309E31D3260800203008
:103A9E002000A0002008EE00D130A0006E08143ED9
:103AAE008600023087002008810008002000A20056
:103ABE0022089C318B2420006F088600013087007D
:103ACE000030811A0130A300230808002000A20054
:103ADE0022089C318024780886000130870000304F
:103AEE00811801302000A300230808002000A30144
:103AFE00A101A201A00100302300CE180130200048
:103B0E00A300230821072207A00008002000A4001C
:103B1E00A201A20A240893311D239D312000A20187
:103B2E00A20A2408013E93311D2308002000A400A0
:103B3E0024089C3196249D317A0886000130870036
:103B4E0001142000A201240893311D230800210036
:103B5E002F0C01392000A200A3012208A400230883
:103B6E00A5002508A101A1072408A001A0070800AF
:103B7E002000A101A201A20A0C1F0C1ACA2D0C1CB6
:103B8E008C1BCA2DA2012208A0002008A10021082A
:103B9E0008002000A101A201A20A0C1F0C1ADB2DA5
:103BAE000C1C8C1BDB2DA2012208A0002008A100FA
:103BBE00210808002000A300A201231CEA2D2008E2
:103BCE00A1002108A2070310A00D0310A30CA30847
:103BDE00031DE42D220808009C3118249D319E31CE
:103BEE00BB269D319D3109259D319C3138249D3157
:103BFE009C31FD249D319C31A124080021004A1CDA
:103C0E0008000130CB024B08FF3A0319080064305C
:103C1E002000A00020082100CB00803102200800E7
:103C2E002000A1002108013A003003190130A00044
:103C3E002300440820002006FE3920062300C4007D
:103C4E00C201C30108002000A1002108013A003082
:103C5E0003190130A000A00DA00D23004408200080
:103C6E002006FB3920062300C40008002000A10115
:103C7E000830210203180800FB1F472E0E16482E8F
:103C8E000E128E150310FB0D8E110130A0002008B0
:103C9E00A1073F2E2000A1002108013A0030031990
:103CAE000130A000A00EA00DA00D21003B082000A9
:103CBE002006BF3920062100BB000800013021007C
:103CCE00AD070030AE3D0D30A03E86008701403F6F
:103CDE00103A031D742E413F273A031D0800AD0113
:103CEE00AE012C150800943173249E3191313E2182
:103CFE009E319F3140279E319C3100249E319B3155
:103D0E00FC239E319C31CD249E319C31042408002D
:103D1E0020000D1808002100201C08009B2E2000FA
:103D2E000D149E3165269E3120000D18A12E210006
:103D3E002C1D962E9C311C2408002000A101083059
:103D4E002102031808008E150310FB0D8E1EB12ED6
:103D5E007B14B52EFE30A0002008FB058E1101301D
:103D6E00A0002008A107A62EF73021008C000430F9
:103D7E008D0026308E0022008C018D018E010E30BA
:103D8E0023008C008D018E01F73020008C00043052
:103D9E008D0026308E0008002000A3000E10230890
:103DAE00A2002208FB00DE2E9E3165269E312000E9
:103DBE008E1EE42E21002C1DDB2E9C311C249E31E8
:103DCE009E313D2620000E1408002000A200A10105
:103DDE00A30130302300920020002208230091001E
:103DEE001513151414082000A0002008A1002300AC
:103DFE0013082000A0002008A300230808002000BC
:103E0E00A101053021020318080021354E3E86001F
:103E1E00013087000030C03FC13F2135583E86003B
:103E2E0001308700FF30C03FFF30C13F0130A0009E
:103E3E002008A107082F2000A40024089C318B2401
:103E4E0020006F08083E8600013087000115220809
:103E5E00013A003003190130A3006F08083E8600B6
:103E6E0001308700A30D01082306FD3923068100CA
:103E7E0008002000A70108302702031808002708B1
:103E8E005E3E840090300318013E85000008A500B8
:103E9E002508A6002608A5002508A2003E309F3161
:103EAE00DF279F3101302000A5002508A707422FEC
:103EBE002000A40024089C318B2420006F08083EAB
:103ECE0086000130870001162208013A00300319DE
:103EDE000130A3006F08083E860001308700A30D55
:103EEE00A30DA30D01082306F73923068100080050
:103EFE00003092314E229F312000BD003D08BE00A1
:103F0E003E0803198F2F21005118982F5114932F0B
:103F1E002100511C982F511020003E089731A427E4
:103F2E009F310130803143209F319E318F26080012
:103F3E002000A300230821009D002000200821005E
:103F4E009E009D14AD2F9E3165269F3121009D1C34
:103F5E00B22F2C1DAA2F9C311C2421001C082000DE
:103F6E00A101A10721001B082000A001A007080045
:103F7E00633402340034003400340034003400342E
:103F8E000034003400340034FF34FF34FF34003486
:103F9E000034003400340034003400340034003473
:103FAE000034003400340034003400340034003463
:103FBE002000A4000E102408A3002308FB00EA2F03
:103FCE009E3165269F3120008E1EF02F21002C1D64
:103FDE00E72F9C311C249F319E313D269F312000BE
:103FEE002208A3002308FB009E313D2620000E145C
:023FFE000800B9
:020000040001F9
:04000E00FCF9FDFFFD
:00000001FF
