:1000000080311328640008007E14803120007F08AE
:10001000F4009C31E12480319F31D72774082000FF
:10002000FF007E10090080311528F901F501F60165
:10003000F701F801EF01A0308400003085004A305C
:100040009A31E622803120308400013085004B3027
:100050009A31E6228031A030840001308500493099
:100060009A31E622803120308400023085002E3023
:100070009A31E6228031033084009F3085004E3073
:1000800086000230870020309A31E0227E10200066
:100090009731A52F00309131932180312000A800A5
:1000A0002808AA00AB012200271CF0299C319524C6
:1000B00080310038031D5E2822007F282000AA0816
:1000C000031D7C288731D32780310038031D7C280D
:1000D0002200A7149B310B238031013A031D77289E
:1000E0002200A71DA71B8028A715D0018028220069
:1000F000A71F8028A71380282200A71C8028A710EC
:10010000A71CCC292715271ECA290130A8070030B3
:10011000A93D00302902053003192802031C0800FC
:10012000A801A901271201302000AC000030AD0069
:100130002D08803AA80080302802031DA128043031
:100140002C020318D52820002C35323E86000130C1
:100150008700403FA800413FA90028082200AC07C3
:10016000200029082200AD3D20002C353C3E8600B1
:1001700001308700403FA800413FA9002808220025
:10018000AE07200029082200AF3D01302000AC0757
:100190000030AD3D2D08803AA80080302802031DB4
:1001A000D32804302C02031CA32803302000A00015
:1001B0000030A10022002D082000A301A307220087
:1001C0002C082000A201A2079231302280312000A9
:1001D00021082200AD01AD07200020082200AC015B
:1001E000AC0703302000A0000030A10022002F083F
:1001F0002000A301A30722002E082000A201A207CD
:10020000923130228031200021082200AF01AF0757
:10021000200020082200AE01AE0790316620803118
:1002200022002F082D02031D17292E082C02031C63
:1002300008000530273E8600013087002E09200087
:10024000A80022002F092000A900A80A0319A90A62
:10025000403F28072200C600413F2000293D2200E0
:10026000C700AC01AD01AE01AF01A71D9629023058
:1002700050020318962901302000A8002808220007
:10028000D0079B31132380312000A8002808AB0041
:100290009D311D2580312000A80028082200D300B0
:1002A0005008013A031D5E2902302000A8002808EA
:1002B0002200D200E830CC00033069295008023A0D
:1002C000031D96295308013A031D6B293730CC00D2
:1002D0000030CD0096292000AB08031D8A2922009A
:1002E00053082000A800A9012808A0002908A1009F
:1002F0003730A2000030A3009E3147268031200015
:1003000021082200CD01CD07200020082200CC01C9
:10031000CC07962920002B08013A031D96292200BC
:100320003008373ECC000030313DCD0022004D0872
:100330004702031D9D294C084602031CAC290130CD
:100340002000A80028082200D107510852020318F3
:100350000800D101A7160800D101A71D080001302F
:100360002000A80028082200D40703305402031CF0
:100370000800D401A717A711D0014708B101B107A0
:100380004608B001B00703302000A800280822006A
:10039000D200080027160800271DDF292711271281
:1003A000A801A9019031662080312200D101D40139
:1003B000AC01AD01AE01AF01A711D001A713A71E7B
:1003C00008000130AA070030AB3D03302B02E830B3
:1003D00003192A02031C0800AA01AB01A712080096
:1003E00021002E1C08002200271408002000ED0028
:1003F0006D089D31312581317508860076088700AA
:10040000011C5F2B00309131932181310038031D95
:10041000252A750886007608870041318110200062
:100420006D089E3184268131013A00300319013074
:100430002000EB007508860076088700EB0D0108A8
:100440006B06FD396B0681003C2A7508860076082C
:100450008700413181183C2A75088600760887009C
:10046000413181147508860076088700811075086F
:1004700086007608870001157508860076088700D3
:10048000811C0C2B750886007608870001196A2AE2
:1004900001302000EB0075088600760887004231A5
:1004A0006B088107750886007608870042310530A1
:1004B0000102031C08007508860076088700423197
:1004C0008101750886007608870001156D0888315E
:1004D00017200800750886007608870081199C2A75
:1004E0007508860076088700433101308107413165
:1004F0000318810A75088600760887004331403F5B
:100500002000EB00413FEC0000306C0296300319F4
:100510006B02031C080075088600760887004331CB
:100520000030C03FC13F75088600760887008115FE
:100530006D089031D620080075088600760887007F
:10054000011ADA2A750886007608870045310130DD
:10055000810741310318810A7508860076088700F3
:100560004531403F2000EB00413FEC0000306C0281
:10057000963003196B02031C080075088600760884
:10058000870045310030C03FC13F750886007608BE
:100590008700011601309D31452581312100AE1EB5
:1005A000080064302000A9000030AA000230963113
:1005B000F32608007508860076088700811A08006F
:1005C0007508860076088700473101308107413180
:1005D0000318810A75088600760887004731403F76
:1005E0002000EB00413FEC0001306C022C3003197D
:1005F0006B02031C080075088600760887004731E7
:100600000030C03FC13F750886007608870081161C
:1006100000309D3145250800750886007608870062
:10062000011D080001302000EB00750886007608E7
:10063000870042316B0881077508860076088700BD
:10064000423105300102031C080075088600760857
:100650008700423181017508860076088700011104
:10066000750886007608870043310030C03FC13FDF
:10067000750886007608870081117508860076085F
:10068000870045310030C03FC13F750886007608BD
:100690008700011275088600760887004731003010
:1006A000C03FC13F750886007608870081126D083B
:1006B0009431B124813100309D314525080021005D
:1006C0002E1C0800750886007608870001140800B3
:1006D000F30073089C316F2483317808023E860052
:1006E00001308700011D922B0130F2007808033E93
:1006F000860001308700720881077808033E860073
:100700000130870039300102031C922B7808033E28
:1007100086000130870081017808023E86000130A2
:1007200087000111780A860001308700011CC92B5F
:100730007808033E8600013087007808043E840074
:100740000130850000080102031C0800780A8600B9
:10075000013087000110780A86000130870081157A
:100760007808860001308700011C080078088600A0
:100770000130870001107308013A031DC22B2000CD
:100780008C1308007308023A031D080020000D12A4
:100790000800780A860001308700811D0800780A69
:1007A00086000130870081110130F2007808053E93
:1007B000860001308700720881077808053E8600B0
:1007C000013087007808083E840001308500000869
:1007D0000102031C2D2C7808053E8600013087009D
:1007E0008101780A860001308700011F0800780A1D
:1007F000860001308700811B162C7808043E860095
:1008000001308700383001020318102C0130F2004B
:100810007808043E860001308700720881070800CE
:10082000780A860001308700811708007808043EA6
:100830008600013087000D300102031C272C780848
:10084000043E860001308700013081020800780AEA
:10085000860001308700811308007808023E860078
:1008600001308700011C08007808043E8600013032
:1008700087007808063E84000130850000080102E8
:1008800003184C2C0130F2007808043E8600013039
:1008900087007208810708007808063E860001304C
:1008A00087007808043E84000130850000080102BA
:1008B0000318622C7808043E86000130870001305E
:1008C000810208007808023E86000130870001108E
:1008D000080020004108C7004208C8004308C900BA
:1008E0000310480D490DCA004A08CD004408C7004E
:1008F0004508C8004608C9000310480D490DCA0044
:100900004A08CC004D080319912C4C084D020318DD
:10091000982C4D03FF3A4C07C70019304702031CBF
:10092000982C4408C1004508C2004608C3000800CE
:100930004C08031908004D084C020318A72C4C035F
:10094000FF3A4D07C7001930470203180800063068
:10095000C7004708CB00C31BCB17C61B4B17C217DA
:10096000FF30C105FF30C2050030C305C517FF3099
:10097000C405FF30C5050030C6054C084D020318FC
:10098000E32C0130C435C50DC60D890BC22C0130D6
:10099000CC024C084D060319DE2C0130CB024B086B
:1009A00007390319DE2CC12C0130C336C20CC10C2F
:1009B000890BD52C0130C7004708CD074D084C06E0
:1009C0000319082DD42C4D084C020318082D0130B2
:1009D000C135C20DC30D890BE82C0130CD024C0886
:1009E0004D060319042D0130CB024B0807390319BA
:1009F000042DE72C0130C636C50CC40C890BFB2C2A
:100A00000130C7004708CC074D084C06031DFA2CDF
:100A1000CB1F1A2DFF30C106FF30C206FF30C306C0
:100A20000130C107003003180130C207003003183D
:100A30000130C3074B1F2C2DFF30C406FF30C50605
:100A4000FF30C6060130C407003003180130C50767
:100A5000003003180130C607CB014108C407420823
:100A6000C53D4308C63DC61F472DFF30C406FF30B5
:100A7000C506FF30C6060130C40700300318013038
:100A8000C507003003180130C607CB01CB0A440864
:100A9000A0004508A1004608A2004D08C70047086D
:100AA000A3004B08C8004808A4008831D0202000CB
:100AB0002008C1002108C2002208C300080000303D
:100AC0009131932185312000EB006B082300EA006F
:100AD000EF0102302000EB006B082300E900210049
:100AE000B91D812D2300EA08031D08002100B9115A
:100AF0000A302000EB006B08A20063309531F4252A
:100B0000080023006A08031908002100B9150B30FA
:100B10002000EB006B08A20063309531F42585318D
:100B2000382E9C3195248531013A031DA02D2C309F
:100B30002000A9000130AA000A309631F326853141
:100B40002300EB01EC016C08803A2000EB008030C0
:100B50006B02031DAE2D230069086B020318D22D12
:100B600023006B08013E9B31F4238531013A031DBC
:100B7000CC2D20006F080B3E8600013087008114C9
:100B80006F08023E860001308700811023006B0849
:100B9000013E9431B124853101302300EB07003050
:100BA000EC3DA32D230008002C302000A9000130CB
:100BB000AA0005309631F32685319C31A824853171
:100BC0002000EB006B082300EF00EF08031D1B2E35
:100BD000ED01EE016E08803A2000EB0080306B02E0
:100BE000031DF52D230069086D020318192E23003B
:100BF0006D08013E9B31F4238531013A031D132E0C
:100C000020006F080B3E86000130870081146F08BA
:100C1000023E860001308700811023006D08013EEE
:100C20009431B124853101302300ED070030EE3DD1
:100C3000EA2D2300080023006F089B31F42385313F
:100C4000013A0319252E2300080020006F080B3EEF
:100C500086000130870081146F08023E8600013053
:100C60008700811023006F089431B124230008000D
:100C700023006A08023A0319912D013A0319D42D71
:100C8000422E080008002000E3011F309D31DB25C3
:100C90008631AA3A031DB52E00309D31DB25863101
:100CA0002000E2007A080C3E8600023087006208CD
:100CB000810001309D31DB2586312000E2007A0879
:100CC0000D3E8600023087006208810002309D31AF
:100CD000DB2586312000E2007A080E3E86000230D5
:100CE00087006208810038308931932186312000E5
:100CF000E2006208E3006308E2007A08153E86001D
:100D000002308700620881006308E2007A08163E1C
:100D1000860002308700620881006308E2007A08DA
:100D2000173E860002308700620881007A080C3E78
:100D30008600023087000108FF3A031D08007A0888
:100D40000D3E8600023087000108FF3A031D0800AF
:100D50007A080E3E8600023087000108FF3A031D24
:100D600008002100AE15AE160800383089319321F5
:100D700086312000E2006208E300FF30E2006208F2
:100D8000A00000309B314B238631FF302000E20071
:100D90006208A00001309B314B238631FF302000D8
:100DA000E2006208A00002309B314B238631FF3005
:100DB0002000E2006208A00003309B314B23863103
:100DC000FF302000E2006208A00004309B314B237A
:100DD0008631FF302000E2006208A00005309B3120
:100DE0004B238631AA302000E2006208A0001F30A9
:100DF0009B314B23863120006308E2007A08153EC0
:100E0000860002308700620881006308E2007A08E9
:100E1000163E860002308700620881006308E20007
:100E20007A08173E860002308700620881008B1323
:100E3000913104218B172100AE15AE160800200059
:100E40002E08B4002F08B5003008B6000310350D89
:100E5000360DB7003708B800B808031D362F00302C
:100E6000AE000030AF000030B00008003108B40020
:100E70003208B5003308B6000310350D360DB70043
:100E80003708BD00BD08031D4C2F0030AE000030F8
:100E9000AF000030B00008003D087B3EB4003408CD
:100EA000B8072E08B4002F08B5003008B60010307F
:100EB000B636B50CB40C890B582F3408B700370878
:100EC000BD003108B4003208B5003308B600103058
:100ED000B636B50CB40C890B682F3408B700370848
:100EE000BD068030B4003408BD05AF17B217FF301F
:100EF000B105FF30B2050030B3050030B900003055
:100F0000BA000030BB000730B4003408BC002E1C0F
:100F10008F2F3108B9073208BA3D3308BB3D013085
:100F2000B036AF0CAE0C890B902F0130B135B20D3D
:100F3000B30D890B962F0130BC02031D872F09309A
:100F4000B4003408BC002E1CAB2F3108B90732089E
:100F5000BA3D3308BB3D0130B036AF0CAE0C890B47
:100F6000AC2F0130BB36BA0CB90C890BB22F013053
:100F7000BC02031DA32F3908A0003A08A1003B08BA
:100F8000A2003808B4003408A3003D08B5003508B5
:100F9000A4008831D02020002008AE002108AF0036
:100FA0002208B000080002302000A2002208A3009E
:100FB000A601A401A5012508803AA20080302202E2
:100FC000031DE42F230824020318FD2F200024080A
:100FD000013E9C31822487312000A608031DF82F92
:100FE0006F0A8600013087000030011B0130A60027
:100FF0000130A4070030A53DDB2F200026080800A3
:101000002000A00021004815230048135913200098
:101010002008013A031D0F2823004817080020006C
:101020002008023A031D0800230059170800200079
:10103000B10031089C31822488312000B001B00811
:10104000031D42283108013A031D3128AE01AE0AC2
:101050002300D91D501B2E282000AE0120002E0891
:101060003F283108023A031D4228AF01AF0A23008E
:10107000C81D3F1B3D282000AF0120002F08AD00F8
:101080002D08B000B008031D08006F080B3E860055
:101090000130870081146F08023E8600013087000E
:1010A000811865286F08023E860001308700811490
:1010B0006F080A3E86000130870081146F080A3EDF
:1010C00086000130870001146B286F08023E8600FD
:1010D0000130870081106430A9000030AA0001307F
:1010E0009631F32608002000EE006E089C31F524AE
:1010F00088317708860001308700811C0800770856
:10110000023E86000130870001308107413103181B
:10111000810A7708023E860001308700403F2000A8
:10112000EC00413FED0017306D02703003196C0286
:10113000031C08007708023E86000130870000305B
:10114000C03FC13F0130EC007708043E860001300B
:1011500087006C0881077708043E8600013087000D
:10116000770A84000130850000080102031C080092
:101170007708043E860001308700810177088600E9
:101180000130870081106430A9000030AA000130CE
:101190009631F326883120006E088931312108000C
:1011A000200023080319D928220821042004031D44
:1011B000EA280030A0000030A1000030A2000800A2
:1011C0000130A5002508A3070130A236A10CA00C10
:1011D000890BE528FE30220503190329E028013098
:1011E000A5002508A3070130A0070030031801302F
:1011F000A107003003180130A2070130A236A10C6C
:10120000A00C890BFE28FF30220503191029EF28B6
:101210000130A3020130A035A10DA20D890B0B29CD
:10122000A11F082923181A29FF30A0057F30A10526
:10123000FF30A2050310A30C2308A500A601A701F7
:101240001030A535A60DA70D890B21292508A0046E
:101250002608A1042708A204240803190800A217DD
:1012600008002100EB006B08FF3A031D74290230CF
:101270002000EB006B082100EA00EC01ED016D0895
:10128000803A2000EB0080306B02031D4A292100C8
:101290006A086C020318080021006C08013E9C31AA
:1012A0008224893121006C08013E9B31F42389316D
:1012B000013A031D6E2920006F080B3E86000130A5
:1012C000870081146F08023E86000130870081107C
:1012D00021006C08013E9431B12489310130210094
:1012E000EC070030ED3D3F2921006B089C31822442
:1012F000893121006B089B31F4238931013A031DA8
:10130000080020006F080B3E860001308700811422
:101310006F08023E860001308700811021006B08B3
:101320009431B12408002000DE000030DF003030AE
:10133000E0004230E1000030AE00C830AF00423083
:10134000B0005F08B1006008B2006108B3008E31E0
:10135000A726893120002E08DF002F08E000300882
:10136000E1005E08DC00DD01DC09DD09DC0A0319AF
:10137000DD0A5C08383EA80000305D3DA9009F31C1
:101380002327893120002808B1002908B2002A0843
:10139000B3005F08AE006008AF006108B0008E3196
:1013A000A726893120002E08BE002F08BF00300874
:1013B000C0009B312323893120003E08C4003F0830
:1013C000C5004008C6000030C100C830C20042302D
:1013D000C30084316924893120004108CE004208CD
:1013E000CF004308D0008D31892520004E08080029
:1013F0002000DE000030DF003030E0004230E1004D
:101400000030AE00C830AF004230B0005F08B1001D
:101410006008B2006108B3008E31A7268931200030
:101420002E08DF002F08E0003008E1005E08DC0035
:10143000DD01DC09DD09DC0A0319DD0A5C08643E14
:10144000A80000305D3DA9009F312327893120008D
:101450002808B1002908B2002A08B3005F08AE00CE
:101460006008AF006108B00087311F278931200074
:101470002E08BE002F08BF003008C0009B31232378
:10148000893120003E08C4003F08C5004008C6005E
:101490000030C1006030C2004230C3008431692492
:1014A000893120004108CE004208CF004308D00017
:1014B0008D31892520004E080800A82AFF30893187
:1014C00031218A312000E20109309B31B8238A3171
:1014D0002000E2010B309B31B8238A312000E20169
:1014E0000F309B31B8238A312000E20111309B314B
:1014F000B8238A3164302000A9000030AA000130EE
:101500009631F32608002000E20109309B31B82310
:101510008A312000E2010B309B31B8238A31200050
:10152000E20111309B31B8238A318E311026080038
:101530000130953100250800023095310025080062
:10154000013093311823080002309331182308002A
:1015500023002F08003A03195E2A013A0319982A3A
:10156000033A03199C2A013A0319C32A123A0319B0
:10157000A02A313A0319832A013A0319A42A103AFE
:101580000319C32AC32A080020000D1808003B30A5
:101590009F318C278A312100570803190800200049
:1015A0000E12FF30A40024082100D200DA2A9D3157
:1015B0006E258A3120000E1DE02A2100211FD72A26
:1015C0009A31C5228A319D31C2258A319E312A261F
:1015D0008A31210052082000A40024082100D100F3
:1015E0002000A501210051082000250203180B2B23
:1015F0009E312A268A31210052082000A4002508A5
:10160000A03E860001308700240881000130A4003C
:101610002408A507F22A9E312A268A312100520881
:101620002000A40024082100D0009E312A268A31FF
:10163000210052082000A40024082100CB00200033
:101640000E162100CB1B7914A011A01436309D3149
:10165000F5258A313A309D31F525210008003630D4
:101660009D31F5258B313B309D31F5258B312000A7
:101670000E127F30A40024082100D200422B9D319D
:101680006E258B3120000E1D482B2100211F3F2B82
:101690009A31C5228B319D31C2258B3121005408EE
:1016A0002000A40024082100D2009D31C2258B31E6
:1016B0002000A50121005408200025020318732BE7
:1016C0002508A03E8600013087000108A4002408F8
:1016D0002100D2009D31C2258B3101302000A400B1
:1016E0002408A5075A2B0E1635309D31F5258B3170
:1016F0007C2B9D316E258B3120000D18822B210013
:10170000211F792B9A31C5228B31892B9D316E2572
:101710008B3120000D1C8F2B2100211F862B9A312D
:10172000C5228B3136309D31F5258B313B309D31D3
:10173000F525F91408002000EE006E089C31822483
:101740008B3120006F080A3E860001308700811C23
:10175000CA2B6E08923167228B310038031D0800B6
:1017600020006F080A3E86000130870081106F0854
:101770000A3E860001308700011CC42BEB01EB0AF6
:101780006E0895314F2508002000EB016E08953159
:101790004F2508009C3195248B31013A031DF92B0C
:1017A00020006F080A3E860001308700811D080076
:1017B0006E08923167228B310038031D080020002B
:1017C0006F080A3E86000130870081116F080A3ECB
:1017D000860001308700011DF32BEB01EB0A6E0838
:1017E00096319B2608002000EB016E0896319B265F
:1017F000080020006F080A3E860001308700811D26
:1018000008006F080A3E8600013087008111080039
:101810000030913193218C312000EE006E082100C0
:10182000EE0023002008AA3A031D272C2108013AC4
:10183000031D272C55302000EE007A08023E86005A
:10184000023087006E0881008E31102608002100CA
:10185000EE08031D0800201F382C2300A008031DDC
:1018600008002108643A031D08009131C6210800D0
:101870002300A008031D6D2C2108023A031D6D2CC6
:101880002C08FF3A031D4E2C2D08FF3A031D4E2C49
:101890002E08FF3A031D4E2C000008007A080C3E6B
:1018A00086000230870023002C080106031D080073
:1018B0007A080D3E8600023087002D080106031DC0
:1018C00008007A080E3E8600023087002E080106C6
:1018D000031D08008A315D22080023002008FF3A1A
:1018E000031D782C2108023A031D782C0000080003
:1018F0002300A008031D08002108653A031D080005
:10190000000008002000A600A901A801A7012200EC
:10191000271E0800F3302000A4002408A000260899
:101920009E31E3268C31200021082200C901C9071D
:10193000200020082200C801C8072000A9010430A7
:1019400029020318D02C2935323E86000130870049
:10195000403FA400413FA500220049082000250285
:10196000031DB62C22004808200024020318C82CAE
:10197000A808031DC82C2935323E86000130870097
:1019800022004808C03F4908C13F2000A801A80A1A
:101990000130A4002408A90704302902031CA32C49
:1019A000A808031D0800A901043029020318080033
:1019B00029353C3E860001308700403FA400413F6E
:1019C000A500250822004902031DEA2C2000240856
:1019D000220048020318FD2C2000A708031DFD2C3F
:1019E00029353C3E86000130870022004808C03F70
:1019F0004908C13F2000A701A70A01302000A40028
:101A00002408A907D42C2200EB01EC012100201CA2
:101A1000852D9C3105248D31200021082004031DD3
:101A2000642D9C3116248D31013A003003190130A8
:101A30002100EF00EF0CEF0C20086F067F396F06D6
:101A4000A000A01F252D201F642D201D352D201145
:101A5000201B642DA201A301AA01AB019B31C62367
:101A60008D318B312F238D31642DA01D442D8A3172
:101A7000C4228D312100A01C642DA010AA01AB014D
:101A80008C3108248D31642D01302100A2070030F3
:101A9000A33D0230A03E86008701403F2706031D7C
:101AA000532D413F2806031D642DA201A301A0155B
:101AB00036309D31F5258D313A309D31F5258D310A
:101AC00034309D31F5258D3101302100AA070030D9
:101AD000AB3D17302B02713003192A02031C7C2DF9
:101AE000AA01AB01A011A01036309D31F5258D3132
:101AF0003A309D31F5258D312100211F0800211339
:101B00009D31832520008D1208002E1C0800201412
:101B1000080020004E08D2004F08D3005008D4001F
:101B20000310530D540DD5005508DB00DB08031DD1
:101B3000A22D0030D1000030D0000030CF000030A6
:101B4000CE0008004E08D2004F08D3005008D40041
:101B50001730D436D30CD20C890BA92D5208D500DE
:101B60005508D600CF17FF30CE05FF30CF05003027
:101B7000D0054E08D7004F08D8005008D900DA0128
:101B80008E30DB02DB1FE02D5B08803A8F3E0318AE
:101B9000D22D0030D1000030D0000030CF00003016
:101BA000CE0008000130DA36D90CD80CD70C890BDE
:101BB000D32D0130D2005208DB070319F92DD22DA5
:101BC00018305B02031CF62D0030D1000030D0002D
:101BD0000030CF000030CE0008000130D735D80DDE
:101BE000D90DDA0D890BEE2D0130DB02DB08031D68
:101BF000ED2D56080319072ED709D809D909DA0996
:101C0000D70A0319D80A0319D90A0319DA0A5A0894
:101C1000D1005908D0005808CF005708CE0008005E
:101C20002100201C08002019080020156330200026
:101C3000A00020082300A00002302000A0002008FF
:101C40002300A1007A088600023087000230423F5C
:101C5000A2007A088600023087000230433FA300CA
:101C60007A088600023087000230443FA4007A08D8
:101C70008600023087000230453FA5007A088600C2
:101C8000023087000230463FA6007A088600023004
:101C900087000230473FA7007A088600023087009D
:101CA0000230483FA8007A088600023087000230E0
:101CB000493FA9007A0886000230870002304A3F77
:101CC000AA007A0886000230870002304B3FAB0042
:101CD0007A0886000230870002304C3FAC007A0858
:101CE00086000230870002304D3FAD007A08860042
:101CF0000230870002304E3FAE007A088600023084
:101D0000870002304F3FAF007A088600023087001C
:101D10000230503FB0007A0886000230870002305F
:101D2000513FB1007A088600023087000230523FEE
:101D3000B2007A088600023087000230533FB300B9
:101D4000D2302000A00020082300B40008002000AA
:101D50003108B4003208B5003308B6000310350D61
:101D6000360DB7003708BC00BC08031DBE2E00307E
:101D7000AE000030AF000030B00008002E08B40004
:101D80002F08B5003008B6000310350D360DB7002A
:101D90003708BD00BD08031DD42E0030AE00003052
:101DA000AF000030B00008000030B9000030BA00C9
:101DB0000030BB0089303D07B4003408BC02310854
:101DC000B4003208B5003308B6001030B636B50C92
:101DD000B40C890BE62E3408B7003708BD002E0876
:101DE000B4002F08B5003008B6001030B636B50C78
:101DF000B40C890BF62E3408B7003708BD068030C6
:101E0000B4003408BD05B217FF30B105FF30B2058C
:101E10000030B305AF17FF30AE05FF30AF0500301F
:101E2000B0051830B4003408B8000130B935BA0D27
:101E3000BB0D890B162F30083302031D252F2F08E9
:101E40003202031D252F2E083102031C2E2F2E08CF
:101E5000B1022F08B23B3008B33B39140130B13521
:101E6000B20DB30D890B2F2F0130B802031D152FB2
:101E70003908A0003A08A1003B08A2003C08B400C1
:101E80003408A3003D08B5003508A4008831D020EF
:101E900020002008AE002108AF002208B000080092
:101EA0000030913193218F312000E6006608E80070
:101EB0002100581CFC2F58196C2F0130D907003015
:101EC000DA3D01305A02F43003195902031C0800AC
:101ED000D901DA01581508000130D9070030DA3D80
:101EE00000305A02053003195902031C0800D901B9
:101EF000DA010830D83E8600870116000104031974
:101F0000F62F0A30D83E8600870116000104031917
:101F1000F62F58110A30D83E860087010830D83E87
:101F200084008501403F00072000E6000131413F69
:101F3000003DE700E736E60C66082100DE002000E1
:101F400067082100DF00C730E6000130E7009F305E
:101F5000E8000130E900D81CCD2F67085F02031D9F
:101F6000B32F66085E02031CCB2F01302000E60071
:101F700066082100DB0703305B02031CE32FDB0153
:101F8000D81064302000A9000030AA000230963139
:101F9000F3268F31E32F2100E22F5F086902031D32
:101FA000D32F5E086802031CE22F01302000E600F8
:101FB00066082100DB0703305B02031CE32FDB0113
:101FC000D814E32FDB0121005F082000E60066083B
:101FD000E20018309B31B8238F3121005E082000C9
:101FE000E6006608E20019309B31B8232100E001C9
:101FF000E101E201E30108002E1C0800581408006A
:102000000334163417341E341F3420342A342B344E
:102010000B340C340D340E340F34103411341234AC
:10202000133414340A341534213422341834193456
:102030001A341B341C341D34233424342534263400
:1020400029342C342D342E34003401340234073436
:10205000083409340634043405342734283407346A
:102060000734303487346B34F8347F343F340934E8
:1020700000345C34A734623486348334033422342D
:10208000F83400344434B634103418341D341C345D
:10209000C7340034B234EA340A34003411345934C9
:1020A000883431340B342F342E3406340434053460
:1020B00000343034D334913441340034FE34FE34AF
:1020C000FE34FE34FE34FE34FE34FE342000A10122
:1020D00005302102031808002135323E8600013008
:1020E00087000030C03FC13F21353C3E86000130B3
:1020F0008700FF30C03FFF30C13F0130A000200803
:10210000A10768282000A9000530A4002408A60023
:10211000A701A801313029020318AA2829080F397C
:10212000A4002408A7002908A4000430A436890BC1
:10213000962824080F39A5002508A8000A30A40015
:102140002408A00028089C31272420002707A50088
:102150002508A600260808002000A8012F30280224
:10216000031808002808003E840090300318013E40
:1021700085000008A5002508A60028082F3E840039
:1021800090300318013E85000008A5002508A7002F
:102190002708A5002508A20026089F314527903171
:1021A00001302000A5002508A807AE282000A200C5
:1021B00022089C318224903120006F080A3E86005C
:1021C00001308700811808006F080B3E860001303F
:1021D0008700811C08006F080B3E860001308700D5
:1021E00001156F08023E86000130870081146F08D8
:1021F0000A3E86000130870081156F080A3E86007E
:1022000001308700011508002000A10123001513EB
:102210003030920094011512951615152000A10179
:102220002030210203182C292108230091002000CE
:102230002108203E86000230870001082300930019
:102240009B312C23913101302000A0002008A107F0
:1022500020302102031C1429230095129B312C23CA
:102260002300151108002000E70065302300290233
:10227000031C402964302000E60066082300A90002
:1022800029082000E6006608E20009309B31B823E7
:10229000913120006708E6006608E2000B309B31B0
:1022A000B8239131230029082000E6006608E200E7
:1022B0006708143E9B31B8239131200067089F3195
:1022C000682708002000A30023089C318224913154
:1022D00007302000A2006F08083E8600013087000A
:1022E000220881003830A2006F08063E86000130C7
:1022F0008700220881000C30A2006F08093E86008A
:1023000001308700220881006F08063E86000130F8
:1023100087000108A2006F08043E86000130870094
:102320002208810008002000A500A601A608031DC0
:10233000AD292508023A0319AD292100D818A4298E
:102340002000A101A201A92902302000A100003033
:10235000A2002108A0002008A600A608031DC42989
:102360002508033A0319C4292200A71ABB29200013
:10237000A301A401C02903302000A3000030A40061
:102380002308A0002008A60026080800210020132A
:1023900023002C082000E6006608E2000C309B3188
:1023A000B823913123002D082000E6006608E200E2
:1023B0000D309B31B823913123002E082000E60018
:1023C0006608E2000E309B31B82391316430200062
:1023D000A9000030AA0001309631F3269131210086
:1023E000AE1EF62901309C31CE24913101309C3152
:1023F000BB2408002400441C08009C319524913122
:10240000003A0030031901302000A600A60D240078
:10241000440820002606FD3926062400C400C41CFA
:102420002A2AC4150130C2070030C33D2230203EA5
:10243000860002308700403F193A031D212A413FA0
:10244000003A031D0800C201C3014410C4109431B6
:1024500063240800C41D0800C411C201C3010800A0
:102460002000A601A701210820040319602AA50164
:10247000A50AA11B452A0130A035A10D890B3C2AD4
:102480000130A4002408A507392A0130A635A70D7C
:10249000890B462A21082302031D502A2008220204
:1024A000031C572A2008A2022108A33B261401304E
:1024B000A136A00C890B582A0130A502031D452A1C
:1024C0002708A101A1072608A001A00708002000F5
:1024D000A500A601A201A20A9B3103239231003874
:1024E000031D772A21004819772A2000A201200025
:1024F0002208A1002108A600A608031D9F2A25087E
:10250000013A031D8E2AA301A30A2300D91D501BE3
:102510008B2A2000A301200023089C2A2508023AC8
:10252000031D9F2AA401A40A2300C81D3F1B9A2A49
:102530002000A40120002408A1002108A6002608EC
:102540000800F20072089D315925923121004E0891
:10255000023E8600013087000119080020000D1D91
:10256000080021004E08023E860001308700011558
:102570004E0A86000130870001144E0A86000130A1
:1025800087008114CA014E0A860001308700011DB0
:1025900008004E0886000130870001147208013AD5
:1025A000031DD52A20008C1708007208023A031D6B
:1025B000080020000D16080021002E18F62A013010
:1025C0002000AD002D082100AF072F08963A031D0B
:1025D0000800AF012E1432302000A9000030AA00FC
:1025E00003309631F32621002E160800013020001A
:1025F000AD002D082100AF072F08643A0319AF0181
:102600000130B2070030B33D0430AE3E8600870192
:10261000403F643A031D0E2B413F003A031D080062
:10262000B201B301AE1C162BAE100800AE140800A8
:102630002000EB00EA016B089B31F423933120006A
:10264000E8006808EA006A08013A031D312B0130EE
:102650009C31BB24933120006B089131332193319D
:10266000422B20006B08143E7A07E80068088600B9
:10267000023087000108E9006908E20009309B3157
:10268000B823933120006B081A3E7A07E8006808E7
:102690008600023087000108E9006908E200113075
:1026A0009B31B82393318E31102608002000A500FD
:1026B0002100581D0800F0302000A4002408A000CC
:1026C00025089E31E3269331200021082100E501F1
:1026D000E507200020082100E401E4070C30D83E83
:1026E00086008701160001040319080065086102CD
:1026F000031D7C2B640860020318852B6508E1012B
:10270000E1076408E001E007080065086302031DB3
:102710008B2B64086202031808006508E301E307D5
:102720006408E201E20708002000A40024089E31AA
:10273000A326933121004F08860001308700811CB9
:1027400008004F0A860001308700013081074131BF
:102750000318810A4F0A860001308700403F20009D
:10276000A200413FA30000302302323003192202AD
:10277000031C080021004F0A86000130870000304A
:10278000C03FC13F20002408013A083003198C06DD
:102790002408023A031DCE2B80308E062408633AAB
:1027A000031D080020308D06080020008E100E103A
:1027B0000E160A30A0000030A1009F31B1279331DE
:1027C00020000E120A30A0000030A1009F31B12776
:1027D000933120000E162830A0000030A1009F3158
:1027E000B127933120000E123030A60026082100B8
:1027F000D200FD2B9D316E25933120000E1D032C40
:102800002100211FFA2B9A31C52293319D31C22517
:1028100093310D2C9D316E25933120000E1D132C0C
:102820002100211F0A2C9A31C52220000E100E16FD
:1028300008002100BC1C08000130BD070030BE3D6F
:1028400043083E02031D262C42083D02031C0800DB
:10285000BD01BE01BC1220008D1D302C2100BC1614
:102860002100BC1A5C2CBF08031D582CBC1D462C33
:10287000BC1140082000A00020082100BF0045082E
:10288000C301C3074408C201C20708003C1E562CFE
:102890003C1241082000A00020082100BF0047088A
:1028A000C301C3074608C201C2070800BC100800E4
:1028B000BC1620008D150800BC1220008D110130BF
:1028C0002100BF0208002000A501A501203025023B
:1028D00003187F2C25089D31DB2594312000A400AE
:1028E0002508203E86000230870024088100013040
:1028F000A4002408A50720302502031C6A2C7A08AE
:1029000086000230870002304C3FA00000309B312F
:102910004B2394317A0886000230870002304D3F05
:102920002000A00001309B314B2394317A088600AF
:102930000230870002304E3F2000A00002309B3161
:102940004B2394312400441DA92C44112100AE11C5
:10295000AE128B139B3157239431913104218B1785
:1029600008002000EA006A089C318224943120008B
:102970006F080B3E860001308700811C08006F083D
:102980000B3E86000130870081106F08023E8600F2
:1029900001308700811CE62C6F080B3E8600013059
:1029A0008700011D08006F080B3E8600013087007C
:1029B00001116F080A3E86000130870081156F08FB
:1029C0000A3E860001308700011108006F080A3EA8
:1029D00086000130870081146F080A3E86000130AE
:1029E000870001106A089B31E4239431013A031DEA
:1029F00008002000E601E7016A089531A1250800DA
:102A00002000ED00EC0123003008803A031D332D37
:102A10002000E601E60A230031082000EB006B08E5
:102A2000E7006D089531A125953120006D089B3197
:102A3000F4239531013A031D422D64302000A90092
:102A40000030AA0001309631F32695312000EC01C8
:102A5000EC0AE601E60A6D0897314C2795318E3174
:102A600010269531422D20006D089B31E4239531CD
:102A7000013A031D422D2000E601E7016D08953162
:102A8000A12595312000EC08031D08006D08883150
:102A90001720953120006D089431B12408002000E2
:102AA000ED006B08013A031D7F2D6F0A860001308F
:102AB000870001152100C81520006D08883100200D
:102AC00095312000A2016D089531F42595313830FB
:102AD0002000EC006F08043E8600013087006C087F
:102AE000810038308931932195312000EC006C0849
:102AF000E2006D08143E9B31B8239531952D2000DE
:102B0000EB08031D952D6F0A860001308700011127
:102B10002100C81100308831002095312000A20129
:102B2000A20A6D089531F425953120006B08EC0060
:102B30006C08E6006D0897314C2795318E311026D0
:102B400008002000E90069089C31F5249531200037
:102B50006608013A003003190130E8007708860062
:102B600001308700E80D01086806FD39680681001C
:102B70006608013A031DDF2D6708903182209531E8
:102B80002000E800770A860001308700680881008D
:102B90000F306705E8006808053A0319D32D670868
:102BA0000F39031DD92D263067020318D92D670868
:102BB000DB2D05302000E8006808E200E12D200050
:102BC000E20169081A3E9B31B8237708023E86006D
:102BD000013087000030C03FC13F7708043E8600C7
:102BE00001308700810108002000A30023089E31E6
:102BF000A32695312000A208031D0B2E2308013ABD
:102C0000031D032E8C152308023A03198E1723087F
:102C1000633A03198D162208013A031D1C2E23085E
:102C2000013A031D142E8C112308023A03198E1346
:102C30002308633A03198D1222080A3A031D3C2E19
:102C400021004F0886000130870081104F0A86005E
:102C5000013087000030C03FC13F20002308013A07
:102C6000031D342E8C15382E2308023A03198E17B3
:102C70002308633A03198D1622080B3A031D080036
:102C800021004F08860001308700811408002000D1
:102C9000A601A11F522EA009A109A00A0319A10A89
:102CA000A601A60AA31F5D2EA209A309A20A031961
:102CB000A30A0130A4002408A606A701A801210840
:102CC000200403198C2EA501A50AA11B712E013029
:102CD000A035A10D890B682E0130A4002408A5079A
:102CE000652E0130A735A80D890B722E210823020D
:102CF000031D7C2E20082202031C832E2008A20222
:102D00002108A33B27140130A136A00C890B842E87
:102D10000130A502031D712E26080319942EA70960
:102D2000A809A70A0319A80A2808A101A1072708CA
:102D3000A001A00708002000ED006B08013A031D68
:102D4000B32E6F0A86000130870001176F0A8600D4
:102D50000130870081166430A9000030AA000130DC
:102D60009631F32608002000EB08031D080021001F
:102D7000C81120006D0888310020963120006F0AAC
:102D800086000130870001136F0A8600013087003A
:102D900081126F08043E8600013087000108EC00B4
:102DA0006F08063E8600013087006C0881006F08BE
:102DB000043E860001308700010889319321963155
:102DC0002000EC006C08E2006D08143E9B31B82333
:102DD00096312000E601E60A6D0897314C279631BE
:102DE0008E31102608002000AC000A30A000003010
:102DF000A1002A08A301A3072908A201A20796316E
:102E00004726963120002108AA01AA072008A90117
:102E1000A90721003C1C0800BC18242FBC14BD01CC
:102E2000BE0120002C08AB002B082100BF002000B1
:102E30002A082100C301C307200029082100C2017C
:102E4000C20720008D150800BC19382FBC152000C2
:102E50002C08AB002B082100C00020002A0821000C
:102E6000C501C507200029082100C401C4070800C6
:102E70003C1A08003C1620002C08AB002B0821004F
:102E8000C10020002A082100C701C7072000290827
:102E90002100C601C60708002000EA00E901E90A8E
:102EA0006A08FF3E890A562F0310E90DFF3E031DF5
:102EB000542F6A08E7006708E2000B309B31B82303
:102EC000973120006A08143E7A07E70067088600F9
:102ED000023087000108E8006808E20009309B31F1
:102EE000B823973120006A081A3E7A07E70067087E
:102EF0008600023087000108E8006808E20011300F
:102F00009B31B823973120006608013A031D962FA4
:102F10007A080F3E86000230870001086904E70046
:102F20006708E2000F309B31B82308007A080F3E93
:102F3000860002308700200069090105E700670864
:102F4000E2000F309B31B82308009B31D523973125
:102F50009C314B2497318631432697319B31632333
:102F600097319A31AF2297319A31BB2297319A31FA
:102F7000B22297319A31F32297319D310925973149
:102F80009B31AB2397319A31B52297319D318325FF
:102F9000973121002E1CD42F05308C31822497319B
:102FA00009309331562397312200201CC92F20105D
:102FB0009231DC2297319C315D24973121002E1C07
:102FC000C92F9131FA2197319B316F239731943179
:102FD000192497319A31BE22973180314A20973196
:102FE0009E31C32697319B31402397319A31B822C5
:102FF00097319A31FB22973185315F259731C92F5F
:10355C00080021003C1408009031662008009B31C3
:10356C00352308008D31032508009A31AE2208005E
:10357C008F31502708007830210099000800210075
:10358C00AC01AD0108003A309D31F52508003B3007
:10359C009D31F525080036309D31F52508002100B8
:1035AC003911BA01BB0108002000A20022089C318D
:1035BC00F5240800FE0012001E00FE0BE12A003468
:1035CC00640080010131890BE72A0034F3302100BB
:1035DC009E00C13022009700080001309A31DA2297
:1035EC009A3102309A31DA22080001308831732086
:1035FC009A31023088317320080000302200A71B5A
:10360C0001302000A00020080800003021004819DB
:10361C0001302000A0002008080000302100C8194B
:10362C0001302000A000200808002000A400A20106
:10363C00A20A24089531F4250800200040083F0414
:10364C003E04031908008030C006080055302300E2
:10365C009600AA3096009514000000000800153062
:10366C002000A00020082100D4001430A700003056
:10367C00A800080001308131F6219B3102308131E4
:10368C00F6219B319D31AD2508002000A2002008B9
:10369C00A1002208203E860002308700210881000C
:1036AC0008002300151330309200910115161515E2
:1036BC009B312C2323001511080001309C31392437
:1036CC009B3102309C3139249B3163309C3139243D
:1036DC0008000130933194239B31023093319423B1
:1036EC009B31633093319423080024000D11043076
:1036FC0027009400950196018B150B100B178B1757
:10370C000800413020009800FA30970038309600BD
:10371C00210011140B178B1708001730210097008C
:10372C00220025140A302000A00020082200A60048
:10373C00080033309D31F5259B31E8302000A00086
:10374C000330A1009F31B12708009D31AD259B317D
:10375C0024008D1001309B311B239B3102309B3197
:10376C001B2308002000E5006208E30065087A07C7
:10377C00E4006408860002308700630881000800BA
:10378C002100A018CB2BA01D0800A011A0103630D2
:10379C009D31F5259B313A309D31F52508004E3091
:1037AC002000A0002008FA00D230A0007A08143EB5
:1037BC008600023087002008810008002000A2004B
:1037CC0022089C31F52477088600013087000030F0
:1037DC00811801302000A300230808002000A2005B
:1037EC0022089C31822420006F08023E86000130A2
:1037FC008700003081180130A30023080800210045
:10380C003C0C01392000A200A3012208A4002308CB
:10381C00A5002508A101A1072408A001A007080004
:10382C002000A101A201A20A0C1F0C1A212C0C1CB5
:10383C008D18212CA2012208A0002008A10021082B
:10384C0008002000A300A201231C302C2008A1009A
:10385C002108A2070310A00D0310A30CA308031D3D
:10386C002A2C220808002000A40024089E31A3263C
:10387C009C3121004F088600013087000114200084
:10388C00A20124089531F42508009A31C1229C31FB
:10389C009E310F269C319B3187239C319A31EC222F
:1038AC009C319B317B239C319B319323080022005C
:1038BC00251C08000130A6022608FF3A031908004F
:1038CC0064302000A00020082200A60080310220D5
:1038DC000800F1007108013A031D792CBE30F0008C
:1038EC007008F80008007108023A031D0800CF3078
:1038FC00F0007008F80008002000A1002108013A2F
:10390C00031D8C2CBE30A0002008EF002108023AC9
:10391C00031D0800CF30A0002008EF000800200095
:10392C00A00100302300C01801302000A000A00826
:10393C00031DA62C00302300D11801302000A0005C
:10394C00200808002000A1012300481FB12C2000F2
:10395C00A101A10AB82C591FB82C02302000A000DC
:10396C002008A1002000210808002000A100210847
:10397C00013A003003190130A00024004408200053
:10398C002006FE3920062400C400C201C301080031
:10399C002000A1002108013A003003190130A000D9
:1039AC00A00DA00D2400440820002006FB392006A1
:1039BC002400C40008008B1D08000B1C0800270005
:1039CC00161D080016110B1021002E1C08000130CA
:1039DC009231A1229C3102309231A12208002000A8
:1039EC00A1002108013A031D002D5530A00020082C
:1039FC00F70008002108023A031D08005A30A00005
:103A0C002008F7000800BE302000A4002408210084
:103A1C00CC000130913162219D31CF302000A400C7
:103A2C0024082100CD0002309131622108002000D1
:103A3C00A001A101003023003F1901302000A1009A
:103A4C00A20100302300501901302000A2002108EF
:103A5C002207A00008002000A0002008013A031D46
:103A6C003C2DE030F5000130F60008002008023A49
:103A7C00031D08004530F5000230F6000800200058
:103A8C00A1002108013A003003190130A000A00E5A
:103A9C00A00DA00D2100200820002006BF39200613
:103AAC002100A0000800F1007108013A031D642DEB
:103ABC00BE30F00070082100CE0008007108023AF8
:103ACC00031D0800CF30F00070082100CE00080064
:103ADC0001302100AC070030AD3D0C30A03E86001B
:103AEC008701403FA83A031D7D2D413F613A031DDC
:103AFC000800AC01AD01211708009331D5239D318D
:103B0C009031AC209D319E3165269D319A31CD226C
:103B1C009D319A31C9229D319B319F239D319A3120
:103B2C00D122080001302100BA070030BB3D0C3017
:103B3C00AE3E86008701403FA83A031DA72D413FAA
:103B4C00613A031D0800BA01BB01391508002100B8
:103B5C002E1C080020008E1A0800B92D20008E168D
:103B6C009D3198259D3120008E1ABF2D2100391DC5
:103B7C00B42D9A31D52208002000A1010830210271
:103B8C00031808002100D21FCE2D20000E14D02DBA
:103B9C0020000E108E1403102100D20D20008E1068
:103BAC000130A0002008A107C42D2000A200A10113
:103BBC00A301303023009200200022082300910042
:103BCC001513151414082000A0002008A1002300D0
:103BDC0013082000A0002008A300230808002000E0
:103BEC00A3000E122308A20022082100D200012EED
:103BFC009D316E259D3120000E1D072E2100211FA9
:103C0C00FE2D9A31C5229D319D31C22520000E1604
:103C1C000800773021008C0007308D000C308E00AE
:103C2C0022008C0102308D008E01223023008C008A
:103C3C008D018E01773020008C0007308D000C3008
:103C4C008E0024008D0108002000A1010830210203
:103C5C00031808008E1403102100D20D20000E1D35
:103C6C003A2E21005214402EFE302000A0002008D5
:103C7C002100D20520008E100130A0002008A107E1
:103C8C002C2E2000A401A501201C502E2208A407D4
:103C9C002308A53D0130A235A30D890B512E01300F
:103CAC00A136A00C890B562E21082004031D4A2E88
:103CBC002508A101A1072408A001A00708002000E5
:103CCC00A701083027020318080027085E3E84006D
:103CDC0090300318013E85000008A5002508A600B9
:103CEC002608A5002508A2003E309F3145279E31AD
:103CFC0001302000A5002508A707672E2000A4008E
:103D0C00A3012408013A031D932EA101A10A0C1F43
:103D1C000C1A912EA10121089E2E2408023A031D93
:103D2C00A12EA201A20A0C1C8D189D2EA201220804
:103D3C00A0002008A300230808002000A1002108EF
:103D4C00013A031DAE2E6330A00020082100CF00E5
:103D5C0020002108023A031DB82E6730A00020086D
:103D6C002100CF0020002108633A031D08005F30BA
:103D7C00A00020082100CF0008002100481DDB2EE8
:103D8C009B3103239E31013A0319D92E0030913116
:103D9C0093219E310038031DD92E9C3195249E31E0
:103DAC000038031DDB2E2100481101308B319B2381
:103DBC009E3102308B319B2308002000A300230886
:103DCC0021009D002000200821009E009D14F12E52
:103DDC009D3198259E3121009D1CF62E391DEE2E0D
:103DEC009A31D52221001C082000A101A107210035
:103DFC001B082000A001A007080063340234003423
:103E0C000034003400340034003400340034003406
:103E1C000034FF34FF34FF340034003400340034F9
:103E2C0000340034003400340034003400340034E6
:103E3C00003400340034003400342000AD01A91FDC
:103E4C002E2FA809A909A80A0319A90AAD01AD0AC0
:103E5C002808A0002908A100A2018E30AB002B0875
:103E6C00A3002D08AC002C08A4008831D020200021
:103E7C002008A8002108A9002208AA000800200098
:103E8C00A4000E122408A30023082100D200512FF5
:103E9C009D316E259F3120000E1D572F2100211FB3
:103EAC004E2F9A31C5229F319D31C2259F31200062
:103EBC002208A30023082100D2009D31C225200036
:103ECC000E1608002000E30063089C3182249F3109
:103EDC0020006F08023E86000130870001146F0A33
:103EEC0086000130870081167A08093E8600023070
:103EFC00870001088931F8212000E2006F08063E96
:103F0C008600013087006208810008002000A300B1
:103F1C000E122308C03EA20022082100D200992FC5
:103F2C009D316E259F3120000E1D9F2F2100211FDA
:103F3C00962F9A31C5229F319D31C2259F319E31DA
:103F4C002A2620000E16210052082000A20022086A
:103F5C002100D700080001302000A2000030A3008F
:103F6C0021082302031DBC2F20082202031808007D
:103F7C00A401A50100302502023003192402031804
:103F8C00D22F0130A4070030A53D003025020230AD
:103F9C0003192402031CC72F0130A2070030A33DD4
:103FAC00B62F2100111C08002000111C0800FA304B
:103FBC0097003830960011100130833168239F31FF
:103FCC000230833168239F3101302200A107003079
:103FDC00A23D0130203E860001308700403F643A0C
:103FEC00031DFA2F413F003A031D0800A101A20155
:043FFC002014080085
:020000040001F9
:04000E00FCF9FDFFFD
:00000001FF
