:1000000080312028640008007E14803120007F08A1
:10001000F1008B190B1C13282700161D13289D3186
:100020005A2580311B282100111C1B282000111C7F
:100030001B289131C42171082000FF007E100900A7
:1000400080312228FA01FB01EB01EC01A030840091
:10005000003085004F308731FA278031203084000E
:100060000130850050308731FA278031A03084007C
:100070000130850042308731FA27803120308400FA
:100080000230850025308731FA278031A430840082
:100090009130850045308600023087002030903155
:1000A00066207E1020008931EA2900309331AF2389
:1000B00080312000A0002008A200A30122002E1CF5
:1000C000E9299D31DB2580310038031D6928220094
:1000D0008A282000A208031D87289031BB20803188
:1000E0000038031D87282200AE149C31DD248031A6
:1000F000013A031D82282200AE1DAE1B8B28AE15CF
:10010000D7018B282200AE1F8B28AE138B2822002C
:10011000AE1C8B28AE10AE1CC5292E152E1EC32971
:100120000130AF070030B03D00303002023003191B
:100130002F02031C0800AF01B0012E120130200075
:10014000A4000030A5002508803AA00080302002DD
:10015000031DAC28043024020318E02820002435B5
:10016000393E860001308700403FA000413FA1009A
:1001700020082200B307200021082200B43D2000FF
:100180002435433E860001308700403FA000413FB8
:10019000A10020082200B507200021082200B63D5A
:1001A00001302000A4070030A53D2508803AA000BA
:1001B00080302002031DDE2804302402031CAE28F8
:1001C0000330F2000030F30022003408F501F50797
:1001D0003308F401F4079431752480317308220048
:1001E000B401B4077208B301B3070330F200003062
:1001F000F3003608F501F5073508F401F4079431EA
:100200007524803173082200B601B6077208B50163
:10021000B5079031A0208031220036083402031D3A
:10022000132935083302031C080005302E3E8600D2
:100230000130870035092000A00022003609200087
:10024000A100A00A0319A10A403F20072200CD0007
:10025000413F2000213D2200CE00B301B401B50191
:10026000B601AE1D8F290230570203188F290130C5
:100270002000A00020082200D7079C31E424803110
:100280002000A0002008A3009E31572680312000C6
:10029000A00020082200DA005708013A031D5A295D
:1002A00002302000A00020082200D900E830D3004E
:1002B000033065295708023A031D8F295A08013A6D
:1002C000031D67293730D3000030D4008F29200068
:1002D000A308031D832922005A082000A000A101C1
:1002E0002008F2002108F3003730F4000030F50058
:1002F00091312A21803173082200D401D407720879
:10030000D301D3078F2920002308013A031D8F2929
:1003100022003708373ED3000030383DD400220099
:1003200054084E02031D962953084D02031CA529AB
:1003300001302000A00020082200D80758085902E8
:1003400003180800D801AE160800D801AE1D080039
:1003500001302000A00020082200DB0703305B02F0
:10036000031C0800DB01AE17AE11D7014E08B8011F
:10037000B8074D08B701B70703302000A0002008D8
:100380002200D90008002E1608002E1DD8292E1193
:100390002E12AF01B0019031A02080312200D8018F
:1003A000DB01B301B401B501B601AE11D701AE1343
:1003B000AE1E08000130B1070030B23D01303202FC
:1003C000F43003193102031C0800B101B201AE126E
:1003D0000800201C08002E1408002000E500650815
:1003E0009F31A427813120006C08860001308700EE
:1003F000011C542B00309331AF2381310038031D91
:100400001C2A20006C0A86000130870081106508D4
:10041000913184218131013A0030031901302000EB
:10042000E3006C08860001308700E30D01086306D5
:10043000FD3963068100322A20006C0A86000130F3
:1004400087008118322A6C0A8600013087008114E7
:100450006C0886000130870081106C08860001302E
:10046000870001156C08860001308700811C012B74
:100470006C0886000130870001195F2A0130E30013
:100480006C08023E860001308700630881076C0813
:10049000023E86000130870003300102031C080081
:1004A0006C08023E86000130870081016C088600DE
:1004B000013087000115650889319021080020006E
:1004C0006C088600013087008119912A6C08033E70
:1004D0008600013087000130810741310318810A0D
:1004E0006C08033E860001308700403FE300413F37
:1004F000E400003064024B3003196302031C08005F
:100500006C08033E8600013087000030C03FC13FC9
:100510006C08860001308700811565089231B82289
:10052000080020006C08860001308700011ACF2ADD
:100530006C08053E8600013087000130810741319B
:100540000318810A6C08053E860001308700403F91
:10055000E300413FE400003064024B3003196302C2
:10056000031C08006C08053E86000130870000303F
:10057000C03FC13F6C088600013087000116013082
:100580009E31C92681312200A01E0800643020005F
:10059000A4000030A5000230973159270800200040
:1005A0006C08860001308700811A08006C08073E3D
:1005B0008600013087000130810741310318810A2C
:1005C0006C08073E860001308700403FE300413F52
:1005D000E40000306402963003196302031C080033
:1005E0006C08073E8600013087000030C03FC13FE5
:1005F0006C08860001308700811600309E31C926C4
:10060000080020006C08860001308700011D0800EA
:100610000130E3006C08023E860001308700630869
:1006200081076C08023E860001308700033001021A
:10063000031C08006C08023E86000130870081011F
:100640006C0886000130870001116C08033E8600AB
:10065000013087000030C03FC13F6C088600013088
:10066000870081116C08053E86000130870000304C
:10067000C03FC13F6C0886000130870001126C0842
:10068000073E8600013087000030C03FC13F6C0844
:100690008600013087008112650896312626813157
:1006A00000309E31C92608002200201C08002000CE
:1006B0006C0886000130870001140800200039080A
:1006C000BF003A08C0003B08C1000310400D410DB7
:1006D000C2004208C5003C08BF003D08C0003E08FB
:1006E000C1000310400D410DC2004208C40045087E
:1006F0000319862B4408450203188D2B4503FF3A46
:100700004407BF0019303F02031C8D2B3C08B90081
:100710003D08BA003E08BB00080044080319080061
:100720004508440203189C2B4403FF3A4507BF00C9
:1007300019303F02031808000630BF003F08C3000D
:10074000BB1BC317BE1B4317BA17FF30B905FF30D9
:10075000BA050030BB05BD17FF30BC05FF30BD0535
:100760000030BE05440845020318D82B0130BC35C3
:10077000BD0DBE0D890BB72B0130C40244084506E0
:100780000319D32B0130C302430807390319D32BB4
:10079000B62B0130BB36BA0CB90C890BCA2B013011
:1007A000BF003F08C507450844060319FD2BC92BA8
:1007B000450844020318FD2B0130B935BA0DBB0DB5
:1007C000890BDD2B0130C502440845060319F92BBE
:1007D0000130C302430807390319F92BDC2B013020
:1007E000BE36BD0CBC0C890BF02B0130BF003F089E
:1007F000C40745084406031DEF2BC31F0F2CFF3011
:10080000B906FF30BA06FF30BB060130B907003029
:1008100003180130BA07003003180130BB07431F2B
:10082000212CFF30BC06FF30BD06FF30BE06013074
:10083000BC07003003180130BD0700300318013039
:10084000BE07C3013908BC073A08BD3D3B08BE3DA1
:10085000BE1F3C2CFF30BC06FF30BD06FF30BE067D
:100860000130BC07003003180130BD070030031809
:100870000130BE07C301C30A3C08F2003D08F30083
:100880003E08F4004508BF003F08F5004308C000DB
:100890004008F6008A31A42272082000B9007308CB
:1008A000BA007408BB0008002000DB011F309F3134
:1008B00012278431AA3A031DC62C00309F3112271B
:1008C00084312000DA006D080C3E8600023087007B
:1008D0005A08810001309F31122784312000DA004C
:1008E0006D080D3E8600023087005A0881000230F4
:1008F0009F31122784312000DA006D080E3E8600F9
:10090000023087005A08810038308B31C823843187
:100910002000DA005A08DB005B08DA006D08153E9B
:100920008600023087005A0881005B08DA006D08F3
:10093000163E8600023087005A0881005B08DA0004
:100940006D08173E8600023087005A0881006D0846
:100950000C3E8600023087000108FF3A031D0800A4
:100960006D080D3E8600023087000108FF3A031D26
:1009700008006D080E3E8600023087000108FF3A2D
:10098000031D08002200A015A016080038308B3186
:10099000C82384312000DA005A08DB00FF30DA0077
:1009A0005A08F20000309D3139258431FF30200093
:1009B000DA005A08F20001309D3139258431FF30C8
:1009C0002000DA005A08F20002309D3139258431C6
:1009D000FF302000DA005A08F20003309D3139253B
:1009E0008431FF302000DA005A08F20004309D31D3
:1009F00039258431FF302000DA005A08F200053032
:100A00009D3139258431AA302000DA005A08F200DD
:100A10001F309D313925843120005B08DA006D08D4
:100A2000153E8600023087005A0881005B08DA0014
:100A30006D08163E8600023087005A0881005B0868
:100A4000DA006D08173E8600023087005A088100E0
:100A50008B1393315B238B172200A015A01608007F
:100A600000309331AF2385312000E3006308E500B7
:100A7000EA010230E3006308E4002200AB1D4F2DC1
:100A80002000E508031D08002200AB110A302000F9
:100A9000E3006308F40063308A3145220800200037
:100AA0006508031908002200AB150B302000E30095
:100AB0006308F40063308A3145228531F82D9D3179
:100AC000DB258531013A031D6E2D2C302000A4005A
:100AD0000130A5000A309731592785312000E60101
:100AE000E7016708803AE30080306302031D7A2D36
:100AF0006408660203189B2D20006608013E9D31A4
:100B0000BD258531013A031D952D20006B08860017
:100B10000130870001146B0A860001308700011044
:100B20006608013E96312626853101302000E60711
:100B30000030E73D712D200008002C302000A4007B
:100B40000130A50005309731592785319D31EA25BF
:100B500085312000E3006308EA00EA08031DDE2D6A
:100B6000E801E9016908803AE30080306302031D6F
:100B7000BB2D640868020318DC2D20006808013EC4
:100B80009D31BD258531013A031DD62D20006B080E
:100B900086000130870001146B0A8600013087004F
:100BA00001106808013E963126268531013020006B
:100BB000E8070030E93DB22D2000080020006A0857
:100BC0009D31BD258531013A0319E82D200008002B
:100BD00020006B0886000130870001146B0A860034
:100BE0000130870001106A0896312626200008008F
:100BF00020006508023A03195F2D013A03199D2D63
:100C0000022E080008002100201C08002015633077
:100C1000F20072082300A0000230F2007208A10066
:100C200020006D088600023087000230423F23001A
:100C3000A20020006D088600023087000230433F8A
:100C40002300A30020006D088600023087000230D8
:100C5000443F2300A40020006D0886000230870076
:100C60000230453F2300A50020006D0886000230B9
:100C700087000230463F2300A60020006D08860052
:100C8000023087000230473F2300A70020006D0894
:100C90008600023087000230483F2300A800200071
:100CA0006D088600023087000230493F2300A9000A
:100CB00020006D0886000230870002304A3F230082
:100CC000AA0020006D0886000230870002304B3FEA
:100CD0002300AB0020006D08860002308700023040
:100CE0004C3F2300AC0020006D08860002308700D6
:100CF00002304D3F2300AD0020006D088600023019
:100D0000870002304E3F2300AE0020006D088600B1
:100D10000230870002304F3F2300AF0020006D08F3
:100D20008600023087000230503F2300B0002000D0
:100D30006D088600023087000230513F2300B10069
:100D400020006D088600023087000230523F2300E9
:100D5000B20020006D088600023087000230533F49
:100D60002300B300D230F2007208B4000800003053
:100D70009331AF2386312000DE005E08E0002100C1
:100D80004F1C632F4F19D32E0130D0070030D13DB7
:100D900000305102FA3003195002031C0800D00140
:100DA000D1014F1508000130D0070030D13D00308F
:100DB0005102023003195002031C0800D001D10176
:100DC0000830CF3E860087011600010403195D2F0D
:100DD0000A30CF3E860087011600010403195D2FFB
:100DE0004F110A30CF3E860087010830CF3E840085
:100DF0008501403F00072000DE000131413F003DFA
:100E0000DF00DF36DE0C5E082100D50020005F0821
:100E10002100D600C730DD000130DE009F30DF004A
:100E20000130E000CF1C342F5E085602031D1A2F3C
:100E30005D085502031C322F01302000DE005E08E1
:100E40002100D20703305202031C4A2FD201CF10D7
:100E500064302000A4000030A500023097315927EB
:100E600086314A2F2100492F56086002031D3A2F70
:100E700055085F02031C492F01302000DE005E0888
:100E80002100D20703305202031C4A2FD201CF1493
:100E90004A2FD201210056082000DE005E08DA0049
:100EA00018309D31AF258631210055082000DE0025
:100EB0005E08DA0019309D31AF252100D701D80135
:100EC000D901DA0108002200201C080021004F147B
:100ED00008002000E9012100201CF42F9E31672624
:100EE000873173087204031DD52F9E31B8268731D0
:100EF000013A0030031901302000E800E80CE80C4A
:100F000021002008200068067F3968062100A00023
:100F1000A01F8C2F201FD52F201D9C2F2011201BA0
:100F2000D52FA201A301AA01AB019D31F92587317B
:100F30008C3192248731D52FA01DAB2F8B31042308
:100F400087312100A01CD52FA010AA01AB018C3144
:100F5000FA248731D52F01302100A2070030A33DAC
:100F60001430F2000030F3002808F501F5072708D7
:100F7000F401F407943175248731210023087306A6
:100F8000031DC42F22087206031DD52FA201A30141
:100F9000A01536309031862087313A309031862046
:100FA0008731343090318620873101302100AA0703
:100FB0000030AB3D0B302B02B93003192A02031C61
:100FC000ED2FAA01AB01A011A01036309031862080
:100FD00087313A309031862087312100211F080067
:100FE00021139F317A2708002200201C08002100CD
:100FF00020140800640080010131890BFB2F0034AC
:10100000F700F801F401F40A9C31D6248831003845
:10101000031D0E282100BA180E28F4017408F300ED
:101020007308F800F808031D35287708013A031DF6
:101030002428F501F50A2200641A22282100681AE2
:101040002228F501750832287708023A031D352851
:10105000F601F60A22005C1A31282100611A3128B3
:10106000F6017608F3007308F800780808002100FC
:10107000681D44280130F0007008E9073930690222
:10108000031C4428E9016811681C53286C08690294
:10109000031C08006810E814E81D080020000D1269
:1010A000000000000800E81C0800E8100130F00013
:1010B0007008EA076B086A02031C0800EA01681E50
:1010C0007728E81A6E2838306C0203186C28013033
:1010D000F0007008EC070800E81608000D306C02FC
:1010E000031C75280130EC020800E8120800681F94
:1010F00008006D086C02031882280130F0007008A7
:10110000EC0708006C086D02031889280130EC0216
:101110000800681308002000A101F31F9628F209B7
:10112000F309F20A0319F30AA101A10AF51FA12884
:10113000F409F509F40A0319F50A0130F6007608F6
:10114000A106A201A301730872040319D028A0010B
:10115000A00AF31BB5280130F235F30D890BAC283A
:101160000130F6007608A007A9280130A235A30DAA
:10117000890BB62873087502031DC0287208740213
:10118000031CC7287208F4027308F53B22140130CF
:10119000F336F20C890BC8280130A002031DB528D4
:1011A00021080319D828A209A309A20A0319A30A2E
:1011B0002308F301F3072208F201F20708002000D8
:1011C000E10061089F312627883120005E08013A3E
:1011D000003003190130E00021004508860001308D
:1011E00087002000E00D01086006FD3960068100DF
:1011F0005E08013A031D21295F08933131238831AC
:101200002000E0002100450A860001308700200010
:10121000600881000F305F05E0006008053A03199F
:1012200015295F080F39031D1B2926305F0203189B
:101230001B295F081D2905302000E0006008DA0046
:1012400023292000DA0161081A3E9D31AF252100D3
:101250004508023E8600013087000030C03FC13F94
:101260004508043E86000130870081010800200007
:10127000E200E101E10A6208FF3E890A4129031008
:10128000E10DFF3E031D3F296208DF005F08DA0021
:101290000B309D31AF25893120006208143E6D0767
:1012A000DF005F088600023087000108E000600868
:1012B000DA0009309D31AF258931200062081A3EDD
:1012C0006D07DF005F088600023087000108E0003C
:1012D0006008DA0011309D31AF25893120005E08A9
:1012E000013A031D81296D080F3E860002308700F8
:1012F00001086104DF005F08DA000F309D31AF257F
:10130000080020006D080F3E86000230870061094A
:101310000105DF005F08DA000F309D31AF250800BE
:101320002000A900A801A808031DBA292908013A2C
:10133000031DA729A601A60A2200641AA4292100D8
:10134000681AA4292000A60120002608B729290828
:10135000023A031DBA29A701A70A22005C1AB5297F
:101360002100611AB5292000A70120002708F900F3
:101370007908A80029089F31E72789312000A808AB
:10138000031D08006B0886000130870001146B0AFA
:101390008600013087000118DD296B0A86000130C4
:1013A000870001146B0886000130870081146B08E8
:1013B0008600013087000115E2296B0A86000130A2
:1013C000870001106430A4000030A500013097317F
:1013D000592708009E31082689319E31EC26893133
:1013E0008431542489319D31722589319C31A62460
:1013F00089319C31B22489319C31A92489319C31B5
:10140000F92489319D312E2589319D31A2258931DB
:101410009C31AC2489319F317A2789312200201CEC
:10142000192A05308D31D725893109309431AB2403
:10143000893121003D1C0E2A3D109431E42489316C
:101440009E31972689312200201C0E2A94310E24C9
:1014500089319D317E2589319531E02589319C3155
:10146000B524893180315520893191316421893108
:101470009D314F2589319C31AF2489319D31012522
:1014800089318531302589310E2AF5007508913171
:101490000D218A31F408031D5F2A7508013A031DE6
:1014A000532A20008C157508023A031D592A200082
:1014B0008E177508633A031D5F2A20008D16740885
:1014C000013A031D752A7508013A031D692A200097
:1014D0008C117508023A031D6F2A20008E137508BF
:1014E000633A031D752A20008D1274080A3A031D01
:1014F000992A210046088600013087008110460A9B
:101500008600013087000030C03FC13F7508013AB6
:10151000031D8D2A20008C15932A7508023A031D9D
:10152000932A20008E177508633A031D992A20001C
:101530008D1674080B3A031D08002100460886002A
:10154000013087008114080075080319AC2A74085B
:1015500073047204031DBD2A0030F2000030F30052
:101560000030F40008000130F7007708F50701307B
:10157000F436F30CF20C890BB82AFE30740503190B
:10158000D62AB32A0130F7007708F5070130F207B1
:10159000003003180130F307003003180130F4075E
:1015A0000130F436F30CF20C890BD12AFF307405AC
:1015B0000319E32AC22A0130F5020130F235F30D96
:1015C000F40D890BDE2AF31FDB2A7518ED2AFF3094
:1015D000F2057F30F305FF30F4050310F50C7508B4
:1015E000F700F801F9011030F735F80DF90D890B06
:1015F000F42A7708F2047808F3047908F4047608EA
:1016000003190800F417080020000D1808003B30EB
:1016100092314B228B3121004E0803190800200023
:101620000E12FF30F60076082100C9001A2B9F31F8
:1016300065278B3120000E1D202B2100211F172B29
:101640009C31BC248B319F31CF278B319031F120DD
:101650008B3121004908F6007608C800F7014808D8
:1016600077020318452B9031F1208B312100490876
:10167000F6007708A03E86000130870076088100DA
:101680000130F6007608F7072F2B9031F1208B31CF
:1016900021004908F6007608C7009031F1208B310F
:1016A00021004908F6007608C40020000E1621002B
:1016B000C41B7A14A011A0143630903186208B31CF
:1016C0003A3090318620210008002000E5006308B0
:1016D000013A031D952BF201F20A65089231DF22CF
:1016E0008B31F401200065088A3145228B312100BD
:1016F0003A15200065089E31DA268B3138302000FB
:10170000E4006408F20065089F3150278B313830BF
:101710008B31C8238B312000E4006408DA006508AF
:10172000143E9D31AF258B31BC2B2000E308031DF7
:10173000BC2BF20165089231DF228B31F401F40AEF
:10174000200065088A3145228B3120006508013A66
:10175000031DAE2B8C1300000000B62B2000650883
:10176000023A031DB62B0D120000000021003A11B1
:1017700000309E31DA268B3120006308E4006408D3
:10178000DE006508893137218B3186310326080058
:101790002000D6000030D7003030D8004230D900C9
:1017A0000030A600C830A7004230A8005708A900A2
:1017B0005808AA005908AB008F3157278B312000F9
:1017C0002608D7002708D8002808D9005608D400D2
:1017D000D501D409D509D40A0319D50A5408383ECD
:1017E000A0000030553DA100923107228B3120002E
:1017F0002008A9002108AA002208AB005708A6006B
:101800005808A7005908A8008F3157278B312000AE
:101810002608B6002708B7002808B8009D3109251A
:101820008B3120003608BC003708BD003808BE00E8
:101830000030B900C830BA004230BB0083315E23AB
:101840008B3120003908C6003A08C7003B08C800A1
:101850008E31D0262000460808002000E6006608E9
:101860009F31E7278C3120006B088600013087000C
:10187000811C592C6608883100208C310038031DEA
:10188000080020006B0886000130870081106B087B
:10189000860001308700011D532CE301E30A66082E
:1018A0008B31652308002000E30166088B31652336
:1018B00008009D31DB258C31013A031D852C200069
:1018C0006B08860001308700011E08006608883119
:1018D00000208C310038031D080020006B088600B2
:1018E0000130870001126B08860001308700811EDD
:1018F0007F2CE301E30A66089731082708002000DF
:10190000E301660897310827080020006B0886006D
:1019100001308700011E08006B0886000130870037
:10192000011208003630903186208C313B309031E6
:1019300086208C3120000E127F30F60076082100C0
:10194000C900A52C9F3165278C3120000E1DAB2CC2
:101950002100211FA22C9C31BC248C319F31CF2728
:101960008C3121004B08F6007608C9009F31CF2743
:101970008C31F70121004B0877020318D12C77082E
:10198000A03E8600013087000108F600760821009D
:10199000C9009F31CF278C310130F6007608F70758
:1019A000BA2C20000E163530903186208C31DB2C7D
:1019B0009F3165278C3120000D18E12C2100211F5B
:1019C000D82C9C31BC248C31E82C9F3165278C317C
:1019D00020000D1CEE2C2100211FE52C9C31BC2485
:1019E0008C313630903186208C313B3090318620DE
:1019F000FA14080000309331AF238C312000E60048
:101A00006608E70023002008AA3A031D182D2108C4
:101A1000013A031D182D55302000E6006D08023EE6
:101A200086000230870066088100863103260800A0
:101A30002000E708031D642D2100201F2A2D23000C
:101A4000A008031D08002108643A031D0800943112
:101A5000412408002300A008031D08002108023AC1
:101A6000031D08002C08FF3A031D402D2D08FF3AE6
:101A7000031D402D2E08FF3A031D402D00000800D5
:101A800020006D080C3E86000230870023002C08E1
:101A90000106031D080020006D080D3E860002307F
:101AA000870023002D080106031D080020006D0893
:101AB0000E3E86000230870023002E080106031D1B
:101AC00008008E3152260800000008002000E500C2
:101AD00065089F3126278D31210045088600013099
:101AE0008700811C08004508023E860001308700FF
:101AF0000130810741310318810A4508023E860002
:101B000001308700403F2000E300413FE4000B30FC
:101B10006402B83003196302031C08002100450861
:101B2000023E8600013087000030C03FC13F0130D7
:101B30002000E30021004508043E860001308700B4
:101B400020006308810721004508043E860001301B
:101B50008700450A84000130850000080102031C4B
:101B600008004508043E86000130870081014508D1
:101B7000860001308700811064302000A40000300E
:101B8000A5000130973159278D31200065089D311E
:101B9000BD258D31013A031D0800200065088931FB
:101BA00090218D31200065089631262608002000FE
:101BB000A000A301A201A10122002E1E0800F33003
:101BC000F6007608F200200020089031D6208D31F2
:101BD00073082200D001D0077208CF01CF07200080
:101BE000A301043023020318212E2335393E860039
:101BF00001308700403FF600413FF70022005008C7
:101C00007702031D052E4F0876020318182E2000B8
:101C1000A208031D182E2335393E860001308700A7
:101C200022004F08C03F5008C13F2000A201A20A75
:101C30000130F60076082000A30704302302031CBD
:101C4000F52DA208031D0800A30104302302031888
:101C500008002335433E860001308700403FF600F0
:101C6000413FF700770822005002031D392E760805
:101C70004F0203184C2E2000A108031D4C2E2335C3
:101C8000433E86000130870022004F08C03F5008C5
:101C9000C13F2000A101A10A0130F6007608200012
:101CA000A307252EBA2E01309D31BD258E31013A74
:101CB000031D622E0130893190218E310130963121
:101CC00026268E3102309D31BD258E31013A031D0D
:101CD000712E0230893190218E31023096312626C4
:101CE0008E312000DA0109309D31AF258E31200080
:101CF000DA010B309D31AF258E312000DA010F3033
:101D00009D31AF258E312000DA0111309D31AF2594
:101D10008E3164302000A4000030A50001309731DE
:101D200059278E318631032608002000DA01093058
:101D30009D31AF258E312000DA010B309D31AF256A
:101D40008E312000DA0111309D31AF258E31863180
:101D50000326080001309631B9260800023096317A
:101D6000B9260800013095311D2508000230953153
:101D70001D25080023002F08003A0319532E013AAD
:101D80000319AA2E033A0319AE2E133A0319B22EE1
:101D9000313A0319952E013A0319B62ECF2E0800B9
:101DA00020004608CA004708CB004808CC000310B2
:101DB0004B0D4C0DCD004D08D300D308031DE92E6B
:101DC0000030C9000030C8000030C7000030C60035
:101DD00008004608CA004708CB004808CC00173066
:101DE000CC36CB0CCA0C890BF02E4A08CD004D081E
:101DF000CE00C717FF30C605FF30C7050030C80545
:101E00004608CF004708D0004808D100D2018E30E4
:101E1000D302D31F272F5308803A8F3E0318192F60
:101E20000030C9000030C8000030C7000030C600D4
:101E300008000130D236D10CD00CCF0C890B1A2FF0
:101E40000130CA004A08D3070319402F192F183050
:101E50005302031C3D2F0030C9000030C800003081
:101E6000C7000030C60008000130CF35D00DD10DBD
:101E7000D20D890B352F0130D302D308031D342F27
:101E80004E0803194E2FCF09D009D109D209CF0A24
:101E90000319D00A0319D10A0319D20A5208C9003A
:101EA0005108C8005008C7004F08C60008002000AD
:101EB0002908AC002A08AD002B08AE0003102D0D38
:101EC0002E0DAF002F08B400B408031D6E2F003094
:101ED000A6000030A7000030A80008002608AC00CB
:101EE0002708AD002808AE0003102D0D2E0DAF0001
:101EF0002F08B500B508031D842F0030A600003060
:101F0000A7000030A80008000030B1000030B20087
:101F10000030B30089303507AC002C08B402290822
:101F2000AC002A08AD002B08AE001030AE36AD0C68
:101F3000AC0C890B962F2C08AF002F08B500260893
:101F4000AC002708AD002808AE001030AE36AD0C4E
:101F5000AC0C890BA62F2C08AF002F08B5068030DB
:101F6000AC002C08B505AA17FF30A905FF30AA055B
:101F70000030AB05A717FF30A605FF30A7050030DE
:101F8000A8051830AC002C08B0000130B135B20DF6
:101F9000B30D890BC62F28082B02031DD52F270848
:101FA0002A02031DD52F26082902031CDE2F26082E
:101FB000A9022708AA3B2808AB3B31140130A935F8
:101FC000AA0DAB0D890BDF2F0130B002031DC52F09
:101FD0003108F2003208F3003308F4003408AC0092
:101FE0002C08F5003508AD002D08F6008A31A42232
:101FF00072082000A6007308A7007408A800080053
:102000000334163417341E341F3420342A342B344E
:102010000B340C340D340E340F34103411341234AC
:10202000133414340A341534213422341834193456
:102030001A341B341C341D34233424342534263400
:1020400029342C342D342E34003401340234073436
:10205000083409340634043405342734283407346A
:102060000734303487346B34F8347F343F340934E8
:1020700000345C34A734623486348334033422342D
:10208000F83400344434B634103418341D341C345D
:10209000C7340034B234EA340A34003411345934C9
:1020A000883431340B342F342E3406340434053460
:1020B00000343034D334913441340034FE34FE34AF
:1020C000FE34FE34FE34FE34FE34FE34FE001200D4
:1020D0001E00FE0B67280034773021008C0007308B
:1020E0008D000C308E0022008C018D018E0122307B
:1020F00023008C008D018E01773020008C0007308A
:102100008D000C308E0024008D010800F5002000A9
:102110000E127508F40074082100C90092289F313E
:102120006527903120000E1D98282100211F8F283F
:102130009C31BC2490319F31CF2720000E1608001F
:10214000F30105307302031808007335393E860029
:10215000013087000030C03FC13F7335433E8600E9
:1021600001308700FF30C03FFF30C13F0130F20037
:102170007208F307A128F501F301F30A2100611E9B
:10218000681AC328F3017308F2007208F500F50815
:10219000031DD428F401F40A611F681BD028F40140
:1021A0007408F2007208F50075080800F50075085B
:1021B00021009D0072089E009D14E1289F31B927DF
:1021C000903121009D1CE72822002B1DDE289C3128
:1021D000D12421001C08F301F3071B08F201F207C8
:1021E0000800F301083073020318080020008E1461
:1021F00003102100C90D20000E1D012921004914E2
:102200000629FE30F20072082100C90520008E1058
:102210000130F2007208F307F228F3007308013A64
:10222000031D1729DA30F20072082100C600730876
:10223000023A031D2029DE30F20072082100C60098
:102240007308633A031D08006C30F2007208210025
:10225000C6000800F601F701721C32297408F6075F
:102260007508F73D0130F435F50D890B3329013040
:10227000F336F20C890B382973087204031D2C29DC
:102280007708F301F3077608F201F2070800F90175
:10229000083079020318080079085E3E8400903007
:1022A0000318013E85000008F7007708F800780859
:1022B000F7007708F4003E30923129229131013045
:1022C000F7007708F90748292100BA1C7C299C31BE
:1022D000D6249131013A03197A2900309331AF2382
:1022E00091310038031D7A299D31DB259131003869
:1022F000031D7C292100BA1001308C312D2491312D
:1023000002308C312D240800F600F5017608013AE0
:10231000031D9329F301F30A20000C1F0C1A9129C5
:10232000F30173089F297608023A031DA229F401DC
:10233000F40A20000C1C8D189E29F4017408F20088
:102340007208F50075080800633402340034003464
:1023500000340034003400340034003400340034DD
:10236000FF34FF34FF3400340034003400340034D0
:1023700000340034003400340034003400340034BD
:102380000034003400340034FA3020009700383034
:10239000960011109731AC27913188313720913157
:1023A00001302100BE070030BF3D0130BD3E860038
:1023B0008701403FC83A031DDF29413F003A031D12
:1023C0000800BE01BF013D1408000730F20072088A
:1023D0002100E4003830F2007208E6000C30F20010
:1023E0007208E7003830F2007208E5000730F200AA
:1023F0007208EB003830F2007208ED000C30F20089
:102400007208EE003830F2007208EC00080020007C
:10241000A501A11F122AA009A109A00A0319A10A56
:10242000A501A50A2008F2002108F300F4018E306E
:10243000A3002308F5002508A4002408F6008A312B
:10244000A42272082000A0007308A1007408A20052
:102450000800F60020000E127608F500750821002D
:10246000C900352A9F316527923120000E1D3B2A75
:102470002100211F322A9C31BC2492319F31CF2769
:1024800092317408F50075082100C9009F31CF27EB
:1024900020000E160800F50020000E127508C03E40
:1024A000F40074082100C900582A9F316527923131
:1024B00020000E1D5E2A2100211F552A9C31BC24BC
:1024C00092319F31CF2792319031F12020000E16AA
:1024D00021004908F4007408CE000800F4007408D4
:1024E000013A031D812A7208013A003003190130B4
:1024F000F300F30E210061087306EF397306E10063
:1025000008007408023A031D08007208013A0030FE
:1025100003190130F300F30E210068087306EF3948
:102520007306E80008000130F4000030F50073087D
:102530007502031D9D2A7208740203180800F60133
:10254000F701003077020230031976020318B32A2C
:102550000130F6070030F73D0030770202300319F2
:102560007602031CA82A0130F4070030F53D972AB3
:10257000F40074089F31E727923120006B08860031
:1025800001308700811808006B0886000130870041
:10259000011C08006B0A86000130870001146B08DB
:1025A00086000130870081156B08860001308700A6
:1025B00001166B0886000130870081160800F400C0
:1025C0007408013A031DF42A7208013A0030031915
:1025D0000130F300F30DF30DF30D210061087306D4
:1025E000F7397306E10008007408023A031D080079
:1025F0007208013A003003190130F300F30DF30DB6
:10260000F30D210068087306F7397306E800080027
:10261000F4007408013A031D1D2B7208013A0030C2
:1026200003190130F300F30EF30DF30D21006108DF
:102630007306BF397306E10008007408023A031DEF
:1026400008007208013A003003190130F300F30E5C
:10265000F30DF30D210068087306BF397306E80017
:1026600008002000A3000530F6007608A000A101B4
:10267000A201313023020318592B23080F39F60029
:102680007608A1002308F6000430F636890B452BA6
:1026900076080F39F7007708A2000A30F6007608AE
:1026A000F20022089E31A72620002107F7007708B4
:1026B000A00020080800F301230015133030920019
:1026C0009401151295161515F301203073020318A5
:1026D0007E2B7308230091007308203E8600023091
:1026E0008700010893009D31122593310130F200DB
:1026F0007208F30720307302031C692B2300951224
:102700009D3112252300151108002000A2012F3051
:102710002202031808002208003E840090300318AB
:10272000013E85000008F7007708A00022082F3E30
:10273000840090300318013E85000008F7007708F8
:10274000A1002108F7007708F4002008923129221F
:1027500093310130F70077082000A207872BF7009C
:10276000F801F808031DC62B7708023A0319C62B97
:102770002100CF18BE2BF301F401C22B0230F3006D
:102780000030F4007308F2007208F800F808031D26
:10279000DB2B7708033A0319DB2B2200AE1AD32B6D
:1027A000F501F601D72B0330F5000030F60075086F
:1027B000F2007208F800780808002000DF00653099
:1027C00023002902031CEA2B64302000DE005E088F
:1027D0002300A90029082000DE005E08DA00093085
:1027E0009D31AF25933120005F08DE005E08DA00DE
:1027F0000B309D31AF259331230029082000DE00E6
:102800005E08DA005F08143E9D31AF259331F20176
:10281000F20A20005F089331082308002400441CBA
:1028200008009D31DB259431003A00300319013056
:10283000F800F80D240044087806FD397806C40035
:10284000C41C3B2CC4150130C2070030C33D2230EC
:10285000203E860002308700403F193A031D322C8B
:10286000413F003A031D0800C201C3014410C410D7
:1028700096316C260800C41D0800C411C201C301B2
:1028800008002100201323002C082000DE005E0831
:10289000DA000C309D31AF25943123002D08200043
:1028A000DE005E08DA000D309D31AF259431230043
:1028B0002E082000DE005E08DA000E309D31AF25C4
:1028C000943164302000A4000030A500013097311D
:1028D000592794312200A01E712C01309E31872689
:1028E000943101309E3177260800F701F801730812
:1028F00072040319A42CF901F90AF31B892C013085
:10290000F235F30D890B802C0130F6007608F907BB
:102910007D2C0130F735F80D890B8A2C7308750270
:10292000031D942C72087402031C9B2C7208F40281
:102930007308F53B77140130F336F20C890B9C2CAD
:102940000130F902031D892C7808F301F307770899
:10295000F201F2070800F70021004F1D0800F030D7
:10296000F6007608F20077089031D620943173088B
:102970002100DC01DC077208DB01DB070C30CF3EF5
:102980008600870116000104031908005C0858023C
:10299000031DCC2C5B0857020318D52C5C08D8010A
:1029A000D8075B08D701D70708005C085A02031D47
:1029B000DB2C5B085902031808005C08DA01DA070F
:1029C0005B08D901D907080022002018FC2C01302F
:1029D000F9007908A10721084B3A031D0800A1015D
:1029E000201432302000A4000030A50003309731BD
:1029F00059272200201608000130F9007908A107A4
:102A00002108323A0319A1010130A4070030A53D85
:102A10000430203E860001308700403F323A031DDB
:102A2000132D413F003A031D0800A401A501A01C7D
:102A30001B2DA0100800A01408002000E300E201F4
:102A400063089D31BD2595312000E0006008E2005B
:102A50006208013A031D362D01309E3177269531EB
:102A6000200063089331DD239531472D2000630852
:102A7000143E6D07E0006008860002308700010800
:102A8000E1006108DA0009309D31AF259531200061
:102A900063081A3E6D07E000600886000230870078
:102AA0000108E1006108DA0011309D31AF25953150
:102AB000863103260800F600760891310D21953104
:102AC00021004608860001308700811C0800460A64
:102AD0008600013087000130810741310318810AE7
:102AE000460A860001308700403FF400413FF50070
:102AF00000307502193003197402031C0800460ADD
:102B00008600013087000030C03FC13F7608013A9F
:102B1000031D8D2D083020008C067608023A031D17
:102B2000942D803020008E067608633A031D08003D
:102B3000203020008D06080020008E100E100E168A
:102B40000A30F2000030F3009231932295312000D8
:102B50000E120A30F2000030F300923193229531C8
:102B600020000E162830F2000030F300923193223C
:102B7000953120000E123030F80078082100C9008D
:102B8000C42D9F316527953120000E1DCA2D2100CF
:102B9000211FC12D9C31BC2495319F31CF27953108
:102BA000D42D9F316527953120000E1DDA2D21008F
:102BB000211FD12D9C31BC2420000E100E160800C0
:102BC0002100AE1C08000130AF070030B03D3508D1
:102BD0003002031DED2D34082F02031C0800AF0145
:102BE000B001AE1220008D1DF72D2100AE16210080
:102BF000AE1A1F2EB108031D1B2EAE1D0B2EAE11DB
:102C00003208F2007208B1003708B501B50736087E
:102C1000B401B40708002E1E192E2E123308F2003C
:102C20007208B1003908B501B5073808B401B40716
:102C30000800AE100800AE1620008D150800AE1278
:102C400020008D1101302100B10208002000E200B7
:102C500062089F31E727963120006B08860001301B
:102C60008700011C08006B088600013087000110F6
:102C70006B0A860001308700011C542E6B08860009
:102C800001308700811D08006B0886000130870035
:102C900081116B0886000130870001166B088600E1
:102CA00001308700811208006B0886000130870020
:102CB00081146B08860001308700011162089D3184
:102CC000CC259631013A031D08002000DE01DF010A
:102CD00062088831DF200800F701F7012030770211
:102CE0000318862E77089F3112279631F600770851
:102CF000203E860002308700760881000130F60011
:102D00007608F70720307702031C722E20006D082A
:102D100086000230870002304C3FF20000309D31C7
:102D20003925963120006D08860002308700023078
:102D30004D3FF20001309D313925963120006D085C
:102D400086000230870002304E3FF20002309D3193
:102D5000392596312400441DB12E44112200A011C2
:102D6000A0128B139D316625963193315B238B170F
:102D700008002000E500E40123003008803A031D2C
:102D8000EC2E2000DE01DE0A230031082000E300E3
:102D90006308DF0065088831DF2096312000650870
:102DA0009D31BD259631013A031DFB2E6430200074
:102DB000A4000030A500013097315927963120003A
:102DC000E401E40ADE01DE0A650889313721963123
:102DD000863103269631FB2E200065089D31CC25D7
:102DE0009631013A031DFB2E2000DE01DF0165084C
:102DF0008831DF2096312000E408031D08006508B3
:102E000089319021963120006508963126260800E8
:102E10002000E5006308013A031D212FF201F20AA8
:102E2000650892316E22973100309E3137269731F6
:102E300064302000A4000030A500013097315927EC
:102E400008002000E308031D0800F2016508923124
:102E50006E22973121003A11200065089E31DA2652
:102E60009731200065089E31FE2697312000E4004E
:102E70006408F50065089F313B27973120006508FD
:102E80009E31FE2697318B31C82397312000E40014
:102E90006408DA006508143E9D31AF2597312000A3
:102EA000DE01DE0A65088931372197318631032634
:102EB0000800F8001430F2000030F300200025086C
:102EC000F501F5072408F401F40788318B209731C8
:102ED00073082000A501A5077208A401A40721001A
:102EE0002E1C0800AE18882FAE14AF01B001780870
:102EF000F7007708B100200025082100B501B507CB
:102F0000200024082100B401B40720008D1508001A
:102F1000AE199A2FAE157808F7007708B200200096
:102F200025082100B701B707200024082100B601B9
:102F3000B60708002E1A08002E167808F700770842
:102F4000B300200025082100B901B907200024089A
:102F50002100B801B80708002100611DB92F013018
:102F6000F0007008E20739306202031CB92FE20159
:102F70006111611CC82F65086202031C0800611002
:102F8000E114E11D080020008C130000000008007F
:102F9000E11C0800E1100130F0007008E30764084C
:102FA0006302031C0800E301611EEC2FE11AE32F0A
:102FB000383065020318E12F0130F0007008E50792
:102FC0000800E11608000D306502031CEA2F0130ED
:102FD000E5020800E1120800611F080066086502AA
:102FE0000318F72F0130F0007008E50708006508A6
:102FF00066020318FE2F0130E50208006113080085
:103948000800080021002E1408009031A02008006B
:103958009D31242508008731692708009C31A5245A
:1039680008008631B7260800783021009900080041
:103978002100AC01AD0108003A30903186200800E2
:103988003B30903186200800363090318620080080
:10399800F40074089F312627080022002B11AC017F
:1039A800AD01080000302200AE1B0130F2007208A1
:1039B800080000302100BA180130F200720808002F
:1039C800003021003A190130F20072080800F33083
:1039D80021009E00C130220097000800F600F40183
:1039E800F40A76088A314522080001309C31CC243B
:1039F8009C3102309C31CC24080001308D31662581
:103A08009D3102308D3166250800200038083704C2
:103A18003604031908008030B80608005530230022
:103A28009600AA3096009514000000000800173090
:103A38002100970042140A30F2007208C3000800FF
:103A48001530F20072082100CB006430A700003066
:103A5800A800080001309C31A4249D3102309C311B
:103A6800A4249D319131E5210800F4007208F30087
:103A78007408203E86000230870073088100080021
:103A88003330903186209D31E830F2000330F30066
:103A980092319322080001308131ED219D310230AD
:103AA8008131ED219D319F318F27080027001611A4
:103AB8000B102200201C08009E3117269D319E31D4
:103AC800272608002300151330309200910115169F
:103AD80015159D31122523001511080001309E315E
:103AE80047269D3102309E3147269D3163309E31F5
:103AF80047260800013095315B259D31023095310C
:103B08005B259D31633095315B25080024000D113C
:103B1800043027009400950196018B150B100B17A4
:103B28008B170800413020009800FA309700383091
:103B38009600210011140B178B1708009F318F274F
:103B48009D3124008D1001309C31F2249D310230CA
:103B58009C31F22408002000DD005A08DB005D08D3
:103B68006D07DC005C088600023087005B08810076
:103B78000800F40074089F31E72720006B0A8600CC
:103B880001308700003001180130F5007508080081
:103B9800F40074089F31262721004508860001306B
:103BA8008700003081180130F50075080800F2011F
:103BB800003022005D180130F200F208031DE82DE4
:103BC800003065180130F20072080800F301220085
:103BD800DD1CF12DF301F30AF72DE51CF72D02305A
:103BE800F2007208F300730808002100A018FE2DE7
:103BF800A01D0800A011A0103630903186209D31FC
:103C08003A309031862008004530F20072082000D2
:103C1800ED00D230F2006D08143E860002308700B5
:103C280072088100080021006119080020000D1D9C
:103C38000800210061156114E11D080020008C179F
:103C480000000000080021006819080020000D1D70
:103C58000800210068156814E81D080020000D16EA
:103C6800000000000800F3007308013A003003194F
:103C78000130F200F20DF20D210020087206FB3926
:103C88007206A0000800F600760891310D219E31D9
:103C9800210046088600013087000114F4017608E7
:103CA8008A3145220800F201F30100302100E119B0
:103CB8000130F300F4010030E8190130F400730812
:103CC8007407F200080021002E0C0139F400F501F8
:103CD8007408F6007508F7007708F301F30776080B
:103CE800F201F2070800F3007308013A00300319E3
:103CF8000130F200240044087206FE397206C4003E
:103D0800C201C3010800F3007308013A0030031927
:103D18000130F200F20DF20D240044087206FB395E
:103D28007206C40008002100421C08000130C302CA
:103D38004308FF3A031908006430F2007208C30010
:103D4800803102200800F500F401751CAF2E7208BE
:103D5800F3007308F4070310F20D0310F50CF508CF
:103D6800031DA92E74080800F301F401F40A2000C9
:103D78000C1F0C1AC32E0C1C8D18C32EF4017408CA
:103D8800F2007208F30073080800F3007308013AA0
:103D9800003003190130F200F20EF20DF20D21008D
:103DA80020087206BF397206A0000800F200210040
:103DB800BA142200DD10E5107208013A031DE62E40
:103DC800DD1408007208023A031D0800E514080013
:103DD8009C31B8249E3190316C209E319D319625BE
:103DE8009E319C31EB249E319D318A259E319D3137
:103DF8001B250800F400F3017408013A031D072F7E
:103E0800210065080D2F7408023A031D102F2100A8
:103E18006C08F2007208F30073080800F400F3015C
:103E2800F501303023009200740891001513151421
:103E38001408F2007208F3001308F2007208F50083
:103E480075080800F3007308013A031D312FD030BC
:103E5800F20072082100C50008007308023A031D29
:103E68000800D530F20072082100C5000800F700EC
:103E78007708013A031D462F7508F60076082100D9
:103E8800E60008007708023A031D08007508F600E6
:103E980076082100ED000800F4007408013A031DBB
:103EA8005B2F7208F30073082100E500080074080E
:103EB800023A031D08007208F30073082100EC00A1
:103EC800080001302100AC070030AD3D0C30A03EA9
:103ED80086008701403FA83A031D742F413F613A8D
:103EE800031D0800AC01AD012117080095319C2580
:103EF8009F31933185239F31913147219F319C31E7
:103F0800C4249F319C31C0249F319D3144259F3169
:103F18009C31C82408002200201C080020008E1AAA
:103F280008009B2F20008E169F31B9279F31200053
:103F38008E1AA12F22002B1D962F9C31D124080008
:103F4800F3007308013A031DAF2FBE30F200720868
:103F58002000EC0008007308023A031D0800C7306F
:103F6800F20072082000EC00080001302200AC07C3
:103F78000030AD3D0C30203E860001308700403FC8
:103F8800A83A031DC92F413F613A031D0800AC013F
:103F9800AD012B150800F30108307302031808005F
:103FA8002100C91FDA2F20000E14DC2F20000E106C
:103FB8008E1403102100C90D20008E100130F2006C
:103FC8007208F307D02FF3007308013A031DF42F8A
:103FD8005C30F20072082000EB00000000000800CE
:103FE8007308023A031D08006430F20072082000CA
:083FF800EB00000000000800CE
:020000040001F9
:04000E00FCF9FDFFFD
:00000001FF
