:1000000080312028640008007E14803120007F08A1
:10001000F5008B190B1C13282700161D13289E3181
:10002000A22680311B282100111C1B282000111C36
:100030001B289231A92275082000FF007E100900BC
:1000400080312228FB01F601F701F801F901FA01DC
:10005000EF01A0308400003085004C309D31FF2539
:10006000803120308400013085004F309D31FF25E4
:100070008031A03084000130850041309D31FF2562
:100080008031243084009230850020308600023098
:10009000870020309D31F9257E10200088312C28E2
:1000A000F40074089F3166278031770A860001309A
:1000B0008700011CA5280130F2007708033E860066
:1000C00001308700720881077708043E86000130FE
:1000D0008700010821004A07F200F301F30D7708B9
:1000E000033E8600013087007308803A803C031D80
:1000F0007B2872080102031C89297708033E8600C9
:10010000013087008101770A8600013087000110E5
:10011000770A860001308700011D8929770A860049
:10012000013087008115770A8600013087000116AB
:100130007408013A031D9E2820008C177408023AA7
:10014000031D892920000D168929770A86000130B0
:100150008700811D8929770A860001308700811177
:10016000770A860001308700811E89290130F2005C
:100170007708053E860001308700720881077708FE
:10018000053E8600013087007708083E8400013074
:10019000850000080102031C89297708053E8600B6
:1001A000013087008101770A860001308700011F36
:1001B0001F29770A860001308700811BFE287708F7
:1001C000043E86000130870019300102031CEF282D
:1001D0007708043E860001308700013081027708ED
:1001E000043E8600013087000108183A031D892962
:1001F000770A860001308700811789297708043E35
:1002000086000130870044300102031810290130B4
:10021000F2007708043E86000130870072088107EB
:100220007708043E8600013087000108443A031D28
:100230008929770A86000130870081138929770888
:10024000023E860001308700011C68297708063EBF
:100250008600013087007708043E84000130850065
:100260000008010203183C297708043E860001308B
:1002700087000130810253297708043E860001304F
:1002800087007708063E84000130850000080102DF
:10029000031853290130F2007708043E860001302C
:1002A0008700720881077708063E860001308700C4
:1002B0007708043E84000130850000080106031D14
:1002C00089297708023E86000130870001108429C1
:1002D0007708023E860001308700811C8929770853
:1002E000043E860001308700013081027708063E17
:1002F0008600013087007708043E840001308500C5
:1003000000080102031C8929770A86000130870052
:100310008112770A860001308700011EB929013059
:10032000F2007708073E86000130870072088107D7
:100330007708073E86000130870005300102031C64
:1003400008007708073E8600013087008101770AA0
:1003500086000130870001127408013A031DB2299A
:1003600020008C137408023A031D080020000D12AF
:1003700008007708860001308700811C0800770A92
:10038000860001308700011808000130F20077086C
:100390000C3E8600013087007208810777080C3E0A
:1003A0008600013087000108053A031D0800770820
:1003B0000C3E8600013087008101770886000130FD
:1003C0008700811008002000E80068089031822032
:1003D00081317A08860001308700011C492B0030EA
:1003E0009131AA2181310038031D112A7A0A860031
:1003F000013087008110200068089131E5218131AA
:10040000013A0030031901302000E6007A08860026
:1004100001308700E60D01086606FD396606810099
:10042000262A7A0A8600013087008118262A7A0A4D
:1004300086000130870081147A0886000130870029
:1004400081107A0886000130870001157A0886003D
:1004500001308700811CF62A7A0886000130870067
:100460000119542A01302000E6007A08023E860075
:1004700001308700660881077A08023E8600013055
:10048000870005300102031C08007A08023E86003E
:100490000130870081017A0886000130870001154C
:1004A00068088A31E52208007A0886000130870052
:1004B0008119862A7A08033E8600013087000130C0
:1004C000810741310318810A7A08033E8600013012
:1004D0008700403F2000E600413FE7000030670210
:1004E000963003196602031C08007A08033E860052
:1004F000013087000030C03FC13F7A0886000130DC
:100500008700811568089331912308007A088600D6
:1005100001308700011AC42A7A08053E860001309E
:1005200087000130810741310318810A7A08053EAE
:10053000860001308700403F2000E600413FE70091
:1005400000306702963003196602031C08007A081F
:10055000053E8600013087000030C03FC13F7A0869
:1005600086000130870001160130903196208131DC
:100570002100AE1E080064302000A9000030AA004F
:10058000023089317C2108007A088600013087001A
:10059000811A08007A08073E860001308700013082
:1005A000810741310318810A7A08073E860001302D
:1005B0008700403F2000E600413FE700013067022E
:1005C0002C3003196602031C08007A08073E8600D7
:1005D000013087000030C03FC13F7A0886000130FB
:1005E0008700811600309031962008007A08860036
:1005F00001308700011D080001302000E6007A0864
:10060000023E860001308700660881077A08023EB4
:1006100086000130870005300102031C08007A08BB
:10062000023E86000130870081017A088600013091
:10063000870001117A08033E8600013087000030F0
:10064000C03FC13F7A0886000130870081117A08D7
:10065000053E8600013087000030C03FC13F7A0868
:1006600086000130870001127A08073E86000130BB
:1006700087000030C03FC13F7A0886000130870004
:10068000811268089731122781310030903196200D
:10069000080021002E1C08007A088600013087001F
:1006A0000114080020003E08C4003F08C5004008AF
:1006B000C6000310450D460DC7004708CA00410893
:1006C000C4004208C5004308C6000310450D460D8E
:1006D000C7004708C9004A0803197A2B49084A028B
:1006E0000318812B4A03FF3A4907C400193044021A
:1006F000031C812B4108BE004208BF004308C00014
:1007000008004908031908004A0849020318902BF9
:100710004903FF3A4A07C40019304402031808008D
:100720000630C4004408C800C01BC817C31B4817C4
:10073000BF17FF30BE05FF30BF050030C005C21730
:10074000FF30C105FF30C2050030C30549084A0229
:100750000318CC2B0130C135C20DC30D890BAB2B57
:100760000130C90249084A060319C72B0130C802E3
:10077000480807390319C72BAA2B0130C036BF0C14
:10078000BE0C890BBE2B0130C4004408CA074A08BE
:1007900049060319F12BBD2B4A0849020318F12B16
:1007A0000130BE35BF0DC00D890BD12B0130CA02FF
:1007B00049084A060319ED2B0130C80248080739D9
:1007C0000319ED2BD02B0130C336C20CC10C890BA1
:1007D000E42B0130C4004408C9074A084906031D38
:1007E000E32BC81F032CFF30BE06FF30BF06FF30CF
:1007F000C0060130BE07003003180130BF070030CB
:1008000003180130C007481F152CFF30C106FF3008
:10081000C206FF30C3060130C107003003180130A3
:10082000C207003003180130C307C8013E08C107E2
:100830003F08C23D4008C33DC31F302CFF30C106F6
:10084000FF30C206FF30C3060130C1070030031875
:100850000130C207003003180130C307C801C80ABD
:100860004108A0004208A1004308A2004A08C400B1
:100870004408A3004808C5004508A4008B319E2306
:1008800020002008BE002108BF002208C000080088
:100890002000DE011F3091315A218431AA3A031D14
:1008A000BA2C003091315A2184312000DD006E08CD
:1008B0000C3E8600023087005D08810001309131D6
:1008C0005A2184312000DD006E080D3E8600023082
:1008D00087005D088100023091315A218431200067
:1008E000DD006E080E3E8600023087005D08810044
:1008F00018309631342684312000DD005D08DE009A
:100900005E08DD006E08153E8600023087005D0837
:1009100081005E08DD006E08163E8600023087000A
:100920005D0881005E08DD006E08173E860002301B
:1009300087005D0881006E080C3E8600023087004B
:100940000108FF3A031D08006E080D3E86000230C4
:1009500087000108FF3A031D08006E080E3E86005E
:10096000023087000108FF3A031D08002100AE1580
:10097000AE16080018309631342684312000DD0090
:100980005D08DE00FF30DD005D08A00000309E3114
:100990004E268431FF302000DD005D08A0000130CC
:1009A0009E314E268431FF302000DD005D08A0001E
:1009B00002309E314E268431FF302000DD005D087C
:1009C000A00003309E314E268431FF302000DD0030
:1009D0005D08A00004309E314E268431FF30200097
:1009E000DD005D08A00005309E314E268431AA301E
:1009F0002000DD005D08A0001F309E314E268431AE
:100A000020005E08DD006E08153E8600023087007B
:100A10005D0881005E08DD006E08163E860002302B
:100A200087005D0881005E08DD006E08173E8600C5
:100A3000023087005D0881008B139331BF238B1731
:100A40002100AE15AE16080000309131AA21853183
:100A50002000E6006608E800ED010230E6006608C6
:100A6000E7002100B91D432D2000E808031D080000
:100A70002100B9110A302000E6006608A2006330A8
:100A80009731B027080020006808031908002100EA
:100A9000B9150B302000E6006608A20063309731DC
:100AA000B0278531F22D9F318C278531013A031D06
:100AB000622D2C302000A9000130AA000A308931B3
:100AC0007C2185312000E901EA016A08803AE600CC
:100AD00080306602031D6E2D670869020318912D90
:100AE00020006908013E9E31EC268531013A031D44
:100AF0008B2D20006F080B3E86000130870081148B
:100B00006F08023E86000130870081106908013EAF
:100B100097311227853101302000E9070030EA3D86
:100B2000652D200008002C302000A9000130AA000B
:100B3000053089317C2185319F319F278531200007
:100B4000E6006608ED00ED08031DD62DEB01EC0173
:100B50006C08803AE60080306602031DB12D6708FC
:100B60006B020318D42D20006B08013E9E31EC2649
:100B70008531013A031DCE2D20006F080B3E860003
:100B80000130870081146F08023E86000130870023
:100B900081106B08013E973112278531013020000A
:100BA000EB070030EC3DA82D2000080020006D0868
:100BB0009E31EC268531013A0319E02D2000080012
:100BC00020006F080B3E86000130870081146F08FB
:100BD000023E86000130870081106D089731122790
:100BE0002000080020006808023A0319532D013A3A
:100BF0000319932DFC2D080008002100201C08007B
:100C000020190800201563302000A00020082200D1
:100C1000A00002302000A00020082200A100200037
:100C20006E088600023087000230423F2200A20098
:100C300020006E088600023087000230433F220009
:100C4000A30020006E088600023087000230443F77
:100C50002200A40020006E088600023087000230C7
:100C6000453F2200A50020006E0886000230870064
:100C70000230463F2200A60020006E0886000230A7
:100C800087000230473F2200A70020006E08860040
:100C9000023087000230483F2200A80020006E0882
:100CA0008600023087000230493F2200A900200060
:100CB0006E0886000230870002304A3F2200AA00F8
:100CC00020006E0886000230870002304B3F220071
:100CD000AB0020006E0886000230870002304C3FD7
:100CE0002200AC0020006E0886000230870002302F
:100CF0004D3F2200AD0020006E08860002308700C4
:100D000002304E3F2200AE0020006E088600023006
:100D1000870002304F3F2200AF0020006E0886009F
:100D2000023087000230503F2200B00020006E08E1
:100D30008600023087000230513F2200B1002000BF
:100D40006E088600023087000230523F2200B20057
:100D500020006E088600023087000230533F2200D8
:100D6000B300D2302000A00020082200B400080008
:100D700020002E08B4002F08B5003008B60003107C
:100D8000350D360DB7003708B800B808031DCF2E53
:100D90000030AE000030AF000030B0000800310875
:100DA000B4003208B5003308B6000310350D360D17
:100DB000B7003708BD00BD08031DE52E0030AE00AA
:100DC0000030AF000030B00008003D087B3EB400AA
:100DD0003408B8072E08B4002F08B5003008B60054
:100DE0001030B636B50CB40C890BF12E3408B700B0
:100DF0003708BD003108B4003208B5003308B6002A
:100E00001030B636B50CB40C890B012F3408B7007E
:100E10003708BD068030B4003408BD05AF17B217DF
:100E2000FF30B105FF30B2050030B3050030B90026
:100E30000030BA000030BB000730B4003408BC00FA
:100E40002E1C282F3108B9073208BA3D3308BB3DA4
:100E50000130B036AF0CAE0C890B292F0130B13503
:100E6000B20DB30D890B2F2F0130BC02031D202FB3
:100E70000930B4003408BC002E1C442F3108B907D7
:100E80003208BA3D3308BB3D0130B036AF0CAE0C72
:100E9000890B452F0130BB36BA0CB90C890B4B2F8F
:100EA0000130BC02031D3C2F3908A0003A08A10004
:100EB0003B08A2003808B4003408A3003D08B50080
:100EC0003508A4008B319E2320002008AE002108A5
:100ED000AF002208B000080020004B08CF004C08EB
:100EE000D0004D08D1000310500D510DD200520812
:100EF000D800D808031D852F0030CE000030CD006B
:100F00000030CC000030CB0008004B08CF004C086C
:100F1000D0004D08D1001730D136D00CCF0C890B42
:100F20008C2F4F08D2005208D300CC17FF30CB05CE
:100F3000FF30CC050030CD054B08D4004C08D5005F
:100F40004D08D600D7018E30D802D81FC32F5808BD
:100F5000803A8F3E0318B52F0030CE000030CD0010
:100F60000030CC000030CB0008000130D736D60C62
:100F7000D50CD40C890BB62F0130CF004F08D80701
:100F80000319DC2FB52F18305802031CD92F00305D
:100F9000CE000030CD000030CC000030CB00080087
:100FA0000130D435D50DD60DD70D890BD12F013099
:100FB000D802D808031DD02F53080319EA2FD409EB
:100FC000D509D609D709D40A0319D50A0319D60AAF
:100FD0000319D70A5708CE005608CD005508CC0093
:100FE0005408CB0008009031FE20873124008D107A
:100FF0000130903166208731023090316620080040
:1010020008002000A8012F30280203180800280831
:10101200003E840090300318013E85000008A500C0
:101022002508A60028082F3E840090300318013EB0
:1010320085000008A5002508A7002708A5002508A7
:10104200A200260892314422883101302000A500F6
:101052002508A80704289E31CD2688319F314227D2
:1010620088318431482488319E31662688319D3109
:10107200CB2588319D31D42588319E310C2688318B
:101082009F31EC2788318731F32788319D31CE2576
:1010920088319031D420883121002E1C5428093007
:1010A20095317025883122003E1C4D283E10943126
:1010B200B82488319F315427883121002E1C4D28B5
:1010C2009431822488319E317226883196317A2673
:1010D20088319D31D72588319E311C2688319E3139
:1010E200432688319D31D12588319E31142688319D
:1010F2008531242588314D282000E40064089F3181
:10110200D827883120006108013A003003190130E4
:10111200E3007608860001308700E30D01086306CC
:10112200FD39630681006108013A031DBB2862088C
:101132009331672388312000E300760A860001306C
:101142008700630881000F306205E3006308053AF7
:101152000319AF2862080F39031DB5282630620231
:101162000318B5286208B72805302000E300630899
:10117200DD00BD282000DD0164081A3E9E31B02644
:101182007608023E8600013087000030C03FC13F32
:101192007608043E860001308700810108002000A5
:1011A200A601A11FDB28A009A109A00A0319A10A0F
:1011B200A601A60AA31FE628A209A309A20A0319E7
:1011C200A30A0130A4002408A606A701A801210849
:1011D200200403191529A501A50AA11BFA2801302B
:1011E200A035A10D890BF1280130A4002408A50720
:1011F200EE280130A735A80D890BFB282108230210
:10120200031D052920082202031C0C292008A20222
:101212002108A33B27140130A136A00C890B0D290C
:101222000130A502031DFA28260803191D29A70962
:10123200A809A70A0319A80A2808A101A1072708D3
:10124200A001A00708002000E8006608013A031D7B
:101252003C296F0A86000130870001176F0A860059
:101262000130870081166430A9000030AA000130E5
:1012720089317C2108002000E608031D08002100B6
:10128200C8112000680891311321893120006F0AAA
:1012920086000130870001136F0A86000130870043
:1012A20081126F08043E8600013087000108E700C2
:1012B2006F08063E860001308700670881006F08CC
:1012C200043E8600013087000108963134268931B8
:1012D2002000E7006708DD006808143E9E31B02652
:1012E20089312000E101E10A68088931D52189317B
:1012F2008531FD2508002000AC000A30A000003036
:10130200A1002A08A301A3072908A201A207883184
:10131200D020893120002108AA01AA072008A901AA
:10132200A90721003C1C0800BC18AD29BC14BD0152
:10133200BE0120002C08AB002B082100BF002000BA
:101342002A082100C301C307200029082100C20185
:10135200C20720008D150800BC19C129BC15200048
:101362002C08AB002B082100C00020002A08210015
:10137200C501C507200029082100C401C4070800CF
:101382003C1A08003C1620002C08AB002B08210058
:10139200C10020002A082100C701C7072000290830
:1013A2002100C601C60708002000E500E401E40AA6
:1013B2006508FF3E890ADF290310E40DFF3E031D85
:1013C200DD296508E2006208DD000B309E31B0269F
:1013D200893120006508143E6E07E200620886002B
:1013E200023087000108E3006308DD0009309E3106
:1013F200B0268931200065081A3E6E07E2006208B5
:101402008600023087000108E3006308DD00113026
:101412009E31B026893120006108013A031D1F2A3E
:101422006E080F3E86000230870001086404E20065
:101432006208DD000F309E31B026080020006E08E1
:101442000F3E86000230870064090105E20062084F
:10145200DD000F309E31B02608002000DB00003096
:10146200DC003030DD004230DE000030AE00C8303B
:10147200AF004230B0005C08B1005D08B2005E0807
:10148200B3008E31A7268A3120002E08DC002F08F7
:10149200DD003008DE005B08D900DA01D909DA097B
:1014A200D90A0319DA0A5908643EA80000305A3DE5
:1014B200A900923165228A3120002808B10029084A
:1014C200B2002A08B3005C08AE005D08AF005E08F7
:1014D200B0008631B8268A3120002E08C1002F08BC
:1014E200C2003008C3000030BE00C030BF0041302F
:1014F200C000833152238A3120003E08CB003F08CE
:10150200CC004008CD0087316C2720004B08080032
:101512002000E8006808FF3A031DC72A0230E600EF
:101522006608E700E901EA016A08803AE6008030CD
:101532006602031D9E2A670869020318080020003C
:101542006908013E9F3179278A3120006908013EEE
:101552009E31EC268A31013A031DC12A20006F0810
:101562000B3E86000130870081146F08023E860020
:101572000130870081106908013E973112278A31B4
:1015820001302000E9070030EA3D952A2000680872
:101592009F3179278A31200068089E31EC268A31F2
:1015A200013A031D080020006F080B3E860001303F
:1015B200870081146F08023E860001308700811087
:1015C20068089731122708002000B10031089F31C6
:1015D20079278A312000B001B008031D102B310891
:1015E200013A031DFF2AAE01AE0A2200DC1D531B85
:1015F200FC2A2000AE0120002E080D2B3108023AF1
:10160200031D102BAF01AF0A2200CB1D421B0B2B77
:101612002000AF0120002F08AD002D08B000B00857
:10162200031D08006F080B3E8600013087008114FD
:101632006F08023E8600013087008118332B6F0845
:10164200023E86000130870081146F080A3E860040
:101652000130870081146F080A3E8600013087003E
:101662000114392B6F08023E860001308700811079
:101672006430A9000030AA00013089317C210800C1
:101682002000ED006D089F31D8278B317608860047
:1016920001308700811C08007608023E8600013076
:1016A20087000130810741310318810A7608023E22
:1016B200860001308700403F2000EB00413FEC00F4
:1016C20017306C02703003196B02031C0800760895
:1016D200023E8600013087000030C03FC13F01302A
:1016E200EB007608043E8600013087006B08810714
:1016F2007608043E860001308700760A84000130B5
:10170200850000080102031C08007608043E8600DA
:101712000130870081017608860001308700811040
:101722006430A9000030AA00013089317C218B315C
:1017320020006D088A31892208002000230803193D
:10174200A72B220821042004031DB82B0030A0007F
:101752000030A1000030A20008000130A5002508D9
:10176200A3070130A236A10CA00C890BB32BFE30CB
:1017720022050319D12BAE2B0130A5002508A307A2
:101782000130A007003003180130A1070030031810
:101792000130A2070130A236A10CA00C890BCC2B80
:1017A200FF3022050319DE2BBD2B0130A3020130CD
:1017B200A035A10DA20D890BD92BA11FD62B231861
:1017C200E82BFF30A0057F30A105FF30A2050310F2
:1017D200A30C2308A500A601A7011030A535A60D6C
:1017E200A70D890BEF2B2508A0042608A1042708C2
:1017F200A204240803190800A217080020000D18EB
:1018020008003B30923187228B312100590803199D
:10181200080020000E12FF30A4002408F900142C46
:101822009031BF208B3120000E1D1A2C2100211F68
:10183200112C9D31DE258B3190316E208B3191310F
:101842002A218B3179082000A40024082100D40029
:101852002000A50121005408200025020318432C72
:1018620091312A218B3179082000A4002508203EDD
:10187200860001308700240881000130A40024087A
:10188200A5072B2C91312A218B3179082000A40045
:1018920024082100D30091312A218B3179082000BC
:1018A200A40024082100CF0020000E162100CF1B27
:1018B2007B14A011A0143630913141218B313A3082
:1018C2009131412121000800B02CFF308A31892258
:1018D2008C312000DD0109309E31B0268C31200090
:1018E200DD010B309E31B0268C312000DD010F303E
:1018F2009E31B0268C312000DD0111309E31B026A0
:101902008C3164302000A9000030AA0001308931F6
:101912007C2108002000DD0109309E31B0268C3187
:101922002000DD010B309E31B0268C312000DD011C
:1019320011309E31B0268C318531FD2508000130F1
:101942009731612708000230973161270800013082
:1019520095313225080002309531322508002200E7
:101962002F08003A0319662C013A0319A02C033AF6
:101972000319A42C013A0319CB2C123A0319A82CEF
:10198200313A03198B2C013A0319AC2C103A031982
:10199200CB2CCB2C08003630913141218C313B309D
:1019A200913141218C3120000E127F30A400240895
:1019B200F900DE2C9031BF208C3120000E1DE42C6A
:1019C2002100211FDB2C9D31DE258C3190316E20D0
:1019D2008C31210056082000A4002408F90090311F
:1019E2006E208C312000A50121005608200025021E
:1019F20003180D2D2508203E8600013087000108BE
:101A0200A4002408F90090316E208C3101302000AE
:101A1200A4002408A507F52C0E163530913141217A
:101A22008C31162D9031BF208C3120000D181C2DC9
:101A32002100211F132D9D31DE258C31232D903164
:101A4200BF208C3120000D1C292D2100211F202DAB
:101A52009D31DE258C313630913141218C313B3044
:101A620091314121FB1408002000E90069089F31EF
:101A720079278D3120006F080A3E860001308700E9
:101A8200811C642D690893313F238D310038031D79
:101A9200080020006F080A3E86000130870081108E
:101AA2006F080A3E860001308700011C5E2DE601A8
:101AB200E60A69089531AE2508002000E6016908AA
:101AC2009531AE2508009F318C278D31013A031DD7
:101AD200932D20006F080A3E860001308700811D89
:101AE2000800690893313F238D310038031D080037
:101AF20020006F080A3E86000130870081116F08BE
:101B02000A3E860001308700011D8D2DE601E60A9E
:101B120069088931242108002000E6016908893119
:101B22002421080020006F080A3E86000130870049
:101B3200811D08006F080A3E86000130870081116E
:101B4200080000309131AA218D312000EB006B0892
:101B5200EC0022002008AA3A031DC02D2108013AF8
:101B6200031DC02D55302000EB006E08023E86009A
:101B7200023087006B0881008531FD2508002000B6
:101B8200EC08031D08002100201FD22D2200A0080E
:101B9200031D08002108643A031D080094314E24F5
:101BA20008002200A008031D0C2E2108023A031D82
:101BB2000C2E2C08FF3A031DE82D2D08FF3A031DB9
:101BC200E82D2E08FF3A031DE82D00000800200032
:101BD2006E080C3E86000230870022002C080106A7
:101BE200031D080020006E080D3E860002308700AB
:101BF20022002D080106031D080020006E080E3E7B
:101C020086000230870022002E080106031D08000C
:101C12008C316524080022002008FF3A031D172E8C
:101C22002108023A031D172E000008002200A00816
:101C3200031D08002108653A031D08000000080082
:101C42002100EC01ED01201CA32E9F310E278E31C5
:101C5200200021082004031D842E9F311F278E316E
:101C6200013A0030031901302000ED00ED0CED0CBB
:101C72002100200820006D067F396D062100A0009A
:101C8200A01F452E201F842E201D552E2011201B03
:101C9200842EA201A301AA01AB019E31BE268E3180
:101CA2008C31CC248E31842EA01D642E8B31FF23E7
:101CB2008E312100A01C842EA010AA01AB018D310F
:101CC200A2258E31842E01302100A2070030A33DCF
:101CD2000230A03E86008701403F2706031D732E77
:101CE200413F2806031D842EA201A301A015363010
:101CF200913141218E313A30913141218E3134304E
:101D0200913141218E3101302100AA070030AB3DD3
:101D120017302B02713003192A02031C9C2EAA01D0
:101D2200AB01A011A0103630913141218E313A30F1
:101D3200913141218E312100211F08002113903160
:101D4200D42008002E1C08002014080020003108AE
:101D5200B4003208B5003308B6000310350D360D55
:101D6200B7003708BC00BC08031DBE2E0030AE0011
:101D72000030AF000030B00008002E08B4002F0879
:101D8200B5003008B6000310350D360DB700370820
:101D9200BD00BD08031DD42E0030AE000030AF00E0
:101DA2000030B00008000030B9000030BA00003046
:101DB200BB0089303D07B4003408BC023108B400CE
:101DC2003208B5003308B6001030B636B50CB40C84
:101DD200890BE62E3408B7003708BD002E08B40080
:101DE2002F08B5003008B6001030B636B50CB40C6A
:101DF200890BF62E3408B7003708BD068030B400D0
:101E02003408BD05B217FF30B105FF30B20500300E
:101E1200B305AF17FF30AE05FF30AF050030B00598
:101E22001830B4003408B8000130B935BA0DBB0D12
:101E3200890B162F30083302031D252F2F0832027B
:101E4200031D252F2E083102031C2E2F2E08B1024E
:101E52002F08B23B3008B33B39140130B135B20D13
:101E6200B30D890B2F2F0130B802031D152F39082E
:101E7200A0003A08A1003B08A2003C08B4003408C4
:101E8200A3003D08B5003508A4008B319E23200035
:101E92002008AE002108AF002208B0000800003080
:101EA2009131AA218F312000E1006108E300210075
:101EB2005A1CFC2F5A196C2F0130DB070030DC3D15
:101EC20001305C02F43003195B02031C0800DB01E1
:101ED200DC015A1508000130DB070030DC3D003020
:101EE2005C02053003195B02031C0800DB01DC0104
:101EF2000830DA3E86008701160001040319F62F26
:101F02000A30DA3E86008701160001040319F62F13
:101F12005A110A30DA3E860087010830DA3E840020
:101F22008501403F00072000E1000131413F003DB3
:101F3200E200E236E10C61082100E00020006208C4
:101F42002100E100C730E8000130E9009F30EA00DB
:101F52000130EB00DA1CCD2F69086102031DB32F9B
:101F620068086002031CCB2F01302000E1006108E9
:101F72002100DD0703305D02031CE32FDD01DA10CF
:101F820064302000A9000030AA00023089317C218F
:101F92008F31E32F2100E22F61086B02031DD32F43
:101FA20060086A02031CE22F01302000E100610890
:101FB2002100DD0703305D02031CE32FDD01DA148B
:101FC200E32FDD01210061082000E1006108DD004E
:101FD20018309E31B0268F31210060082000E100C8
:101FE2006108DD0019309E31B0262100E201E301D3
:101FF200E401E50108002E1C08005A14080003340D
:10200200163417341E341F3420342A342B340B3444
:102012000C340D340E340F341034113412341334A2
:1020220014340A34153421342234183419341A344D
:102032001B341C341D3423342434253426342934EF
:102042002C342D342E340034013402340734083455
:102052000934063404340534273428340734073469
:10206200303487346B34F8347F343F3409340034ED
:102072005C34A73462348634833403342234F83433
:1020820000344434B634103418341D341C34C7348C
:102092000034B234EA340A34003411345934883406
:1020A20031340B342F342E340634043405340034E6
:1020B2003034D334913441340034FE34FE34FE34AF
:1020C200FE34FE34FE34FE34FE342000A400A201AD
:1020D200A20A24089731B02708002000A101083085
:1020E200210203180800F91F78280E1479280E100F
:1020F2008E140310F90D8E100130A0002008A107E4
:1021020070282000A1002108013A031D8D28C53046
:10211200A0002008FA0008002108023A031D080066
:10212200CE30A0002008FA0008002000A1002108FB
:10213200013A003003190130A000A00EA00DA00D3D
:102142002100200820002006BF3920062100A0001F
:102152000800F1007108013A031DB5284130F00072
:1021620070082100D20008007108023A031D08001D
:102172005230F00070082100D20008000130210026
:10218200AC070030AD3D0C30A03E86008701403FD9
:10219200A83A031DCE28413F613A031D0800AC0155
:1021A200AD01211708009531F125903188310220C7
:1021B20090319131C62190319D31E62590319D318A
:1021C200E22590319E31962690319D31EA25080014
:1021D20001302100BA070030BB3D0C30AE3E860014
:1021E2008701403FA83A031DF828413F613A031D89
:1021F2000800BA01BB013915080021002E1C080095
:1022020020008E1A08000A2920008E169031E9203B
:10221200903120008E1A10292100391D05299D3187
:10222200EE2508002000A0002100481522004B13D3
:102232005C1320002008013A031D222922004B17BB
:10224200080020002008023A031D080022005C1743
:1022520008002000A10108302102031808008E1492
:102262000310F90D0E1D372979143B29FE30A00009
:102272002008F9058E100130A0002008A1072C29A2
:102282002000A3000E122308A2002208F9004C2904
:102292009031BF20913120000E1D52292100211FB3
:1022A20049299D31DE25913190316E2020000E1694
:1022B20008002000A200A101A301303023009200F7
:1022C2002000220823009100151315141408200081
:1022D200A0002008A100230013082000A00020086D
:1022E200A300230808002000A1002108013A031DD1
:1022F2007E296730A0002008F8002108023A031D59
:1023020086296B30A0002008F8002108633A031DDB
:1023120008006330A0002008F80008007730210090
:102322008C0007308D000C308E0022008C010230B0
:102332008D008E01223023008C008D018E017730BA
:1023420020008C0007308D000C308E0024008D019F
:1023520008002000A100A401A408031DC42921082B
:10236200023A0319C4292100DA18BB292000A2016C
:10237200A301C02902302000A2000030A3002208DD
:10238200A0002008A400240808002000A7010830AB
:1023920027020318080027085E3E840090300318C5
:1023A200013E85000008A5002508A6002608A50014
:1023B2002508A2003E3092314422913101302000A2
:1023C200A5002508A707C8292000A400A301240806
:1023D200013A031DF429A101A10A0C1F0C1AF229CA
:1023E200A1012108FF292408023A031D022AA201A1
:1023F200A20A0C1C8D18FE29A2012208A0002008A6
:10240200A300230808002000A300230821009D0048
:102412002000200821009E009D14122A9031E920FC
:10242200923121009D1C172A391D0F2A9D31EE255C
:1024320021001C082000A101A10721001B08200087
:10244200A001A007080063340234003400340034D1
:102452000034003400340034003400340034FF34DB
:10246200FF34FF34003400340034003400340034CC
:1024720000340034003400340034003400340034BA
:102482000034003400342000A4000E122408A300FB
:102492002308F9004F2A9031BF20923120000E1DEF
:1024A200552A2100211F4C2A9D31DE25923190317F
:1024B2006E20923120002208A3002308F9009031F7
:1024C2006E2020000E1608002000AD01A91F702A00
:1024D200A809A909A80A0319A90AAD01AD0A280881
:1024E200A0002908A100A2018E30AB002B08A30096
:1024F2002D08AC002C08A4008B319E23200020085C
:10250200A8002108A9002208AA0008002000A300B0
:102512000E122308C03EA2002208F900932A90312D
:10252200BF20923120000E1D992A2100211F902ADE
:102532009D31DE25923190316E20923191312A21E6
:1025420020000E167908A20022082100D9000800F6
:10255200FA30200097003830960011100130803197
:1025620050209231023080315020923101302200CD
:10257200BF070030C03D01303E3E8600013087007B
:10258200403F643A031DC72A413F003A031D080039
:10259200BF01C0013E1408002000E00060089F3126
:1025A2007927923120006F08023E860001308700B1
:1025B20001146F0A86000130870081166E08093EF9
:1025C20086000230870001088A312E222000DF00B7
:1025D2006F08063E8600013087005F088100080010
:1025E20001302000A2000030A30021082302031DB5
:1025F200FC2A2008220203180800A401A5010030C9
:1026020025020230031924020318122B0130A407F9
:102612000030A53D00302502023003192402031CBC
:10262200072B0130A2070030A33DF62AF3007308FE
:102632009031AA2093312100520A8600013087008E
:10264200011808005208860001308700811808002E
:10265200520A8600013087000114520886000130B8
:102662008700811420000D1D3C2B0130F2007208FE
:102672002100CA0008002100CA0108002000A300AE
:10268200A401A408031D652B2308013A031D542B42
:10269200A101A10A2200DC1D531B512B2000A10124
:1026A20020002108622B2308023A031D652BA20198
:1026B200A20A2200CB1D421B602B2000A201200097
:1026C2002208A0002008A400240808002000A90075
:1026D2000530A4002408A600A701A8013130290270
:1026E20003188F2B29080F39A4002408A7002908F2
:1026F200A4000430A436890B7B2B24080F39A500D3
:102702002508A8000A30A4002408A00028089F3148
:10271200302720002707A5002508A6002608080064
:102722002000A20022089F317927933120006F08F0
:102732000A3E860001308700811808006F080B3EB0
:10274200860001308700811C08006F080B3E86005E
:102752000130870001156F08023E860001308700B4
:1027620081146F080A3E86000130870081156F08C8
:102772000A3E860001308700011508002000A101F1
:102782002300151330309200940115129516151579
:102792002000A101203021020318E72B2108230089
:1027A200910020002108A03E860001308700010828
:1027B200230093009E312426933101302000A00093
:1027C2002008A10720302102031CCF2B23009512E1
:1027D2009E3124262300151108002000E2006530F6
:1027E20022002902031CFB2B64302000E100610857
:1027F2002200A90029082000E1006108DD0009305B
:102802009E31B026933120006208E1006108DD00AC
:102812000B309E31B0269331220029082000E100BE
:102822006108DD006208143E9E31B026933120001B
:1028320062089231CD2208002000A30023089F31B4
:102842007927943107302000A2006F08083E8600E5
:1028520001308700220881001830A2006F08063E6E
:10286200860001308700220881004430A2006F08F0
:10287200093E860001308700220881006F08093E68
:102882008600013087000108A2006F08043E86001E
:102892000130870022088100080021002013220055
:1028A2002C082000E1006108DD000C309E31B026CA
:1028B200943122002D082000E1006108DD000D3076
:1028C2009E31B026943122002E082000E1006108DA
:1028D200DD000E309E31B026943164302000A90014
:1028E2000030AA00013089317C2194312100AE1ED2
:1028F2007E2C01309F31C527943101309F31B227A0
:1029020008002300441C08009F318C279431003AB0
:102912000030031901302000A600A60D2300440850
:1029220020002606FD3926062300C400C41CB22C52
:10293200C4150130C2070030C33D2230A03E8600DC
:1029420001308700403F193A031DA92C413F003A4C
:10295200031D0800C201C3014410C4109631C426ED
:102962000800C41D0800C411C201C30108002100EF
:102972002E18D22C01302000AD002D082100AF0707
:102982002F08963A031D0800AF012E1432302000A2
:10299200A9000030AA00033089317C2121002E16C3
:1029A200080001302000AD002D082100AF072F08DC
:1029B200643A0319AF010130B2070030B33D04306D
:1029C200AE3E86008701403F643A031DEA2C413F38
:1029D200003A031D0800B201B301AE1CF22CAE1086
:1029E2000800AE1408002000A400240891317421CC
:1029F20094317808860001308700811C0800780A2B
:102A02008600013087000130810741310318810AB5
:102A1200780A860001308700403F2000A200413F33
:102A2200A30000302302323003192202031C0800E3
:102A3200780A8600013087000030C03FC13F240879
:102A4200013A083003198C062408023A031D2B2D83
:102A520080308E062408633A031D080020308D065C
:102A620008002000E600E50166089E31EC2695315B
:102A72002000E3006308E5006508013A031D4B2DC1
:102A820001309F31B2279531200066089331EE2341
:102A920095315C2D20006608143E6E07E300630842
:102AA2008600023087000108E4006408DD00093076
:102AB2009E31B0269531200066081A3E6E07E3006B
:102AC20063088600023087000108E4006408DD0024
:102AD20011309E31B02695318531FD250800200048
:102AE200A50021005A1D0800F0302000A40024088F
:102AF200A0002508923104229531200021082100EE
:102B0200E701E707200020082100E601E6070C3074
:102B1200DA3E8600870116000104031908006708DF
:102B22006302031D962D6608620203189F2D670833
:102B3200E301E3076608E201E207080067086502AD
:102B4200031DA52D66086402031808006708E50145
:102B5200E5076608E401E40708002000E8006608CB
:102B6200013A031DD62D6F0A860001308700011538
:102B7200A20168089731B027953118302000E7008C
:102B82006F08043E86000130870067088100183014
:102B92009631342695312000E7006708DD00680889
:102BA200143E9E31B0269531E52D2000E608031D26
:102BB200E52D6F0A8600013087000111A201A20AE9
:102BC20068089731B027953120006608E70067084A
:102BD200E10068088931D52195318531FD2508004C
:102BE20020008E100E100E160A30A0000030A10038
:102BF2009231F122953120000E120A30A0000030ED
:102C0200A1009231F122953120000E162830A00049
:102C12000030A1009231F122953120000E123030A5
:102C2200A6002608F900182E9031BF209531200009
:102C32000E1D1E2E2100211F152E9D31DE259531E0
:102C420090316E209531282E9031BF209531200091
:102C52000E1D2E2E2100211F252E9D31DE25200046
:102C62000E100E1608002000D9000030DA003030B5
:102C7200DB004230DC000030AE00C830AF00423032
:102C8200B0005A08B1005B08B2005C08B3008E3194
:102C9200A726963120002E08DA002F08DB00300824
:102CA200DC005908E83EA800FF3003180030A900F4
:102CB20092316522963120002808B1002908B2001D
:102CC2002A08B3005A08AE005B08AF005C08B000E7
:102CD2008E31A726963120002E08CB002F08CC007B
:102CE2003008CD0087316C2720004B03FF3A643E49
:102CF20008002100BC1C08000130BD070030BE3DA9
:102D020043083E02031D872E42083D02031C0800B1
:102D1200BD01BE01BC1220008D1D912E2100BC16EA
:102D22002100BC1ABD2EBF08031DB92EBC1DA72E43
:102D3200BC1140082000A00020082100BF00450867
:102D4200C301C3074408C201C20708003C1EB72ED4
:102D52003C1241082000A00020082100BF004708C3
:102D6200C301C3074608C201C2070800BC1008001D
:102D7200BC1620008D150800BC1220008D110130F8
:102D82002100BF0208002000A501A5012030250274
:102D92000318E02E250891315A2196312000A40013
:102DA2002508A03E860001308700240881000130FA
:102DB200A4002408A50720302502031CCB2E6E0890
:102DC20086000230870002304C3FA00000309E3166
:102DD2004E26963120006E088600023087000230AF
:102DE2004D3FA00001309E314E26963120006E08E4
:102DF20086000230870002304E3FA00002309E3132
:102E02004E2696312300441D0A2F44112100AE1193
:102E1200AE128B139E315A2696319331BF238B17F4
:102E220008002000E50065089F31792797312000CE
:102E32006F080B3E860001308700811C08006F0876
:102E42000B3E86000130870081106F08023E86002B
:102E520001308700811C472F6F080B3E860001302E
:102E62008700011D08006F080B3E860001308700B5
:102E720001116F080A3E86000130870081156F0834
:102E82000A3E860001308700011108006F080A3EE1
:102E920086000130870081146F080A3E86000130E7
:102EA2008700011065089E31DC269731013A031D27
:102EB20008002000E101E201650888317D20080058
:102EC2002000E800E70122003008803A031D942F19
:102ED2002000E101E10A220031082000E600660834
:102EE200E200680888317D209731200068089E3111
:102EF200EC269731013A031DA32F64302000A9006C
:102F02000030AA00013089317C2197312000E7018D
:102F1200E70AE101E10A68088931D5219731853153
:102F2200FD259731A32F200068089E31DC269731BA
:102F3200013A031DA32F2000E101E2016808883154
:102F42007D2097312000E708031D080068088A31B8
:102F5200E5229731200068089731122708002000E7
:102F6200A30023089131742197312000A208031D88
:102F7200C72F2308013A031DBF2F8C152308023ADD
:102F820003198E172308633A03198D162208013A92
:102F9200031DD82F2308013A031DD02F8C112308BB
:102FA200023A03198E132308633A03198D12220879
:102FB2000A3A031DF62F7808860001308700811037
:102FC200780A8600013087000030C03FC13F2308E5
:102FD200013A031DEE2F8C15F22F2308023A031932
:102FE2008E172308633A03198D1622080B3A031D24
:0E2FF20008007808860001308700811408006E
:103B960021003C1408009E31382608008E3121266B
:103BA60008008831012008008F315027080078303E
:103BB6002100990008002100AC01AD0108003A304F
:103BC6009131412108003B309131412108003630C6
:103BD60091314121080021003911BA01BB010800C9
:103BE6002000A20022089F31D8270800FE001200FC
:103BF6001E00FE0BFA2D0034640080010131890B92
:103C0600002E0034F33021009E00C13022009700C0
:103C1600080001309D31F3259E3102309D31F32598
:103C2600080001308B3141239E3102308B31412314
:103C3600080001308D3135259E3102308D31352514
:103C46000800553023009600AA309600951400000F
:103C5600000008001730210097004D140A3020009C
:103C6600A00020082100CE00080015302000A0008A
:103C760020082100D6001430A7000030A800080054
:103C860001308131E3219E3102308131E3219E31C1
:103C96009031FE2008002000A2002008A100220882
:103CA600A03E86000130870021088100080023001D
:103CB6001513303092009101151615159E312426E4
:103CC60023001511080001309E31FD269E31023079
:103CD6009E31FD269E3163309E31FD26080001305F
:103CE6009431F4249E3102309431F4249E316330B1
:103CF6009431F424080024000D11270094010430A7
:103D0600950096018B150B100B178B170800413089
:103D160020009800FA3097003830960021001114E0
:103D26000B178B1708003330913141219E31E83053
:103D36002000A0000330A1009231F12208002700E4
:103D460016110B1021002E1C080001309331172389
:103D56009E3102309331172308002000E0005D08F1
:103D6600DE0060086E07DF005F088600023087000D
:103D76005E08810008002100A018C32EA01D0800BF
:103D8600A011A0103630913141219E313A30913147
:103D96004121080020302000A0002008EE00D2308B
:103DA600A0006E08143E86000230870020088100BD
:103DB60008002000A20022089F31D8277608860036
:103DC600013087000030811801302000A30023084D
:103DD60008002000A20022089F31792720006F08E2
:103DE600023E860001308700003081180130A300B2
:103DF600230808002000A4002408913174219E3174
:103E0600780886000130870001142000A2012408EA
:103E16009731B027080021003C0C01392000A20090
:103E2600A3012208A4002308A5002508A101A107D3
:103E36002408A001A00708002000A101A201A20AEF
:103E46000C1F0C1A2A2F0C1C8D182A2FA2012208CF
:103E5600A0002008A100210808002000A300A2015C
:103E6600231C392F2008A1002108A2070310A00D4A
:103E76000310A30CA308031D332F220808009D314D
:103E8600DA259F3191318F219F319E318A269F31CC
:103E96009E3105269F319E317E269F319E312D26ED
:103EA600080021004D1C08000130CE024E08FF3AE2
:103EB6000319080064302000A00020082100CE006D
:103EC600803102200800F1007108013A031D702FAD
:103ED6004130F0007008F70008007108023A031D2F
:103EE60008005230F0007008F70008002000A1001A
:103EF6002108013A031D832F4130A0002008EF005E
:103F06002108023A031D08005230A0002008EF00E5
:103F160008002000A00100302200C3180130200054
:103F2600A000A008031D9D2F00302200D4180130E8
:103F36002000A000200808002000A10122004B1F3D
:103F4600A82F2000A101A10AAF2F5C1FAF2F0230BE
:103F56002000A0002008A100200021080800200061
:103F6600A1002108013A003003190130A000230006
:103F7600440820002006FE3920062300C400C201A2
:103F8600C30108002000A1002108013A00300319EE
:103F96000130A000A00DA00D23004408200020063B
:103FA600FB3920062300C40008002000A1002108D8
:103FB600013A031DE32FD730A0002008F6000800C1
:103FC6002108023A031D0800DC30A0002008F60094
:103FD600080041302000A40024082100D000013050
:103FE60094311D249F3152302000A4002408210062
:0A3FF600D100023094311D240800B0
:020000040001F9
:04000E00FCF9FDFFFD
:00000001FF
