:040000008031132810
:100008007E14803120007F08F3008431DF248031A2
:100018008331DF2373082000FF007E100900803140
:100028001528F601F701F80120308400003085001A
:100038003230863112268031C0308400003085008D
:100048001E3086311226803180308400843085004D
:10005800A0308600003087002030863118267E10B8
:10006800200084315D2C2000D701D801D9012F1C34
:10007800DF2800308631412680310038031D4428AE
:100088002000AF13AF1B2F1B4E28B101B201B014D3
:10009800AF110800B0182F1B65280130B1070030D8
:1000A800B23D02302F3E86008701403F3606031DD1
:1000B8005F28413F3706031DAC28B101B201B010DB
:1000C800AC28B101B201B0102F192F1B7B282F11BA
:1000D800AF11AF100A30B6000030B70002308C06FE
:1000E8008531B4258031823166228031AC28AF1940
:1000F800AF1CAC28AF10B012B901BA018031E320AF
:1001080080312000B014B01D9628003037020B3023
:1001180003193602031C94280A30B6000030B700D1
:10012800B301AC280130D6005608B3073308023AA9
:10013800031DAC28B301B401B50100303702C83043
:10014800031936020318AC280A30B6070030B73D49
:100158002000AF1DCD280130B4070030B53D053073
:100168002F3E86008701403F643A031DBD28413F6A
:10017800003A031DCD28B401B501B30100303702A0
:100188000B3003193602031CCD280A30B6020030A2
:10019800B73BB01E08000130B9070030BA3D7530D2
:1001A8003A02303003193902031C0800B901BA01B8
:1001B800AF11AF100800201C08002F1408000030F1
:1001C800863141268031F50075082000D2002100D3
:1001D8004008AA3A031D06294108013A031D0629C9
:1001E8005530F5007908023E8600870175088100C0
:1001F80081316A210A302000B6000030B700023091
:100208008C0608002000D208031D08002F1F1C2997
:100218002100C008031D19294108643A031D192942
:1002280085311A252000B01508002000B0110800FB
:100238002100C008031D52294108023A031D522912
:100248004C08FF3A031D34294D08FF3A031D342991
:100258004E08FF3A031D342900002000B0110800A1
:1002680079080C3E8600870121004C080106031D11
:10027800080079080D3E860087014D080106031D18
:10028800080079080E3E860087014E080106031D06
:10029800080083315A232000B015080021004008C7
:1002A800FF3A031D5D294108023A031D5D2900003C
:1002B80008002100C008031D67294108653A031D8D
:1002C8006729000008002000B011080020002F1C3A
:1002D80008002F1908002F151430B6000030B70099
:1002E800AA30F40074082100C000C101C10A7908CD
:1002F80086008701423FC200790886008701433F94
:10030800C300790886008701443FC4007908860045
:100318008701453FC500790886008701463FC6002A
:10032800790886008701473FC7007908860087015A
:10033800483FC800790886008701493FC900790805
:10034800860087014A3FCA007908860087014B3F2B
:10035800CB007908860087014C3FCC0079088600DD
:1003680087014D3FCD007908860087014E3FCE00BA
:100378007908860087014F3FCF00790886008701FA
:10038800503FD000790886008701513FD100790895
:1003980086008701523FD200790886008701533FC3
:0C03A800D300AA30F4007408D400080050
:100400000334163417341E341F3420342A342B346A
:100410000B340C340D340E340F34103411341234C8
:10042000133414340A341534213422341834193472
:100430001A341B341C341D3423342434253426341C
:1004400029342C342D342E34003401340234073452
:100450000834093406340434053427342834073486
:100460000734303487346B34F8347F343F34093404
:1004700000345C34A7346234863483340334223449
:10048000F83400344434B634103418341D341C3479
:10049000C7340034B234EA340A34003411345934E5
:1004A000883431340B342F342E340634043405347C
:1004B00000343034D334913441340034FE34FE34CB
:1004C000FE34FE34FE34FE34FE34FE3420000E10C2
:1004D0007F30D4005408F700702A853163258231BB
:1004E00020008E1E752A2C1D6D2A86312926823108
:1004F00085317825823120005E08D4005408F70049
:100500008531782582312000D5015E085502031817
:100510009A2A5508C03E860087010108D400540875
:10052000F70085317825823101302000D40054084D
:10053000D507852A0E143530853136258231A32A18
:1005400085316325823120008E18A82A2C1DA02A0F
:10055000863129268231AF2A8531632582312000F8
:100560008E1CB42A2C1DAC2A8631292682313630C5
:100570008531362582313B3085313625F614080029
:1005800020002018D82A0130A1070030A23D0130F8
:10059000203E86008701403F963A031DD12A413F05
:1005A000003A031D012BA101A20120142016012BEA
:1005B0000130A1070030A23D0130203E86008701B6
:1005C000403F643A031DE62A413F003A031DEA2AF0
:1005D000A101A2010130A5070030A63D0530203E53
:1005E00086008701403F643A031DF82A413F003AE4
:1005F000031D012BA501A601A01C002BA010012B9F
:10060000A0140130A7070030A83D0730203E860027
:100610008701403F643A031D0F2B413F003A031D01
:100620000800A701A801080020004608F500790885
:10063000023E86008701750881004708F5007908A9
:10064000033E86008701750881004808F500790897
:10065000043E86008701750881004908F500790885
:10066000053E86008701750881004A08F500790873
:10067000063E86008701750881004B08F500790861
:10068000073E86008701750881004C08F50079084F
:10069000083E86008701750881004D08F50079083D
:1006A000093E860087017508810081316A2120009A
:1006B00020170800822B7908093E860087018101F6
:1006C00079080B3E86008701810179080F3E86007C
:1006D000870181017908113E8600870181010800A8
:1006E0007908093E86008701810179080B3E860062
:1006F000870181017908113E8600870181018131DE
:100700006A21080021004F08003A03195B2B013AC7
:1007100003199D2B033A03199D2B013A03199D2BB5
:10072000123A03199D2B313A0319702B013A031920
:100730009D2B103A03199D2B9D2B080020008E1134
:100740000E120E140A30F4000030F5008431372404
:10075000833120000E100A30F4000030F50084319F
:100760003724833120000E142830F4000030F500C7
:1007700084313724833120000E103030D6005608E3
:10078000F700C52B85316325833120008E1ECA2BCF
:100790002C1DC22B86312926833185317825833162
:1007A000D42B85316325833120008E1ED92B2C1D3F
:1007B000D12B8631292620000E120E1408002100AC
:1007C000911E08002000911E0800F101F20172083C
:1007D000803AF0008030700208300319710203186B
:1007E000092C86311E268331F0007108463E8600B2
:1007F0008701700881000130F1070030F23D720876
:10080000803AF00080307002083003197102031C36
:10081000F12B2000D114911208002000D8012F30B4
:100820005802031808005808003E8400823003185C
:10083000013E85000008D5005508D60058082F3E17
:10084000840082300318013E85000008D500550859
:10085000D7005708D5005508D20056088431A02487
:10086000843101302000D5005508D8070F2C013005
:100870002000D2000030D30075085302031D422C23
:100880007408520203180800D401D5010030550243
:100890000230031954020318582C0130D4070030D9
:1008A000D53D00305502023003195402031C4D2C73
:1008B0000130D2070030D33D3C2C8531C325843133
:1008C0008531DD25843186314426843185314E25BC
:1008D000843186312426843120003B1C6C2C3B1053
:1008E0008231C02284318531D02584312000201C02
:1008F0006C2C86313E2684318631472684316C2C1F
:1009000063340234003400340034003400340034E2
:100910000034003400340034FF34FF34FF3400343A
:100920000034003400340034003400340034003427
:100930000034003400340034003400340034003417
:100940002000D4000E105408D3005308F700AB2C3D
:1009500085316325843120008E1EB02C2C1DA82CDF
:10096000863129268431853178258431200052084A
:10097000D3005308F7008531782520000E140800B5
:100980002000D701083057020318080057085E3EC0
:10099000840082300318013E85000008D500550808
:1009A000D6005608D5005508D2003E308431A02428
:1009B000843101302000D5005508D707C22C210012
:1009C000111C08002000111C0800FA309700383074
:1009D000960011100130BC070030BD3D01303B3E98
:1009E00086008701403F643A031DF82C413F003ADE
:1009F000031D0800BC01BD013B1408002000D2010A
:100A0000D3015308803AF50080307502083003198D
:100A100052020318080020005208463E8600870153
:100A2000010886310A26843101302000D2070030C7
:100A3000D33D012D20002F1321004C08F40079082C
:100A40000C3E86008701740881004D08F400790887
:100A50000D3E86008701740881004E08F400790875
:100A60000E3E860087017408810008002000D30034
:100A70000E105308D2005208F700412D853163252E
:100A8000853120008E1E462D2C1D3E2D86312926B7
:100A900085318531782520000E14080083319E238E
:100AA000853184310D2485318431C02485318631EE
:100AB0003626853186313A2685318531F5258531D1
:100AC00086313226080001302000AD070030AE3DEF
:100AD0000D30203E86008701403F103A031D722DE5
:100AE000413F273A031D0800AD01AE012C15080057
:100AF000F5010830750203180800F71F822D200049
:100B00000E16842D20000E128E150310F70D8E1177
:100B10000130F4007408F507792D21008E170E17A7
:100B2000333023009B009C019F1190309D002430A6
:100B30009E001E131D132100111291160B178B1707
:100B4000080021008C018D01E6308E0022008C010E
:100B50008D018E0123008C018D018E0120008C01FE
:100B60008D01E6308E0008002000AF18B92DAF1DB2
:100B70000800AF11AF1036308531362585313A3057
:100B8000853136250800A030F4007408F900AA3039
:100B9000F4007908143E860087017408810008007B
:100BA0002000D11CD72DD110833114230800511CF3
:100BB000080051108431FE24080086312E2685312C
:100BC0008531A12585318531E925853185318D2511
:100BD0000800413020009800FA3097003830960025
:100BE000210011140B178B1708003330853136257F
:100BF0008531E830F4000330F500843137240800F3
:100C00001530F40074082000DE000A30B600003011
:100C1000B7000800F4002000111E0B2E74082300FA
:100C20009A000800640080010131890B132E003402
:100C3000FE0012001E00FE0B192E00342000911E33
:100C40001E2E23001908080020000C108C140C150F
:100C5000080020002C11AD01AE0108007830210001
:100C60009900080036308531362508003B30853143
:100C7000362508003A308531362508008031372086
:100C80000800F401740808008631002608000800F6
:020000040001F9
:04000E00E4F9FEFF14
:00000001FF
