:1000000080311628640008007E14803120007F08AB
:10001000F7009E31EF2680319331EA2380319D3104
:10002000DE2577082000FF007E10090080311828A7
:10003000FC01F801F901FA01FB01A0308400003055
:1000400085004C309D31BA2580312030840001304C
:1000500085004B309D31BA258031C030840001309D
:1000600085001D309D31BA2580312030840002305A
:10007000850025309D31BA258031083084009230CA
:100080008500A03086000130870020309D31B425E6
:100090007E1020009531F92DF600760890317320FE
:1000A00080317908860001308700011CB7280130B3
:1000B000F2007908033E860001308700720881074C
:1000C00021003908023E860087010108F200F30191
:1000D000F209F309F20A0319F30A7908043E8600CB
:1000E0000130870001087207F40073080318730ACF
:1000F000F5007908033E8600013087007508803AD4
:10010000803C031D852874080102031CC629790858
:10011000033E8600013087008101790886000130A6
:10012000870001107908860001308700011FC62969
:100130007908083E86000130870001147908083EDE
:1001400086000130870081167608013A031DAA282F
:1001500020000D167608023A031DB02820008C17E7
:100160007608033A031DC62920008D14C629790894
:10017000083E860001308700011CC6297908083E28
:100180008600013087000110790886000130870061
:10019000811CC6290130F200790A860001308700EF
:1001A00072088107790A8600013087007908023ECB
:1001B00084000130850000080102031CC629790A69
:1001C00086000130870081017908860001308700B0
:1001D000811D20297908860001308700011A07292E
:1001E0007908043E86000130870005300102031CB7
:1001F00001297908043E8600013087000130810220
:10020000C62979088600013087000116C6297908B9
:10021000043E8600013087003C30010203181A2991
:100220000130F2007908043E860001308700720830
:100230008107C62979088600013087000112C62986
:100240007908860001308700011D67297908053E7D
:100250008600013087007908043E84000130850063
:100260000008010203183C297908043E8600013089
:1002700087000130810253297908043E860001304D
:1002800087007908053E84000130850000080102DE
:10029000031853290130F2007908043E860001302A
:1002A0008700720881077908053E860001308700C3
:1002B0007908043E84000130850000080106031D12
:1002C000C629790886000130870001118229790842
:1002D000860001308700811E88297908043E860047
:1002E00001308700013081027908053E8600013027
:1002F00087007908043E840001308500000801026F
:10030000031CC62979088600013087008110C629A0
:100310000130F2007908043E86000130870072083F
:1003200081077908043E8600013087007908063E7F
:1003300084000130850000080102031CC6297908E9
:10034000860001308700811079088600013087001F
:1003500001137908093E860001308700011521004C
:1003600039088600870101147608013A031DBA296D
:1003700020008E137608023A031DC02920008C113C
:100380007608033A031DC62920000E137908083E9B
:10039000860001308700811EFD290130F2007908B6
:1003A000073E860001308700720881077908073E02
:1003B00086000130870005300102031CFD29790801
:1003C000073E86000130870081017908083E8600DB
:1003D0000130870081127608013A031DF1292000BF
:1003E0000D127608023A031DF72920008C137608B7
:1003F000033A031DFD2920008D107908093E86006F
:1004000001308700811E08000130F20079080A3EA1
:100410008600013087007208810779080A3E86004D
:10042000013087000108463A031D080079080A3E9A
:1004300086000130870081017908093E860001307D
:100440008700811208002000EA006A0891314E21DD
:1004500082317B08860001308700011C08002000E3
:100460006A08013A031D3C2A7B0886000130870098
:1004700081100C188114552A20006A08023A031DC5
:10048000492A7B0886000130870081100C1B8114EB
:10049000552A20006A08033A031D552A7B08860066
:1004A0000130870081100C1A81147B08860001300E
:1004B0008700811C272B7B088600013087000119EB
:1004C000832A01302000E8007B08023E86000130CC
:1004D0008700680881077B08023E8600013087009C
:1004E00005300102031C08007B08023E8600013033
:1004F000870081017B0886000130870001156A08AA
:100500008B31A62308007B08860001308700811903
:10051000B02A7B08033E8600013087000130810746
:1005200041310318810A7B08033E860001308700B1
:10053000403F2000E800413FE9000030690296306A
:1005400003196802031C08007B08033E8600013083
:1005500087000030C03FC13F6A0897313F2708003D
:100560007B08860001308700011AF42A7B08053ECB
:100570008600013087000130810741310318810A6C
:100580007B08053E860001308700403F2000E800E0
:10059000413FE90000306902963003196802031CEC
:1005A00008007B08053E8600013087000030C03F10
:1005B000C13F7B088600013087000116A201A20A14
:1005C00001309E313526823121006E0886000130CF
:1005D0008700811F080064302000A9000030AA00B5
:1005E00002308C31B72408007B0886000130870078
:1005F000811A08007B08073E860001308700013021
:10060000810741310318810A7B08073E86000130CB
:100610008700403F2000E800413FE90001306902C7
:100620002C3003196802031C08007B08073E860073
:10063000013087000030C03FC13F7B088600013099
:1006400087008116A20101309E31352608007B0803
:10065000860001308700011D080001302000E800FD
:100660007B08023E860001308700680881077B080E
:10067000023E86000130870005300102031C08009D
:100680007B08023E86000130870081017B088600DE
:100690000130870001117B08033E8600013087008E
:1006A0000030C03FC13F7B088600013087008111C8
:1006B0007B08053E8600013087000030C03FC13F07
:1006C0007B0886000130870001127B08073E860008
:1006D000013087000030C03FC13F7B0886000130F9
:1006E000870081126A088831772082312000A201B8
:1006F00001309E31352608002000DE011F30903188
:100700008D208331AA3A031DF62B003090318D20C5
:1007100083312000DD007D080C3E8600013087001B
:100720005D088100013090318D2083312000DD0093
:100730007D080D3E8600013087005D088100023093
:1007400090318D2083312000DD007D080E3E860033
:10075000013087005D088100043095312525833103
:100760002000DD005D08DE005E08DD007D08153E2E
:100770008600013087005D0881005E08DD007D088D
:10078000163E8600013087005D0881005E08DD00AE
:100790007D08173E8600013087005D0881007D08D6
:1007A0000C3E8600013087000108FF3A031D080057
:1007B0007D080D3E8600013087000108FF3A031DC9
:1007C00008007D080E3E8600013087000108FF3AD0
:1007D000031D080021006E08860001308700811685
:1007E0006E088600013087008117080004309531BB
:1007F000252583312000DD005D08DE00FF30DD00AF
:1008000021006F0886000230870020005D0881000B
:10081000FF30DD0021006F0A8600023087002000D3
:100820005D088100FF30DD0021006F08023E860078
:100830000230870020005D088100FF30DD002100CC
:100840006F08033E86000230870020005D088100AB
:10085000FF30DD0021006F08043E86000230870073
:1008600020005D088100FF30DD0021006F08053E9B
:1008700086000230870020005D088100AA30DD007C
:1008800021006F081F3E86000230870020005D08AF
:1008900081005E08DD007D08153E8600013087007E
:1008A0005D0881005E08DD007D08163E860001308F
:1008B00087005D0881005E08DD007D08173E860028
:1008C000013087005D0881008B139331B7238B17AC
:1008D00021006E0886000130870081166E088600B0
:1008E000013087008117080020003E08C4003F083F
:1008F000C5004008C6000310450D460DC700470857
:10090000CA004108C4004208C5004308C6000310DD
:10091000450D460DC7004708C9004A0803199C2C1D
:1009200049084A020318A32C4A03FF3A4907C400A6
:1009300019304402031CA32C4108BE004208BF002A
:100940004308C00008004908031908004A08490282
:100950000318B22C4903FF3A4A07C4001930440275
:10096000031808000630C4004408C800C01BC8179C
:10097000C31B4817BF17FF30BE05FF30BF0500304F
:10098000C005C217FF30C105FF30C2050030C305E6
:1009900049084A020318EE2C0130C135C20DC30DBF
:1009A000890BCD2C0130C90249084A060319E92CEC
:1009B0000130C802480807390319E92CCC2C013052
:1009C000C036BF0CBE0C890BE02C0130C4004408BB
:1009D000CA074A0849060319132DDF2C4A084902A1
:1009E0000318132D0130BE35BF0DC00D890BF32C3C
:1009F0000130CA0249084A0603190F2D0130C80206
:100A00004808073903190F2DF22C0130C336C20CE8
:100A1000C10C890B062D0130C4004408C9074A08DF
:100A20004906031D052DC81F252DFF30BE06FF30CA
:100A3000BF06FF30C0060130BE070030031801308A
:100A4000BF07003003180130C007481F372DFF30A3
:100A5000C106FF30C206FF30C3060130C1070030B7
:100A600003180130C207003003180130C307C80162
:100A70003E08C1073F08C23D4008C33DC31F522D79
:100A8000FF30C106FF30C206FF30C3060130C10788
:100A9000003003180130C207003003180130C307CB
:100AA000C801C80A4108A0004208A1004308A200EA
:100AB0004A08C4004408A3004808C5004508A4002B
:100AC00097319F2720002008BE002108BF00220880
:100AD000C00008002000EA006A089E312726853100
:100AE0007A0886008701011C08002100370886006B
:100AF00001308700811808002000EB01EB0A0C1C74
:100B00000C1B842D0C1EEB017A08860087016B08F4
:100B10008113031D81177A0886008701811F9D2D8F
:100B20007A0886008701011B9D2D7A0A86008701BD
:100B3000811401309131C82108007A0A86008701AA
:100B4000811CC22D7A0886008701011BC22D01304D
:100B50002000E9007A08033E8600870169088107C2
:100B60007A08033E860087010108053A031D080044
:100B70007A08033E8600870181017A0A8600870190
:100B8000811008007A08033E8600870181017A0AF5
:100B90008600870181107A0886008701811CDF2D7D
:100BA0007A08860087018110873105278531013059
:100BB000963143267A0A86008701811408007A0854
:100BC00086008701011B212E7A0886008701011DFE
:100BD000042E7A088600870101117A0886008701B1
:100BE00081117A0886008701811036309E317F2678
:100BF00085313B309E317F26853194319C247A0AA1
:100C000086008701811408007A088600870181190F
:100C100008007A0886008701811808007A08860093
:100C20008701811536309E317F2685313A309E31DD
:100C30007F26853134309E317F26203020008D067E
:100C400008007A0886008701811908007A08860062
:100C50008701811808007A088600870181153630DF
:100C60009E317F2685313A309E317F268531343062
:100C70009E317F26203020008D0608004D30200058
:100C8000A00020082100B700370886000130870047
:100C9000811C0800370A8600013087000130810777
:100CA00041310318810A3708063E8600013087006B
:100CB000403F2000A000413FA1002100370A8600EC
:100CC00001308700403F2000A200413FA3002108DF
:100CD0002302031D6D2E20082202031C08002100A0
:100CE000370A8600013087000030C03FC13F370817
:100CF000860001308700811220008D1981162100A5
:100D00003708860001308700811AF42E3708033E29
:100D10008600013087008108031DEC2E370886000D
:100D200001308700811DBA2E370886000130870008
:100D300081113708043E8600013087000108200039
:100D4000A00021003708033E860001308700200004
:100D50002008810021003708083E86000130870006
:100D60003708063E840001308500403F803F413F08
:100D7000813F08003708860001308700011EE62EFB
:100D8000370886000130870001123708053E8600CB
:100D90000130870001082000A00021003708033E31
:100DA00086000130870020002008810021003708DC
:100DB0000A3E8600013087003708063E8400013075
:100DC0008500403F803F413F813F08003708860053
:100DD0000130870081100800370886000130870045
:100DE000811620008D15080021003708860001308B
:100DF0008700811220008D1121003708033E8600F4
:100E00000130870001308102080020000D18382FC2
:100E10003B2F21006E08103E860001308700013014
:100E2000810741310318810A6E08103E86000130A7
:100E30008700403F2000AD00413FAE0027302E022A
:100E4000103003192D02031C382F21006E08103EAC
:100E50008600013087000030C03FC13FFA302000DB
:100E6000A9000030AA0001308C31B72487313B2F14
:100E700020000D18092F3B309031DD2087312100F3
:100E800046080319BB2F20000E12FF30AD002D08BD
:100E90002100C20020000E1D7B2F21006E08123E93
:100EA0008600013087000130810741310318810A33
:100EB0006E08123E860001308700403F2000AD00E2
:100EC000413FAE0027302E02103003192D02031CC3
:100ED0004A2F21006E08123E860001308700003044
:100EE000C03FC13FFA302000A9000030AA00023004
:100EF0008C31B72487319F31B4278731913131212B
:100F00008731210042082000AD002D082100C100DA
:100F10002000AF012100410820002F020318A22F5A
:100F2000913131218731210042082000AD002F0886
:100F3000A03E860087012D0881000130AD002D08FC
:100F4000AF078A2F913131218731210042082000DB
:100F5000AD002D082100C0009131312187312100E1
:100F600042082000AD002D082100B80020000E1618
:100F70002100B81B7C1436309E317F2687313A30F1
:100F80009E317F2608002000E30065302100290201
:100F9000031CD02F64302000E10061082100A9006B
:100FA00029082000E1007D08093E86000130870005
:100FB000610881006308E1007D080B3E8600013076
:100FC0008700610881007D08093E860001308700A6
:100FD0000108E1006308143E7D07E2006208860014
:100FE0000130870061088100630892316B2208009C
:100FF0002000A400A201A20A24088931BB21080014
:10100000C7302000A00020082100EC0095014230EC
:10101000200095008B168B1708002000E200620864
:101020009131E821883121003F08860087010118AD
:101030003C283F088600870101142000A201A20A73
:1010400062089E31612688312000A201A20A62084E
:101050009E31BF2688312000A201A20A62089E317B
:10106000AF26883121003F08860087010030011833
:1010700001302000DD00662821003008803A031D81
:1010800045282000DD01DD0A662821003F08860092
:10109000870101102000A20162089E31612688317B
:1010A0002000A201A20A62089E31BF2688312100D9
:1010B0003F08860087010030011801302000A2009F
:1010C00062089E31AF2688312000DD016208883138
:1010D000E120883164302000A9000030AA000130EE
:1010E0008C31B724883101308D314D250800200026
:1010F000E4007B08860001308700811F08007B0820
:1011000086000130870081137B088600013087004C
:10111000011FC3287B0A860001308700011C0800DC
:101120007B0A8600013087000110A201A20A640830
:101130009E31DF2688312000A20164089E31CF262F
:101140008831200064081A3E7D07E20062088600AC
:10115000013087000108E3007D08113E8600013060
:101160008700630881007B0886000130870000301B
:10117000011B0130DD0064088831E1208831013035
:101180008D314D2508002000A201A20A64089E317D
:10119000BF2688312000A20164089E31AF26883125
:1011A0007B088600013087000030011B01302000E1
:1011B000DD0064088831E120883101308D314D2512
:1011C00008002000E100E001E00A6108FF3E890A12
:1011D000EB280310E00DFF3E031DE9286108DE0047
:1011E0007D080B3E8600013087005E0881000430D8
:1011F0009531252588312000DE006108143E7D07E9
:10120000DF005F088600013087005E08810061080A
:10121000143E7D07DE005E0886000130870001086D
:10122000DF007D08093E8600013087005F088100ED
:1012300061081A3E7D07DE005E08860001308700E7
:101240000108DF007D08113E8600013087005F083D
:1012500081005D08013A031D3D297D080F3E86008F
:101260000130870001086004DE007D080F3E860023
:10127000013087005E08810008007D080F3E86006F
:101280000130870060090105DE007D080F3E860001
:10129000013087005E08810008002000A601A60139
:1012A0002030260203186D29260890318D208931BF
:1012B0002000A400260821006F072000A5002508B3
:1012C000860002308700240881000130A400240831
:1012D000A60720302602031C54297D080C3E8600F8
:1012E000013087000108A40021006F088600023049
:1012F00087002000240881007D080D3E8600013013
:1013000087000108A40021006F0A860002308700D0
:101310002000240881007D080E3E860001308700F1
:101320000108A40021006F08023E860002308700F9
:1013300020002408810021006F08243E860002302E
:101340008700011DB3296F08243E86000230870004
:1013500001116E0886000130870081126E08860038
:101360000130870081138B139E310226893193311E
:10137000B7238B1708002000A300230893315A23BA
:1013800089312000A208031DDD292308013A031D2D
:10139000CB298E1708002308023A031DD1298C158A
:1013A00008002308033A031DD7290E170800230855
:1013B000633A031D08008D1608002208013A031D38
:1013C000F9292308013A031DE7298E130800230891
:1013D000023A031DED298C1108002308033A031D6E
:1013E000F3290E1308002308633A031D08008D1229
:1013F000080022080A3A031D212A21003E0886001F
:10140000870181103E0A860087010030C03FC13F3E
:1014100020002308013A031D0F2A8E170800230815
:10142000023A031D152A8C1508002308033A031DF0
:101430001B2A0E1708002308633A031D08008D16A7
:10144000080022080B3A031D080021003E08860010
:1014500087018114080021006E0886000130870092
:1014600001186D2A6E0A860001308700013081075D
:1014700041310318810A6E0A860001308700403F1F
:10148000963A031D452A413F003A031D08006E0AA3
:101490008600013087000030C03FC13F6E088600E3
:1014A00001308700011432302000A9000030AA006A
:1014B00003308C31B7248A3121006E088600013058
:1014C0008700011701309231DA228A312000A2010F
:1014D000A20A01309231B322080021006E08053EB5
:1014E0008600013087000130810741310318810AED
:1014F0006E08053E860001308700403F643A031DB8
:10150000832A413F003A031D08006E08053E86000D
:10151000013087000030C03FC13F6E0886000130B7
:101520008700811D992A6E0886000130870081118D
:1015300008006E0886000130870081150800200031
:10154000A60026089031A7208A3120002608A50091
:101550002100390A8600870120002508810024081F
:10156000013A031DF32A78088600013087008116AE
:10157000A20126088931BB218A3178088600013012
:101580008700811407302000A5007808023E8600FD
:101590000130870025088100780886000130870027
:1015A000011B080078088600013087000117003011
:1015B0009131A9217808053E860001308700010895
:1015C0002000A5007808043E860001308700250829
:1015D00081000430A5007808043E860001308700B1
:1015E00025088100080078088600013087008112F4
:1015F0007808063E8600013087000108A5007808BB
:10160000043E8600013087002508810078088600A6
:10161000013087008114780886000130870081112D
:10162000780886000130870001120730A50078088D
:10163000023E860001308700250881000800200056
:101640004B08CF004C08D0004D08D1000310500DBE
:10165000510DD2005208D800D808031D382B003095
:10166000CE000030CD000030CC000030CB000800B0
:101670004B08CF004C08D0004D08D1001730D136B0
:10168000D00CCF0C890B3F2B4F08D2005208D3004F
:10169000CC17FF30CB05FF30CC050030CD054B0813
:1016A000D4004C08D5004D08D600D7018E30D802A2
:1016B000D81F762B5808803A8F3E0318682B0030CD
:1016C000CE000030CD000030CC000030CB00080050
:1016D0000130D736D60CD50CD40C890B692B0130D0
:1016E000CF004F08D80703198F2B682B18305802EA
:1016F000031C8C2B0030CE000030CD000030CC001D
:101700000030CB0008000130D435D50DD60DD70DF3
:10171000890B842B0130D802D808031D832B530872
:1017200003199D2BD409D509D609D709D40A031961
:10173000D50A0319D60A0319D70A5708CE00560846
:10174000CD005508CC005408CB0008002000E7006D
:10175000E601E60A6708013A031DB92BE3012200FE
:10176000B71DC619B62B2000E301E30A2000630869
:10177000D62B6708023A031DC82BE4012200A81DDE
:10178000C619C52B2000E401E40A20006408D62B0A
:101790006708033A031DD92BE5012200A81DB719DC
:1017A000D42B2000E501E50A20006508E20062086C
:1017B000E6006608013A031D08007B088600013038
:1017C000870081176430A9000030AA0001308C31F5
:1017D000B7248B317B08860001308700011B1B2C4E
:1017E0007B0886000130870001172000A201A20AB1
:1017F00067089E3170268B312000A201A20A67087B
:101800009E31BF268B312000A201A20A67089E31BB
:10181000AF268B317B088600013087000030011B2A
:1018200001302000DD0067088831E1208B31013074
:101830008D314D2508007B0886000130870001139B
:101840007B088600013087000030011B013020003A
:10185000A20067089E31702608002000EA00E90116
:10186000E90A6A089031A7208C3120006A08013A01
:10187000031D452CE60122003819471D422C20008B
:10188000E601E60A20006608622C6A08023A031D97
:10189000542CE70122002919471D512C2000E70193
:1018A000E70A20006708622C6A08033A031D652CCA
:1018B000E80122002919381D602C2000E801E80AFF
:1018C00020006808E5006508E9007808083E860001
:1018D00001308700011D892C6908013A031D0800A9
:1018E0007808083E86000130870001117808083E1C
:1018F000860001308700811C832CA401A40A6A0899
:101900008A319F2208002000A4016A088A319F22A0
:1019100008007808083E860001308700011E080094
:1019200020006908013A031D08007808083E860077
:101930000130870001127808083E860001308700D8
:10194000811DB12CE201E20A6A0894311E248C3117
:1019500064302000A9000030AA0001308C31B72487
:1019600008002000E2016A0894311E2408002000CB
:10197000AC004D30AB002B082100B7000A3020002E
:10198000A0000030A1002A08A301A3072908A20192
:10199000A207963190268C3120002108AA01AA07BF
:1019A0002008A901A9072100370886000130870017
:1019B000011C080037088600013087008118052DBA
:1019C00037088600013087008114370A860001300D
:1019D00087000030C03FC13F20002C08AB00210031
:1019E0003708033E86000130870020002B08810065
:1019F00021003708063E86000130870020002908B4
:101A0000C03F2A08C13F8D15080021003708860015
:101A1000013087008119292D3708860001308700A1
:101A2000811520002C08AB0021003708043E8600F9
:101A30000130870020002B08810021003708083E74
:101A400086000130870020002908C03F2A08C13FD6
:101A5000080021003708860001308700011A0800BD
:101A60003708860001308700011620002C08AB00E3
:101A700021003708053E86000130870020002B0832
:101A80008100210037080A3E8600013087002000CF
:101A90002908C03F2A08C13F08002000A3002308EE
:101AA0009E3127268D317A0886008701011C0800A7
:101AB0007A0886008701011563302000A200220801
:101AC0002100A00002302000A20022082100A10075
:101AD0007D088600013087000130423FA2007D086A
:101AE0008600013087000130433FA3007D08860057
:101AF000013087000130443FA4007D08860001309A
:101B000087000130453FA5007D0886000130870031
:101B10000130463FA6007D08860001308700013075
:101B2000473FA7007D088600013087000130483F0D
:101B3000A8007D088600013087000130493FA900D8
:101B40007D0886000130870001304A3FAA007D08E9
:101B500086000130870001304B3FAB007D088600D6
:101B60000130870001304C3FAC007D088600013019
:101B7000870001304D3FAD007D08860001308700B1
:101B800001304E3FAE007D088600013087000130F5
:101B90004F3FAF007D088600013087000130503F85
:101BA000B0007D088600013087000130513FB10050
:101BB0007D088600013087000130523FB2007D0869
:101BC0008600013087000130533FB300D33020003E
:101BD000A20022082100B400080020003108B4004F
:101BE0003208B5003308B6000310350D360DB700C6
:101BF0003708BC00BC08031D042E0030AE000030C6
:101C0000AF000030B00008002E08B4002F08B50067
:101C10003008B6000310350D360DB7003708BD008B
:101C2000BD08031D1A2E0030AE000030AF0000309A
:101C3000B00008000030B9000030BA000030BB002E
:101C400089303D07B4003408BC023108B4003208C2
:101C5000B5003308B6001030B636B50CB40C890B9D
:101C60002C2E3408B7003708BD002E08B4002F080A
:101C7000B5003008B6001030B636B50CB40C890B80
:101C80003C2E3408B7003708BD068030B400340855
:101C9000BD05B217FF30B105FF30B2050030B30506
:101CA000AF17FF30AE05FF30AF050030B00518307C
:101CB000B4003408B8000130B935BA0DBB0D890B3A
:101CC0005C2E30083302031D6B2E2F083202031DD9
:101CD0006B2E2E083102031C742E2E08B1022F0821
:101CE000B23B3008B33B39140130B135B20DB30DFE
:101CF000890B752E0130B802031D5B2E3908A00038
:101D00003A08A1003B08A2003C08B4003408A30034
:101D10003D08B5003508A40097319F272000200812
:101D2000AE002108AF002208B000080020002E08F5
:101D3000B4002F08B5003008B6000310350D360D7D
:101D4000B7003708B800B808031DAD2E0030AE004C
:101D50000030AF000030B00008003108B400320895
:101D6000B5003308B6000310350D360DB70037083F
:101D7000BD00BD08031DC32E0030AE000030AF0013
:101D80000030B00008003D087B3EB4003408B807BE
:101D90002E08B4002F08B5003008B6001030B63653
:101DA000B50CB40C890BCF2E3408B7003708BD0032
:101DB0003108B4003208B5003308B6001030B6362A
:101DC000B50CB40C890BDF2E3408B7003708BD06FC
:101DD0008030B4003408BD05AF17B217FF30B1052D
:101DE000FF30B2050030B3050030B9000030BA0052
:101DF0000030BB000730B4003408BC002E1C062F96
:101E00003108B9073208BA3D3308BB3D0130B0365E
:101E1000AF0CAE0C890B072F0130B135B20DB30DED
:101E2000890B0D2F0130BC02031DFE2E0930B400BA
:101E30003408BC002E1C222F3108B9073208BA3DE5
:101E40003308BB3D0130B036AF0CAE0C890B232FED
:101E50000130BB36BA0CB90C890B292F0130BC02FA
:101E6000031D1A2F3908A0003A08A1003B08A20060
:101E70003808B4003408A3003D08B5003508A400B4
:101E800097319F2720002008AE002108AF002208CC
:101E9000B00008002000E70067089E3127268F3138
:101EA0002100AF08031DAF2F2000A40101308A31AB
:101EB0009F228F312000A20101309E3170268F3188
:101EC0002000A20101309E3161268F312000A40143
:101ED00002308A319F228F312000A20102309E31D0
:101EE00070268F312000A20102309E3161268F3191
:101EF0002000A40103308A319F228F312000A201EB
:101F000003309E3170268F312000A20103309E31B4
:101F100061268F317D08093E8600013087008101EE
:101F20007D080B3E86000130870081017D080F3E51
:101F300086000130870081017D08113E8600013056
:101F40008700810164302000A9000030AA00013020
:101F50008C31B7248F3101308D314D25080021009F
:101F60002F08203A031DCA2F7D08093E8600013044
:101F7000870081017D080B3E8600013087008101CA
:101F80007D08113E860001308700810101308D31CE
:101F90004D25080021002F08013A031DD32F0130E1
:101FA00088310D20080021002F08113A031DDC2F75
:101FB000013094315C24080021002F08023A031DEF
:101FC000E52F023088310D20080021002F08213A2A
:101FD000031DEE2F023094315C24080021002F08ED
:101FE000033A031DF72F033088310D20080021002C
:101FF0002F08313A031D0800033094315C24080097
:102000000334163417341E341F3420342A342B344E
:102010000B340C340D340E340F34103411341234AC
:10202000133414340A341534213422341834193456
:102030001A341B341C341D34233424342534263400
:1020400029342C342D342E34003401340234073436
:10205000083409340634043405342734283407346A
:102060000734303487346B34F8347F343F340934E8
:1020700000345C34A734623486348334033422342D
:10208000F83400344434B634103418341D341C345D
:10209000C7340034B234EA340A34003411345934C9
:1020A000883431340B342F342E3406340434053460
:1020B00000343034D334913441340034FE34FE34AF
:1020C000FE34FE34FE34FE34FE34FE3424000D11A2
:1020D0000430270094000430950096018B150B10F6
:1020E0000B178B170800F1007108013A031D7C28BB
:1020F0002030F0007008F9007108023A031D8428AE
:102100002F30F0007008F9007108033A031D080031
:102110003E30F0007008F90008002000A200A10184
:10212000A3013030230092002000220823009100F8
:102130001513151414082000A0002008A100230086
:1021400013082000A0002008A30023080800200096
:10215000A1002108013A031DB1282030A000200869
:10216000F8002108023A031DB9282F30A0002008EA
:10217000F8002108033A031D08003E30A0002008A3
:10218000F80008009D319D2590319F3184279031C2
:102190008831002090319D31C72590319D31AE2589
:1021A000903190316620903120302000A10021082C
:1021B0002100EF009F319C2708002000A3000E1291
:1021C0002308C03EA20022082100C20020000E19F0
:1021D000E6289F31B42790319131312120000E162D
:1021E000210042082000A20022082100C6000800A9
:1021F00021006D0886008701011C08006D0A860019
:102200008701013081020108FF3A031908000A30F2
:102210002000A00021006D0A860087012000200810
:102220008100803102200800F1007108013A031D8D
:102230001E292030F00070082100BD007108023A0C
:10224000031D27292F30F00070082100BD00710800
:10225000033A031D08003E30F00070082100BD0065
:1022600008002000A10108302102031808008E1484
:1022700003102100C20D20000E1D4129210042142F
:102280004729FE302000A00020082100C2052000C0
:102290008E100130A0002008A10733292000A100E2
:1022A0002108013A031D59295930A0002008FB00DC
:1022B00008002108023A031D62296230A0002008AC
:1022C000FB0008002108033A031D0800D430A000D9
:1022D0002008FB000800F2007208913114219131AE
:1022E00021003D08860001308700011808003D08E4
:1022F000093E860001308700811A08003D088600EB
:102300000130870001143D08093E86000130870036
:10231000811608002000A7010830270203180800D2
:1023200027085E3E840090300318013E85000008B7
:10233000A5002508A6002608A5002508A2003E3015
:102340009F31CD27913101302000A5002508A70736
:102350008C292000A20021006F08243E8600023054
:102360008700200022088110031D8114A208031D8C
:1023700008002208A000A10121006F08223E86006B
:102380000230870020002008C03F2108C13F08001C
:102390002000A40024089E31272691317A08860067
:1023A00087018118D8297A0886008701811D0800D5
:1023B0007A088600870181117A08860087018110DA
:1023C00036309E317F2691313A309E317F2608008B
:1023D0002000A1002108013A031DF329E930A000E3
:1023E00020082100BF0020002108023A031DFD291A
:1023F000EA30A00020082100BF0020002108033A95
:10240000031D0800EB30A00020082100BF000800D9
:1024100063340234003400340034003400340034B7
:102420000034003400340034FF34FF34FF3400340F
:1024300000340034003400340034003400340034FC
:1024400000340034003400340034003400340034EC
:1024500020302000A40024082100BA00013093316C
:102460002D2392312F302000A40024082100BB002E
:10247000023093312D2392313E302000A4002408F5
:102480002100BC00033093312D2392319D31C025B2
:1024900008002000AD01A91F542AA809A909A80A0B
:1024A0000319A90AAD01AD0A2808A0002908A10056
:1024B000A2018E30AB002B08A3002D08AC002C0825
:1024C000A40097319F2720002008A8002108A90018
:1024D0002208AA0008002000E00060089031A72030
:1024E000923178088600013087000115780886004F
:1024F0000130870081147D08093E86000130870085
:1025000001089631E4262000DF007808053E8600A9
:10251000013087005F088100080001302000A20020
:102520000030A30021082302031D982A200822025C
:1025300003180800A401A501003025020230031988
:1025400024020318AE2A0130A4070030A53D003054
:102550002502023003192402031CA32A0130A2071A
:102560000030A33D922A2000A30023089E31272695
:102570007A0886008701200022080110031D01143B
:102580007A088600870101137A0886008701011105
:102590007A088600870181117A08860087018110F8
:1025A0007A08043E8600870181017A088600870147
:1025B000811208002000A200013091314E21923199
:1025C0007B08860001308700200022080110031DCF
:1025D0000114023091314E2192317B088600013086
:1025E0008700200022080110031D011403309131DF
:1025F0004E217B0886000130870020002208011050
:10260000031D011408002000A8012F302802031820
:1026100008002808003E840090300318013E850021
:102620000008A5002508A60028082F3E8400903049
:102630000318013E85000008A5002508A70027080B
:10264000A5002508A20026089F31CD27933101302F
:102650002000A5002508A807052B2000A3002308BB
:102660009031A7207808093E8600013087000115C7
:1026700004302000A2007808053E86000130870063
:10268000220881003C30A2007808063E8600013016
:102690008700220881007808063E86000130870006
:1026A0000108A2007808043E860001308700220855
:1026B000810008002000A1002108013A031D662BBB
:1026C000D830A00020082100BE000800200021080A
:1026D000023A031D712BDC30A00020082100BE004F
:1026E000080020002108033A031D7C2BE030A000E5
:1026F00020082100BE00080020002108633A031DC5
:102700000800D430A00020082100BE0008002000EE
:102710008E100E100E160A30A0000030A10092316B
:102720008D22933120000E120A30A0000030A1004B
:1027300092318D22933120000E162830A0000030F7
:10274000A10092318D22933120000E123030A6006C
:1027500026082100C20020000E19AB2B9F31B427A0
:10276000933120000E19B12B0E100E160800200018
:10277000A101230015133030920094011512951613
:1027800015152000A101203021020318E32B210898
:10279000230091002000210821006F072000A000E5
:1027A00020088600023087000108230093009D3135
:1027B000D525933101302000A0002008A10720304A
:1027C0002102031CC72B230095129D31D525230020
:1027D000151108008B1E08000B1D08004230200058
:1027E00095000B11013080314C2093310230803143
:1027F0004C209331033080314C20933121006C0AFE
:10280000860087010130810741310318810A6C0A73
:1028100086008701403F643A031D102C413F003A77
:10282000031D08006C0A860087010030C03FC13FCD
:102830006E08860001308700811408002000E40043
:1028400064089031A720943120006208013A031DEA
:10285000342C7808860001308700811578088600BE
:102860000130870081140800780886000130870055
:10287000811D0800780886000130870081107808E3
:1028800086000130870081117808043E86000130FF
:1028900087000108E3007808053E860001308700C4
:1028A00063088100DD01DD0A64088831E12094318C
:1028B00001308D314D2508002000E6006608913179
:1028C000E821943121003F0886008701011C742C07
:1028D0006F08243E8600023087000114200066083D
:1028E0008731C3279431862C20006608143E7D076B
:1028F000E40064088600013087000108E5007D08D7
:10290000093E8600013087006508810020006608C6
:102910001A3E7D07E4006408860001308700010844
:10292000E5007D08113E86000130870065088100C2
:1029300001308D314D25080020000E127F30A4009B
:1029400024082100C20020000E19A32C9F31B427B7
:102950009431210043082000A40024082100C20073
:102960009F31B42794312000A501210043082000A5
:1029700025020318CD2C2508A03E860087010108FA
:10298000A40024082100C2009F31B42794310130F3
:102990002000A4002408A507B52C0E1635309E3162
:1029A0007F26943120000D1CD22C0D18D52C3630EA
:1029B0009E317F2694313B309E317F26FC140800E7
:1029C00021006F08243E860002308700811C080029
:1029D0006F08243E860002308700011C1D2D6F0801
:1029E000223E860002308700013081074131031802
:1029F000810A6F08223E860002308700403F193A64
:102A0000031D042D413F003A031D08006F08223EBC
:102A10008600023087000030C03FC13F6F08243E6F
:102A200086000230870001106F08243E86000230C5
:102A30008700811089314D21080021006F08243E54
:102A4000860002308700811008002000D900003085
:102A5000DA006030DB004230DC000030AE00C8300D
:102A6000AF004230B0005A08B1005B08B2005C0809
:102A7000B3008D31ED25953120002E08DA002F08A6
:102A8000DB003008DC005908FC3EA800FF300318CA
:102A90000030A90092314922953120002808B10068
:102AA0002908B2002A08B3005A08AE005B08AF003C
:102AB0005C08B0008D31ED25953120002E08CB004B
:102AC0002F08CC003008CD008B311F2320004B0392
:102AD000FF3A643E08002000A400240893315A23E2
:102AE000953121003E0886008701811C08003E0ABE
:102AF000860087010130810741310318810A3E0AAF
:102B000086008701403F2000A200413FA300003023
:102B10002302323003192202031C080021003E0A5E
:102B2000860087010030C03FC13F20002408013AE1
:102B3000031D9D2D80308E0608002408023A031DD7
:102B4000A42D08308C0608002408033A031DAB2D81
:102B500040308E0608002408633A031D0800203028
:102B60008D0608002000AE002E089E3127269531E4
:102B700021002C082000AD007D080C3E86000130AD
:102B800087002D08810021002D082000AD007D0860
:102B90000D3E8600013087002D08810021002E089F
:102BA0002000AD007D080E3E8600013087002D0814
:102BB00081006430A9000030AA0001308C31B724B4
:102BC00095317A0886008701011321006E0886007E
:102BD00001308700811FF22D6F08243E86000230ED
:102BE000870001156F08243E86000230870001141B
:102BF00008009F315B2795319031C2209531833198
:102C00007C2395319E318F2695319D31EA25953172
:102C10009231282295319F31112795319D31A1257F
:102C200095319F316F27953121006E088600013064
:102C30008700811C142E6E088600013087008110E9
:102C40008A312B2295319F31222795319031F820FE
:102C5000953121006E08860001308700011C142E7A
:102C60009431E02495319E319F26953186313E2660
:102C700095319E31522695319E310E2695319D31EA
:102C8000A5259531142E2000E80068089E312726DE
:102C900096317A0886008701011F5A2E2100A0086C
:102CA000031D08002108643A031D08000130953116
:102CB000B22508002100A008031D08002108023ADF
:102CC000031D08002C08FF3A031D702E2D08FF3A43
:102CD000031D702E2E08FF3A031D702E0000080001
:102CE0007D080C3E86000130870021002C0801067B
:102CF000031D08007D080D3E8600013087002D0869
:102D00000106031D08007D080E3E86000130870085
:102D10002E080106031D080001308F314A270800E4
:102D20002000A601A11F9B2EA009A109A00A03193A
:102D3000A10AA601A60AA31FA62EA209A309A20AF8
:102D40000319A30A0130A4002408A606A701A801BC
:102D5000210820040319D52EA501A50AA11BBA2E0E
:102D60000130A035A10D890BB12E0130A40024083B
:102D7000A507AE2E0130A735A80D890BBB2E210863
:102D80002302031DC52E20082202031CCC2E20087E
:102D9000A2022108A33B27140130A136A00C890B05
:102DA000CD2E0130A502031DBA2E26080319DD2EF3
:102DB000A709A809A70A0319A80A2808A101A107B9
:102DC0002708A001A00708002000DB000030DC007D
:102DD0006030DD004230DE000030AE00C830AF00B1
:102DE0004230B0005C08B1005D08B2005E08B3007C
:102DF0008D31ED25963120002E08DC002F08DD00F6
:102E00003008DE005B08D900DA01D909DA09D90AED
:102E10000319DA0A5908643EA80000305A3DA90097
:102E200092314922963120002808B1002908B200C9
:102E30002A08B3005C08AE005D08AF005E08B00071
:102E40008E319626963120002E08C1002F08C20030
:102E50003008C3000030BE008030BF004030C000EA
:102E600084317424963120003E08CB003F08CC000A
:102E70004008CD008B311F2320004B0808002000A4
:102E8000A900A801A80A2908013A031D522FA5018B
:102E90002200B71DC6194F2F2000A501A50A20004A
:102EA00025086F2F2908023A031D612FA601220071
:102EB000A81DC6195E2F2000A601A60A200026081C
:102EC0006F2F2908033A031D722FA7012200A81DA6
:102ED000B7196D2F2000A701A70A20002708A4001A
:102EE0002408A8002808013A031D08007B08860072
:102EF00001308700811F08007B08860001308700B1
:102F000081157B0A86000130870001147B0886004A
:102F1000013087000117A201A20A29089E317026FC
:102F200097312000A201A20A29089E31DF2697319D
:102F30002000A201A20A29089E31CF260800200005
:102F400023080319A82F220821042004031DB92FE8
:102F50000030A0000030A1000030A20008000130C5
:102F6000A5002508A3070130A236A10CA00C890BEF
:102F7000B42FFE3022050319D22FAF2F0130A50048
:102F80002508A3070130A007003003180130A1076E
:102F9000003003180130A2070130A236A10CA00CAA
:102FA000890BCD2FFF3022050319DF2FBE2F0130F3
:102FB000A3020130A035A10DA20D890BDA2FA11FAC
:102FC000D72F2318E92FFF30A0057F30A105FF3050
:102FD000A2050310A30C2308A500A601A701103029
:102FE000A535A60DA70D890BF02F2508A0042608EE
:102FF000A1042708A204240803190800A217080046
:103B22003A309E317F2608003B309E317F260800C6
:103B320036309E317F260800783021009900080037
:103B420001309D31CE250800013085316A250800FB
:103B520020008E1A08008E16A92D24000D100B12BB
:103B62000B178B170800FE0012001E00FE0BB52D6E
:103B72000034640080010131890BBB2D0034E43034
:103B82002000A00020082100B9000800F230210026
:103B92009E00C03022009700080015302000A000CF
:103BA20020082100C3000800553023009600AA30E7
:103BB200960095140000000008000B1E08008B1CE4
:103BC20008008B100B12F201F20A01309F31E62736
:103BD20008004D302000A00020082100B70037085F
:103BE2008600013087000114080033309E317F26A1
:103BF2009D31E8302000A0000330A10092318D22D7
:103C02000800230015133030920091011516151586
:103C12009D31D52523001511080001308231232260
:103C22009E310230823123229E310330823123229F
:103C32000800F1007108013A031D232ECF30F00075
:103C42007008FA000B1A08000B1608002000A100E9
:103C52002108013A031D312ECF30A0002008FA00BE
:103C62000B1A08000B1608002000A30023089E313F
:103C720027267A0886008701200022080113031DE7
:103C820001170800013091316B219E3102309131D0
:103C92006B219E31033091316B21FF302000950062
:103CA200080001308C312D249E3102308C312D24BC
:103CB2009E3103308C312D249E319F3147270800DD
:103CC2002000A300230891314E217B088600013099
:103CD2008700200022080113031D0117080020009D
:103CE200A30023089131E82121003F0886008701C3
:103CF200200022080110031D011408002000A30067
:103D02000E122308A20022082100C20020000E1970
:103D1200872E9F31B42720000E16080001309F31F4
:103D220000279E3102309F3100279E3103309F31A0
:103D320000279E3163309F31002708000130953102
:103D42006B259E31023095316B259E3103309531C2
:103D52006B259E31633095316B2508002000A3004E
:103D620023089031A7207808083E8600013087009A
:103D7200200022088110031D811408002000A300E6
:103D820023089031A7207808083E8600013087007A
:103D9200200022080111031D011508002000A300C4
:103DA20023089031A7207808083E8600013087005A
:103DB200200022088111031D811508002000A300A4
:103DC20023089031A7207808083E8600013087003A
:103DD200200022080112031D011608008B1D080095
:103DE2002700161D080016110B1021006E08860010
:103DF20001308700011C08009E3143260800200084
:103E0200A400240893315A239F3121003E088600E2
:103E1200870101142000A20124088931BB21080076
:103E22009D31A9259F3124008D1001308731F8275B
:103E32009F3102308731F8279F3103308731F827CD
:103E4200080021006E08103E860001308700003015
:103E5200C03FC13F6E08123E86000130870000302D
:103E6200C03FC13F08002000A101A201A20A220016
:103E7200201F2F1B402F3E1B402F2000A20120009D
:103E82002208A0002008A10021080800210039080A
:103E920086008701011C080039088600870101108D
:103EA2009F3134279F310038031D080001309131C2
:103EB200A9210800A0302000A0002008FD00D33076
:103EC200A0007D08143E8600013087002008810092
:103ED200C030A00020082100EE00080093318723A3
:103EE2009F31933103239F3191318A219F319D313B
:103EF20095259F319D3191259F319D31F6259F3129
:103F02009D3199250800773021008C0005308D0005
:103F12000C308E0022008C018D018E0102302300B4
:103F22008C008D018E01773020008C0005308D00D1
:103F32000C308E000800173021009700E730200077
:103F4200A00020082100ED006D0886008701011401
:103F52000A302000A00021006D0A8600870120009F
:103F62002008810008002000A10108302102031866
:103F720008002100C21FC02F20000E14C22F2000F3
:103F82000E108E1403102100C20D20008E1001307D
:103F9200A0002008A107B62F2000A4000E122408BA
:103FA200A30023082100C20020000E19D52F9F3143
:103FB200B4279F3120002208A30023082100C20059
:103FC2009F31B42720000E160800F30073089E31BB
:103FD2001A269F317A0886008701811D08007A0817
:103FE2008600870181117A0A8600870181147A0886
:0E3FF2008600870172088110031D81140800EB
:020000040001F9
:04000E00ECF9FDFF0D
:00000001FF
