:1000000080311628640008007E14803120007F08AB
:10001000F7009C31722480319131782180319B31FD
:100020002E2377082000FF007E1009008031182859
:10003000FC01F801F901FA01FB01A0308400003055
:10004000850045309B310A23803120308400013007
:1000500085004A309B310A238031A0308400013072
:10006000850034309B310A238031203084000230F7
:10007000850025309B310A2380312E3084009F304B
:100080008500453086000230870020309B310423F4
:100090007E1020009431C82CF60076089D319925F9
:1000A00080317908860001308700011CB7280130B3
:1000B000F2007908033E860001308700720881074C
:1000C00021003908023E860087010108F200F30191
:1000D000F209F309F20A0319F30A7908043E8600CB
:1000E0000130870001087207F40073080318730ACF
:1000F000F5007908033E8600013087007508803AD4
:10010000803C031D852874080102031CC629790858
:10011000033E8600013087008101790886000130A6
:10012000870001107908860001308700011FC62969
:100130007908083E86000130870001147908083EDE
:1001400086000130870081167608013A031DAA282F
:1001500020000D167608023A031DB02820008C17E7
:100160007608033A031DC62920008D14C629790894
:10017000083E860001308700011CC6297908083E28
:100180008600013087000110790886000130870061
:10019000811CC6290130F200790A860001308700EF
:1001A00072088107790A8600013087007908023ECB
:1001B00084000130850000080102031CC629790A69
:1001C00086000130870081017908860001308700B0
:1001D000811D20297908860001308700011A07292E
:1001E0007908043E86000130870005300102031CB7
:1001F00001297908043E8600013087000130810220
:10020000C62979088600013087000116C6297908B9
:10021000043E8600013087003C30010203181A2991
:100220000130F2007908043E860001308700720830
:100230008107C62979088600013087000112C62986
:100240007908860001308700011D67297908053E7D
:100250008600013087007908043E84000130850063
:100260000008010203183C297908043E8600013089
:1002700087000130810253297908043E860001304D
:1002800087007908053E84000130850000080102DE
:10029000031853290130F2007908043E860001302A
:1002A0008700720881077908053E860001308700C3
:1002B0007908043E84000130850000080106031D12
:1002C000C629790886000130870001118229790842
:1002D000860001308700811E88297908043E860047
:1002E00001308700013081027908053E8600013027
:1002F00087007908043E840001308500000801026F
:10030000031CC62979088600013087008110C629A0
:100310000130F2007908043E86000130870072083F
:1003200081077908043E8600013087007908063E7F
:1003300084000130850000080102031CC6297908E9
:10034000860001308700811079088600013087001F
:1003500001137908093E860001308700011521004C
:1003600039088600870101147608013A031DBA296D
:1003700020008E137608023A031DC02920008C113C
:100380007608033A031DC62920000E137908083E9B
:10039000860001308700811EFD290130F2007908B6
:1003A000073E860001308700720881077908073E02
:1003B00086000130870005300102031CFD29790801
:1003C000073E86000130870081017908083E8600DB
:1003D0000130870081127608013A031DF1292000BF
:1003E0000D127608023A031DF72920008C137608B7
:1003F000033A031DFD2920008D107908093E86006F
:1004000001308700811E08000130F20079080A3EA1
:100410008600013087007208810779080A3E86004D
:10042000013087000108463A031D080079080A3E9A
:1004300086000130870081017908093E860001307D
:100440008700811208002000EA006A089E317426A5
:1004500082317B08860001308700011C08002000E3
:100460006A08013A031D3C2A7B0886000130870098
:1004700081100C188114552A20006A08023A031DC5
:10048000492A7B0886000130870081100C1B8114EB
:10049000552A20006A08033A031D552A7B08860066
:1004A0000130870081100C1A81147B08860001300E
:1004B0008700811C272B7B088600013087000119EB
:1004C000832A01302000E8007B08023E86000130CC
:1004D0008700680881077B08023E8600013087009C
:1004E00005300102031C08007B08023E8600013033
:1004F000870081017B0886000130870001156A08AA
:100500008A31C12208007B088600013087008119EA
:10051000B02A7B08033E8600013087000130810746
:1005200041310318810A7B08033E860001308700B1
:10053000403F2000E800413FE9000030690296306A
:1005400003196802031C08007B08033E8600013083
:1005500087000030C03FC13F6A089531232508005D
:100560007B08860001308700011AF42A7B08053ECB
:100570008600013087000130810741310318810A6C
:100580007B08053E860001308700403F2000E800E0
:10059000413FE90000306902963003196802031CEC
:1005A00008007B08053E8600013087000030C03F10
:1005B000C13F7B088600013087000116A201A20A14
:1005C00001309B31B8238231210067088600013059
:1005D0008700811F080064302000A9000030AA00B5
:1005E00002308B31D22308007B088600013087005F
:1005F000811A08007B08073E860001308700013021
:10060000810741310318810A7B08073E86000130CB
:100610008700403F2000E800413FE90001306902C7
:100620002C3003196802031C08007B08073E860073
:10063000013087000030C03FC13F7B088600013099
:1006400087008116A20101309B31B82308007B0886
:10065000860001308700011D080001302000E800FD
:100660007B08023E860001308700680881077B080E
:10067000023E86000130870005300102031C08009D
:100680007B08023E86000130870081017B088600DE
:100690000130870001117B08033E8600013087008E
:1006A0000030C03FC13F7B088600013087008111C8
:1006B0007B08053E8600013087000030C03FC13F07
:1006C0007B0886000130870001127B08073E860008
:1006D000013087000030C03FC13F7B0886000130F9
:1006E000870081126A0896314E2682312000A201CD
:1006F00001309B31B82308002100430886000130F7
:100700008700011C0800430886000130870001199A
:10071000B52B430A86000130870001308107413143
:100720000318810A430A860001308700403F2000F9
:10073000B000413FB10001303102F4300319300202
:10074000031C08002100430A8600013087000030A6
:10075000C03FC13F430886000130870001154308B0
:1007600086000130870001120800430A860001302C
:1007700087000130810741310318810A430A86004E
:1007800001308700403F2000B000413FB100003001
:100790003102043003193002031C08002100430A0F
:1007A0008600013087000030C03FC13F430886000B
:1007B00001308700011143080A3E8600013087009E
:1007C0004308063E840001308500403F803F413FA2
:1007D000813F4308860001308700811C202C43089C
:1007E000063E860001308700403F2000B000413FB8
:1007F000B10002303102583003193002031C512C71
:100800000130B00021004308033E8600013087001C
:1008100020003008810721004308033E8600013094
:10082000870003300102031C582C4308033E860056
:1008300001308700810100309231FC228331582C35
:100840004308063E860001308700403F2000B0008C
:10085000413FB10002303102273003193002031842
:10086000512C0130B00021004308033E86000130C6
:10087000870020003008810721004308033E8600DE
:100880000130870003300102031C582C4308033E4B
:10089000860001308700810101309231FC228331D2
:1008A000582C21004308033E860001308700810157
:1008B000210043088600013087008118642C43081A
:1008C00086000130870001164308063E860001308D
:1008D0008700403F2000B000413FB1003108B20026
:1008E0007D08183E86000230870032088100210012
:1008F0004308063E86000130870001082000B00052
:100900007D08193E860002308700300881002100F2
:100910004308083E8600013087000030C03FC13FD9
:1009200043080A3E8600013087000030C03FC13FC7
:1009300008002000DE011F309D31B3258431AA3A22
:10094000031D132D00309D31B32584312000DD00BF
:100950007D080C3E8600023087005D088100013072
:100960009D31B32584312000DD007D080D3E8600D9
:10097000023087005D08810002309D31B32584314B
:100980002000DD007D080E3E8600023087005D08F5
:10099000810004309231B62284312000DD005D08F0
:1009A000DE005E08DD007D08153E8600023087000F
:1009B0005D0881005E08DD007D08163E860002307D
:1009C00087005D0881005E08DD007D08173E860017
:1009D000023087005D0881007D080C3E86000230F1
:1009E00087000108FF3A031D08007D080D3E8600C0
:1009F000023087000108FF3A031D08007D080E3E03
:100A00008600023087000108FF3A031D080021001C
:100A1000670886000130870081166708860001306C
:100A200087008117080004309231B62284312000FB
:100A3000DD005D08DE00FF30DD0021006808860073
:100A40000230870020005D088100FF30DD002100BA
:100A5000680A86000230870020005D088100FF30B0
:100A6000DD0021006808023E860002308700200079
:100A70005D088100FF30DD0021006808033E86002C
:100A80000230870020005D088100FF30DD0021007A
:100A90006808043E86000230870020005D0881005F
:100AA000FF30DD0021006808053E86000230870027
:100AB00020005D088100AA30DD00210068081F3E8B
:100AC00086000230870020005D0881005E08DD009E
:100AD0007D08153E8600023087005D0881005E08B3
:100AE000DD007D08163E8600023087005D0881002B
:100AF0005E08DD007D08173E8600023087005D0835
:100B000081008B13913110218B172100670886001B
:100B10000130870081166708860001308700811741
:100B2000080020003E08C4003F08C5004008C60079
:100B30000310450D460DC7004708CA004108C40010
:100B40004208C5004308C6000310450D460DC70006
:100B50004708C9004A080319B92D49084A02031871
:100B6000C02D4A03FF3A4907C40019304402031C50
:100B7000C02D4108BE004208BF004308C000080065
:100B80004908031908004A0849020318CF2D4903F0
:100B9000FF3A4A07C400193044020318080006301F
:100BA000C4004408C800C01BC817C31B4817BF17A0
:100BB000FF30BE05FF30BF050030C005C217FF3053
:100BC000C105FF30C2050030C30549084A020318B9
:100BD0000B2E0130C135C20DC30D890BEA2D01303A
:100BE000C90249084A060319062E0130C8024808FE
:100BF00007390319062EE92D0130C036BF0CBE0C93
:100C0000890BFD2D0130C4004408CA074A08490673
:100C10000319302EFC2D4A0849020318302E0130EA
:100C2000BE35BF0DC00D890B102E0130CA02490818
:100C30004A0603192C2E0130C80248080739031947
:100C40002C2E0F2E0130C336C20CC10C890B232E63
:100C50000130C4004408C9074A084906031D222E72
:100C6000C81F422EFF30BE06FF30BF06FF30C00651
:100C70000130BE07003003180130BF0700300318F1
:100C80000130C007481F542EFF30C106FF30C20696
:100C9000FF30C3060130C107003003180130C2071E
:100CA000003003180130C307C8013E08C1073F08E0
:100CB000C23D4008C33DC31F6F2EFF30C106FF3049
:100CC000C206FF30C3060130C107003003180130EF
:100CD000C207003003180130C307C801C80A410821
:100CE000A0004208A1004308A2004A08C40044082A
:100CF000A3004808C5004508A400953183252000BD
:100D00002008BE002108BF002208C0000800200003
:100D1000EA006A089B31AA2386317A088600870197
:100D2000011C080021003708860001308700811867
:100D300008002000EB01EB0A0C1C0C1BA12E0C1E62
:100D4000EB017A08860087016B088113031D811768
:100D50007A0886008701811FBA2E7A0886008701EB
:100D6000011BBA2E7A0A86008701811401309E3158
:100D7000EE2608007A0A86008701811CDF2E7A0899
:100D800086008701011BDF2E01302000E9007A0870
:100D9000033E86008701690881077A08033E8600C2
:100DA00087010108053A031D08007A08033E860002
:100DB000870181017A0A86008701811008007A087C
:100DC000033E8600870181017A0A8600870181102F
:100DD0007A0886008701811CFC2E7A08860087012C
:100DE00081108E317B26863101309331D0237A0AEF
:100DF00086008701811408007A0886008701011B9C
:100E00003E2F7A0886008701011D212F7A0886006F
:100E1000870101117A088600870181117A0886000E
:100E20008701811036309C31022486313B309C3161
:100E30000224863192312D227A0A8600870181149C
:100E400008007A0886008701811908007A08860060
:100E50008701811808007A088600870181153630DD
:100E60009C31022486313A309C3102248631343060
:100E70009C310224203020008D0608007A0886006C
:100E80008701811908007A08860087018118080007
:100E90007A0886008701811536309C31022486311C
:100EA0003A309C310224863134309C310224203087
:100EB00020008D0608002000A30023089B31AA23F0
:100EC00087317A0886008701011C08007A088600AD
:100ED0008701011563302000A20022082100A00034
:100EE00002302000A20022082100A1007D08860017
:100EF000023087000230423FA2007D0886000230A7
:100F000087000230433FA3007D088600023087003F
:100F10000230443FA4007D08860002308700023082
:100F2000453FA5007D088600023087000230463F1D
:100F3000A6007D088600023087000230473FA700E8
:100F40007D088600023087000230483FA8007D08F7
:100F50008600023087000230493FA9007D088600E4
:100F60000230870002304A3FAA007D088600023026
:100F7000870002304B3FAB007D08860002308700BF
:100F800002304C3FAC007D08860002308700023002
:100F90004D3FAD007D0886000230870002304E3F95
:100FA000AE007D0886000230870002304F3FAF0060
:100FB0007D088600023087000230503FB0007D0877
:100FC0008600023087000230513FB1007D08860064
:100FD000023087000230523FB2007D0886000230A6
:100FE00087000230533FB300D3302000A200220814
:100FF0002100B400080020008E1A08008E16FB2F76
:1010020001308631872608002000A601A11F102882
:10101200A009A109A00A0319A10AA601A60AA31FF1
:101022001B28A209A309A20A0319A30A0130A400DA
:101032002408A606A701A8012108200403194A28AA
:10104200A501A50AA11B2F280130A035A10D890BEE
:1010520026280130A4002408A50723280130A7353B
:10106200A80D890B302821082302031D3A282008E5
:101072002202031C41282008A2022108A33B2714B4
:101082000130A136A00C890B42280130A502031DB4
:101092002F28260803195228A709A809A70A031905
:1010A200A80A2808A101A1072708A001A007080093
:1010B2002000A30023089031B32088312000A20829
:1010C200031D7B282308013A031D69288E17080097
:1010D2002308023A031D6F288C1508002308033ADF
:1010E200031D75280E1708002308633A031D080024
:1010F2008D1608002208013A031D97282308013A99
:10110200031D85288E1308002308023A031D8B282D
:101112008C1108002308033A031D91280E130800BE
:101122002308633A031D08008D12080022080A3AB8
:10113200031DBF2821003E088600870181103E0A58
:10114200860087010030C03FC13F20002308013ADA
:10115200031DAD288E1708002308023A031DB32889
:101162008C1508002308033A031DB9280E1708003E
:101172002308633A031D08008D16080022080B3A63
:10118200031D080021003E08860087018114080023
:101192002100670886000130870001180F29670ABD
:1011A2008600013087000130810741310318810A2E
:1011B200670A860001308700403F963A031DE32804
:1011C200413F003A031D0800670A8600013087008C
:1011D2000030C03FC13F670886000130870001141C
:1011E20001309B319D23883132302000A90000302C
:1011F200AA0003308B31D223883121006708860090
:101202000130870001170130903108208831200019
:10121200A201A20A01309F31D927080021006708E4
:10122200053E8600013087000130810741310318F5
:10123200810A6708053E860001308700403F643A14
:10124200031D2529413F003A031D08006708053E9A
:101252008600013087000030C03FC13F670886002A
:1012620001308700811D3B29670886000130870015
:101272008111080067088600013087008115080087
:101282002000A80021004308860001308700011DCC
:101292000800F0302000A4002408A00028089D3196
:1012A20007258931210043080C3E86000130870062
:1012B20020002008C03F2108C13F210043080C3E06
:1012C200860001308700403F2000A400413FA50076
:1012D20021004308083E860001308700403F20007D
:1012E200A600413FA70025082702031D7A292408EA
:1012F200260203188C29210043080C3E8600013087
:1013020087004308083E840001308500403F803F4B
:10131200413F813F0800210043080C3E8600013016
:101322008700403F2000A400413FA5002100430860
:101332000A3E860001308700403F2000A600413F60
:10134200A70025082702031DA8292408260203183E
:101352000800210043080C3E860001308700430844
:101362000A3E840001308500403F803F413F813F7B
:1013720008002000A60026089D31CD2589312000D5
:101382002608A5002100390A8600870120002508C9
:1013920081002408013A031D0E2A780886000130D4
:1013A20087008116A20126088831592089317808E0
:1013B200860001308700811407302000A5007808DC
:1013C200023E8600013087002508810078088600E9
:1013D20001308700011B0800780886000130870071
:1013E200011700309E31CF267808053E8600013075
:1013F200870001082000A5007808043E860001301D
:101402008700250881000430A5007808043E860084
:101412000130870025088100080078088600013025
:10142200870081127808063E860001308700010895
:10143200A5007808043E8600013087002508810057
:101442007808860001308700811478088600013010
:101452008700811178088600013087000112073069
:10146200A5007808023E8600013087002508810029
:10147200080020004B08CF004C08D0004D08D100D6
:101482000310500D510DD2005208D800D808031D88
:10149200532A0030CE000030CD000030CC000030A6
:1014A200CB0008004B08CF004C08D0004D08D100FB
:1014B2001730D136D00CCF0C890B5A2A4F08D200E4
:1014C2005208D300CC17FF30CB05FF30CC050030DB
:1014D200CD054B08D4004C08D5004D08D600D701E5
:1014E2008E30D802D81F912A5808803A8F3E0318AE
:1014F200832A0030CE000030CD000030CC00003016
:10150200CB0008000130D736D60CD50CD40C890B91
:10151200842A0130CF004F08D8070319AA2A832A48
:1015220018305802031CA72A0030CE000030CD002C
:101532000030CC000030CB0008000130D435D50D8E
:10154200D60DD70D890B9F2A0130D802D808031D6A
:101552009E2A53080319B82AD409D509D609D709EE
:10156200D40A0319D50A0319D60A0319D70A570848
:10157200CE005608CD005508CC005408CB00080018
:101582002000E700E601E60A6708013A031DD42AB3
:10159200E3012200B71DC619D12A2000E301E30AA4
:1015A20020006308F12A6708023A031DE32AE401D6
:1015B2002200A81DC619E02A2000E401E40A200046
:1015C2006408F12A6708033A031DF42AE5012200A0
:1015D200A81DB719EF2A2000E501E50A20006508D9
:1015E200E2006208E6006608013A031D08007B0873
:1015F20086000130870081176430A9000030AA00FC
:1016020001308B31D2238A317B088600013087007A
:10161200011B362B7B088600013087000117200052
:10162200A201A20A67089B31F3238A312000A2019A
:10163200A20A67089C3142248A312000A201A20A30
:1016420067089C3132248A317B088600013087008A
:101652000030011B01302000DD0067089631B826FA
:101662008A31013087315B2708007B088600013010
:10167200870001137B088600013087000030011BC0
:1016820001302000A20067089B31F32308002000EC
:10169200EA00E901E90A6A089D31CD258B31200073
:1016A2006A08013A031D602BE60122003819471D22
:1016B2005D2B2000E601E60A200066087D2B6A0801
:1016C200023A031D6F2BE70122002919471D6C2BDB
:1016D2002000E701E70A200067087D2B6A08033A29
:1016E200031D802BE80122002919381D7B2B2000C5
:1016F200E801E80A20006808E5006508E9007808C2
:10170200083E860001308700011DA42B6908013ABA
:10171200031D08007808083E860001308700011189
:101722007808083E860001308700811C9E2BA401A8
:10173200A40A6A088931BA2108002000A4016A08B3
:101742008931BA2108007808083E860001308700F6
:10175200011E080020006908013A031D08007808EC
:10176200083E86000130870001127808083E860094
:1017720001308700811DCC2BE201E20A6A08913117
:10178200AF218B3164302000A9000030AA00013063
:101792008B31D22308002000E2016A089131AF2187
:1017A20008002000AC004D30AB002B082100B70030
:1017B2000A302000A0000030A1002A08A301A307DC
:1017C2002908A201A207883105208B3120002108B7
:1017D200AA01AA072008A901A90721003708860043
:1017E20001308700011C080037088600013087009D
:1017F2008118202C37088600013087008114370AAF
:101802008600013087000030C03FC13F20002C0815
:10181200AB0021003708033E86000130870020001C
:101822002B08810021003708063E86000130870020
:1018320020002908C03F2A08C13F8D150800210059
:1018420037088600013087008119442C370886004A
:1018520001308700811520002C08AB0021003708D9
:10186200043E86000130870020002B088100210001
:101872003708083E86000130870020002908C03F53
:101882002A08C13F0800210037088600013087007E
:10189200011A08003708860001308700011620006F
:1018A2002C08AB0021003708053E86000130870076
:1018B20020002B088100210037080A3E86000130F3
:1018C200870020002908C03F2A08C13F08002000E5
:1018D2003108B4003208B5003308B6000310350DE4
:1018E200360DB7003708BC00BC08031D7F2C003042
:1018F200AE000030AF000030B00008002E08B40087
:101902002F08B5003008B6000310350D360DB700AC
:101912003708BD00BD08031D952C0030AE00003015
:10192200AF000030B00008000030B9000030BA004B
:101932000030BB0089303D07B4003408BC023108D6
:10194200B4003208B5003308B6001030B636B50C14
:10195200B40C890BA72C3408B7003708BD002E0839
:10196200B4002F08B5003008B6001030B636B50CFA
:10197200B40C890BB72C3408B7003708BD06803089
:10198200B4003408BD05B217FF30B105FF30B2050F
:101992000030B305AF17FF30AE05FF30AF050030A2
:1019A200B0051830B4003408B8000130B935BA0DAA
:1019B200BB0D890BD72C30083302031DE62C2F08F0
:1019C2003202031DE62C2E083102031CEF2C2E08D6
:1019D200B1022F08B23B3008B33B39140130B135A4
:1019E200B20DB30D890BF02C0130B802031DD62CB9
:1019F2003908A0003A08A1003B08A2003C08B40044
:101A02003408A3003D08B5003508A40095318325AC
:101A120020002008AE002108AF002208B000080014
:101A220020002E08B4002F08B5003008B6000310BD
:101A3200350D360DB7003708B800B808031D282D3C
:101A42000030AE000030AF000030B00008003108B6
:101A5200B4003208B5003308B6000310350D360D58
:101A6200B7003708BD00BD08031D3E2D0030AE0093
:101A72000030AF000030B00008003D087B3EB400EB
:101A82003408B8072E08B4002F08B5003008B60095
:101A92001030B636B50CB40C890B4A2D3408B70099
:101AA2003708BD003108B4003208B5003308B6006B
:101AB2001030B636B50CB40C890B5A2D3408B70069
:101AC2003708BD068030B4003408BD05AF17B21721
:101AD200FF30B105FF30B2050030B3050030B90068
:101AE2000030BA000030BB000730B4003408BC003C
:101AF2002E1C812D3108B9073208BA3D3308BB3D8F
:101B02000130B036AF0CAE0C890B822D0130B135ED
:101B1200B20DB30D890B882D0130BC02031D792D46
:101B22000930B4003408BC002E1C9D2D3108B907C1
:101B32003208BA3D3308BB3D0130B036AF0CAE0CB3
:101B4200890B9E2D0130BB36BA0CB90C890BA42D22
:101B52000130BC02031D952D3908A0003A08A100EE
:101B62003B08A2003808B4003408A3003D08B500C1
:101B72003508A4009531832520002008AE002108F5
:101B8200AF002208B00008002000E70067089B3180
:101B9200AA238D312100AF08031D2A2E2000A401A3
:101BA20001308931BA218D312000A20101309B31EF
:101BB200F3238D312000A20101309B31E4238D31CA
:101BC2002000A40102308931BA218D312000A20106
:101BD20002309B31F3238D312000A20102309B3170
:101BE200E4238D312000A40103308931BA218D31E3
:101BF2002000A20103309B31F3238D312000A2018A
:101C020003309B31E4238D317D08093E860002308A
:101C1200870081017D080B3E86000230870081012A
:101C22007D080F3E86000230870081017D08113E4B
:101C3200860002308700810164302000A900003054
:101C4200AA0001308B31D2238D31013087315B27DD
:101C5200080021002F08203A031D452E7D08093E69
:101C620086000230870081017D080B3E860002302B
:101C7200870081017D08113E8600023087008101C4
:101C8200013087315B27080021002F08013A031D2C
:101C92004E2E01309531E425080021002F08113A1B
:101CA200031D572E01309131ED21080021002F082C
:101CB200023A031D602E02309531E425080021000E
:101CC2002F08213A031D692E02309131ED210800BF
:101CD20021002F08033A031D722E03309531E425AB
:101CE200080021002F08313A031D0800033091310A
:101CF200ED21080020000D18AE2EB12E210067083C
:101D0200103E8600013087000130810741310318FF
:101D1200810A6708103E860001308700403F20009C
:101D2200AD00413FAE0027302E02103003192D02C4
:101D3200031CAE2E21006708103E8600013087008A
:101D42000030C03FC13FFA302000A9000030AA0095
:101D520001308B31D2238E31B12E20000D187F2E0F
:101D62003B309E3103268E31210047080319312F63
:101D720020000E12FF30AD002D082100C20020000D
:101D82000E1DF12E21006708123E860001308700E9
:101D92000130810741310318810A6708123E86002B
:101DA20001308700403F2000AD00413FAE002730A8
:101DB2002E02103003192D02031CC02E21006708C9
:101DC200123E8600013087000030C03FC13FFA302A
:101DD2002000A9000030AA0002308B31D2238E31BC
:101DE2009D314D258E319E3157268E31210042087C
:101DF2002000AD002D082100C1002000AF0121000C
:101E0200410820002F020318182F9E3157268E31C9
:101E1200210042082000AD002F08A03E8600870165
:101E22002D0881000130AD002D08AF07002F9E3133
:101E320057268E31210042082000AD002D082100D6
:101E4200C0009E3157268E31210042082000AD008D
:101E52002D082100B80020000E162100B81B7C14AA
:101E620036309C3102248E313A309C3102240800F3
:101E72004D302000A00020082100B700370886005E
:101E820001308700811C0800370A86000130870074
:101E92000130810741310318810A3708063E860066
:101EA20001308700403F2000A000413FA1002100F7
:101EB200370A860001308700403F2000A200413FE0
:101EC200A30021082302031D682F20082202031CFD
:101ED20008002100370A8600013087000030C03F29
:101EE200C13F3708860001308700811220008D191A
:101EF200811621003708860001308700811AEF2FF2
:101F02003708033E8600013087008108031DE72F52
:101F12003708860001308700811DB52F37088600FB
:101F22000130870081113708043E860001308700A6
:101F320001082000A00021003708033E860001307E
:101F4200870020002008810021003708083E860013
:101F5200013087003708063E840001308500403F8B
:101F6200803F413F813F08003708860001308700EB
:101F7200011EE12F37088600013087000112370861
:101F8200053E86000130870001082000A0002100E4
:101F92003708033E860001308700200020088100B8
:101FA200210037080A3E8600013087003708063EC6
:101FB200840001308500403F803F413F813F08005F
:101FC2003708860001308700811008003708860034
:101FD20001308700811620008D1508002100370886
:101FE200860001308700811220008D112100370800
:101FF200033E860001308700013081020800200084
:10200200A400A201A20A2408883159200800200055
:10201200A20001309E31742690317B088600013087
:102022008700200022080110031D011402309E3196
:10203200742690317B088600013087002000220838
:102042000110031D011403309E3174267B088600A3
:1020520001308700200022080110031D011408002E
:102062002000A8012F302802031808002808003E8B
:10207200840098300318013E85000008A500250859
:10208200A60028082F3E840098300318013E8500E0
:102092000008A5002508A7002708A5002508A2001A
:1020A20026089D316625903101302000A5002508C3
:1020B200A80733282000A30023089D31CD257808E6
:1020C200083E860001308700200022080111031D0E
:1020D20001157808083E8600013087002208811029
:1020E200031D81147808083E86000130870022080B
:1020F2000112031D01167808083E86000130870090
:1021020022088111031D811508002000A300230865
:102112009D31CD257808093E8600013087000115E2
:1021220004302000A2007808053E860001308700B6
:10213200220881003C30A2007808063E8600013069
:102142008700220881007808063E86000130870059
:102152000108A2007808043E8600013087002208A8
:10216200810008002000A1002108013A031DBF28B8
:10217200D130A00020082100BE0008002000210864
:10218200023A031DCA28D530A00020082100BE0053
:10219200080020002108033A031DD528D930A000E9
:1021A20020082100BE00080020002108633A031D18
:1021B2000800CD30A00020082100BE000800200049
:1021C2008E100E100E160A30A0000030A1009F31B2
:1021D200B327903120000E120A30A0000030A10077
:1021E2009F31B327903120000E162830A000003016
:1021F200A1009F31B327903120000E123030A6008B
:1022020026082100C20020000E1904299D314D2507
:10221200903120000E190A290E100E160800200017
:10222200A101230015133030920094011512951666
:1022320015152000A1012030210203183C29210894
:102242002300910020002108210068072000A0003F
:1022520020088600023087000108230093009B318A
:102262002523913101302000A0002008A107203051
:102272002102031C2029230095129B3125232300D0
:10228200151108002000E300653021002902031C1B
:10229200502964302000E10061082100A9002908CA
:1022A2002000E1007D08093E8600023087006108B7
:1022B20081006308E1007D080B3E86000230870042
:1022C200610881007D08093E86000230870001080E
:1022D200E1006308143E7D07E200620886000230D6
:1022E20087006108810063089F31912708008B1ED7
:1022F20008000B1D08004230200095000B11013030
:1023020080314C209131023080314C2091310330A8
:1023120080314C2091312100650A8600013087000E
:102322000130810741310318810A650A86000130B4
:102332008700403F643A031DA029413F003A031D34
:102342000800650A8600013087000030C03FC13FA7
:102352006708860001308700811408002000E4002D
:1023620064089D31CD25913120006208013A031D98
:10237200C529780886000130870081157808860013
:102382000130870081140800780886000130870038
:10239200811D0800780886000130870081107808C6
:1023A20086000130870081117808043E86000130E2
:1023B20087000108E3007808053E860001308700A7
:1023C20063088100DD01DD0A64089631B826913187
:1023D200013087315B2708002000E60066089F3144
:1023E2000E27913121003F0886008701011C052A32
:1023F2006808243E86000230870001142000660827
:10240200913143219131172A20006608143E7D073D
:10241200E40064088600023087000108E5007D08B8
:10242200093E8600023087006508810020006608A8
:102432001A3E7D07E4006408860002308700010826
:10244200E5007D08113E86000230870065088100A4
:10245200013087315B27080020000E127F30A40074
:1024620024082100C20020000E19342A9D314D2576
:102472009231210044082000A40024082100C20057
:102482009D314D2592312000A501210044082000F4
:10249200250203185E2A2508A03E8600870101084E
:1024A200A40024082100C2009D314D259231013043
:1024B2002000A4002408A507462A0E1635309C31B8
:1024C2000224923120000D1C632A0D18662A363030
:1024D2009C31022492313B309C310224FC140800CE
:1024E20021006808243E860002308700811C080013
:1024F2006808243E860002308700011CAE2A680864
:10250200223E8600023087000130810741310318E4
:10251200810A6808223E860002308700403F193A4D
:10252200031D952A413F003A031D08006808223E18
:102532008600023087000030C03FC13F6808243E59
:1025420086000230870001106808243E86000230AF
:102552008700811097312427080021006808243E53
:10256200860002308700811008002000D900003068
:10257200DA006030DB004230DC000030AE00C830F0
:10258200AF004230B0005A08B1005B08B2005C08EC
:10259200B3008C316824923120002E08DA002F0813
:1025A200DB003008DC005908FC3EA800FF300318AD
:1025B2000030A9009F316F27923120002808B10016
:1025C2002908B2002A08B3005A08AE005B08AF001F
:1025D2005C08B0008C316824923120002E08CB00B8
:1025E2002F08CC003008CD008A313A2220004B035C
:1025F200FF3A643E08002000AF0021004308860035
:102602000130870020002F088110031D81142F093B
:102612000139AE0021004308860001308700200006
:10262200AE0E01082E06EF392E0681002F0803197F
:102632001F2B0130973192279231282B64302000D2
:10264200A9000030AA0002308B31D223923120003F
:102652002F080A3EAE002E08A200633088315920AE
:10266200923120002F090139903108209231200047
:102672002F090139AE002E08A20001309F31D9275F
:1026820008002000A40024089031B32093312100D7
:102692003E0886008701811C08003E0A86008701E9
:1026A2000130810741310318810A3E0A8600870101
:1026B200403F2000A200413FA300003023023230FD
:1026C20003192202031C080021003E0A860087012A
:1026D2000030C03FC13F20002408013A031D742B83
:1026E20080308E0608002408023A031D7B2B083036
:1026F2008C0608002408033A031D822B40308E0604
:1027020008002408633A031D080020308D060800E3
:102712002000AE002E089B31AA23933121002C0801
:102722002000AD007D080C3E8600023087002D0897
:10273200810021002D082000AD007D080D3E86009D
:10274200023087002D08810021002E082000AD00F4
:102752007D080E3E8600023087002D08810064301D
:10276200A9000030AA0001308B31D22393317A08BC
:102772008600870101132100670886000130870067
:10278200811FC92B6808243E86000230870001158C
:102792006808243E860002308700011408002000E9
:1027A200E80068089B31AA2393317A0886008701E2
:1027B200011FE72B2100A008031D08002108643A2D
:1027C200031D080001309331892308002100A0086D
:1027D200031D08002108023A031D08002C08FF3AD5
:1027E200031DFD2B2D08FF3A031DFD2B2E08FF3A7A
:1027F200031DFD2B000008007D080C3E8600023000
:10280200870021002C080106031D08007D080D3EEB
:102812008600023087002D080106031D08007D088E
:102822000E3E8600023087002E080106031D0800B6
:1028320001308D31C52508002000A50025089D31F5
:10284200CD2594317808860001308700811E08006A
:1028520078088600013087008110780886000130F0
:1028620087008111780886000130870001127808FC
:10287200860001308700011307302000A400780889
:10288200023E860001308700240881007808063E57
:102892008600013087000108A4007808043E860003
:1028A2000130870024088100210039088600870151
:1028B20001142000A201A20A25088831592094316E
:1028C2002000A20125089B31E42394312000A201BB
:1028D20025089B31F32308002000DB000030DC00D8
:1028E2006030DD004230DE000030AE00C830AF00A4
:1028F2004230B0005C08B1005D08B2005E08B3006F
:102902008C316824943120002E08DC002F08DD0071
:102912003008DE005B08D900DA01D909DA09D90AE0
:102922000319DA0A5908643EA80000305A3DA9008A
:102932009F316F27943120002808B1002908B20086
:102942002A08B3005C08AE005D08AF005E08B00064
:102952008D311125943120002E08C1002F08C200AC
:102962003008C3000030BE008030BF004030C000DD
:1029720085319125943120003E08CB003F08CC00E0
:102982004008CD008A313A2220004B0808009C31D1
:10299200DE2494319D31E825943184319924943197
:1029A2009C31122494319B313A2394319A31E4229E
:1029B20094319F314E2794319C31942494319A3131
:1029C200FA2294319C31F224943121006708860066
:1029D20001308700011CF12C0930893141219431E9
:1029E20021006708860001308700811CE62C6708F9
:1029F20086000130870081108831C92094319C31D2
:102A0200A52494319E311E26943121006708860048
:102A120001308700011CE62C9231712294319C31E5
:102A2200222494318F31392794319A31E72294311B
:102A32009B31D52394319B315E239431883101201F
:102A42009431E62C2000A900A801A80A2908013A1D
:102A5200031D362DA5012200B71DC619332D2000F6
:102A6200A501A50A20002508532D2908023A031DB5
:102A7200452DA6012200A81DC619422D2000A6013F
:102A8200A60A20002608532D2908033A031D562DB5
:102A9200A7012200A81DB719512D2000A701A70ADE
:102AA20020002708A4002408A8002808013A031DD2
:102AB20008007B08860001308700811F08007B0820
:102AC20086000130870081157B0A8600013087006D
:102AD20001147B088600013087000117A201A20AB7
:102AE20029089B31F32395312000A201A20A29086B
:102AF2009C31622495312000A201A20A29089C314E
:102B0200522408002000230803198C2D22082104D6
:102B12002004031D9D2D0030A0000030A1000030D4
:102B2200A20008000130A5002508A3070130A23643
:102B3200A10CA00C890B982DFE3022050319B62D8D
:102B4200932D0130A5002508A3070130A00700300E
:102B520003180130A107003003180130A207013029
:102B6200A236A10CA00C890BB12DFF30220503194E
:102B7200C32DA22D0130A3020130A035A10DA20D5B
:102B8200890BBE2DA11FBB2D2318CD2DFF30A00513
:102B92007F30A105FF30A2050310A30C2308A50076
:102BA200A601A7011030A535A60DA70D890BD42DBE
:102BB2002508A0042608A1042708A2042408031952
:102BC2000800A21708002000E20062089F310E27C9
:102BD200953121003F08860087010118132E3F0816
:102BE2008600870101142000A201A20A62089B311B
:102BF200E42395312000A201A20A62089C314224FA
:102C020095312000A201A20A62089C31322495313A
:102C120021003F08860087010030011801302000A2
:102C2200DD003D2E21003008803A031D1C2E2000BD
:102C3200DD01DD0A3D2E21003F08860087010110DB
:102C42002000A20162089B31E42395312000A201F9
:102C5200A20A62089C314224953121003F08860075
:102C620087010030011801302000A20062089C3167
:102C7200322495312000DD0162089631B826953163
:102C820064302000A9000030AA0001308B31D22329
:102C92009531013087315B2708002000E4007B0872
:102CA200860001308700811F08007B088600013002
:102CB200870081137B08860001308700011F9A2E4E
:102CC2007B0A860001308700011C08007B0A86000F
:102CD200013087000110A201A20A64089C3162241B
:102CE20096312000A20164089C31522496312000C2
:102CF20064081A3E7D07E2006208860002308700FF
:102D02000108E3007D08113E860002308700630857
:102D120081007B088600013087000030011B0130F2
:102D2200DD0064089631B8269631013087315B2781
:102D320008002000A201A20A64089C3142249631B4
:102D42002000A20164089C31322496317B0886005F
:102D5200013087000030011B01302000DD006408D3
:102D62009631B8269631013087315B270800200062
:102D7200E100E001E00A6108FF3E890AC22E031069
:102D8200E00DFF3E031DC02E6108DE007D080B3EF4
:102D92008600023087005E08810004309231B6223C
:102DA20096312000DE006108143E7D07DF005F08D7
:102DB2008600023087005E0881006108143E7D07AC
:102DC200DE005E088600023087000108DF007D0811
:102DD200093E8600023087005F08810061081A3EC2
:102DE2007D07DE005E088600023087000108DF00F2
:102DF2007D08113E8600023087005F0881005D0871
:102E0200013A031D142F7D080F3E86000230870011
:102E120001086004DE007D080F3E86000230870054
:102E22005E08810008007D080F3E860002308700A0
:102E320060090105DE007D080F3E86000230870032
:102E42005E08810008002000A601A60120302602AB
:102E52000318442F26089D31B32597312000A40082
:102E62002608210068072000A500250886000230F8
:102E72008700240881000130A4002408A60720301E
:102E82002602031C2B2F7D080C3E86000230870091
:102E92000108A40021006808860002308700200093
:102EA200240881007D080D3E86000230870001085B
:102EB200A4002100680A860002308700200024084E
:102EC20081007D080E3E8600023087000108A400C2
:102ED20021006808023E8600023087002000240894
:102EE200810021006808243E860002308700011D0F
:102EF2008A2F6808243E8600023087000111670885
:102F02008600013087008112670886000130870041
:102F120081138B139B3152239731913110218B17DF
:102F220008002000AD002D08013A031DA82F9C3196
:102F3200B7249731013A031DC02F2C302000A9007D
:102F42000130AA000A308B31D2239731C02F2000E2
:102F52002D08023A031DBB2F2C30A9000130AA0014
:102F620005308B31D22397312100390A860087013F
:102F72000108C92F20002D08033A031DCC2F013070
:102F820094311D249731023094311D24973103303E
:102F920094311D2497312000A201013090315B2031
:102FA20097312000A201023090315B20973120003E
:102FB200A201033090315B2097312100670886001F
:102FC20001308700011B080067080E3E86000130B1
:102FD2008700011067080E3E8600013087008110CD
:102FE20067080E3E86000130870001156708073E1C
:102FF2008600013087000030C03FC13F0800033423
:10300200163417341E341F3420342A342B340B3434
:103012000C340D340E340F34103411341234133492
:1030220014340A34153421342234183419341A343D
:103032001B341C341D3423342434253426342934DF
:103042002C342D342E340034013402340734083445
:103052000934063404340534273428340734073459
:10306200303487346B34F8347F343F3409340034DD
:103072005C34A73462348634833403342234F83423
:1030820000344434B634103418341D341C34C7347C
:103092000034B234EA340A340034113459348834F6
:1030A20031340B342F342E340634043405340034D6
:1030B2003034D334913441340034FE34FE34FE349F
:0A30C200FE34FE34FE34FE34FE340A
:1035C8009B316A23080083317C2308003A309C3100
:1035D800022408003B309C310224080036309C311C
:1035E80002240800783021009900080001309B313E
:1035F8001E23080024000D100B120B178B17080050
:10360800FE0012001E00FE0B052B00346400800132
:103618000131890B0B2B0034DD302000A00020087D
:103628002100B9000800F23021009E00C0302200BD
:103638009700080015302000A00020082100C400D1
:103648000800553023009600AA3096009514000013
:10365800000008000B1E08008B1C08008B100B12C2
:10366800F201F20A01309D317F2508004D3020001B
:10367800A00020082100B700370886000130870025
:103688000114080033309C3102249B31E8302000BB
:10369800A0000330A1009F31B327080023001513B1
:1036A800303092009101151615159B312523230002
:1036B800151108000130823123229B3102308231FA
:1036C80023229B310330823123220800B4302000AA
:1036D800A00020082100C3004308860001308700AD
:1036E80001160800F1007108013A031D7F2BC8304C
:1036F800F0007008FA000B1A08000B1608002400E6
:103708000D110430270094000430950096018B15A4
:103718000B100B178B17080062302000A000200840
:103728002100E50095014230200095008B168B178B
:1037380008002000A000210043088600013087000F
:10374800200020080110031D011408002000A1001A
:103758002108013A031DB42BC830A0002008FA0044
:103768000B1A08000B1608002000A30023089B3141
:10377800AA237A0886008701200022080113031D66
:103788000117080001309E3191269B3102309E318D
:1037980091269B3103309E319126FF302000950001
:1037A800080001308B3148239B3102308B3148238C
:1037B8009B3103308B3148239B319C31CA2408004C
:1037C8002000A30023089E3174267B088600013060
:1037D8008700200022080113031D0117080020009C
:1037E800A30023089F310E2721003F088600870188
:1037F800200022080110031D011408002000A30066
:103808000E122308A20022082100C20020000E196F
:103818000A2C9D314D2520000E16080001309C31E0
:1038280083249C3102309C3183249C3103309C31A9
:1038380083249C3163309C31832408000130933108
:1038480042239C310230933142239C31033093311F
:1038580042239C3163309331422308002000A300A7
:1038680023089D31CD257808083E86000130870061
:10387800200022088110031D811408002000A300E5
:1038880023089D31CD257808083E86000130870041
:10389800200022080111031D011508002000A300C3
:1038A80023089D31CD257808083E86000130870021
:1038B800200022088111031D811508002000A300A3
:1038C80023089D31CD257808083E86000130870001
:1038D800200022080112031D011608008B1D080094
:1038E8002700161D080016110B1021006708860016
:1038F80001308700011C08009B31C6230800200006
:10390800A40024089031B3209C3121003E08860091
:10391800870101142000A2012408883159200800D9
:103928008731FB279C3124008D1001309031002015
:103938009C310230903100209C31033090310020BE
:10394800080021006708103E86000130870000301B
:10395800C03FC13F6708123E860001308700003033
:10396800C03FC13F08002000A101A201A20A220015
:10397800201F2F1BC32C3E1BC32C2000A20120009C
:103988002208A0002008A100210808002100390809
:1039980086008701011C080039088600870101108C
:1039A8009C31B7249C310038031D080001309E313A
:1039B800CF26080045302000A0002008FD00D330A5
:1039C800A0007D08143E8600023087002008810090
:1039D800A030A00020082100E70008009031E02076
:1039E8009C31903131209C319E31B0269C319A31E6
:1039F800EE229C319A31EA229C319B3146239C313C
:103A08009A31F22208002000A300230821009D001B
:103A18002000200821009E009D149D18112D1C08CF
:103A28002000A101A10721001B082000A001A00778
:103A38000800773021008C0005308D000C308E0096
:103A480022008C018D018E01023023008C008D0133
:103A58008E01773020008C0005308D000C308E00F0
:103A68000800173021009700E0302000A00020084F
:103A78002100E60066088600870101140A3020004C
:103A8800A0002100660A8600870120002008810026
:103A980008002000A10108302102031808002100B5
:103AA800C21F592D20000E145B2D20000E108E14FD
:103AB80003102100C20D20008E100130A000200844
:103AC800A1074F2D2000A4000E122408A3002308EC
:103AD8002100C20020000E196E2D9D314D259D310B
:103AE80020002208A30023082100C2009D314D2593
:103AF80020000E160800F30073089B3176239D31D1
:103B08007A0886008701811D08007A0886008701E7
:103B180081117A0A8600870181147A088600870154
:103B280072088110031D81140800F1007108013A20
:103B3800031DA22D2030F0007008F9007108023A28
:103B4800031DAA2D2F30F0007008F9007108033A00
:103B5800031D08003E30F0007008F900080020003E
:103B6800A200A101A3013030230092002000220806
:103B7800230091001513151414082000A000200834
:103B8800A100230013082000A0002008A300230898
:103B980008002000A1002108013A031DD72D20307C
:103BA800A0002008F8002108023A031DDF2D2F305D
:103BB800A0002008F8002108033A031D08003E3041
:103BC800A0002008F80008009A31F6229D319D31A6
:103BD8001D259D319B3190239D319B3117239D31AC
:103BE8009A31FE229D319B3183239D312030200064
:103BF800A10021082100E8009D313525080020009A
:103C0800A3000E122308C03EA20022082100C20011
:103C180020000E190C2E9D314D259E319E315726C0
:103C280020000E16210042082000A20022082100D0
:103C3800C70008002100660886008701011C0800EB
:103C4800660A86008701013081020108FF3A0319DC
:103C580008000A302000A0002100660A86008701BB
:103C6800200020088100803102200800F10071083E
:103C7800013A031D442E2030F00070082100BD00D9
:103C88007108023A031D4D2E2F30F00070082100F4
:103C9800BD007108033A031D08003E30F0007008AB
:103CA8002100BD0008002000A101083021020318EE
:103CB80008008E1403102100C20D20000E1D672E6F
:103CC800210042146D2EFE302000A00020082100A3
:103CD800C20520008E100130A0002008A107592E2F
:103CE8002000A1002108013A031D7F2E5930A000B1
:103CF8002008FB0008002108023A031D882EC23064
:103D0800A0002008FB0008002108033A031D080052
:103D1800CB30A0002008FB000800F20072089E319A
:103D28003A269E3121003D0886000130870001189F
:103D380008003D08093E860001308700811A080006
:103D48003D0886000130870001143D08093E8600C1
:103D580001308700811608002000A70108302702DB
:103D68000318080027085E3E840098300318013EB7
:103D780085000008A5002508A6002608A500250836
:103D8800A2003E309D3166259E3101302000A500FD
:103D98002508A707B22E2000A20021006808243EAB
:103DA800860002308700200022088110031D81143C
:103DB800A208031D08002208A000A101210068082C
:103DC800223E86000230870020002008C03F2108DC
:103DD800C13F08002000A40024089B31AA239E317B
:103DE8007A08860087018118FE2E7A0886008701E6
:103DF800811D08007A088600870181117A088600EB
:103E08008701811036309C3102249E313A309C3132
:103E1800022408002000A1002108013A031D192FDF
:103E2800E230A00020082100BF0020002108023A4B
:103E3800031D232FE330A00020082100BF0020002D
:103E48002108033A031D0800E430A00020082100DF
:103E5800BF000800633402340034003400340034F6
:103E6800003400340034003400340034FF34FF34AC
:103E7800FF3400340034003400340034003400349B
:103E8800003400340034003400340034003400348A
:103E98000034003420302000A40024082100BA0097
:103EA8000130903186209F312F302000A400240853
:103EB8002100BB000230903186209F313E30200027
:103EC800A40024082100BC000330903186209F31D3
:103ED8009B31102308002000AD01A91F7A2FA809E3
:103EE800A909A80A0319A90AAD01AD0A2808A00062
:103EF8002908A100A2018E30AB002B08A3002D08D1
:103F0800AC002C08A4009531832520002008A800C7
:103F18002108A9002208AA0008002000E000600883
:103F28009D31CD259F317808860001308700011525
:103F3800780886000130870081147D08093E8600D4
:103F480002308700010894316D242000DF007808D2
:103F5800053E8600013087005F08810008000130B7
:103F68002000A2000030A30021082302031DBE2F59
:103F78002008220203180800A401A5010030250228
:103F88000230031924020318D42F0130A40700308B
:103F9800A53D00302502023003192402031CC92F55
:103FA8000130A2070030A33DB82F2000A30023084A
:103FB8009B31AA237A088600870120002208011075
:103FC800031D01147A088600870101137A08860008
:103FD800870101117A088600870181117A08860015
:103FE800870181107A08043E8600870181017A08DA
:083FF800860087018112080018
:020000040001F9
:04000E00ECF9FDFF0D
:00000001FF
