:1000000080312028640008007E14803120007F08A1
:10001000F1002100111C13282000111C132891311C
:100020008D2180311B288B190B1C1B282700161DC6
:100030001B289D313D2571082000FF007E1009001E
:1000400080312228FA01FB01ED01A030840000304C
:1000500085004F309D3105258031203084000130EE
:10006000850049309D3105258031A0308400013064
:1000700085004C309D3105258031AC3084009130B5
:100080008500203086000230870020309C31FF241C
:100090007E1020009731462F00309231D2228031DD
:1000A0002000A0002008A200A30122002A1CE029B1
:1000B0009D31352580310038031D602822008128BC
:1000C0002000A208031D7E289E315726803100386B
:1000D000031D7E282200AA149D3119258031013A82
:1000E000031D79282200AA1DAA1B8228AA15D30164
:1000F00082282200AA1F8228AA1382282200AA1C72
:100100008228AA10AA1CBC292A152A1EBA29013045
:10011000AB070030AC3D00302C02023003192B023B
:10012000031C0800AB01AC012A1201302000A4001E
:100130000030A5002508803AA00080302002031D71
:10014000A328043024020318D72820002435353E84
:10015000860001308700403FA000413FA1002008F9
:100160002200AF07200021082200B03D20002435E6
:100170003F3E860001308700403FA000413FA10084
:1001800020082200B107200021082200B23D0130E2
:100190002000A4070030A53D2508803AA00080304B
:1001A0002002031DD52804302402031CA528033097
:1001B000F2000030F30022003008F501F5072F08A7
:1001C000F401F4079331CD23803173082200B0018C
:1001D000B0077208AF01AF070330F2000030F30040
:1001E0003208F501F5073108F401F4079331CD2306
:1001F000803173082200B201B2077208B101B10761
:10020000913100218031220032083002031D0A2979
:1002100031082F02031C080005302A3E86000130F9
:10022000870031092000A000220032092000A1002F
:10023000A00A0319A10A403F20072200C900413F3C
:100240002000213D2200CA00AF01B001B101B2017E
:10025000AA1D862902305302031886290130200086
:10026000A00020082200D3079D31202580312000E6
:10027000A0002008A3009D31582580312000A00057
:1002800020082200D6005308013A031D51290230EC
:100290002000A00020082200D5007430CF000430D8
:1002A0005C295308023A031D86295608013A031DAA
:1002B0005E296630CF000030D00086292000A308D8
:1002C000031D7A29220056082000A000A101200861
:1002D000F2002108F3006630F4000030F50091319F
:1002E0005321803173082200D001D0077208CF015A
:1002F000CF07862920002308013A031D8629220002
:100300003308663ECF000030343DD0002200500854
:100310004A02031D8D294F084902031C9C29013004
:100320002000A00020082200D4075408550203181A
:100330000800D401AA160800D401AA1D0800013043
:100340002000A00020082200D70703305702031C1A
:100350000800D701AA17AA11D3014A08B401B407AB
:100360004908B301B30703302000A0002008220091
:10037000D50008002A1608002A1DCF292A112A12A2
:10038000AB01AC019131002180312200D401D701B1
:10039000AF01B001B101B201AA11D301AA13AA1E83
:1003A00008000130AD070030AE3D01302E02F430C0
:1003B00003192D02031C0800AD01AE01AA120800AA
:1003C00021002E1C080022002A140800F9007908D8
:1003D0009D31C925813120006D08860001308700DC
:1003E000011C4C2B00309231D22281310038031D88
:1003F000142A20006D0A86000130870081107908D8
:100400009F3116278131013A003003190130200055
:10041000A8006D08860001308700A80D0108280695
:10042000FD39280681002A2A20006D0A8600013045
:10043000870081182A2A6D0A8600013087008114FE
:100440006D0886000130870081106D08860001303C
:10045000870001156D08860001308700811CF92A8C
:100460006D088600013087000119572A0130A80065
:100470006D08023E860001308700280881076D085C
:10048000023E86000130870003300102031C080091
:100490006D08023E86000130870081016D088600EC
:1004A00001308700011579089331002308002000EE
:1004B0006D088600013087008119892A6D08033E86
:1004C0008600013087000130810741310318810A1D
:1004D0006D08033E860001308700403FA800413F81
:1004E000A900003029024B3003192802031C080020
:1004F0006D08033E8600013087000030C03FC13FD9
:100500006D088600013087008115790892315822E4
:10051000080020006D08860001308700011AC72AF4
:100520006D08053E860001308700013081074131AA
:100530000318810A6D08053E860001308700403FA0
:10054000A800413FA900003029024B3003192802BE
:10055000031C08006D08053E86000130870000304E
:10056000C03FC13F6D088600013087000116013091
:100570009F31272781312100AE1E08006430200002
:10058000A4000030A500023096319F26080020000C
:100590006D08860001308700811A08006D08073E4B
:1005A0008600013087000130810741310318810A3C
:1005B0006D08073E860001308700403FA800413F9C
:1005C000A90000302902963003192802031C0800F4
:1005D0006D08073E8600013087000030C03FC13FF4
:1005E0006D08860001308700811600309F31272773
:1005F000080020006D08860001308700011D0800FA
:100600000130A8006D08023E8600013087002808EE
:1006100081076D08023E8600013087000330010229
:10062000031C08006D08023E86000130870081012E
:100630006D0886000130870001116D08033E8600B9
:10064000013087000030C03FC13F6D088600013097
:10065000870081116D08053E86000130870000305B
:10066000C03FC13F6D0886000130870001126D0850
:10067000073E8600013087000030C03FC13F6D0853
:10068000860001308700811279089431032481317A
:1006900000309F312727080021002E1C0800200071
:1006A0006D08860001308700011408002000390819
:1006B000BF003A08C0003B08C1000310400D410DC7
:1006C000C2004208C5003C08BF003D08C0003E080B
:1006D000C1000310400D410DC2004208C40045088E
:1006E00003197E2B440845020318852B4503FF3A66
:1006F0004407BF0019303F02031C852B3C08B9009A
:100700003D08BA003E08BB00080044080319080071
:10071000450844020318942B4403FF3A4507BF00E1
:1007200019303F02031808000630BF003F08C3001D
:10073000BB1BC317BE1B4317BA17FF30B905FF30E9
:10074000BA050030BB05BD17FF30BC05FF30BD0545
:100750000030BE05440845020318D02B0130BC35DB
:10076000BD0DBE0D890BAF2B0130C40244084506F8
:100770000319CB2B0130C302430807390319CB2BD4
:10078000AE2B0130BB36BA0CB90C890BC22B013031
:10079000BF003F08C507450844060319F52BC12BC8
:1007A000450844020318F52B0130B935BA0DBB0DCD
:1007B000890BD52B0130C502440845060319F12BDE
:1007C0000130C302430807390319F12BD42B013040
:1007D000BE36BD0CBC0C890BE82B0130BF003F08B6
:1007E000C40745084406031DE72BC31F072CFF3031
:1007F000B906FF30BA06FF30BB060130B90700303A
:1008000003180130BA07003003180130BB07431F3B
:10081000192CFF30BC06FF30BD06FF30BE0601308C
:10082000BC07003003180130BD0700300318013049
:10083000BE07C3013908BC073A08BD3D3B08BE3DB1
:10084000BE1F342CFF30BC06FF30BD06FF30BE0695
:100850000130BC07003003180130BD070030031819
:100860000130BE07C301C30A3C08F2003D08F30093
:100870003E08F4004508BF003F08F5004308C000EB
:100880004008F6008831142072082000B90073086F
:10089000BA007408BB0008002000DB011F3088315B
:1008A00000208431AA3A031DBE2C0030883100207C
:1008B00084312000DA006C080C3E8600023087008C
:1008C0005A08810001308831002084312000DA008C
:1008D0006C080D3E8600023087005A088100023005
:1008E0008831002084312000DA006C080E3E86003A
:1008F000023087005A08810038308931392184312B
:100900002000DA005A08DB005B08DA006C08153EAC
:100910008600023087005A0881005B08DA006C0804
:10092000163E8600023087005A0881005B08DA0014
:100930006C08173E8600023087005A0881006C0858
:100940000C3E8600023087000108FF3A031D0800B4
:100950006C080D3E8600023087000108FF3A031D37
:1009600008006C080E3E8600023087000108FF3A3E
:10097000031D08002100AE15AE160800383089317D
:10098000392184312000DA005A08DB00FF30DA0018
:100990005A08F20000309D31B3258431FF30200029
:1009A000DA005A08F20001309D31B3258431FF305E
:1009B0002000DA005A08F20002309D31B32584315C
:1009C000FF302000DA005A08F20003309D31B325D1
:1009D0008431FF302000DA005A08F20004309D31E3
:1009E000B3258431FF302000DA005A08F2000530C8
:1009F0009D31B3258431AA302000DA005A08F20074
:100A00001F309D31B325843120005B08DA006C086B
:100A1000153E8600023087005A0881005B08DA0024
:100A20006C08163E8600023087005A0881005B0879
:100A3000DA006C08173E8600023087005A088100F1
:100A40008B1392317E228B172100AE15AE16080053
:100A500000309231D2228531F90079082000A700B8
:100A6000AC01A601A60A2100B91D442D2000A7084B
:100A7000031D08002100B9110A30F9007908F400BB
:100A800063309431AB2408002000270803190800C4
:100A90002100B9150B30F9007908F4006330943166
:100AA000AB248531EC2D9D3135258531013A031D6F
:100AB000622D2C302000A4000130A5000A309631B0
:100AC0009F2685312000A801A9012908803AF90054
:100AD00080307902031D6E2D2608280203188F2D01
:100AE00020002808013E9E312C268531013A031D45
:100AF000892D7B0886000130870001147B0A86005F
:100B000001308700011020002808013E94310324A1
:100B1000853101302000A8070030A93D652D200057
:100B200008002C302000A4000130A50005309631CB
:100B30009F268531903166208531F90079082000A3
:100B4000AC00AC08031DD22DAA01AB012B08803AE2
:100B5000F90080307902031DAF2D26082A02031800
:100B6000D02D20002A08013E9E312C268531013AE5
:100B7000031DCA2D7B0886000130870001147B0A03
:100B8000860001308700011020002A08013E9431C0
:100B90000324853101302000AA070030AB3DA62D8B
:100BA0002000080020002C089E312C268531013AB7
:100BB0000319DC2D200008007B0886000130870027
:100BC00001147B0A860001308700011020002C08E8
:100BD000943103242000080020002708023A03195A
:100BE000532D013A0319912DF62D0800080020001D
:100BF000EB012100201CB32E9E31B42685317308F1
:100C00007204031D942E9F3105278531013A00306F
:100C1000031901302000EA00EA0CEA0C2100200848
:100C200020006A067F396A062100A000A01F1A2E44
:100C3000201F942E201D5B2E201B562E0130A20754
:100C40000030A33D1430F2000030F3002808F50115
:100C5000F5072708F401F4079331CD238531730894
:100C600021002302031D362E72082202031C942E3B
:100C70001430F2000030F3002808F501F5072708CA
:100C8000F401F4079331CD23853173082100A301CA
:100C9000A3077208A201A2072011AA01AB019E318D
:100CA000662685318A3103228531942E2100A201E6
:100CB000A3012011942EA01D6A2E88317420853145
:100CC0002100A01C942EA010AA01AB018B314A2355
:100CD0008531942E01302100A2070030A33D14304D
:100CE000F2000030F3002808F501F5072708F401A9
:100CF000F4079331CD238531730821002302031DAE
:100D0000832E72082202031C942EA201A301A015B7
:100D100036309031CC2085313A309031CC2085313D
:100D200034309031CC20853101302100AA070030C9
:100D3000AB3D0B302B02B93003192A02031CAC2E39
:100D4000AA01AB01A011A01036309031CC20853122
:100D50003A309031CC2085312100211F0800211329
:100D60009F31D62708002E1C080020140800200000
:100D7000E8006508013A031D182FF201F20A68081D
:100D80009F3197278631F401200068089431AB2405
:100D9000863122002015200068089E3111268631F8
:100DA00038302000E6006608F20068089D319D2575
:100DB00086317B0A860001308700011F012F7B0AE4
:100DC000860001308700011320006808143E6C077C
:100DD000E6006608860002308700010889319E21FE
:100DE00086312000E7006708DA0068089D31E025B9
:100DF0008631F201F20A200068089F31AC27863163
:100E0000422F38302000E6006608DA0068089D317D
:100E1000E025863138308931392186312000E600DD
:100E20006608DA006808143E9D31D4258631422FC9
:100E30002000E508031D422FF20168089F31972723
:100E40008631F401F40A200068089431AB2486311D
:100E5000200068089E3148268631013A031D372F4D
:100E60002000DD01DE01680887316F278631200010
:100E70006808013A03198D102200201100309E31BC
:100E80001126863120006508E6006608DD00680846
:100E90009731A127863101309E3194268631013A5F
:100EA000031D6C2F9D31352586310038031D080048
:100EB000F20101309F31822786312000DA010B30A8
:100EC0009D31D42586312000DA0111309D31D425A1
:100ED00086318F314A2708008F314A2708002000C9
:100EE000E40064089D319225873120005D08013AB5
:100EF000003003190130DF0021004A08860001306C
:100F000087002000DF0D01085F06FD395F068100C4
:100F100021004A08023E8600013087000030C03FB1
:100F2000C13F4A08043E860001308700810120004D
:100F30005D08013A031DF12F0530DF005F08E10075
:100F4000E201E3010F305E05DF005F08053A031997
:100F5000AD2F5E080F39031DDD2F31305E020318FF
:100F6000DD2F5E080F39DF005F08E2005E08DF005A
:100F70000430DF36890BB92F5F080F39E0006008B5
:100F8000E3000A30DF005F08F20063089E31F426B8
:100F9000873120006207E00021004A0A8600013004
:100FA00087002000600881005E08DF005F08DA002B
:100FB00064081A3E9D31D425080005302000DF006A
:100FC00021004A0A86000130870020005F08810066
:100FD0000530DF005F08DA0064081A3E9D31D42531
:100FE00008002000DD08031D0800DA0164081A3E2D
:100FF0009D31D425080021003911BA01BB01080038
:10100000F400F301F50130302300920074089100E0
:10101000151315141408F2007208F3001308F200F7
:101020007208F50075080800750803191C28740873
:1010300073047204031D2D280030F2000030F30009
:101040000030F40008000130F7007708F5070130A0
:10105000F436F30CF20C890B2828FE3074050319C2
:10106000462823280130F7007708F5070130F207FA
:10107000003003180130F307003003180130F40783
:101080000130F436F30CF20C890B4128FF30740563
:101090000319532832280130F5020130F235F30DDF
:1010A000F40D890B4E28F31F4B2875185D28FF306F
:1010B000F2057F30F305FF30F4050310F50C7508D9
:1010C000F700F801F9011030F735F80DF90D890B2B
:1010D00064287708F2047808F3047908F4047608A1
:1010E00003190800F417080020008E1808003B3090
:1010F0009231102288312100550803190800200080
:101100000E10FF30F60076082100D0008A289F31AB
:10111000C127883120008E1E90282100211F87289A
:101120009C31EA24883190319A20883191313721DD
:10113000883121005008F6007608CF00F7014F08EB
:1011400077020318B52891313721883121005008E2
:10115000F6007708A03E86000130870076088100FF
:101160000130F6007608F7079F2891313721883142
:1011700021005008F6007608CE00913137218831E1
:1011800021005008F6007608C80020000E14210047
:10119000C81B7A14A011A01436309031CC208831AD
:1011A0003A309031CC20210008002000E900690885
:1011B0009D316A2588317B08860001308700811CBB
:1011C0000129200069089F315C2788310038031D00
:1011D00008007B0886000130870081107B088600AC
:1011E00001308700011DFB282000E501E50A6908A0
:1011F0008631B72608002000E50169088631B72648
:1012000008009D3135258831013A031D2D297B08C1
:10121000860001308700011E0800200069089F3108
:101220005C2788310038031D08007B0886000130E8
:10123000870001127B08860001308700811E272964
:101240002000E201E20A69089531FC25080020002F
:10125000E20169089531FC2508007B088600013011
:101260008700011E08007B088600013087000112FC
:1012700008002000D6000030D7000030D8004230EF
:10128000D9000030A600C830A7004230A800570897
:10129000A9005808AA005908AB008D313D258931B5
:1012A00020002608D7002708D8002808D9005608AB
:1012B000D400D501D409D509D40A0319D50A540894
:1012C000383EA0000030553DA1009131CC2189313C
:1012D00020002008A9002108AA002208AB00570816
:1012E000A6005808A7005908A8008D313D2589316E
:1012F00020002608B6002708B7002808B8009D314E
:101300004625893120003608BC003708BD00380862
:10131000BE000030B900C830BA004230BB00833193
:101320005623893120003908C6003A08C7003B0817
:10133000C8008C31B6242000460808002000D600E2
:101340000030D7000030D8004230D9000030A6006D
:10135000C830A7004230A8005708A9005808AA00C2
:101360005908AB008D313D25893120002608D70072
:101370002708D8002808D9005608D400D501D40978
:10138000D509D40A0319D50A5408643EA0000030D8
:10139000553DA1009131CC21893120002008A900C0
:1013A0002108AA002208AB005708A6005808A70089
:1013B0005908A8008E319626893120002608B600EB
:1013C0002708B7002808B8009D314625893120003C
:1013D0003608BC003708BD003808BE000030B90030
:1013E0006030BA004230BB0083315623893120007F
:1013F0003908C6003A08C7003B08C8008C31B6243B
:1014000020004608080036309031CC208A313B302D
:101410009031CC208A3120000E107F30F600760803
:101420002100D000162A9F31C1278A3120008E1E4C
:101430001C2A2100211F132A9C31EA248A31903171
:101440009A208A3121005208F6007608D0009031A7
:101450009A208A31F7012100520877020318422AA4
:101460007708A03E8600013087000108F600760864
:101470002100D00090319A208A310130F6007608A0
:10148000F7072B2A20000E1435309031CC208A31FA
:101490004C2A9F31C1278A3120008E18522A210000
:1014A000211F492A9C31EA248A31592A9F31C127B8
:1014B0008A3120008E1C5F2A2100211F562A9C3170
:1014C000EA248A3136309031CC208A313B30903159
:1014D000CC20FA1408002000DF005F089D3192251F
:1014E0008A3121004A08860001308700811C0800EB
:1014F0004A08023E860001308700013081074131F1
:101500000318810A4A08023E860001308700403FE6
:101510002000DD00413FDE000B305E02B8300319D1
:101520005D02031C080021004A08023E86000130CB
:1015300087000030C03FC13F01302000DD002100A6
:101540004A08043E86000130870020005D088107BC
:1015500021004A08043E8600013087004A0A8400C0
:101560000130850000080102031C08004A08043EFF
:1015700086000130870081014A088600013087001B
:10158000811020005F089E312C268A31013A031D0C
:10159000D32A20005F08933100238A3120005F089E
:1015A000943103248A312000DA015F081A3E9D310C
:1015B000D42508003A2B9D3135258A31013A031D87
:1015C000F62A01309E312C268A31013A031DF02A79
:1015D0000130933100238A310130943103248A3160
:1015E000F201F20A01309F31822708002000DA015F
:1015F00009309D31D4258A312000DA010B309D312C
:10160000D4258A312000DA010F309D31D4258A316A
:101610002000DA0111309D31D4258A318F314A27DB
:1016200008002000DA0109309D31D4258A312000DC
:10163000DA010B309D31D4258A3120006C088600F8
:101640000230870002304F3FDA000F309D31D42541
:101650008A312000DA0111309D31D4258A318F3151
:101660004A27080001309431E524080001308C310C
:101670003824080023002F08003A0319DB2A013A16
:101680000319322B103A0319362B313A0319112B57
:10169000492B080023002008AA3A031D602B2108CB
:1016A000013A031D602B55302000E8006C08023E13
:1016B000860002308700680881008F314A270800C1
:1016C00000309231D2228B312000E8006808E90016
:1016D000E908031DBB2B2100201F792B2300A00844
:1016E000031D08002108643A031D08009331992363
:1016F000080023003408D13A0319822B34080A3A2F
:10170000031D0800A008031D08002108023A031D5C
:1017100008002C08FF3A031D972B2D08FF3A031DE4
:10172000972B2E08FF3A031D972B0000080020007E
:101730006C080C3E86000230870023002C0801064E
:10174000031D080020006C080D3E86000230870053
:1017500023002D080106031D080020006C080E3E22
:1017600086000230870023002E080106031D0800B2
:101770008A31DA220800000008002000A000A3013E
:10178000A201A10122002A1E0800F330F60076080B
:10179000F200200020089031E6208B3173082200EF
:1017A000CC01CC077208CB01CB072000A301043089
:1017B00023020318072C2335353E860001308700AD
:1017C000403FF600413FF70022004C087702031D1E
:1017D000EB2B4B0876020318FE2B2000A208031DFA
:1017E000FE2B2335353E86000130870022004B0852
:1017F000C03F4C08C13F2000A201A20A0130F60000
:1018000076082000A30704302302031CDB2BA20868
:10181000031D0800A3010430230203180800233528
:101820003F3E860001308700403FF600413FF70011
:10183000770822004C02031D1F2C76084B02031868
:10184000322C2000A108031D322C23353F3E860098
:101850000130870022004B08C03F4C08C13F2000E8
:10186000A101A10A0130F60076082000A3070B2C85
:101870002000E000DF0160089E312C268C31200022
:10188000DD005D08DF00653023002902031C4F2CBA
:1018900064302000DD005D082300A900542CA90855
:1018A000031D542CA901A90A29082000DD005D08A8
:1018B000DA0009309D31D4258C3120006008DD002C
:1018C0005D08DA000B309D31D4258C312000600892
:1018D0001A3E6C07DD005D088600023087000108B3
:1018E000DE005E08DA0011309D31D4258C312300F2
:1018F00029082000DD005D08DA006008143E9D31F3
:10190000D4258C3101309E31C4268C3120005F08F3
:10191000013A031DA22C2300290889319E218C3114
:101920002000DD005D08DA0060089D31E0258C3183
:10193000F201F20A200060089F31AC278C318F3110
:101940004A2708002000DF08031D0800F401F40AFC
:101950006008903183208C3120006008933100238F
:101960008C312000600894310324080020004608D0
:10197000CA004708CB004808CC0003104B0D4C0DA3
:10198000CD004D08D300D308031DCF2C0030C90073
:101990000030C8000030C7000030C600080046080C
:1019A000CA004708CB004808CC001730CC36CB0C17
:1019B000CA0C890BD62C4A08CD004D08CE00C7179B
:1019C000FF30C605FF30C7050030C8054608CF0008
:1019D0004708D0004808D100D2018E30D302D31F6F
:1019E0000D2D5308803A8F3E0318FF2C0030C9009C
:1019F0000030C8000030C7000030C60008000130C9
:101A0000D236D10CD00CCF0C890B002D0130CA007E
:101A10004A08D3070319262DFF2C18305302031C44
:101A2000232D0030C9000030C8000030C70000304E
:101A3000C60008000130CF35D00DD10DD20D890B75
:101A40001B2D0130D302D308031D1A2D4E08031994
:101A5000342DCF09D009D109D209CF0A0319D00AF0
:101A60000319D10A0319D20A5208C9005108C80043
:101A70005008C7004F08C600080020002908AC0025
:101A80002A08AD002B08AE0003102D0D2E0DAF005F
:101A90002F08B400B408031D542D0030A6000030F8
:101AA000A7000030A80008002608AC002708AD00F9
:101AB0002808AE0003102D0D2E0DAF002F08B50025
:101AC000B508031D6A2D0030A6000030A7000030C5
:101AD000A80008000030B1000030B2000030B300B0
:101AE00089303507AC002C08B4022908AC002A085C
:101AF000AD002B08AE001030AE36AD0CAC0C890B2F
:101B00007C2D2C08AF002F08B5002608AC00270854
:101B1000AD002808AE001030AE36AD0CAC0C890B11
:101B20008C2D2C08AF002F08B5068030AC002C0897
:101B3000B505AA17FF30A905FF30AA050030AB058F
:101B4000A717FF30A605FF30A7050030A8051830FD
:101B5000AC002C08B0000130B135B20DB30D890BCB
:101B6000AC2D28082B02031DBB2D27082A02031DBC
:101B7000BB2D26082902031CC42D2608A90227080C
:101B8000AA3B2808AB3B31140130A935AA0DAB0D97
:101B9000890BC52D0130B002031DAB2D3108F200B9
:101BA0003208F3003308F4003408AC002C08F500C8
:101BB0003508AD002D08F600883114207208200089
:101BC000A6007308A7007408A8000800003092312E
:101BD000D2228D312000DD005D08DF002100561C7F
:101BE000922E5619022E0130D7070030D83D003012
:101BF0005802FA3003195702031C0800D701D80114
:101C0000561508000130D7070030D83D0030580283
:101C1000023003195702031C0800D701D80108300D
:101C2000D63E860087011600010403198C2E0A3067
:101C3000D63E860087011600010403198C2E56112A
:101C40000A30D63E860087010830D63E84008501E2
:101C5000403F00072000DD000131413F003DDE0034
:101C6000DE36DD0C5D082100DC0020005E0821006E
:101C7000DD009030E4000130E5005930E60001302D
:101C8000E700D61C632E65085D02031D492E64081B
:101C90005C02031C612E01302000DD005D08210084
:101CA000D90703305902031C792ED901D6106430AC
:101CB0002000A4000030A500023096319F268D310F
:101CC000792E2100782E5D086702031D692E5C08BD
:101CD0006602031C782E01302000DD005D08210023
:101CE000D90703305902031C792ED901D614792E55
:101CF000D90121005D082000DD005D08DA00183000
:101D00009D31D4258D3121005C082000DD005D0867
:101D1000DA0019309D31D4252100DE01DF01E00118
:101D2000E10108002E1C08005614080020002608B7
:101D3000AC002708AD002808AE0003102D0D2E0DB5
:101D4000AF002F08B000B008031DAD2E0030A60074
:101D50000030A7000030A80008002908AC002A08BD
:101D6000AD002B08AE0003102D0D2E0DAF002F0877
:101D7000B500B508031DC32E0030A6000030A70033
:101D80000030A800080035087B3EAC002C08B007E6
:101D90002608AC002708AD002808AE001030AE368B
:101DA000AD0CAC0C890BCF2E2C08AF002F08B50062
:101DB0002908AC002A08AD002B08AE001030AE3662
:101DC000AD0CAC0C890BDF2E2C08AF002F08B5062C
:101DD0008030AC002C08B505A717AA17FF30A9055D
:101DE000FF30AA050030AB050030B1000030B20072
:101DF0000030B3000730AC002C08B400261C062FBE
:101E00002908B1072A08B23D2B08B33D0130A83696
:101E1000A70CA60C890B072F0130A935AA0DAB0D15
:101E2000890B0D2F0130B402031DFE2E0930AC00CA
:101E30002C08B400261C222F2908B1072A08B23D1D
:101E40002B08B33D0130A836A70CA60C890B232F15
:101E50000130B336B20CB10C890B292F0130B4021A
:101E6000031D1A2F3108F2003208F3003308F40082
:101E70003008AC002C08F5003508AD002D08F60040
:101E80008831142072082000A6007308A700740887
:101E9000A80008002100201C08002015A201A301B1
:101EA0006330F20072082300A0000230F2007208D2
:101EB000A10020006C088600023087000230423FFB
:101EC0002300A20020006C08860002308700023048
:101ED000433F2300A30020006C08860002308700E7
:101EE0000230443F2300A40020006C08860002302A
:101EF00087000230453F2300A50020006C088600C3
:101F0000023087000230463F2300A60020006C0804
:101F10008600023087000230473F2300A7002000E0
:101F20006C088600023087000230483F2300A8007A
:101F300020006C088600023087000230493F2300F1
:101F4000A90020006C0886000230870002304A3F5A
:101F50002300AA0020006C088600023087000230AF
:101F60004B3F2300AB0020006C0886000230870046
:101F700002304C3F2300AC0020006C088600023089
:101F8000870002304D3F2300AD0020006C08860022
:101F90000230870002304E3F2300AE0020006C0864
:101FA00086000230870002304F3F2300AF00200040
:101FB0006C088600023087000230503F2300B000DA
:101FC00020006C088600023087000230513F230059
:101FD000B10020006C088600023087000230523FBA
:101FE0002300B20020006C08860002308700023017
:101FF000533F2300B300D130F2007208B400080050
:102000000334163417341E341F3420342A342B344E
:102010000B340C340D340E340F34103411341234AC
:10202000133414340A341534213422341834193456
:102030001A341B341C341D34233424342534263400
:1020400029342C342D342E34003401340234073436
:10205000083409340634043405342734283407346A
:102060000734303487346B34F8347F343F340934E8
:1020700000345C34A734623486348334033422342D
:10208000F83400344434B634103418341D341C345D
:10209000C7340034B234EA340A34003411345934C9
:1020A000883431340B342F342E3406340434053460
:1020B00000343034D334913441340034FE34FE34AF
:1020C000FE34FE34FE34FE34FE34FE34F2012200CF
:1020D000D91C6C28F201F20A7208080021002E1C9B
:1020E000080020000D1808007A2820000D149F31E8
:1020F000EB27903120000D1880282100391D75280C
:102100008731FB270800F60076089D316A257408A0
:10211000013A003003190130F5007B0A86000130D6
:102120008700F50EF50DF50D01087506BF3975062A
:1021300081000800F3010830730203180800210031
:10214000D01FA52820000E16A72820000E128E15DD
:1021500003102100D00D20008E110130F200720812
:10216000F3079B28F73021008C0004308D002630C7
:102170008E0022008C018D018E010E3023008C0018
:102180008D018E01F73020008C0004308D00263048
:102190008E0024008D010800F50020000E10750847
:1021A000F40074082100D000D8289F31C127903155
:1021B00020008E1EDE282100211FD5289C31EA2414
:1021C000903190319A2020000E140800F500750817
:1021D00021009D0072089E009D14F1289F31EB277D
:1021E000903121009D1CF628391DEE288731FB27F0
:1021F00021001C08F301F3071B08F201F207080095
:10220000F30105307302031808007335353E86006C
:10221000013087000030C03FC13F73353F3E86002C
:1022200001308700FF30C03FFF30C13F0130F20076
:102230007208F30701292200A01C33299D311225C1
:102240009131013A0319312900309231D222913172
:102250000038031D31299D31352591310038031D8A
:1022600033292200A01001308831D5200800F30165
:10227000083073020318080020008E150310210097
:10228000D00D20008E1E4729210050144C29FE300D
:10229000F20072082100D00520008E110130F200FA
:1022A0007208F3073829F601F701721C5B297408DC
:1022B000F6077508F73D0130F435F50D890B5C29FB
:1022C0000130F336F20C890B612973087204031D87
:1022D00055297708F301F3077608F201F2070800A1
:1022E000F901083079020318080079085E3E84007D
:1022F00090300318013E85000008F7007708F800C9
:102300007808F7007708F4003E309131EE219131E2
:102310000130F7007708F9077129FA30200097009B
:1023200038309600111096314D269131013022003F
:10233000A4070030A53D0130233E86000130870010
:10234000403FC83A031DA629413F003A031D08003B
:10235000A401A501231408006334023400340034BE
:1023600000340034003400340034003400340034CD
:10237000FF34FF34FF3400340034003400340034C0
:1023800000340034003400340034003400340034AD
:1023900000340034003400342000A501A11FD729E7
:1023A000A009A109A00A0319A10AA501A50A2008EC
:1023B000F2002108F300F4018E30A3002308F50099
:1023C0002508A4002408F600883114207208200093
:1023D000A0007308A1007408A2000800F600200005
:1023E0000E107608F50075082100D000FA299F31FB
:1023F000C127913120008E1E002A2100211FF729BC
:102400009C31EA24913190319A2091317408F50081
:1024100075082100D00090319A2020000E14080089
:10242000F50020000E107508C03EF400740821006D
:10243000D0001D2A9F31C127923120008E1E232AF1
:102440002100211F1A2A9C31EA24923190319A20CE
:1024500092319131372120000E1421005008F400F0
:102460007408D50008000130F4000030F50073084E
:102470007502031D3D2A7208740203180800F60154
:10248000F701003077020230031976020318532A4D
:102490000130F6070030F73D0030770202300319B3
:1024A0007602031C482A0130F4070030F53D372A34
:1024B000F40074089D316A2592317B088600013052
:1024C0008700811808007B08860001308700011C06
:1024D00008007B0A86000130870001147B08860013
:1024E0000130870081157B088600013087000116C6
:1024F0007B0886000130870081160800F301230065
:102500001513303092009401151295161515F3012C
:10251000203073020318A12A730823009100730866
:10252000BE3E860001308700010893009D314F2593
:1025300092310130F2007208F30720307302031C5D
:102540008C2A230095129D314F2523001511080078
:102550002000A2012F302202031808002208003EAA
:10256000840090300318013E85000008F7007708CA
:10257000A00022082F3E840090300318013E850001
:102580000008F7007708A1002108F7007708F40099
:1025900020089131EE2192310130F70077082000B8
:1025A000A207AA2AF700F801F808031DE92A77080C
:1025B000023A0319E92A2100D618E12AF301F401AD
:1025C000E52A0230F3000030F4007308F2007208CC
:1025D000F800F808031DFE2A7708033A0319FE2ABB
:1025E0002200AA1AF62AF501F601FA2A0330F500AC
:1025F0000030F6007508F2007208F800780808004C
:102600002000A600A70126089D316A2593312000ED
:10261000A708031D08007B0886000130870001140D
:102620007B0A8600013087000118262B7B0A860072
:102630000130870001147B08860001308700811477
:102640007B0886000130870001152B2B7B0A860052
:102650000130870001106430A4000030A500013073
:1026600096319F2608002300621C08009D31352505
:102670009331003A003003190130F800F80D2300BF
:1026800062087806FD397806E200E21C602BE2154C
:102690000130E0070030E13D2230BE3E86000130CF
:1026A0008700403F0A3A031D572B413F003A031D64
:1026B0000800E001E1016210E2109531AF25080049
:1026C000E21D0800E211E001E1010800F6007608D1
:1026D0009D31A825933121004C08860001308700E8
:1026E000811C08004C0A86000130870001308107F8
:1026F00041310318810A4C0A860001308700403FAF
:10270000F400413FF50000307502193003197402DE
:10271000031C08004C0A8600013087000030C03FCF
:10272000C13F7608633A031D0800203020008D0663
:1027300008002100201323002C082000DD005D0884
:10274000DA000C309D31D425933123002D08200070
:10275000DD005D08DA000D309D31D4259331230072
:102760002E082000DD005D08DA000E309D31D425F2
:10277000933164302000A4000030A5000130963170
:102780009F2693312100AE1EC92B01309E31D426E5
:10279000933101309E31C4260800F701F801730817
:1027A00072040319FC2BF901F90AF31BE12B013028
:1027B000F235F30D890BD82B0130F6007608F907B6
:1027C000D52B0130F735F80D890BE22B7308750214
:1027D000031DEC2B72087402031CF32B7208F40225
:1027E0007308F53B77140130F336F20C890BF42BA8
:1027F0000130F902031DE12B7808F301F307770894
:10280000F201F2070800F40074089D316A25943142
:102810007B08860001308700011C08007B088600C9
:102820000130870001107B0A860001308700011CFF
:102830002F2C7B08860001308700811D08007B0853
:1028400086000130870081117B08860001308700F7
:1028500001167B08860001308700811208007B0882
:1028600086000130870081147B08860001308700D4
:102870000111080021002E18522C0130F9007908AE
:10288000AF072F084B3A031D0800AF012E1432305A
:102890002000A4000030A500033096319F262100BF
:1028A0002E1608000130F9007908AF072F08323AD8
:1028B0000319AF010130B2070030B33D0430AE3E22
:1028C00086008701403F323A031D682C413F003AA1
:1028D000031D0800B201B301AE1C702CAE1008003D
:1028E000AE140800F7002100561D0800F030F60075
:1028F0007608F20077089031E620943173082100C1
:10290000E301E3077208E201E2070C30D63E8600DD
:102910008701160001040319080063085F02031D04
:10292000932C62085E0203189C2C6308DF01DF070A
:102930006208DE01DE07080063086102031DA22CA5
:1029400062086002031808006308E101E1076208F9
:10295000E001E0070800F50075089D31A8259431D5
:10296000F408031DB92C7508633A031DB92C200027
:102970008D167408013A031DC32C7508633A031DB4
:10298000C32C20008D1274080A3A031DDA2C210092
:102990004C0886000130870081104C0A8600013007
:1029A00087000030C03FC13F7508633A031DDA2C31
:1029B00020008D1674080B3A031D080021004C08F6
:1029C000860001308700811408002000E700E6013E
:1029D00023003008803A031D182D2000DD01DD0A98
:1029E000230031082000E5006508DE006708873114
:1029F0006F279431200067089E312C269431013ACC
:102A0000031D182D64302000A4000030A500013003
:102A100096319F2694312000DD01DD0A6708973149
:102A2000A12794318F314A2794312000E601E60A2C
:102A30002000E608031D0800670893310023943145
:102A40002000670894310324080020008E110E1224
:102A50000E140A30F2000030F30092313322953127
:102A600020000E100A30F2000030F30092313322C1
:102A7000953120000E142830F2000030F30092311E
:102A80003322953120000E103030F80078082100F4
:102A9000D0004D2D9F31C127953120008E1E532D22
:102AA0002100211F4A2D9C31EA24953190319A2032
:102AB00095315D2D9F31C127953120008E1E632DEC
:102AC0002100211F5A2D9C31EA2420000E120E14E1
:102AD00008002100BC1C08000130BD070030BE3DCD
:102AE00043083E02031D762D42083D02031C0800E8
:102AF000BD01BE01BC1220008D1D802D2100BC1621
:102B00002100BC1AA82DBF08031DA42DBC1D942DA7
:102B1000BC114008F2007208BF004508C301C3079A
:102B20004408C201C20708003C1EA22D3C12410805
:102B3000F2007208BF004708C301C3074608C2017C
:102B4000C2070800BC100800BC1620008D15080044
:102B5000BC1220008D1101302100BF020800F701D6
:102B6000F701203077020318C92D7708883100203B
:102B70009531F6007708BE3E860001308700760862
:102B800081000130F6007608F70720307702031C39
:102B9000B52D20006C0886000230870002304C3FC3
:102BA000F20000309D31B325953120006C0886007D
:102BB0000230870002304D3FF20001309D31B325D5
:102BC000953120006C0886000230870002304E3FAD
:102BD000F20002309D31B32595312300621DF42DA2
:102BE00062112100AE11AE128B139D31EC2595318F
:102BF00092317E228B1708002000E4006208013A1F
:102C0000031D152EF201F20A64089F316F279531DA
:102C100000309E318426953164302000A4000030BD
:102C2000A500013096319F2608002000E208031D10
:102C30000800F20164089F316F27953122002011AE
:102C4000200064089E3111269531200064089E31D1
:102C5000042695312000E3006308DA0064089D3102
:102C6000E0259531200064089E3104269531893194
:102C7000392195312000E3006308DA006408143E2E
:102C80009D31D42595312000DD01DD0A640897319E
:102C9000A12795318F314A2708002100681D5A2E3F
:102CA0000130F0007008E90739306902031C5A2E20
:102CB000E9016811681C672E6C086902031C080092
:102CC0006810E814E81D080020008D100800E81CBA
:102CD0000800E8100130F0007008EA076B086A028B
:102CE000031C0800EA01681E8B2EE81A822E383079
:102CF0006C020318802E0130F0007008EC07080009
:102D0000E816080019306C02031C892E0130EC0211
:102D10000800E8120800681F08006D086C0203181C
:102D2000962E0130F0007008EC0708006C086D0268
:102D300003189D2E0130EC02080068130800F8000B
:102D40001430F2000030F30020002508F501F507EB
:102D50002408F401F4079631F22696317308200016
:102D6000A501A5077208A401A40721003C1C0800C6
:102D7000BC18CE2EBC14BD01BE017808F700770840
:102D8000BF00200025082100C301C307200024083C
:102D90002100C201C20720008D150800BC19E02ED9
:102DA000BC157808F7007708C0002000250821002E
:102DB000C501C507200024082100C401C40708007C
:102DC0003C1A08003C167808F7007708C10020007C
:102DD00025082100C701C707200024082100C601DB
:102DE000C60708002000A101F31FFD2EF209F30918
:102DF000F20A0319F30AA101A10AF51F082FF40929
:102E0000F509F40A0319F50A0130F6007608A1065F
:102E1000A201A301730872040319372FA001A00AAD
:102E2000F31B1C2F0130F235F30D890B132F0130EA
:102E3000F6007608A007102F0130A235A30D890BEC
:102E40001D2F73087502031D272F72087402031CBF
:102E50002E2F7208F4027308F53B22140130F3366A
:102E6000F20C890B2F2F0130A002031D1C2F21080B
:102E700003193F2FA209A309A20A0319A30A2308D1
:102E8000F301F3072208F201F20708009E317526CC
:102E900097319F314A27973184314C2497319C31A7
:102EA000DE2497319C31C42497319C31D024973152
:102EB0009C31C72497319C31D62497319D310B2505
:102EC00097319D31612597319C31CA2497319F31CB
:102ED000D627973121002E1C752F05308B31BD234D
:102EE000973109309431722497312200231C6A2FC4
:102EF000231094313A2497319E31E42697312100F2
:102F00002E1C6A2F9331332397319C31E224973161
:102F10009531692597319C31D324973180314C20EC
:102F2000973191311B2197319D312E2597319C315D
:102F3000CD2497319C31DA2497318531282597317A
:102F40006A2F2000E100E001E00A6108FF3E890AE3
:102F5000AB2F0310E00DFF3E031DA92F6108DE001B
:102F60005E08DA000B309D31D425973120006108CE
:102F70001A3E6C07DE005E088600023087000108FA
:102F8000DF005F08DA0011309D31D4259731200031
:102F90005D08013A031DEB2F6108143E6C07DE004B
:102FA0005E088600023087000108DF005F08DA0053
:102FB00009309D31D425973120006C080F3E8600E2
:102FC0000230870001086004DE005E08DA000F307E
:102FD0009D31D42508002000DA0109309D31D42527
:102FE000973120006C080F3E860002308700600990
:102FF0000105DE005E08DA000F309D31D42508009F
:103984000800080021003C140800913100210800BF
:103994009D31882508008531F72508009C31C32412
:1039A40008008D31E625080001309C31FA24080016
:1039B40001308A316B22080063309E31A42608004E
:1039C40063309331662308007830210099000800A1
:1039D4002100AC01AD0108003A309031CC20080040
:1039E4003B309031CC20080036309031CC20080098
:1039F400F40074089D3192250800FE0012001E0098
:103A0400FE0B002D0034640080010131890B062D6A
:103A1400003401309C31C2249D319F313827080085
:103A240000302200AA1B0130F200720808000030A6
:103A34002200A0180130F2007208080000302200B1
:103A440020190130F20072080800F33021009E00B2
:103A5400C13022009700080001308131E6219D31F8
:103A640090316E200800F201003022005918013014
:103A7400F20072080800270016110B1021002E1CFA
:103A840008009E311E26080020003808370436043A
:103A9400031908008030B80608005530230096004A
:103AA400AA3096009514000000000800F2010030CE
:103AB4002100E8190130F3007308F2000800903186
:103AC4006E209D3124008D1001309E313A2608006D
:103AD400F3007308013A031D08005830F20072081D
:103AE400FB000800043027009400950196018B1513
:103AF4000B100B178B1708001730210097002200BA
:103B040028140A30F2007208A90008001530F200E7
:103B140072082100D2009630A7000030A8000800E7
:103B2400F3007308013A031D08006030F2007208C4
:103B34002100CA000800F4007408013A031D0800BB
:103B44007208F30073082100EC000800F300730806
:103B5400633A031D08006530F20072082100CC00AE
:103B64000800F4007208F3007408BE3E86000130B9
:103B7400870073088100080033309031CC209D31D8
:103B8400E830F2000330F300923133220800F300EE
:103B94007308013A031D0800E330F20072082000A4
:103BA400ED0008002000DC005A08DB005C08203E21
:103BB4008600023087005B08810008002000DC00DA
:103BC4005C08013A031D08005A08DB005B08210069
:103BD400ED000800230015133030920091011516F2
:103BE40015159D314F252300151108004130200083
:103BF4009800FA30970038309600210011140B1702
:103C04008B170800F300F4017308013A031D0F2E0B
:103C140021006C08F2007208F40074080800F20035
:103C24002200A014D9107208013A031D080072087A
:103C340003190800D914080021006819080020009D
:103C44000D1D0800210068156814E81D08002000F7
:103C54008D140800F40074089D316A257B0A8600DF
:103C640001308700003001180130F50075080800A4
:103C7400F600F401F40A76089431AB249E31F40181
:103C8400F40A7608013E9431AB240800F400740869
:103C94009D31922521004A088600013087000030BA
:103CA40081180130F50075080800F2010030210088
:103CB400681A0130F200F208031D642E0030681BFC
:103CC4000130F200720808002100A0186B2EA01D1C
:103CD4000800A011A01036309031CC209E313A302B
:103CE4009031CC2008002030F20072082000EC0053
:103CF400D130F2006C08143E86000230870072084E
:103D040081000800F3007308013A00300319013000
:103D1400F200F20DF20D210020087206FB39720642
:103D2400A0000800F200F3019D2E00302100491884
:103D34000130F300A22E7208013A0319972EA22E25
:103D440073080800F60076089D31A8259E312100ED
:103D54004C088600013087000114F4017608943180
:103D6400AB24080021003C0C0139F400F50174086F
:103D7400F6007508F7007708F301F3077608F201F7
:103D8400F2070800F3007308013A00300319013008
:103D9400F200230062087206FE397206E200E001B6
:103DA400E1010800F3007308013A003003190130FF
:103DB400F200F20DF20D230062087206FB3972065E
:103DC400E20008002200281C08000130A90229088A
:103DD400FF3A031908006430F2007208A900803128
:103DE40002200800F500F401751CFC2E7208F30093
:103DF4007308F4070310F20D0310F50CF508031D06
:103E0400F62E74080800F301F401F40A20000C1FD4
:103E14000C1A102F0C1C8C1B102FF4017408F200C8
:103E24007208F30073080800F301F401F40A200097
:103E34000C1F0C1A212F0C1C8C1B212FF40174084D
:103E4400F2007208F30073080800F3007308013AE3
:103E5400003003190130F200F20EF20DF20D2100D0
:103E640020087206BF397206A00008000730F2006D
:103E740072082100EB003830F2007208ED001830AF
:103E8400F2007208EE003830F2007208EC0008000C
:103E94009C31E6249F319031B2209F319D31F82529
:103EA4009F319D3127259F319D3174259F319D314F
:103EB4007E250800F401F501F50A9D3112259F3194
:103EC4000038031D692F2200A018692FF501750819
:103ED400F3007308F40074080800F4007408013A4D
:103EE400031D08007208013A003003190130F30081
:103EF400F30E210068087306EF397306E800080022
:103F0400F400912F7208013A003003190130F300D4
:103F1400210049087306FE397306C90008007408B5
:103F2400013A0319842F962F0800F4007408013A0B
:103F3400031D08007208013A003003190130F30030
:103F4400F30DF30DF30D210068087306F7397306BA
:103F5400E8000800F4007408013A031D0800720820
:103F6400013A003003190130F300F30EF30DF30DA1
:103F7400210068087306BF397306E80008000130A1
:103F84002100AC070030AD3D0C30A03E8600870117
:103F9400403FA83A031DD02F413F613A031D08005A
:103FA400AC01AD0121170800953125259F319231CF
:103FB400A8229F31913170219F319C31F2249F318D
:103FC4009C31EE249F319D31BE259F319C31F624D6
:103FD400080001302100BA070030BB3D0C30AE3E72
:103FE40086008701403FA83A031DFA2F413F613AFA
:0C3FF400031D0800BA01BB0139150800CC
:020000040001F9
:04000E00FCF9FDFFFD
:00000001FF
